:020000040000FA
:39000000FFFF62FF3600FFFFFFFFFFFFFFFFFFFFFFFFFFFFFFFFFFFFFFFFFFFFFFFFFFFFFFFFFFFFFFFFFFFFFFFFFFFFFFFFFFFFFFFFFFFFFFFFFFFFFF65
:39003900000C8001300006C00018000360000C8001300006000000000000000000000000000000003000B2C00098000364000C8001300006C0041880CD40
:390072000012400248000920012480049000124002480009000000000000000000000000000000004800152001748004B800124002480009A00324009F79
:3900AB000000000000000000000000000000000000000000000000000000000000000000000000000000000000000000000000000000000000000080F9A3
:3900E4000000000000000000000000000000000000000000000000000000000000000000000000000000000000000000000000000000000000000080F96A
:39011D000000000000000000000000000000000000000000000000000000000000000000000000000000000000400000080000000000000000020080B32C
:390156000000000000000000000000000000000000000000000000000000000000000100000000000000000040000000280000000000000082000000A4E1
:39018F002011848806D000000000000000201015C206D0080000000000000000000000000000000000100000000008000020003400001000025000808071
:3901C8000041200000000000000000000000000000000020000000000000000000000000000000000000000000000000000000000000000008000000A7CE
:39020100000130000000400000000000008081102000C000000000000000000000000000000000000000400000006000008001012000C00010080300C481
:39023A000045200A060400000000000000001080004002220000000000000000000000000000000000C0040000000042000004300200008480001002E8E4
:390273008004021226012800000000000080088100200184000000000000000000000000000000000000280000006014008011300200C0245800A300BFC0
:3902AC00E0002C8001F00000000000000060012C9007F0000000000000000000000000000000000000F00000000018000060400C0800300016C80000BA04
:3902E5000001001000C100000000000000800030000640400000000000000000000000000000000000C0000000006000008001000800C00008000380CD17
:39031E000021300116C0820000000000008020301116C4080000000000000000000000000000000000C0440000006010008045B00000C02018058300D3FD
:390357002000008000D000000000000000200804C21258000100000000000000000000000000008000000000400008000D2000048006100002400000E8EB
:3903900000000000000000000000000000008000000000000000000000000000000000000000000000000000000000000C0000000000000018000080E42C
:3903C9008001000006010000000000000080410020024080000000000000000000000000000000000600000000036000008481300800C1000010030080D6
:3904020088910000200004010000000000800180000008000000000000000000000000000000000020040000001002114C00080002460022000188A0B795
:39043B0000880000100024000000000000008880004002020100000000000000000000000000000006010000008360114C9001002016C208411023808E25
:39047400E001008007F40000000000000060000C9005B0000000000000000000000000000000008001000000C00078000360003D8001F00006C00381D757
:3904AD008481000006C2000000000000000001000006C0000000000000000000000000000000000006000000000300000C8801300000028000080012F622
:3904E6000004000046C0820000000000008051201116C2100000000000000000000000000000000016010000008B6080408049302146C00400001380DB13
:39051F002008A488401200000000000000A001149210180001000000000000000000000000000080401800004000080841280084A0001010024040C0EB8B
:390558000080200000000000000000000000000000000000000000000000000000000000000000000200000000000000000000200000000000000000DBCD
:390591008041100002C080000000000000800110000000800000000000000000000000000000000004C1200000036020008001000006C14018000181EF94
:3905CA008411102004080000000000000080490040000800000000000000000000000000000000000000040000A00001040400024040000218080A30FF8C
:390603000C04220120C02200000000000000108000400202010000000000000000000000000000000601000000232180208001300A10421800031010F28F
:39063C0060012C8801F40000000000000060402C900130000000000000000000000000000000008005F08000C00358000364003D8007B0001EC0838082A0
:390675008841101002C040000000000000008030200000000000000000000000000000000000000002C2000000002040008001200006420018040130D463
:3906AE008005100112C8080000000000008009B0001482100000000000000000000000000000000016C0240000036402808251300A46C02800000384F225
:3906E700A0012489001000000000000000A00116C2125824000000000000000000000000000000800000000040400800212020348000500203400080A89B
:39072000000020000000000000000000008001000000800000000000000000000000000000000000040400000000404004080000000000000000008090DB
:390759008041100006018000000000000080011020028000000000000000000000000000000000000000000000030100008880000806C02000000300F7E8
:390792000800101210000000000000000080018200004800010000000000000000000000000000000008000000080080000005B000404102582008A4A517
:3907CB000004222120012200000000000080058200404244000000000000000000000000000000001601000000216211200848300006488440041300FF2B
:39080400E0012C80073000000000000000E0012C900570000000000000000000000000000000008007000000C002780003E0010CA00730001EC08080ED92
:39083D008401100006004000000000000080013000068000000000000000000000000000000000000401000000814010008080300000C00018088310DE19
:390876000090102206C408000000000000808410111282840000000000000000000000000000000046000000002360040090018040164828180023008118
:3908AF00A08814C0001000000000000000A00004920050040000000000000000000000000000008024D0000040096C000121800480001000024011808BBD
:3908E80000000000000000000000000000804000000000400000000000000000000000000000000004020000000000000000000000000000000002029B32
:3909210080001000060040000000000000000100000042800000000000000000000000000000000000002000008300200C8200310806C14018100200BA8F
:39095A000400020406C8040000000000000009014026000200000000000000000000000000000000A6C0040000096002200004300240000440004290C7CE
:390993000C000222100808000000000000808080000000180000000000000000000000000000000026C200000011600C008249001046C4085900223081C5
:3909CC0060012C8007F020000000000000E0000C9007B1000000000000000000000000000000008001308000C000790003E0003C8007300006C80102F792
:390A05008801301006C0800000000000000001002006C040000000000000000000000000000000000600000000830000048441001000C00018000221AC79
:390A3E008085100240C4020000000000000041A0002648000000000000000000000000000000000040C82400002100844C8005300016C82498040200B1F0
:390A7700208804A20610000000000000002001348000500201000000000000000000000000000080000000004000080085228404800610001A401080CA79
:390AB00000000000000000000000000000004000080000000000000000000000000000000000000000000000000000000000000000000000000000029132
:390AE9000000001000020000000000000080003000064080000000000000000000000000000000000002000000000000008440000800000000100100D29B
:390B22000400020246000000000000000000080108460200000000000000000000000000000000002600000000006281000000800046010000004020972C
:390B5B000C008240160002010000000000008000120008840000000000000000000000000000000020000000001002020080498000160002800021808521
:390B940060000C8001340000000000000060013C8007B0000000000000000000000000000000008007010000C000781003E4010CA00131401EC4020283F4
:390BCD000800000000C1000000000000000000100006C000000000000000000000000000000000000604000000006020000401001000C00018040191A99A
:390C06000085200426C004010000000000804030124041040100000000000000000000000000000006000000000B6104208001320146C880980003809214
:390C3F00A088948884D000020000000000200106810258000100000000000000000000000000008026D0001A4220080041A40804800090020B4900009AF4
:390C78000000000004000000000000000080010010000000000000000000000000000000000000000402000000000200040001010000000000000000FAA6
:390CB1008000200002004000000000000000013000024080000000000000000000000000000000000600000008006000000081001000C02008000301E961
:390CEA00080002200201020000000000008001B20800080000000000000000000000000000000000A600004100080181008110300116880000201090C20C
:390D23000000020124000000080000000080058240100802010000000000000000000000000000002602000804106011209010800010440280202330AC1C
:390D5C0060011C8805F120060000000000E0002C8005B0000000000000000000000000000000008007F0201EC000190003E0803C8807F04016C000819920
:390D95008401001002C0401804000000000000300806C0000000000000000000000000000000000006C00008000062000000013000060000181003A08AB8
:390DCE008084200112C104180000000000008430021242100000000000000000000000000000000046C8829010226012401009320906418008019380E69D
:390E0700A0101489001018000000680000A001949020902200000000000000000000000000000080001000426000080885200034800010101A400A04AC6F
:390E40000040000000000000000000000080010000008200000000000000000000000000000000000000000000000000000200000000000018000080ADEF
:390E790080003000064000000000602000000010000640000000000000000000000000000000000000C22008000301200C8001000806C04000008380D3F5
:390EB20004442012460200010000000100000080100641240000000000000000000000000000000026C00450101000012C8201300240010200001220B7E0
:390EEB000C04022100C00400000000800080110042008804000000000000000000000000000000004000401808230100408011302010400418106180DADC
:390F240060011C8007F220000000780000E0412C8005B0200000000000000000000000000000008007F1000EC000184003E4810C8007B1401EC00380ACCD
:390F5D008800200006C400000000602000808130000640000000000000000000000000000000000006000018040320000C028000000640201810001191EF
:390F96008021302200C022000000000400800910111641140000000000000000000000000000000026C80019008360808C0010302146C80058000180CF27
:390FCF0000000000000000000000000000000000000000000000000000000000000000000000000000000000000000000000000000000000000000C0BD6C
:391008002000048000100002400008000120000480001000000000000000000000000000000000800010000240000800012000048000100002400080F9B2
:391041000000000000000000000000000000000000000000000000000000000000000000000000000000000000000000000000000000000000000080F9FD
:39107A0024000480001000024000080001200004800010000000000000000000000000000000008000100002400008000120000480001000024000B08E77
:3910B3000C00000000000000000000000000000000000000000000000000000000000000000000000000000000000000000000000000000000000010AC3C
:3910EC002000048000100002400008000120000480001000000000000000000000000000000000800010000240000800012000048000100002400080F9CE
:391125000800000000000000000000000000000000000000000000000000000000000000000000000000000000000000000000000000000000000030CA8F
:39115E002000048000100002400008000120000480001000000000000000000000000000000000800010000240000800012000048000100002400080F95B
:391197000000000000000000000000000000000000000000000000000000000000000000000000000000000000000800000000000000000000000000F91E
:3911D0000000000000000000000000000000004000000000000000000000000000000000000000000200010000400000120000000002001000000080AD12
:391209000000000000000000000000000000000000000000000000000000000000000000000000000000000000000000000000800000000000000000F13B
:391242000000000010000000000000000000000000000000000000000000000000000000000000800000000000000000000000000000000000000000E003
:39127B0000002000006000040000000000000010000100000000000000000000000000000000000001200008A0000080064000080000280000A00080E2E4
:3912B40000008000012002000000000000000400000000020000000000000000000000000000000000000000000800000040000800100000400000009622
:3912ED0000000000000000000000000000800000000000000000000000000000000000000000000002010000000000000000000000000000040000008BB6
:3913260000401000000100000000000000000000000000000000000000000000000000000000000000000010000000200000000000000000000080808786
:39135F0000000500000400000000000000400000000000000000000000000000000000000000000001020002000000400000000000000000040000828BB6
:391398000009600000000000000000000080020000000000000000000000000000000000000000003000100000000000000040000000000018007000CA5F
:3913D1000800000000000000000000000080000000000000000000000000000000000000000000000000000000000000000040000000000004000080FD9A
:39140A0080001000000000000000000000000000000000000000000000000000000000000000000000008000000000000000000000000000080080A0CBA6
:3914430000000000000000000000000000000000000000000000000000000000000000000000000000000000000000000000020000000000004000809915
:39147C000000000000000000000000000000000000000000000000000000000000000000000000000000000000020000008000000000800000000000FB3A
:3914B5000000080000000000000000000000000000000000000000000000000000000000000000000000000000000000000000000000000000000080F185
:3914EE000000000000000000000000000000000000000000000000000000000000000000000000000000000000000000200800000000008000000000D14C
:391527000000012000000000000000000000000100000480000000000000000000000000000000000000000000000000000900000000000000000080BE9E
:391560000000000000008000000000000000000000000000000000000000000000000000000000000000000000000000000000000000000000000080F161
:3915990000010000040000000000000000000120000480000000000000000000000000000000000000000000000000000000000000008000200000008C43
:3915D2009601100000400000000020000080012000044000000000000000000000000000000000000000000000000000040000000000000000200000D3FD
:39160B0020000640001800010000000000200000000010000000000000000000000000000000000000000000000000010010000000001000000000A0F145
:391644000000018008000000000000000000200920012400000000000000000000000000000000000000000200000000010000000000000004100080DF00
:39167D000000100000000000000000000080001008024000000000000000000000000000000000000241000802000000000200000000108004080000C29D
:3916B6008000000000410008000000000000400000000010000000000000000000000000000000000000001000000000008000000002000000040100D576
:3916EF0022000800001400020000000000400009100121800000000000000000000000000000000001220006080A400100240000800020600C580108B1C9
:3917280080068000E04018000000400000805680019A002A000000000000000000000000000000002001024804092000418024100084203040050900FB45
:391761008000000000400000000000000080400000020020000000000000000000000000000000000001001002012000008000100000001000040100EFE5
:39179A000000000000012000000020000000000000000100000000000000000000000000000000000000000000000000000080000002011000000000E958
:3917D3000000000000008000000000400000000000000000000000000000000000000000000000000000000000012040008000000000440000000180ABCC
:39180C000000000000050000000000000000000000000090000000000000000000000000000000000008C000800000800800000000000800100000029C88
:391845000000000000030000000020000000000000000000000000000000000000000000000000000404000000001000100020004402000244020C01FF65
:39187E000000000002000000000000000000000000001040000000000000000000000000000000000006000048000B60002000012000104000C00001A82C
:3918B70000000000000000000000000000000000000000000000000000000000000000000000000000000000000000000000000000000000000000A0DB7D
:3918F0000000000400000000000000000000000000000000000000000000000000000000000000000000000000002000000000000000000000000080BF5C
:391929000000000000001000000000000000000244000810010000000000000000000000000000000000000400020000200000000000000000008088A840
:3919620000000000000020000000000000000000000001000000000000000000000000000000000000002000040000000010000008000000000200008964
:39199B008000001800000000000000000000000000000000000000000000000000000000000000000000000000000500090000010000004003000004D94C
:3919D4000000080000000000000000000000800000000000000000000000000000000000000000001000000000000000000180000000000000000080E958
:391A0D000000000000000000000000000040000000000000000000000000000000000000000000000200000000000000000040000080000000000000DBC3
:391A460000000000000000000000000000000000000000000000000000000000000000000000000000000000000000000002000014000000000000809E33
:391A7F000000000000000000000000000000000000000000000000000000000000000000000000000000000000000000000000000000000000000080F9B5
:391AB8000000000000000000000000000000000000000000000000000000000000000000000000000000000000000000000000000000000000000080F97C
:391AF1000000000000000000000000000000000000000000000000000000000000000000000000000000000000000000000000000000000000000080F943
:391B2A000000000000000000000000000000000000000000000000000000000000000000000000000000000000000000000000000000000000000080F909
:391B63000000000000000000000000000000000000000000000000000000000000000000000000000000000000000000000000000000000000000080F9D0
:391B9C000000000000000000000000000000000000000000000000000000000000000000000000000000000000000000000000000000000000000080F997
:391BD5000000000000000000000000000000000000000000000000000000000000000000000000000000000000000000000000000000000000000080F95E
:391C0E000000000000000000000000000000000000000000000000000000000000000000000000000000000000000000000000000000000000000080F924
:391C47000000000000000000000000000000000000000000000000000000000000000000000000000000000000000000000000000000000000000080F9EB
:391C80000000000000000000000000000000000000000000000000000000000000000000000000000000000000000000000000000000000000000080F9B2
:391CB9000000000000000000000000000000000000000000000000000000000000000000000000000000000000000000000000000000000000000080F979
:391CF2000800000000000000000000000000000000000000000000000000000000000000000000000000000000000000000000000000000000000020DBB6
:391D2B000000000000000000000000000000000000000000000000000000000000000000000000000000000000000000000000000000000000000080F906
:391D64000000000000000000000000000000000000000000000000000000000000000000000000000000000000000000000000000000000000000080F9CD
:391D9D000400000000000000000000000000000000000000000000000000000000000000000000000000000000000000000000000000000000000090ACCD
:391DD6000000000000000000000000000000000000000000000000000000000000000000000000000000000000000000000000000000000000000080F95B
:391E0F000000000000000000000000000000000000000000000000000000000000000000000000000000001A00000000000000000000000000000000DAA6
:391E48000000000000000000000000000000000000000000000000000000000000000000000000000000000000000000000000000000000000000080F9E8
:391E81000000000000000000000000000000000000000000000000000000000000000000000000000000001800000000000000000000000000000000F818
:391EBA000400000000000000000000000000000000000000000000000000000000000000000000000000005820000000000000000000000000000020B89B
:391EF3000C00000000000000000000000000000000000000000000000000000000000000000000000000001810000000000000000000000000000080AD55
:391F2C000000000000000000000000000000000000000000000000000000000000000000000000000000001E000000000000000000000000000000009EC0
:391F65000800000000000000000000000000000000000000000000000000000000000000000000000000001808000000000000000000000000000010E12A
:391F9E000000000000000000000000000000000000000000000000000000000000000000000000000000001801000000000000000000000000000000E809
:391FD7000000000000000000000000000000000000000000000000000000000000000000000000000000000000000000000000000000000000000080F958
:392010000000000000000000000000000000000000000000000000000000000000000000000000000000000000000000000000000000000000000080F91E
:392049000000000000000000000000000000000000000000000000000000000000000000000000000000000000000000000000000000000000000080F9E5
:392082000800000000000000000000000000000000000000000000000000000000000000000000000000000000000000000000000000000000000010E825
:3920BB0000000000000000000000000000000000000000000000000000000000000000000000000000000000000000000000000000000000000000B0CA72
:3920F4000000000000000000000000000000000000000000000000000000000000000000000000000000000000000000000000000000000000000080F93A
:39212D0004000000000000000000000000000000000000000000000000000000000000000000000000000000000000000000000000000000000000A09F36
:392166000000000000000000000000000000000000000000000000000000000000000000000000000000000000000000000000000000000000000080F9C7
:39219F000000000000000000000000000000000000000000000000000000000000000000000000000000001A00000000000000000000000000000000DA13
:3921D8000000000000000000000000000000000000000000000000000000000000000000000000000000001800000000000000000000000000000000F8BE
:392211000000000000000000000000000000000000000000000000000000000000000000000000000000000000000000000000000000000000000080F91B
:39224A0008000000000000000000000000000000000000000000000000000000000000000000000000000058200000000000000000000000000000A0FC3F
:392283000000000000000000000000000000000000000000000000000000000000000000000000000000009808000000000000000000000000000080F80A
:3922BC000000000000000000000000000000000000000000000000000000000000000000000000000000001E000000000000000000000000000000009E2D
:3922F5000400000000000000000000000000000000000000000000000000000000000000000000000000001810000000000000000000000000000010BCB8
:39232E000000000000000000000000000000000000000000000000000000000000000000000000000000009800000000000000000000000000000000F0EE
:392367000000000000000000000000000000000000000000000000000000000000000000000000000000000200000000000000000000000000000080DBE0
:3923A0000000000000000000000000000000000000000000000000000000000000000000000000000000000000000000000000000000000000000080F98B
:3923D9000000000000000000000000000000000000000000000000000000000000000000000000000000000000000000000000000000000000000080F952
:392412000800000000000000000000000000000000000000000000000000000000000000000000000000004020000000000000000000000000000020FD0C
:39244B000000000000000000000000000000000000000000000000000000000000000000000000000000000010000000000000000000000000000080E8E0
:3924840000000000000000000000000000000000000000000000000000000000000000000000000000000006000000000000000000000000000000809FFA
:3924BD000400000000000000000000000000000000000000000000000000000000000000000000000000001808000000000000000000000000000090A58D
:3924F6000000000000000000000000000000000000000000000000000000000000000000000000000000000001000000000000000000000000000080E943
:39252F000000000000000000000000000000000000000000000000000000000000000000000000000000000200000000000000000000000000000080DB16
:392568000000000000000000000000000000000000000000000000000000000000000000000000000000000000000000000000000000000000000080F9C1
:3925A1000000000000000000000000000000000000000000000000000000000000000000000000000000000000000000000000000000000000000080F988
:3925DA0008000000000000000000000000000000000000000000000000000000000000000000000000000058200000000000000000000000000000A0FCAC
:392613000000000000000000000000000000000000000000000000000000000000000000000000000000000010000000000000000000000000000080E816
:39264C0000000000000000000000000000000000000000000000000000000000000000000000000000000006000000000000000000000000000000809F30
:392685000400000000000000000000000000000000000000000000000000000000000000000000000000000008000000000000000000000000000010A45C
:3926BE000000000000000000000000000000000000000000000000000000000000000000000000000000000001000000000000000000000000000080E979
:3926F7000000000000000000000000000000000000000000000000000000000000000000000000000000000200000000000000000000000000000080DB4D
:392730000000000000000000000000000000000000000000000000000000000000000000000000000000001800000000000000000000000000000000F860
:392769000000000000000000000000000000000000000000000000000000000000000000000000000000001800000000000000000000000000000000F827
:3927A20008000000000000000000000000000000000000000000000000000000000000000000000000000058200000000000000000000000000000A0FCE2
:3927DB000000000000000000000000000000000000000000000000000000000000000000000000000000009808000000000000000000000000000080F8AD
:392814000000000000000000000000000000000000000000000000000000000000000000000000000000001E000000000000000000000000000000009ECF
:39284D000400000000000000000000000000000000000000000000000000000000000000000000000000001810000000000000000000000000000010BC5A
:392886000000000000000000000000000000000000000000000000000000000000000000000000000000009800000000000000000000000000000000F091
:3928BF000000000000000000000000000000000000000000000000000000000000000000000000000000000000000000000000000000000000000080F967
:3928F8002000048000100002400008000120000480001000000000000000000000000000000000800010000240000800012000048000100002400080F9AA
:392931000000000000000000000000000000000000000000000000000000000000000000000000000000000000000000000000000000000000000080F9F4
:39296A0024000480001000024000080001200004800010000000000000000000000000000000008000100002400008000120000480001000024000A09F6D
:3929A3000C00000000000000000000000000000000000000000000000000000000000000000000000000000000000000000000000000000000000000BD32
:3929DC002000048000100002400008000120000480001000000000000000000000000000000000800010000240000800012000048000100002400080F9C5
:392A15000800000000000000000000000000000000000000000000000000000000000000000000000000000000000000000000000000000000000010E888
:392A4E002000048000100002400008000120000480001000000000000000000000000000000000800010000240000800012000048000100002400080F952
:392A87000000000000000000000000000000000000000000000000000000000000000000000000000000000000000000000000000000000000000080F99D
:392AC0000000000000000000000000000000000000000000000000000000000000000000000000000000000000000000000000000000000000000080F964
:392AF9000000000000000000000000000000000000000000000000000000000000000000000000000000000000000000000000000000000000000080F92B
:392B32000000000000000000000000000000000000000000000000000000000000000000000000000000000000000000000000000000000000000080F9F1
:392B6B000000000000000000000000000000000000000000000000000000000000000000000000000000000000000000000000000000000000000080F9B8
:392BA4000000000000000000000000000000000000000000000000000000000000000000000000000000000000000000000000000000000000000080F97F
:392BDD000000000000000000000000000000000000000000000000000000000000000000000000000000000000000000000000000000000000000080F946
:392C16000000000000000000000000000000000000000000000000000000000000000000000000000000000000000000000000000000000000000080F90C
:392C4F000000000000000000000000000000000000000000000000000000000000000000000000000000005000000000000000000000000000000080FC80
:392C88000000000000000000000000000000000000000000000000000000000000000000000000000000000000000000000000000000000000000080F99A
:392CC1000000000000000000000000000000000000000000000000000000000000000000000000000000000000000000000000000000000000000080F961
:392CFA000000000000000000000000000000000000000000000000000000000000000000000000000000000000000000000000000000000000000080F928
:392D33000000000000000000000000000000000000000000000000000000000000000000000000000000000000000000000000000000000000000080F9EE
:392D6C000000000000000000000000000000000000000000000000000000000000000000000000000000000000000000000000000000000000000080F9B5
:392DA5000000000000000000000000000000000000000000000000000000000000000000000000000000000000000000000000000000000000000080F97C
:392DDE000000000000000000000000000000000000000000000000000000000000000000000000000000000000000000000000000000000000000080F943
:392E17000000000000000000000000000000000000000000000000000000000000000000000000000000000000000000000000000000000000000080F909
:392E50000000000000000000000000000000000000000000000000000000000000000000000000000000000000000000000000000000000000000080F9D0
:392E89000000000000000000000000000000000000000000000000000000000000000000000000000000000000000000000000000000000000000080F997
:392EC2000000000000000000000000000000000000000000000000000000000000000000000000000000000000000000000000000000000000000080F95E
:392EFB000000000000000000000000000000000000000000000000000000000000000000000000000000000000000000000000000000000000000080F925
:392F34000000000000000000000000000000000000000000000000000000000000000000000000000000000800000000000000000000000000000000F963
:392F6D000000000000000000000000000000000000000000000000000000000000000000000000000000000000000000000000000000000000000080F9B2
:392FA6000000000000000000000000000000000000000000000000000000000000000000000000000000000000000000000000000000000000000080F979
:392FDF00080000000000000000000000000000000000000000000000000000000000000000000000000000D002000000000000000000000000000010C50A
:393018000000000000000000000000000000000000000000000000000000000000000000000000000000000410000000000000000000000000000080AC3F
:393051000000000000000000000000000000000000000000000000000000000000000000000000000000000000000000000000000000000000000080F9CD
:39308A000000000000000000000000000000000000000000000000000000000000000000000000000000000000000000000000000000000000000080F994
:3930C3000000000000000000000000000000000000000000000000000000000000000000000000000000000000000000000000000000000000000080F95B
:3930FC000000000000000000000000000000000000000000000000000000000000000000000000000000000000000000000000000000000000000080F922
:393135000000000000000000000000000000000000000000000000000000000000000000000000000000000000000000000000000000000000000080F9E8
:39316E000000000000000000000000000000000000000000000000000000000000000000000000000000000000000000000000000000000000000080F9AF
:3931A7000200000000000000000000000000000000000000000000000000000000000000000000000000000000000000000000000000000000000080DB92
:3931E0000000000000000000000000000000000000000000000000000000000000000000000000000000000000000000000000000000000000000080F93D
:393219000000000000000000000000000000000000000000000000000000000000000000000000000000000020000000000000000000000000000080DB01
:393252000000000000000000000000000000000000000000000000000000000000000000000000000000000000000000000000000000000000000080F9CA
:39328B000000000000000000000000000000000000000000000000000000000000000000000000000000000000000000000000000000000000000080F991
:3932C4000000000000000000000000000000000000000000000000000000000000000000000000000000000000000000000000000000000000000080F958
:3932FD000000000000000000000000000000000000000000000000000000000000000000000000000000004000000000000000000000000000000080FDDB
:393336000000000000000000000000000000000000000000000000000000000000000000000000000000000000000000000000000000000000000080F9E5
:39336F000000000000000000000000000000000000000000000000000000000000000000000000000000000000000000092400008000100803400300ED2D
:3933A8000000000000000000000000000000000000000000000000000000000000000000000000000000000000000000000000000000000000000080F973
:3933E1000000000000000000000000000000000000000000000000000000000000000000000000000000000000000000008001000006C00018000080D004
:39341A000000000000000000000000000000000000000000000000000000000000000000000000000000000000000000240208010020044200105300D0B1
:393453000000000000000000000000000000000000000000000000000000000000000000000000000000000000000000848441000016400259008B008833
:39348C0000000000000000000000000000000000000000000000000000000000000000000000000000000000000000000F6000008001B10006C40080FD1F
:3934C50000000000000000000000000000000000000000000000000000000000000000000000000000000000000000000C8001000006404018000000D0D3
:3934FE0000000000000000000000000000000000000000000000000000000000000000000000000000000000000000000882410000064108180423819229
:3935370000000000000000000000000000000000000000000000000000000000000000000000000000000000000000000120000080000000024000809266
:393570000000000000000000000000000000000000000000000000000000000000000000000000000000000000000000000000000000000000000282FBA3
:3935A90000000000000000000000000000000000000000000000000000000000000000000000000000000000000000000C800100000600001800000094AA
:3935E20008000000000000000000000000000000000000000000000000000000000000000000000000000000000000004C04440000400100801000A4C2DD
:39361B0000000000000000000000000000000000000000000000000000000000000000000000000000000000000000008082450000C6000018001300C07E
:3936540000000000000000000000000000000000000000000000000000000000000000000000000000000000000000000FE001008007000006C4830087F2
:39368D0004000000000000000000000000000000000000000000000000000000000000000000000000000000000000000C0200000000040018000210BD07
:3936C6000000000000000000000000000000000000000000000000000000000000000000000000000000000000000000208001020026000018058B80A634
:3936FF000000000000000000000000000000000000000000000000000000000000000000000000000000000000000000012020008000000002408A40DEE7
:393738000000000000000000000000000000000000000000000000000000000000000000000000000000000000000000000000000000000000000280DBFB
:393771000000000000000000000000000000000000000000000000000000000000000000000000000000000000000000008481000006020000000200E52B
:3937AA0008000000000000000000000000000000000000000000000000000000000000000000000000000000000000004C00100000200000181011B1BCBC
:3937E30000000000000000000000000000000000000000000000000000000000000000000000000000000000000000002080040000C60000400402148663
:39381C0000000000000000000000000000000000000000000000000000000000000000000000000000000000000000000F628100800100001EC00100FA27
:3938550004000000000000000000000000000000000000000000000000000000000000000000000000000000000000000C80400000060000180402318194
:39388E0000000000000000000000000000000000000000000000000000000000000000000000000000000000000000000C9011000026010018010980B7D4
:3938C70000000000000000000000000000000000000000000000000000000000000000000000000000000000000000000D20000080800000024000009EBB
:393900000000000000000000000000000000000000000000000000000000000000000000000000000000000000000000000001010000000000000080E824
:3939390000000000000000000000000000000000000000000000000000000000000000000000000000000000000000000080010000060200180000018A29
:39397200080000000000000000000000000000000000000000000000000000000000000000000000000000000000000020840102000000000011132086A3
:3939AB000000000000000000000000000000000000000000000000000000000000000000000000000000000000000000800284000042080058002000A07B
:3939E40000000000000000000000000000000000000000000000000000000000000000000000000000000000000000000F600000800500001EC48380A62B
:393A1D0004000000000000000000000000000000000000000000000000000000000000000000000000000000000000000C0041000002010000000390E6A3
:393A560000000000000000000000000000000000000000000000000000000000000000000000000000000000000000008C8805000016000018209300D766
:393A8F0000000000000000000000000000000000000000000000000000000000000000000000000000000000000000000D209100800014081B408BC0FD01
:393AC8000000000000000000000000000000000000000000000000000000000000000000000000000000000000000000000000000002000000000280FB46
:393B01000000000000000000000000000000000000000000000000000000000000000000000000000000000000000000000041000004000000040380DAE5
:393B3A0008000000000000000000000000000000000000000000000000000000000000000000000000000000000000000010100000200842180013B1EDF7
:393B730000000000000000000000000000000000000000000000000000000000000000000000000000000000000000002002040200C600025910039480A9
:393BAC0000000000000000000000000000000000000000000000000000000000000000000000000000000000000000000FE000008005300006C003008BE8
:393BE50004000000000000000000000000000000000000000000000000000000000000000000000000000000000000000C80000000020240000003B18F90
:393C1E0000000000000000000000000000000000000000000000000000000000000000000000000000000000000000008C8885000016800898020B80F41D
:393C57000000000000000000000000000000000000000000000000000000000000000000000000000000000000000000012081008000000002400000824E
:393C90000000000000000000000000000000000000000000000000000000000000000000000000000000000000000000000000000000000010100080F863
:393CC900000000000000000000000000000000000000000000000000000000000000000000000000000000000000000000844100000600000000008191E5
:393D020008000000000000000000000000000000000000000000000000000000000000000000000000000000000000004C00010000000200002013209747
:393D3B000000000000000000000000000000000000000000000000000000000000000000000000000000000000000000400285000016010058008080EE2B
:393D740000000000000000000000000000000000000000000000000000000000000000000000000000000000000000000F600000800700001EC403808E2D
:393DAD0004000000000000000000000000000000000000000000000000000000000000000000000000000000000000000C8401000000010010080390D7C5
:393DE60000000000000000000000000000000000000000000000000000000000000000000000000000000000000000008C0051000026000098004300D4F2
:393E1F00000000000000000000000000000000000000000000000000000000000000000000000000000000000000000001200000800000001A4000008BE4
:393E58000000000000000000000000000000000000000000000000000000000000000000000000000000000000000000000000000000000000000080F9B8
:393E91000000000000000000000000000000000000000000000000000000000000000000000000000000000000000000000480000006000000000300EE7D
:393ECA0008000000000000000000000000000000000000000000000000000000000000000000000000000000000000004C80090000200400000950A0AD18
:393F030000000000000000000000000000000000000000000000000000000000000000000000000000000000000000004000500000C6000000058880C55D
:393F3C0000000000000000000000000000000000000000000000000000000000000000000000000000000000000000000FE20100800100001EC00380D0A8
:393F750004000000000000000000000000000000000000000000000000000000000000000000000000000000000000000C8001000006010018000310F35D
:393FAE0000000000000000000000000000000000000000000000000000000000000000000000000000000000000000002C90850000460000181023818007
:393FE7000000000000000000000000000000000000000000000000000000000000000000000000800600000200000000012000008040020002400300AB46
:394020000000000000000000000000000000000000000000000000000000000000000000000000000000000000000000000400000000000000000080BD26
:3940590000000000000000000000000000000000000000000000000000000000000000000000000000040018080000000C80810000000200180400829BC2
:3940920008000000000000000000000000000000000000000000000000000000000000000000000016000080000000002002080000200000000008209C49
:3940CB000000000000000000000000000000000000000000000000000000000000000000000000001602001803000000808245000000000040108800E585
:3941040000000000000000000000000000000000000000000000000000000000000000000000008001000006000000000B600000800104001EC003009595
:39413D0004000000000000000000000000000000000000000000000000000000000000000000000006000018040000000482010000000400180003909B52
:3941760000000000000000000000000000000000000000000000000000000000000000000000000020080098000000002C8049000024000098022302EA8E
:3941AF0000000000000000000000000000000000000000000000000000000000000000000000000000000000000000000000000000000000000000C0BD5A
:3941E8002000048000100002400008000120000480001000000000000000000000000000000000800010000240000800012000048000100002400080F9A1
:394221000000000000000000000000000000000000000000000000000000000000000000000000000000000000000000000000000000000000000080F9EB
:39425A002800048000100002400008000120000480001000000000000000000000000000000000800010000240000800012000048000100002400030CAA5
:394293000000000000000000000000000000000000000000000000000000000000000000000000000000000000000000000000000000000000000090E87A
:3942CC002000048000100002400008000120000480001000000000000000000000000000000000800010000240000800012000048000100002400080F9BC
:3943050004000000000000000000000000000000000000000000000000000000000000000000000000000000000000000000000000000000000000B08E3D
:39433E002000048000100002400008000120000480001000000000000000000000000000000000800010000240000800012000048000100002400080F949
:394377000000000000000000000000000000000000000000000000000000000000000000000000000000000000000000000000000000000000000080F994
:3943B0000000000000000000000000000000000000000000000000000000000000000000000000000000000000000000000000000000000000000080F95B
:3943E9000000000000000000000000000000000000000000000000000000000000000000000000000000000000000000000000000000000000000080F922
:3944220000000000000000000000000000000000000000000000000000000000000000000000000000000000000000000000000000000000000000A0DBE6
:39445B000000000000000000000000000000000000000000000000000000000000000000000000000000000000000000000000000000000000000080F9AF
:394494000000000000000000000000000000000000000000000000000000000000000000000000000000000000000000000000000000000000000080F976
:3944CD000000000000000000000000000000000000000000000000000000000000000000000000000000001000000010000000000000010000000008E0AD
:394506000000000000000000000000000000000000000000000000000000000000000000000000000000000000000000000000000000000000000080F903
:39453F0000000000000000000000000000000000000000000000000000000000000000000000000000000004000000300000000000000200080000008481
:394578000000000000000000000000000000000000000000000000000000000000000000000000000000000000000002000000000020002824000500CEC9
:3945B1000000000000000000000000000000000000000000000000000000000000000000000000000000000000000000000000000000002000000180EA46
:3945EA000000000000000000000000000000000000000000000000000000000000000000000000000000000000000000000000000000000000000080F91F
:394623000000000000000000000000000000000000000000000000000000000000000000000000000000000000000000000000000000000000000080F9E5
:39465C000000000000000000000000000000000000000000000000000000000000000000000000000000000000000000000000000000000000000080F9AC
:394695000000000000000000000000000000000000000000000000000000000000000000000000000000000400000000024000008009000000880080AB6A
:3946CE000000000000000000000000000000000000000000000000000000000000000000000000000000000000000000000000000000000000000080F93A
:394707000000000000000000000000000000000000000000000000000000000000000000000000000000000000000000000000000000000000000080F900
:394740000000000000000000000000000000000000000000000000000000000000000000000000000000000000000000000000000000000000000080F9C7
:394779000000000000000000000000000000000000000000000000000000000000000000000000000000000000000000000000000000000010000080E88F
:3947B20000000000000000000000000000000000000000000000000000000000000000000000000000000000000000000C0001000000C00000000000AD54
:3947EB000000000000000000000000000000000000000000000000000000000000000000000000000000000200000000001000020000000001004280EED0
:394824000000000000000000000000000000000000000000000000000000000000000000000000000000000000000000000800000000048002000000D5F8
:39485D000000000000000000000000000000000000000000000000000000000000000000000000000000001002002000008000000000400000000280B0FE
:394896000000000000000000000000000000000000800000000000000000000000000000000000000000000000000000000000000002000000000000D196
:3948CF000000000000000000000000000000000000000400000000000000000000000000000000000000000408001000004000008000A01608840080B757
:39490800000000000000000000000000000000000000000000000000000000000000000000000000040000180400A0150080800200004022D00000888065
:394941000000000000000000000000000000000000000000000000000000000000000000000000000000001002002010008000000000801000000000CA21
:39497A000000000000000000000000000000000000000000000000000000000000000000000000000200000800000000000000000000000008000080D39F
:3949B3000000000000000000000000000000000000000000000000000000000000000000000000000000000000000000000000000000000004000080B98E
:3949EC000000000000000000000000000000000000000000000000000000000000000000000000000000000000000000020000000000000000400080BB15
:394A25000000000000000000000000000000000000000000000000000000000000000000000000000200000000000000008000000012000000040180F748
:394A5E00000000000000000000000000000000000000000000000000000000000000000000000000000000000000000010A080018001020000180003D080
:394A97000000000000000000000000000000000000000000000000000000000000000000000000000000000000000000000000000000000000000080F96D
:394AD0000000000000000000000000000000000000000000000000000000000000000000000000000000000000000000000000000000000000000080F934
:394B09000000000000000000000000000000000000000000000000000000000000000000000000000000000000000000000000000000000000000080F9FA
:394B42000000000000000000000000000000000000000000000000000000000000000000000000000000000000000000000000000000000000000008F141
:394B7B000000000000000000000000000000000000000000000000000000000000000000000000000004000000000000000200000000040000408082F7BE
:394BB4000000000000000000000000000000000000000000000000000000000000000000000000000000000000000000004000000000000000000080FD0B
:394BED000000000000000000000000000000000000000000000000000000000000000000000000008000000000000000000000000000000000020080F39A
:394C26000000000000000000000000000000000000000000000000000000000000000000000000000000000000000000000000000000000000000480BD14
:394C5F000000000000000000000000000000000000000000000000000000000000000000000000000000000000000002000000000000008200000080F325
:394C98000000000000000000000000000000000000000000000000000000000000000000000000000000000000001008000000000000800000000080F8D3
:394CD1000000000000000000000000000000000000000000000000000000000000000000000000000000000000000000000000000000000000000080F931
:394D0A000000000000000000000000000000000000000000000000000000000000000000000000000000000000000000000000000000000000000080F9F7
:394D4300001240024800092001248004900012400248001500000000000000000000000000000000480009200124800E900012400248801720012480E7F5
:394D7C00000C8001300006C00018000360000C800130007200000000000000000000000000000000300006C00018001360000C80013040B2C0001880D079
:024DB500FFFFFE
:00000001FF
