:020000040000FA
:39000000FFFF62FF3600FFFFFFFFFFFFFFFFFFFFFFFFFFFFFFFFFFFFFFFFFFFFFFFFFFFFFFFFFFFFFFFFFFFFFFFFFFFFFFFFFFFFFFFFFFFFFFFFFFFFFF65
:39003900000C800130D004C040136802600064810130000600000000000000000000000000000000300006C00018000360000C8001300006C0001800E612
:390072000012400248800A20012A400590002A4002480009000000000000000000000000000000004800092001248004900012400248000920012400D9E5
:3900AB000000000000000000000000000000000000000000000000000000000000000000000000000000000000000000000000000000000000000080F9A3
:3900E4000000000000000000000000000000000000000000000000000000000000000000000000000000000000000000000000000000000000000080F96A
:39011D000000000000000000000000000000000000000000000000000000000000000000000000000000000000000000000000000000000000000080F930
:390156000000000000000000000000000000000000000000000000000000000000000100000000000000000000000000000000000000000000000080E807
:39018F000000000000000000000000000000000000001000000000000000000000000000000000000000000000000000000000000000000000000080F8AF
:3901C8000000000000000000000000000000000000000000000000000000000000000000000000000000000000000000000000000000000000000080F985
:390201000000000000000000000000000000000000000040000000000000000000000000000000000000000000000000000000000000000000000080BD47
:39023A00000000000000000000000000000000000000C008000000000000000000000000000000000000000000000000000000000000000000000000FDC6
:390273000000000000000000000000000000000000000008010000000000000000000000000000000000000000000000000000000000000000000000F059
:3902AC000000000000000000000000000000000000003000000000000000000000000000000000000000000000000000000000000000000000000080FA6F
:3902E5000000000000000000000000000000000000000000000000000000000000000000000000000000000000000000000000000000000000000080F967
:39031E000000000000000000000000000000000000000048000000000000000000000000000000000000000000000000000000000000000000000000B5A9
:39035700000000000000000000000000000000000000D000000000000000000000000000000000000000000000000000000000000000000000000080F429
:390390000000000000000000000000000000000000000000000000000000000000000000000000000000000000000000000000000000000000000080F9BB
:3903C9000000000000000000000000000000000000000040000000000000000000000000000000000000000000000000000000000000000000000080BD7E
:3904020008000000000000000000000000000000000000080000000000000000000000000000000000000000000000000000000000000000000000A0D33E
:39043B000000000000000000000000000000000000000008010000000000000000000000000000000000000000000000000000000000000000000000F08F
:390474000000000000000000000000000000000000003000000000000000000000000000000000000000000000000000000000000000000000000080FAA5
:3904AD000400000000000000000000000000000000000000000000000000000000000000000000000000000000000000000000000000000000000090ACD6
:3904E6000000000000000000000000000000000000000048000000000000000000000000000000000000000000000000000000000000000000000000B5E0
:39051F000000000000000000000000000000000000001000000000000000000000000000000000000000000000000000000000000000000000000080F81B
:390558000000000000000000000000000000000000000000000000000000000000000000000000000000000000000000000000000000000000000080F9F1
:390591000000000000000000000000000000000000000000000000000000000000000000000000000000000000000000000000000000000000000080F9B8
:3905CA000400000000000000000000000000000000000000010000000000000000000000000000000000000000000000000000000000000000000090ADB6
:390603000C00000000000000000000000000000000000004000000000000000000000000000000000000000000000000000000000000000000000030CEB0
:39063C000000000000000000000000000000000000003040000000000000000000000000000000000000000000000000000000000000000000000080BED7
:39067500080000000000000000000000000000000000C0400000000000000000000000000000000000000000000000000000000000000000000000209391
:3906AE000000000000000000000000000000000000000008000000000000000000000000000000000000000000000000000000000000000000000000F11A
:3906E7000000000000000000000000000000000000001000000000000000000000000000000000000000000000000000000000000000000000000080F852
:390720000000000000000000000000000000000000000000000000000000000000000000000000000000000000000000000000000000000000000080F927
:390759000000000000000000000000000000000000000000000000000000000000000000000000000000000000000000000000000000000000000080F9EE
:390792000800000000000000000000000000000000000000010000000000000000000000000000000000000000000000000000000000000000000020DA2B
:3907CB000000000000000000000000000000000000000004000000000000000000000000000000000000000000000000000000000000000000000080B9B8
:390804000000000000000000000000000000000000003040000000000000000000000000000000000000000000000000000000000000000000000080BE0D
:39083D000400000000000000000000000000000000000040000000000000000000000000000000000000000000000000000000000000000000000090E8C6
:39087600000000000000000000000000000000000000C008000000000000000000000000000000000000000000000000000000000000000000000000FD84
:3908AF000000000000000000000000000000000000001000000000000000000000000000000000000000000000000000000000000000000000000080F888
:3908E800000000000000000000000000000000000000C000000000000000000000000000000000000000000000000000000000000000000000000080F5A2
:390921000000000000000000000000000000000000000000000000000000000000000000000000000000000000000000000000000000000000000080F924
:39095A000800000000000000000000000000000000000020000000000000000000000000000000000000000000000000000000000000000000000010CA62
:3909930000000000000000000000000000000000000000020000000000000000000000000000000000000000000000000000000000000000000000B0EA8F
:3909CC000000000000000000000000000000000000003020000000000000000000000000000000000000000000000000000000000000000000000080D84A
:390A050004000000000000000000000000000000000000000000000000000000000000000000000000000000000000000000000000000000000000A09F75
:390A3E0000000000000000000000000000000000000000240000000000000000000000000000000000000000000000000000000000000000000000809B40
:390A77000000000000000000000000000000000000000000000000000000000000000000000000000000000000000000000000000000000000000080F9CD
:390AB0000000000000000000000000000000000000000000000000000000000000000000000000000000000000000000000000000000000000000080F994
:390AE9000000000000000000000000000000000000000000000000000000000000000000000000000000000000000000000000000000000000000080F95B
:390B22000800000000000000000000000000000000000000000000000000000000000000000000000000000000000000000000000000000000000020DB97
:390B5B000000000000000000000000000000000000000000000000000000000000000000000000000000000000000000000000000000000000000080F9E8
:390B94000000000000000000000000000000000000000000000000000000000000000000000000000000000000000000000000000000000000000080F9AF
:390BCD000400000000000000000000000000000000000000000000000000000000000000000000000000000000000000000000000000000000000090ACAF
:390C06000000000000000000000000000000000000000000000000000000000000000000000000000000000000000000000000000000000000000080F93C
:390C3F000000000000000000000000000000000000001000000000000000000000000000000000000000000000000000000000000000000000000080F8F4
:390C7800000000000000000000000000000000000000C000000000000000000000000000000000000000000000000000000000000000000000000080F50E
:390CB1000000000000000000000000000000000000000000000000000000000000000000000000000000000000000000000000000000000000000080F991
:390CEA000800000000000000000000000000000000000000010000000000000000000000000000000000000000000000000000000000000000000020DACE
:390D23000000000000000000000000000000000000000004000000000000000000000000000000000000000000000000000000000000000000000080B95A
:390D5C000000000000000000000000000000000000003040000000000000000000000000000000000000000000000000000000000000000000000080BEB0
:390D95000400000000000000000000000000000000000040000000000000000000000000000000000000000000000000000000000000000000000090E869
:390DCE000000000000000000000000000000000000000008000000000000000000000000000000000000000000000000000000000000000000000000F1F3
:390E0700000000000000000000000000000000000000D000000000000000000000000000000000000000000000000000000000000000000000000080F46E
:390E40000000000000000000000000000000000000000000000000000000000000000000000000000000000000000000000000000000000000000080F900
:390E79000000000000000000000000000000000000000000000000000000000000000000000000000000000000000000000000000000000000000080F9C7
:390EB2000800000000000000000000000000000000000000010000000000000000000000000000000000000000000000000000000000000000000020DA04
:390EEB000000000000000000000000000000000000000004000000000000000000000000000000000000000000000000000000000000000000000080B991
:390F24000000000000000000000000000000000000003040000000000000000000000000000000000000000000000000000000000000000000000080BEE6
:390F5D000400000000000000000000000000000000000040000000000000000000000000000000000000000000000000000000000000000000000090E89F
:390F96000000000000000000000000000000000000000008000000000000000000000000000000000000000000000000000000000000000000000000F129
:390FCF000000000000000000000000000000000000000000000000000000000000000000000000000000000000000000000000000000000000000080F970
:391008002000048000100002400008000120000480001000000000000000000000000000000000800010000240000800012000048000100002400080F9B2
:391041000000000000000000000000000000000000000000000000000000000000000000000000000000000000000000000000000000000000000080F9FD
:39107A002800048000100002400008000120000480001000000000000000000000000000000000800010000240000800012000048000100002400020DBB6
:3910B3000000000000000000000000000000000000000000000000000000000000000000000000000000000000000000000000000000000000000080F98B
:3910EC002000048000100002400008000120000480001000000000000000000000000000000000800010000240000800012000048000100002400080F9CE
:391125000400000000000000000000000000000000000000000000000000000000000000000000000000000000000000000000000000000000000090AC51
:39115E002000048000100002400008000120000480001000000000000000000000000000000000800010000240000800012000048000100002400080F95B
:391197000000000000000000000000000000000000000000000000000000000000000000000000000000000000000000000000000000000000000080F9A6
:3911D0000000000000000000000000000000000000000000000000000000000000000000000000000000000000000000000000000000000000000080F96D
:391209000000000000000000000000000000000000000000000000000000000000000000000000000000000000000000000000000000000000000080F933
:391242000000000000000000000000000000000000000000000000000000000000000000000000000000000000000000000000000000000000000080F9FA
:39127B000000000000000000000000000000000000000000000000000000000000000000000000000000000000000000000000000000000000000080F9C1
:3912B4000000000000000000000000000000000000000000000000000000000000000000000000000000000000000000000000000000000000000080F988
:3912ED000000000000000000000000000000000000000000000000000000000000000000000000000000000000000000000000000000000000000080F94F
:391326000000000000000000000000000000000000000000000000000000000000000000000000000000000000000000000000000000000000000080F915
:39135F000000000000000000000000000000000000004100000000000000000000000000000000000000000000000000000000000000000000000080ECA8
:391398000000000000000000000000000000000000690A00000000000000000000000000000000000000000000000000000000000000000000000000B2F7
:3913D1000000000000000000000000000000000000000000000000000000000000000000000000000000000000000000000000000000000000000080F96A
:39140A000000000000000000000000000000000000000000000000000000000000000000000000000000000000000000000000000000000000000080F930
:391443000000000000000000000000000000000000000000000000000000000000000000000000000000000000000000000000000000000000000080F9F7
:39147C000000000000000000000000000000000000000000000000000000000000000000000000000000000000000000000000000000000000000080F9BE
:3914B5000000000000000000000000000000000000000000000000000000000000000000000000000000000000000000000000000000000000000080F985
:3914EE000000000000000000000000000000000000000000000000000000000000000000000000000000000000000000000000000000000000000080F94C
:391527000000000000000000000000000000000000000000000000000000000000000000000000000000000000000000000000000000000000000080F912
:391560000000000000000000000000000000000000000000000000000000000000000000000000000000000000000000000000000000000000000080F9D9
:391599000000000000000000000000000000000000000000000000000000000000000000000000000000000000000000000000000000000000000080F9A0
:3915D2000000000000000000000000000000000000000000000000000000000000000000000000000000000000000000000000000000000000000080F967
:39160B000000000000000000000000000000000000008000000000000000000000000000000000000000000000000000000000000000000000000080F1B5
:391644000000000000000000000000000000000000004000000000000000000000000000000000000000000000000000000000000000000000000080FDB0
:39167D000000000000000000000000000000000000000000000000000000000000000000000000000000000000000000000000000000000000000080F9BB
:3916B6000000000000000000000000000000000000000000000000000000000000000000000000000000000000000000000000000000000000000080F982
:3916EF0008000000000000000000000000000000000080160000000000000000000000000000000000000000000000000000000000000000000000A8AAD2
:391728000000000000000000000000000000000000001000000000000000000000000000000000000000000000000000000000000000000000000080F800
:391761000000000000000000000000000000000000000000000000000000000000000000000000000000000000000000000000000000000000000080F9D6
:39179A000000000000000000000000000000000000000000000000000000000000000000000000000000000000000000000000000000000000000080F99D
:3917D3000000000000000000000000000000000000000000000000000000000000000000000000000000000000000000000000000000000000000080F964
:39180C000000000000000000000000000000000000000080000000000000000000000000000000000000000000000000000000000000000000000000F92A
:391845000000000000000000000000000000000000000000000000000000000000000000000000000000000000000000000000000000000000000080F9F1
:39187E000000000000000000000000000000000000000000000000000000000000000000000000000000000000000000000000000000000000000080F9B8
:3918B7000000000000000000000000000000000000000000000000000000000000000000000000000000000000000000000000000000000000000080F97F
:3918F0000000000000000000000000000000000000000000000000000000000000000000000000000000000000000000000000000000000000000080F946
:391929000000000000000000000000000000000000000000000000000000000000000000000000000000000000000000000000000000000000000080F90C
:391962000000000000000000000000000000000000000000000000000000000000000000000000000000000000000000000000000000000000000080F9D3
:39199B000000000000000000000000000000000000000000000000000000000000000000000000000000000000000000000000000000000000000080F99A
:3919D4000000000000000000000000000000000000000000000000000000000000000000000000000000000000000000000000000000000000000080F961
:391A0D000000000000000000000000000000000000000000000000000000000000000000000000000000000000000000000000000000000000000080F927
:391A46000000000000000000000000000000000000000000000000000000000000000000000000000000000000000000000000000000000000000080F9EE
:391A7F00201004020090025A0000080000A0090000001000000000000000000000000000000000000000000000000000000000000000000000000080A922
:391AB8000040001000008018080000000000400000000000000000000000000000000000000000000000000000000000000000000000000000000000E5E0
:391AF1008001111000C0001800000000008041000000C000000000000000000000000000000000000000000000000000000000000000000000000000EDD4
:391B2A000010200200802400090060220000100000000082000000000000000000000000000000000000000000000000000000000000000000000080D936
:391B6300809080400040084820000000000030000000C000000000000000000000000000000000000000000000000000000000000000000000000080FC5D
:391B9C0060013C0000F0801E0000781000E0010000003020000000000000000000000000000000000000000000000000000000000000000000000080F3B9
:391BD500800010000000000008006000008000000000C000000000000000000000000000000000000000000000000000000000000000000000000000831C
:391C0E00804530110040201001006010008001020000C0400000000000000000000000000000000000000000000000000000000000000000000000008AA9
:391C4700200014000050021A0000082401B001000000900200000000000000000000000000000000000000000000000000000000000000000000000082D2
:391C80008001001000402000000000000000000000000080000000000000000000000000000000000000000000000000000000000000000000000000A218
:391CB900800111000080000000000000000000000000C000000000000000000000000000000000000000000000000000000000000000000000000000F42C
:391CF20008000004008002412000200820040002000080200000000000000000000000000000000000000000000000000000000000000000000000A0A19B
:391D2B0000000000004018800400200040005000000040040000000000000000000000000000000000000000000000000000000000000000000000808EA1
:391D6400E0012D200070001E0000781003E401000000F0200000000000000000000000000000000000000000000000000000000000000000000000009773
:391D9D008401300000800018000060000080010000000000000000000000000000000000000000000000000000000000000000000000000000000010F2DD
:391DD6000080904000808498020060140884290000004022000000000000000000000000000000000000000000000000000000000000000000000000A7B4
:391E0F00201036000050001B000008814920100000001002000000000000000000000000000000000000000000000000000000000000000000000080A293
:391E48000000301000000000000000000802800000000040000000000000000000000000000000000000000000000000000000000000000000000080A433
:391E810080813000004000000000202004808100000000400000000000000000000000000000000000000000000000000000000000000000000000009A98
:391EBA00080830040000428004004002040810000000000800000000000000000000000000000000000000000000000000000000000000000000002097C8
:391EF3008010300000000418030000002880040200000004000000000000000000000000000000000000000000000000000000000000000000000000EA3B
:391F2C0060813C2000B0401E000078100B68010000003040000000000000000000000000000000000000000000000000000000000000000000000080E065
:391F65008400300000C00000000020000488000000000000000000000000000000000000000000000000000000000000000000000000000000000010B261
:391F9E008051904000404018200060844480080100008002010000000000000000000000000000000000000000000000000000000000000000000080CF2E
:391FD700200524000010028A000028208120100000001000000000000000000000000000000000000000000000000000000000000000000000000000B52E
:3920100000003110000020000800000000048000000000000000000000000000000000000000000000000000000000000000000000000000000000008B1F
:39204900800120000000000808000010048081000000C0000000000000000000000000000000000000000000000000000000000000000000000000009048
:3920820008513004000002010100000448101000000000880000000000000000000000000000000000000000000000000000000000000000000000A0D030
:3920BB00804030000080180003004000408004020000C02400000000000000000000000000000000000000000000000000000000000000000000000087F0
:3920F400E0011C2000B00016000078100F6401000000F0000000000000000000000000000000000000000000000000000000000000000000000000008064
:39212D00040000000040001800006000048000000000C000000000000000000000000000000000000000000000000000000000000000000000000090DB0E
:3921660080908040004084582000600A0481090100000042000000000000000000000000000000000000000000000000000000000000000000000080D9A0
:39219F002004340000100803000028848920109408005004000000000000000000000000000000000000000000000000000000000000000000000000A29D
:3921D8000080000000000000000040000802800000000040000000000000000000000000000000000000000000000000000000000000000000000000D173
:392211008000300800C040180000400004048020000040400000000000000000000000000000000000000000000000000000000000000000000000809E3E
:39224A0008808000000004400800404204001030410000080000000000000000000000000000000000000000000000000000000000000000000000A0D682
:39228300003000000040001901002010880804320A000018000000000000000000000000000000000000000000000000000000000000000000000000A4DC
:3922BC0060013C2000B0001E040038000B60001C0000B000000000000000000000000000000000000000000000000000000000000000000000000000B437
:3922F500840130000040000000004040040000001000C000000000000000000000000000000000000000000000000000000000000000000000000090993E
:39232E008001014000C02418110020012402092102004002010000000000000000000000000000000000000000000000000000000000000000000080B8B9
:392367002000040200D00082000048004520003400001008010000000000000000000000000000000000000000000000000000000000000000000080D576
:3923A0000000001000C000000800404000020000000000000000000000000000000000000000000000000000000000000000000000000000000000009C0E
:3923D9000000101000000000080040400C8001000000C040000000000000000000000000000000000000000000000000000000000000000000000080E92D
:392412000800200200000000010040012808003204000004000000000000000000000000000000000000000000000000000000000000000000000020B6E5
:39244B000040804000C00201030020028080453021004042000000000000000000000000000000000000000000000000000000000000000000000000F464
:3924840060003C0000F000060000384007E8010C0000B000000000000000000000000000000000000000000000000000000000000000000000000000F772
:3924BD008401100000C00000000040400808000000004000000000000000000000000000000000000000000000000000000000000000000000000010E4CD
:3924F6008091101100C08450200040004C8011310500C024000000000000000000000000000000000000000000000000000000000000000000000080B858
:39252F003000340100D00002000048048120000400001008010000000000000000000000000000000000000000000000000000000000000000000000989A
:392568000041000800000018000000400002000000000000000000000000000000000000000000000000000000000000000000000000000000000080D443
:3925A1000000300000C0001800006010008401300000C040000000000000000000000000000000000000000000000000000000000000000000000000E4F0
:3925DA000C11810800C02280040040000000100104000004000000000000000000000000000000000000000000000000000000000000000000000020BE85
:392613008409020100000201030020448488110021004004000000000000000000000000000000000000000000000000000000000000000000000000CA48
:39264C00E0013C100030001E000078000760403C0000B080000000000000000000000000000000000000000000000000000000000000000000000080F1DE
:392685008C00000000000018000000000880013000004000000000000000000000000000000000000000000000000000000000000000000000000090BB34
:3926BE008029204000C0840020002044288221300500C020000000000000000000000000000000000000000000000000000000000000000000000080D3DF
:3926F700A0100480401000420000080081A0012440001000000000000000000000000000000000000000000000000000000000000000000000000080EFD7
:392730000080000000020000080000000802002000000000000000000000000000000000000000000000000000000000000000000000000000000080D16B
:392769000001300006040008000000000C80011000000000000000000000000000000000000000000000000000000000000000000000000000000000F166
:3927A2008885304040000000200000002802441004000000000000000000000000000000000000000000000000000000000000000000000000000020F48B
:3927DB008011000142020858040000440001302004000004000000000000000000000000000000000000000000000000000000000000000000000080B8B6
:39281400E0003D900530801E000018000BE0012C00003020000000000000000000000000000000000000000000000000000000000000000000000000F893
:39284D000400300002C2001800006000008401102000C000000000000000000000000000000000000000000000000000000000000000000000000010E776
:392886000021000816C02018050060440C0000120200C0220000000000000000000000000000000000000000000000000000000000000000000000808730
:3928BF000000000000000000000000000000000000000000000000000000000000000000000000000000000000000000000000000000000000000080F967
:3928F8002000048000100002400008000120000480001000000000000000000000000000000000800010000240000800012000048000100002400080F9AA
:392931000000000000000000000000000000000000000000000000000000000000000000000000000000000000000000000000000000000000000080F9F4
:39296A002800048000100002400008000120000480001000000000000000000000000000000000800010000240000800012000048000100002400020DBAD
:3929A3000000000000000000000000000000000000000000000000000000000000000000000000000000000000000000000000000000000000000080F982
:3929DC002000048000100002400008000120000480001000000000000000000000000000000000800010000240000800012000048000100002400080F9C5
:392A15000400000000000000000000000000000000000000000000000000000000000000000000000000000000000000000000000000000000000090AC48
:392A4E002000048000100002400008000120000480001000000000000000000000000000000000800010000240000800012000048000100002400080F952
:392A87000000000000000000000000000000000000000000000000000000000000000000000000000000000000000000000000000000000000000080F99D
:392AC0000000000000000000000000000000000000000000000000000000000000000000000000000000000000000000000000000000000000000080F964
:392AF9000002000000008100000000001008000000000000000000000000000000000000000000000000000000000000000000000000000000000000C940
:392B32000000000000000000000000002000000000000000000000000000000000000000000000000000000000000000000000000000000000000080FBCF
:392B6B000000000000000000000000000000000000000000000000000000000000000000000000000000000000000000000000000000000000000080F9B8
:392BA4000000000000000000000000000000000000000000000000000000000000000000000000000000000000000000000000000000000000000080F97F
:392BDD000000000000000008000000000000400000808000000000000000000000000000000000000000000000000000000000000000000000000080B146
:392C16000000000000000000000000000000000000000000000000000000000000000000000000000000000000000000000000000000000000000080F90C
:392C4F000028000000000054000040010000800000002200000000000000000000000000000000000000000000000000000000000000000000000080ABC2
:392C8800000800000A400000000120000000400000020100000000000000000000000000000000000000000000000000000000000000000000000080F9E4
:392CC1000000000002800000000240000000000100840000000000000000000000000000000000000000000000000000000000000000000000000080AA67
:392CFA000000000000000000000000000000000000000000000000000000000000000000000000000000000000000000000000000000000000000080F928
:392D33000000000000000000000000000000000000000000000000000000000000000000000000000000000000000000000000000000000000000080F9EE
:392D6C000000000000000000000000000000000000000000000000000000000000000000000000000000000000000000000000000000000000000080F9B5
:392DA5000000000000000000000008802000000000000000000000000000000000000000000000000000000000000000000000000000000000000080FBD2
:392DDE004004110001008000000018800000000000000080000000000000000000000000000000000000000000000000000000000000000000000000A529
:392E17000000000000000000000000000000000000000000000000000000000000000000000000000000000000000000000000000000000000000080F909
:392E50000000000000000000000000000000000000000000000000000000000000000000000000000000000000000000000000000000000000000080F9D0
:392E89000000200000800010000000000800000000008000000000000000000000000000000000000000000000000000000000000000000000000080C890
:392EC200000140000080001800000000088000000000C000000000000000000000000000000000000000000000000000000000000000000000000080B482
:392EFB004001044000200002200010000120000200003020010000000000000000000000000000000000000000000000000000000000000000000080EDE6
:392F34002000002000000002100000000020000100000000000000000000000000000000000000000000000000000000000000000000000000000080FA77
:392F6D0080000008020040000000001004004000000220400000000000000000000000000000000000000000000000000000000000000000000000008526
:392FA6000040000000000008000010000000000000000000000000000000000000000000000000000000000008000000000000000000000000000080AC66
:392FDF0040000110A100400200002820020085000001204000000000000000000000000000000000000000001000000000000000000000000000000098AD
:393018008826000AF34100188084401204010921005C4410000000000000000000000000000000000000000000000000000000000080000000000080DF67
:393051008000000801410004004000100400000000002000000000000000000000000000000000000000000000000000000000000000000000000000B252
:39308A00004000000002000800001000008200100002001000000000000000000000000000000000000000000000000000000000000002000000008096F7
:3930C3002000000000000000000000280000000000000000000000000000000000000000000000000000000000000000000000000000000000000080D339
:3930FC00004000000000600000000000000000100000002000000000000000000000000000000000000000000000000000000000000000000000008098B3
:393135000080000002000001000000100000000020000001000000000000000000000000000000000000000000000000000000000000000000000000EBC2
:39316E00008000100000000000000040030080000000000000000000000000000000000000000000000000000000000000000000000000000000008083D2
:3931A7000000000000100000000000000000000000000000000000000000000000000000000000000000000000000000000000000000000000000080E976
:3931E0000000000000000000000000000000000404000000000000000000000000000000000000000000000000000000000000000000000000000080FD31
:393219000000400000004000000000000000020400000000000000000000000000000000000000000000000000000000000000000000000000000080FB7B
:393252000000020000000000000000000000000000000000000000000000000000000000000000000000000000000000000000000000000000000080FBC6
:39328B000040000000000000040000000004400000004000000000000000000000000000000000000000000000000000000000000000000000000080BD05
:3932C4000020000080000000000080210002000000000000000000000000000000000000000000000000000000000000000000000000000000000080DA34
:3932FD000800000008000000000000000000000000000000000000000000000000000000000000000000000000000000000000000000000000000080F117
:393336000000000000000000000000000000000000000000000000000000000000000000000000000000000000000000000000000000000000000080F9E5
:39336F0020440480005400024003680041A00404810610080000000000000000000000000000008000D0005200000000890200340000D00000400380B40C
:3933A800000100200240800000000000080200111000002000000000000000000000000000000000000000000800000008000000000000000000008080AE
:3933E100000000000001000000800010000000000000C1800000000000000000000000000000000000002010000000000004000010000040000000009DC0
:39341A000005B110200040580820600228085180080600040000000000000000000000000000000016C20008040000000C000000010000000000A300FECC
:393453008001110120000480046360814C001100414644020000000000000000000000000000000010C0424804000000480800000900002400000B80959C
:39348C00E0012C880134401EC00318000FE4410C8001B040000000000000000000000000000000800731001E000000000B00003C0000F00000C08080D6B0
:3934C5008000300004804018000000100480010120004200000000000000000000000000000000000600201800000000000000302000C00000000002C931
:3934FE008021201100880818042362010C8108000216C0220000000000000000000000000000000006C10258040000002C0200300100C01000001380DD3E
:393537003010340000D0000A4808080000200004800010000000000000000000000000000000008002920202480300000D0000144200D00200400000F930
:39357000000001200000000000800000000000202000C00000000000000000000000000000000000000040000000000000000000000000800000008096AB
:3935A900800000000000000004030200000000000000C020000000000000000000000000000000000081000810000000000800100000C0000000008091FE
:3935E2008C4480080000405000206021008085A020160202000000000000000000000000000000002440221001000400000000002200002200000BA1E8D5
:39361B00840910080000285000010014000000B00000018200000000000000000000000000000000244020400880000000020000100000100000A080DBA8
:39365400E0413C0000F0001EC402790000E0413C8807F0000000000000000000000000000000008007F10016C00300000F00002C0000F00000C00300E791
:39368D000C01000000C0801810016000008001100006C0000000000000000000000000000000000006C20008000302000C0000300000400000000390E40F
:3936C6000085802000C0048800A3601100804530041601400000000000000000000000000000000042C02800111300000C0100102100C00001000B04C1D9
:3936FF00B001048206118802420B280201A0810480021208010000000000000000000000000000800050221248130000010000040200100000400000EEDC
:393738000000002004000010000001400000010000000000000000000000000000000000000000000000000000800000000000001000008000000000FAD8
:393771000040000006400008040000000C0080300000C480000000000000000000000000000000000640400000830000000200101000000000008300F7E8
:3937AA000C08001046811440002341140C00048020440000000000000000000000000000000000001004048002080000200000200100008800002010A8F8
:3937E3008409800042080498040A44022C900130092440820000000000000000000000000000000006004450041000000000000000000002010008B2AF70
:39381C00E0810C900530200EC00278200FE0410C8007B1000000000000000000000000000000008001B1000EC00301000308003C1000300000C00380ABCC
:393855000C000008024000101001610000000131000642000000000000000000000000000000000006000010040100000000001000000040000003A0AB2F
:39388E00802910024644429800212081200408300A12C00201000000000000000000000000000000A6408000010304000C1000100400800800002382F723
:3938C700200884800650201A40200C002120003480801024000000000000000000000000000000801092400242200000011000340400D00000400300AE27
:3939000000000120000000000000000000020000000400000000000000000000000000000000000004000010000001000000000000000000000000808A48
:393939000000200006412000080302200C8801000002C180000000000000000000000000000000000202000800010100040000000000C02000000380FC58
:39397200880811044600080001000000800004310510000400000000000000000000000000000000400014802012000088040030080000000000A020E3ED
:3939AB008090B01040001840041101800480093012064102000000000000000000000000000000001680209820400000400400100100000000000880B191
:3939E400E0012C8001B2001EC00218000B64400C8003B040000000000000000000000000000000800371000EC00300000F00001C1000F08000C00082C9C9
:393A1D008401300000404018048100400482010010044240000000000000000000000000000000000481201000010000040000200000C00000000390BD57
:393A56008089300926C40498000360028C8005320116C0080000000000000000000000000000000016000858204300002410002020000000010053808C3B
:393A8F00300004800610004A400B0800813000A4800010000000000000000000000000000000008010D20012600A0000010000040000100000400380A15B
:393AC800000000000000000010030100000000001000C00000000000000000000000000000000000040000100082000000000000000000000000000098B3
:393B01000000002000000000000360100C8801200806C1400000000000000000000000000000000002022000000100000C0000300000C00000008300CAC6
:393B3A008C058100800000102020010200805190000000000000000000000000000000000000000000C00218111102000C0000802000004800002090F179
:393B730004900000060002100009048124100091004004000100000000000000000000000000000006C40858200A04000C1000300000C00000000830A891
:393BAC00E0010C900732401EC40378000BE0013C8807F0000000000000000000000000000000008003304006C00200000F00000C0800F02000C00002B77F
:393BE5008C01000000C2001804006110048241300806C2000000000000000000000000000000000004C0401808010000000800300000008000000320F311
:393C1E008041301226C00049002260012C00043000160084000000000000000000000000000000000608084000110400000000301100C00400000384D8EF
:393C57002000148A0610000240200800092200148100D000000000000000000000000000000000800010000240206800810000041000D00000400380EAFA
:393C90000000000006000000008200000000000020000000000000000000000000000000000000000000000000000100000400100000000000000080D4EA
:393CC9008001010000C0001800006000088201101006C040000000000000000000000000000000000600201800006110040000000000000000008000E53F
:393D02008811004200C01440100A020A200004010006C000000000000000000000000000000000000600024010100001880400204000C02000002320D23E
:393D3B000080002026000298000301242090450020160800010000000000000000000000000000004608181800400001201000000600C00001000B02C907
:393D7400E0010C8007F24006C40378000760002C800730000000000000000000000000000000008007F00006C40018400F00001C0000300000C000809A13
:393DAD008441001006C0001800016200048081100006000000000000000000000000000000000000060200180800604004040000000000000000009090BC
:393DE60080010001A6002818091360082C8411004126C8840000000000000000000000000000000006008218014260008C0000201100C028000023828334
:393E1F003040348012110042600008000120082481061000000000000000000000000000000000800212001A602008008100003400001004004000809343
:393E58000000300000000000000000000000400020008020000000000000000000000000000000000000001000000100000400000000008000000080DD0F
:393E91000000300006C00000088360000C804100100601000000000000000000000000000000000000C4001800016010000000000000400000000300D7CC
:393ECA000C288020160184000010004100100480000080820000000000000000000000000000000014C0001811020401800400804000804800000812FE41
:393F03000405801000C8080010A36004800800A10010C004000000000000000000000000000000002401025820600020201000300000000201002330B87B
:393F3C0060813C8001F02006C00318100360011C8801F480000000000000000000000000000000800730801EC00378000300003C1000F00000C08000958C
:393F75008C00000000040000040060000C88002008064000000000000000000000000000000000000600201808016020000400001000404000000320EDB2
:393FAE008090300404C08250000362128C8009020106C210000000000000000000000000000000000208005800516004880000300100400800009380A9C5
:393FE700B00134820010001A4009080001A0013480001004000000000000000000000000000000802014000240006800010000340000100000400000E68C
:394020000000200800000018000001000000000000008020000000000000000000000000000000000000000000000000000000000000000000000080FA0C
:394059008001100806000018000161200C888100100600000000000000000000000000000000000000C00000100300100C0000300000C000000003809DCB
:394092008C09A2000600004008200002808001300010848200000000000000000000000000000000000882000120620140100080080000280000A0A0B801
:3940CB00041012122600040002106010208001324046C0000000000000000000000000000000000020C00840082360208C000000010000000100080082D4
:3941040060002C800732401EC002790003E8010C8001F1400000000000000000000000000000008001322006C08318000F02003C1000F00000C08300BB7B
:39413D000C00100000C000000803000000880131200640000000000000000000000000000000000000C0000000000020000000302000C00000000392FBC2
:3941760080812022A0C0409800096441008009000126C1100000000000000000000000000000000044C42418110B62042C0800800000C0200000138080F9
:3941AF0010000000000000000000000000000000000000000000000000000000000000000000000000000000000000000000000000000000000000C0BC4B
:3941E8002000048000100002400008000120000480001000000000000000000000000000000000800010000240000800012000048000100002400080F9A1
:394221000000000000000000000000000000000000000000000000000000000000000000000000000000000000000000000000000000000000000080F9EB
:39425A002C000480001000024000080001200004800010000000000000000000000000000000008000100002400008000120000480001000024000308EDD
:394293000400000000000000000000000000000000000000000000000000000000000000000000000000000000000000000000000000000000000090ACB2
:3942CC002000048000100002400008000120000480001000000000000000000000000000000000800010000240000800012000048000100002400080F9BC
:394305000C000000000000000000000000000000000000000000000000000000000000000000000000000000000000000000000000000000000000308EB5
:39433E002000048000100002400008000120000480001000000000000000000000000000000000800010000240000800012000048000100002400080F949
:3943770000000000080001000000000000800010000800800000000000000000000000000000000002000000000400000000004000000000000000008F17
:3943B0000002000000000002000000000000000000000000000000000000000000000000000000000010000200000000000000000000000000000080CA74
:3943E9000000000410000000000000000800002000000000000000000000000000000000000000000000000000000000000000001000000000000000AFA0
:394422001200000000000000000000000000000000000000000000000000000000000000000000000000000000000000000000000000000000000080DAF5
:39445B0000020000000100000000000000000000000000010000000000000000000000000000000000000000008004001000000008000020000000809652
:394494004000080010000200000000000000000000000000000000000000000000000000000000000000000000000001200000000000000000000080F6FE
:3944CD000000000000012000040020100000000000008000000000000000000000000000000000000000000000000010000000000000000000000080D57C
:394506000020000002000010000040000000400000808000000000000000000000000000000000000000000000000000000000000000000000000000EEDC
:39453F0000000180000240020800182000000001000034000000000000000000000000000000000000000000000000200000000000000000000000009356
:394578004802500010800080000240030000785000820000000000000000000000000000000000000000181000000002048002000000000000000080930E
:3945B1000000100000000000000000000000401000040000000000000000000000000000000000000000000000000000048000000000000000000080A0C9
:3945EA000000000000800000000240000000000100800000000000000000000000000000000000000000200800000000000000000000000000000000AE7F
:394623000000000000000000000000000000000000000000000000000000000000000000000000000000000000000000000000000000000000000080F9E5
:39465C000000004000000000000000000000000000000000000000000000000000000000000000000000000000000000000000000000002000000080FF46
:3946950000004080000000000000000000000000000000000000000000000000000000000000000000000000000002000000000000000000000000809317
:3946CE000080000000000000000002000008000080000080000000000000000000000000000000000000000000000000000100000000000000000080C0E8
:39470700004000000000000400004010004000000801000000000000000000000000000000000000012000040000000000000000400000000000000097A0
:394740000001400000000010000440001000012000048000000000000000000000000000000000000480001000000000000000000000000000000200D18F
:394779000000000001A00010000210000000000000000000000000000000000000000000000000000000000080020000000000280000000000000080C951
:3947B2000000000000C00008000300000880000000000000000000000000000000000000000000000000000000000000040000000000400000000080CEE9
:3947EB0000011000041000404080040100100482000000000000000000000000000000000000000000000000400010000810000400008000010000008B5D
:3948240000000000000000000000000000000000000000000000000000000000000000000000008002400000000020000008000020000080000000809FB2
:39485D000200000000000000040008100400410000024040000000000000000000000000000000000200000800012000000000000000010000000080A0F1
:394896000000000082000008000020000000001000002100000000000000000000000000000000000000000000000010000040100000000008000000ACFA
:3948CF0000280080000420020800382002408004000134400000000000000000000000000000000001000004840010400000000500000200020000289BA2
:3949080008030000560A181402C1B000000040800ADA811200000000000000000000000000000000028100880201200208003810006C0A0040050188F67B
:394941000000000004000000008220000000200008020100000000000000000000000000000000000201000800012000000000100000000000040180BEED
:39497A00800000000100200804400000000000000080201000000000000000000000000000000000004000000400000004004000000200000000008094C9
:3949B30020000400000402000008000001000004000210100000000000000000000000000000000004100008000800000108008004001000000000809E93
:3949EC000000010008048000000800002000000000004002000000000000000000000000000000000000000040000300000000400000100000000082DDA9
:394A25000000080000000000800001000000000000000000010000000000000000000000000000008041410004000000000000000000008000008884F547
:394A5E000000000000000004100018000040000C10000000000000000000000000000000000000000104000000000000000000000000000000000080F022
:394A97000004800000000000000000000000000000000420000000000000000000000000000000001000000010000000000000000000000000000020E519
:394AD0000000000000000000000000000000000004002000000000000000000000000000000000000000000000000000000000000000000000000080BB4E
:394B090004000000000000000000000000000000000000000000000000000000000000000000000000000000000000000000000000000002000000809F4E
:394B42002840008800126000048000100002400048000160000000000000000000000000000000000001200024800010000600041800204000408000A0A2
:394B7B000000010800000000000008000000000800000002000000000000000000000000000000000000000000000000000000000000000000000000D016
:394BB4000020001000000000004000000001000000100001000000000000000000000000000000000000000800000000020000000000000000000000CC70
:394BED004080201000000000200000C00000000120000800000000000000000000000000000000000000000020000000000000000000000000004000A195
:394C26000000200000000000000000000000000000800000000000000000000000000000000000008000000002000000000000000000000000000088F1BA
:394C5F00000A010000000000000000000000000000000000000000000000000000000000000000000000000000000000000000000000000000000000D041
:394C98000021000000000000000000000000000000000000000000000000000000000000000000000000000000000000000000000000000000000080CB77
:394CD1000000000000000000000000000000000000000000000000000000000000000000000000000000000000000000000000000000000000000080F931
:394D0A000000000000000000000000000000000000000000000000000000000000000000000000000000000000000000000000000000000000000080F9F7
:394D4300003F4002540009200154800490001240024800150000000000000000000000000000000048000920012480049000124002480009200124008407
:394D7C00804C8081260006C000C8020360000C80013000B200000000000000000000000000000000300006C00018000360000C8001300006C0001800920B
:024DB500FFFFFE
:00000001FF
