:020000040000FA
:39000000FFFF62FF3600FFFFFFFFFFFFFFFFFFFFFFFFFFFFFFFFFFFFFFFFFFFFFFFFFFFFFFFFFFFFFFFFFFFFFFFFFFFFFFFFFFFFFFFFFFFFFFFFFFFFFF65
:39003900000C8001304006C80019200360024C800930000600000000000000000000000000000000300006C00018000364000C8001300006C0041880EA9C
:390072000012400248800B70012EC005D0013A4007480009000000000000000000000000000000004800092001248004B800124002480009A0032400A742
:3900AB000000000000000000000000000000000000000000000000000000000000000000000000000000000000000000000000000000000000000080F9A3
:3900E4000000000000000000000000000000000000000000000000000000000000000000000000000000000000000000000000000000000000000080F96A
:39011D000000000000804010000240000101600404000000000000000000000000000000000000000000000000000000080000000000000000020000ED36
:390156000000000000000250000A000900000800000000000000000000000000000001000000000000000000000000002200000000000000000000009E42
:39018F002000008006000002000000004DA00594400000000000000000000000000000000000000000000000000028040000000000000000000000008E0F
:3901C8000000000006000000000000000C04410000000000000000000000000000000000000000000000000000000010000000000000000000000000CDCA
:390201000040000000020000100000000C80010010000000000000000000000000000000000000000000000000002020000000000000000000000080DB3A
:39023A008009000020000000010000002C102900020000000000000000000000000000000000000000000000000040010000000000000000000000808039
:3902730000000200260000000200000044804900020000000000000000000000000000000000000000000000000000800000000000000000000000809287
:3902AC006000008007010006000000000FE8010C200000000000000000000000000000000000000000000000000018000000000000000000000000009956
:3902E5000000000000000018040000000C84000000000000000000000000000000000000000000000000000000000000000000000000000000000000E054
:39031E000000010026040080000000008C80810012000000000000000000000000000000000000000000000000000022000000000000000000000080C8F2
:39035700200800800000001A000000000DA0083601000000000000000000000000000000000000000000000000006800000000000000000000000000CE89
:390390008080000006000000000000000C00013010000000000000000000000000000000000000000000000000006000000000000000000000000080C041
:3903C9000000000006000000000000000C80003010000000000000000000000000000000000000000000000000006000000000000000000000000080C980
:390402000804020006080000090000004C022120020000000000000000000000000000000000000000000000000060000000000000000000000000A09D6E
:39043B000010020006040098000000004C00043202000000000000000000000000000000000000000000000000006002000000000000000000000000F4FA
:39047400600000800700001E040000000F62003C20000000000000000000000000000000000000000000000000007840000000000000000000000080ED54
:3904AD000480000006010018080000000C00403000000000000000000000000000000000000000000000000000000010000000000000000000000010CA05
:3904E600001000004600009800000000400405B040000000000000000000000000000000000000000000000000000001000000000000000000000080CB6A
:39051F00B0850080060200420800080005A1010400000000000000000000000000000000000000000000000000000802000000000000000000000080AEB1
:390558000001000006000000000000000080013000000000000000000000000000000000000000000000000000000020000000000000000000000000A9E9
:390591008081000004000018000000000002003010000000000000000000000000000000000000000000000000000020000000000000000000000080A88A
:3905CA008C010000120400902000000080000030020000000000000000000000000000000000000000000000000000040000000000000000000000B0F946
:3906030084090000460000000100008400108030020000000000000000000000000000000000000000000000000000020000000000000000000000108F03
:39063C00E041008007010006040018000360003C20000000000000000000000000000000000000000000000000001840000000000000000000000000D2D1
:390675008C41000004000018000060000008003000000000000000000000000000000000000000000000000000000000000000000000000000000030E6B5
:3906AE00800900002604009804006042800090B040000000000000000000000000000000000000000000000000004081000000000000000000000000DD84
:3906E7002010008014000082000068004D20000401000000000000000000000000000000000000000000000000006800000000000000000000000080DCF6
:390720000040000002040000080060000C84010010000000000000000000000000000000000000000000000000006000000000000000000000000080E58C
:390759000000000006000000080060000C04000000000000000000000000000000000000000000000000000000006010000000000000000000000000E495
:390792000885000006080000010060008C801182400000000000000000000000000000000000000000000000000060000000000000000000000000A0B1A2
:3907CB008001020004040080000000004C80010001000000000000000000000000000000000000000000000000006080000000000000000000000080F0CC
:39080400E001008007000006100018400F68400C200000000000000000000000000000000000000000000000000078000000000000000000000000008EFC
:39083D008401000006010008000060000480011010000000000000000000000000000000000000000000000000000000000000000000000000000090EE6B
:390876008021000046000040200060822C9011010200000000000000000000000000000000000000000000000000600A000000000000000000000080B6B0
:3908AF00B0010080060000020000680001200034010000000000000000000000000000000000000000000000000008000000000000000000000000C0E46D
:3908E80000000000060000000000000000800130100000000000000000000000000000000000000000000000000000100000000000000000000000009B65
:390921008001000006000018080060000C00003010000000000000000000000000000000000000000000000000006010000000000000000000000080B7A3
:39095A000C280000060200400000608220840132020000000000000000000000000000000000000000000000000040010000000000000000000000B0B884
:39099300040000001008008000006081808089300100000000000000000000000000000000000000000000000000000400000000000000000000009080E0
:3909CC006080008007000006040078000FE8013C20000000000000000000000000000000000000000000000000001840000000000000000000000000A4B9
:390A05000C00000006000018000060200080013100000000000000000000000000000000000000000000000000002000000000000000000000000030A06C
:390A3E0080490000A6000098040060018C0410A04000000000000000000000000000000000000000000000000000400A000000000000000000000080EBDE
:390A7700B00100800602001A0000000085200004010000000000000000000000000000000000000000000000000068000000000000000000000000809CC5
:390AB0000000000006000018000000000002000010000000000000000000000000000000000000000000000000000000000000000000000000000000B12C
:390AE9008001000004000000000000000400000000000000000000000000000000000000000000000000000000000000000000000000000000000080E5E6
:390B22008C010200120400000000000040088080400000000000000000000000000000000000000000000000000000240000000000000000000000209A8F
:390B5B008405000046000018010000000084110201000000000000000000000000000000000000000000000000000081000000000000000000000000AAB6
:390B9400E08100800701001E040000000B60000C20000000000000000000000000000000000000000000000000001800000000000000000000000000D19D
:390BCD008C01000004000018040000000002002010000000000000000000000000000000000000000000000000000020000000000000000000000090F868
:390C06008021000026040098000000008C002800020000000000000000000000000000000000000000000000000000040000000000000000000000009800
:390C3F00A0010080000200020000080001204004010000000000000000000000000000000000000000000000000068000000000000000000000000C0A41D
:390C78000000000000000000000000000000000010000000000000000000000000000000000000000000000000000000000000000000000000000080E8CB
:390CB1000000000004000018080000000C00001010000000000000000000000000000000000000000000000000000010000000000000000000000080ED3D
:390CEA0008000200160400400000000A8004100202000000000000000000000000000000000000000000000000000001000000000000000000000030B9E1
:390D23000004000040000080000000008000040202000000000000000000000000000000000000000000000000000002000000000000000000000010C277
:390D5C006080008001010006040018400368010C20000000000000000000000000000000000000000000000000007840000000000000000000000000A2A8
:390D95000400000006000018000000000C000000000000000000000000000000000000000000000000000000000000000000000000000000000000B0B394
:390DCE000020000026040098040060228C820982400000000000000000000000000000000000000000000000000060400000000000000000000000808DFE
:390E0700300000800002009A000000000D20003401000000000000000000000000000000000000000000000000000821000000000000000000000080DB80
:390E40000000000000000018080000000000002010000000000000000000000000000000000000000000000000002000000000000000000000000000F910
:390E79008001000002000018080000000C8001300000000000000000000000000000000000000000000000000000600000000000000000000000000090F0
:390EB2008C0100001004000801000000809001B040000000000000000000000000000000000000000000000000006022000000000000000000000020C8F2
:390EEB0084090100200100180100000040802130020000000000000000000000000000000000000000000000000000800000000000000000000000809162
:390F2400E00100800100001E1000000003E2013C2000000000000000000000000000000000000000000000000000180000000000000000000000008086A4
:390F5D008C01000000000018000000000080013010000000000000000000000000000000000000000000000000006010000000000000000000000010A9CC
:390F96008009010020020058200000002C82813002000000000000000000000000000000000000000000000000006000000000000000000000000000FF3E
:390FCF001000000000000000000000000000000000000000000000000000000000000000000000000000000000000000000000000000000000000080F861
:391008002000048000100002400008000120000480001000000000000000000000000000000000800010000240000800012000048000100002400080F9B2
:391041000000000000000000000000000000000000000000000000000000000000000000000000000000000000000000000000000000000000000080F9FD
:39107A002C000480001000024000080001200004800010000000000000000000000000000000008000100002400008000120000480001000024000308EEF
:3910B3000400000000000000000000000000000000000000000000000000000000000000000000000000000000000000000000000000000000000090ACC4
:3910EC002000048000100002400008000120000480001000000000000000000000000000000000800010000240000800012000048000100002400080F9CE
:391125000C000000000000000000000000000000000000000000000000000000000000000000000000000000000000000000000000000000000000308EC7
:39115E002000048000100002400008000120000480001000000000000000000000000000000000800010000240000800012000048000100002400080F95B
:391197000000000000000000000000000000000000000000000000000000000000000000000000000000000000000000000000000000000000000080F9A6
:3911D0000000000000000000000000000000000000000000000000000000000000000000000000000000000000000000000000000000000000000080F96D
:391209000000000011000000000000000000000000000000000000000000000000000000000000000000000000000000000000000000000000000080F823
:391242000000000000010000000088001000000000000000000000000000000000000000000000000000000000000000000000000000000000000080F169
:39127B0002000000000000000000000000004000000000000000000000000000000000000000000000000000000000000000000000000000000000809BDD
:3912B4000000000008000000000000000000000000000000000000000000000000000000000000000000000000000000000000000000000000000000F108
:3912ED008000000000000000000000100080400000000000000000000000000000000000000000000000000000000000000000000000000000000088A947
:391326000800000000000000000000000000000000000000000000000000000000000000000000000000000000002000000000000000000000000020D96D
:39135F00400000000000000000000020284080A000000000000000000000000000000000000000000000000000000800280000000000000000000000B18C
:39139800800000000040490100A0C002A0018CA208000000000000000000000000000000000000000000000000000000200000000000000000000080E653
:3913D1008000000000400000008000000000000008000000000000000000000000000000000000000000000000000000000000000000000000000000B1EA
:39140A000A00000000000000000020000002001000000000000000000000000000000000000000000000000000000000000000000000000000000088D015
:391443008000000000000008000020000000000000000000000000000000000000000000000000000000000000002000000000000000000000000000D9CF
:39147C000000000000000000000000000000000000000000000000000000000000000000000000000000000000000000000000000000000000000080F9BE
:3914B5000000000008000004000000000044020000000000000000000000000000000000000000000000000000000000000000000000000000000000B7F5
:3914EE000000000000000000000000000080000000000000000000000000000000000000000000000000000000000000000000000000000000000000F94C
:391527000000000000000000000000800000000000000000000000000000000000000000000000000000000000000000000000000000000000000000F11A
:391560000080000000000000000000000000000000000000000000000000000000000000000000000000000000000000000000000000000000000000F9D9
:391599000001000000000010000000000800012000000000000000000000000000000000000000000000000000004000000000000000000000000000FFA0
:3915D2008001000000000008000000000400001000000000000000000000000000000000000000000000000000002000000000000000000000000000AE75
:39160B0020000200000000002000000000100000400000000000000000000000000000000000000000000000000000800000000000000000000000008C08
:391644000000010000000000000000000000000000000000000000000000000000000000000000000000000000000000000000000000000000000080F8F4
:39167D001400000000000000000020000000401008000000000000000000000000000000000000000000000000000000000000000000000000000000D7D1
:3916B6008000000000000000000000100080001000000000000000000000000000000000000000000000000000002000000000000000000000000000E2D9
:3916EF002000000002001400000010400020800C1000000000000000000000000000000000000000000000000000080A0000000000000000000000809856
:3917280006214800040004024264A04580025B0001000000000000000000000000000000000000000000000000004000000000000000000000000000C1A5
:391761000000000000000000000020000002400000000000000000000000000000000000000000000000000000000000000000000000000000000080BBB2
:39179A0080400000020000000480000000800000000000000000000000000000000000000000000000000000000020000000000000000000000000009B95
:3917D3000000000000000000000000000220000000000000000000000000000000000000000000000000000000000000000000000000000000000080F942
:39180C000000000000020002000000200004000000000000000000000000000000000000000000000000000000000800000000000000000000000000BBB8
:391845000000000000080000000000000000000200000000000000000000000000000000000000000000000000000000000000000000000000000080D30D
:39187E000002008000040000000000400020000100000000000000000000000000000000000000000000000000000000000000000000000000000080A624
:3918B7000000000000000000100000400000000100000000000000000000000000000000000000000000000000000000000000000000000000000080B86F
:3918F0000000000000000000000000000000000000000000000000000000000000000000000000000000000000008000000000000000000000000080F1CE
:3919290000000000000000000C0000000002000018000000000000000000000000000000000000000000000000000030000000000000000000000000FF30
:391962000200000000000000000000000000000000000000000000000000000000000000000000000000000000000000000000000000000000000008D36F
:39199B000080000000000000000000000000000000000000000000000000000000000000000000000000000000000000000000000000000000000020DB98
:3919D4006000000000000000000000000810000200000000000000000000000000000000000000000000000000000000000000000000000000000000CC94
:391A0D000000010000000000000000000008000000000000000000000000000000000000000000000000000000000040000000000000000000000000B4A3
:391A46000020000000000000020000000101200000000000000000000000000000000000000000000000000000000000000000000000000000000080F8AB
:391A7F000000000000000000000000000000000000000000000000000000000000000000000000000000000000000000000000000000000000000080F9B5
:391AB8000000000000000000000000000000000000000000000000000000000000000000000000000000000000000000000000000000000000000080F97C
:391AF1000000000000000000000000000000000000000000000000000000000000000000000000000000000000000000000000000000000000000080F943
:391B2A000000000000000000000000000000000000000000000000000000000000000000000000000000000000000000000000000000000000000080F909
:391B63000000000000000000000000000000000000000000000000000000000000000000000000000000000000000000000000000000000000000080F9D0
:391B9C000000000000000000000000000000000000000000000000000000000000000000000000000000000000000000000000000000000000000080F997
:391BD5000000000000000000000000000000000000000000000000000000000000000000000000000000000000000000000000000000000000000080F95E
:391C0E000000000000000000000000000000000000000000000000000000000000000000000000000000000000000000000000000000000000000080F924
:391C47000000000000000000000000000000000000000000000000000000000000000000000000000000000000000000000000000000000000000080F9EB
:391C80000000000000000000000000000000000000000000000000000000000000000000000000000000000000000000000000000000000000000080F9B2
:391CB9000000000000000000000000000000000000000000000000000000000000000000000000000000000000000000000000000000000000000080F979
:391CF2000800000000000000000000000000000000000000000000000000000000000000000000000000000000000000000000000000000000000020DBB6
:391D2B000000000000000000000000000000000000000000000000000000000000000000000000000000000000000000000000000000000000000080F906
:391D64000000000000000000000000000000000000000000000000000000000000000000000000000000000000000000000000000000000000000080F9CD
:391D9D000400000000000000000000000000000000000000000000000000000000000000000000000000000000000000000000000000000000000090ACCD
:391DD6000000000000000000000000000000000000000000000000000000000000000000000000000000000000000000000000000000000000000080F95B
:391E0F001000000000000000000000000000000000000000000000000000000000000000000000000000000000000000000000000000000000000080F812
:391E48000000000000000000000000000000000000000000000000000000000000000000000000000000000000000000000000000000000000000080F9E8
:391E81000000000000000000000000000000000000000000000000000000000000000000000000000000000000000000000000000000000000000080F9AF
:391EBA000C000000000000000000000000000000000000000000000000000000000000000000000000000000000000000000000000000000000000209F24
:391EF3000400000000000000000000000000000000000000000000000000000000000000000000000000000000000000000000000000000000000080BD75
:391F2C000000000000000000000000000000000000000000000000000000000000000000000000000000000000000000000000000000000000000080F903
:391F65000C00000000000000000000000000000000000000000000000000000000000000000000000000000000000000000000000000000000000010AC7B
:391F9E000000000000000000000000000000000000000000000000000000000000000000000000000000000000000000000000000000000000000080F991
:391FD7000000000000000000000000000000000000000000000000000000000000000000000000000000000000000000000000000000000000000080F958
:392010000000000000000000000000000000000000000000000000000000000000000000000000000000000000000000000000000000000000000080F91E
:392049000000000000000000000000000000000000000000000000000000000000000000000000000000000000000000000000000000000000000080F9E5
:392082000800000000000000000000000000000000000000000000000000000000000000000000000000000000000000000000000000000000000020DB22
:3920BB000000000000000000000000000000000000000000000000000000000000000000000000000000000000000000000000000000000000000080F973
:3920F4000000000000000000000000000000000000000000000000000000000000000000000000000000000000000000000000000000000000000080F93A
:39212D000400000000000000000000000000000000000000000000000000000000000000000000000000000000000000000000000000000000000090AC39
:392166000000000000000000000000000000000000000000000000000000000000000000000000000000000000000000000000000000000000000080F9C7
:39219F000000000000000000000000000000000000000000000000000000000000000000000000000000000000000000000000000000000000000080F98E
:3921D8000000000000000000000000000000000000000000000000000000000000000000000000000000000000000000000000000000000000000080F955
:392211000000000000000000000000000000000000000000000000000000000000000000000000000000000000000000000000000000000000000080F91B
:39224A000800000000000000000000000000000000000000000000000000000000000000000000000000000000000000000000000000000000000020DB58
:392283000000000000000000000000000000000000000000000000000000000000000000000000000000000000000000000000000000000000000080F9A9
:3922BC000000000000000000000000000000000000000000000000000000000000000000000000000000000000000000000000000000000000000080F970
:3922F5000400000000000000000000000000000000000000000000000000000000000000000000000000000000000000000000000000000000000090AC70
:39232E000000000000000000000000000000000000000000000000000000000000000000000000000000000000000000000000000000000000000080F9FD
:392367000000000000000000000000000000000000000000000000000000000000000000000000000000000000000000000000000000000000000080F9C4
:3923A0000000000000000000000000000000000000000000000000000000000000000000000000000000000000000000000000000000000000000080F98B
:3923D9000000000000000000000000000000000000000000000000000000000000000000000000000000000000000000000000000000000000000080F952
:392412000800000000000000000000000000000000000000000000000000000000000000000000000000000000000000000000000000000000000020DB8E
:39244B000000000000000000000000000000000000000000000000000000000000000000000000000000000000000000000000000000000000000080F9DF
:392484000000000000000000000000000000000000000000000000000000000000000000000000000000000000000000000000000000000000000080F9A6
:3924BD000400000000000000000000000000000000000000000000000000000000000000000000000000000000000000000000000000000000000090ACA6
:3924F6000000000000000000000000000000000000000000000000000000000000000000000000000000000000000000000000000000000000000080F934
:39252F000000000000000000000000000000000000000000000000000000000000000000000000000000000000000000000000000000000000000080F9FA
:392568000000000000000000000000000000000000000000000000000000000000000000000000000000000000000000000000000000000000000080F9C1
:3925A1000000000000000000000000000000000000000000000000000000000000000000000000000000000000000000000000000000000000000080F988
:3925DA000C000000000000000000000000000000000000000000000000000000000000000000000000000000000000000000000000000000000000209FFD
:392613000400000000000000000000000000000000000000000000000000000000000000000000000000000000000000000000000000000000000080BD4D
:39264C000000000000000000000000000000000000000000000000000000000000000000000000000000000000000000000000000000000000000080F9DC
:392685000C00000000000000000000000000000000000000000000000000000000000000000000000000000000000000000000000000000000000010AC54
:3926BE000000000000000000000000000000000000000000000000000000000000000000000000000000000000000000000000000000000000000080F96A
:3926F7000000000000000000000000000000000000000000000000000000000000000000000000000000000000000000000000000000000000000080F931
:392730000000000000000000000000000000000000000000000000000000000000000000000000000000000000000000000000000000000000000080F9F7
:392769000000000000000000000000000000000000000000000000000000000000000000000000000000000000000000000000000000000000000080F9BE
:3927A2000800000000000000000000000000000000000000000000000000000000000000000000000000000000000000000000000000000000000020DBFB
:3927DB000000000000000000000000000000000000000000000000000000000000000000000000000000000000000000000000000000000000000080F94C
:392814000000000000000000000000000000000000000000000000000000000000000000000000000000000000000000000000000000000000000080F912
:39284D000400000000000000000000000000000000000000000000000000000000000000000000000000000000000000000000000000000000000090AC12
:392886000000000000000000000000000000000000000000000000000000000000000000000000000000000000000000000000000000000000000080F9A0
:3928BF000000000000000000000000000000000000000000000000000000000000000000000000000000000000000000000000000000000000000080F967
:3928F8002000048000100002400008000120000480001000000000000000000000000000000000800010000240000800012000048000100002400080F9AA
:392931000000000000000000000000000000000000000000000000000000000000000000000000000000000000000000000000000000000000000080F9F4
:39296A002800048000100002400008000120000480001000000000000000000000000000000000800010000240000800012000048000100002400020DBAD
:3929A3000000000000000000000000000000000000000000000000000000000000000000000000000000000000000000000000000000000000000080F982
:3929DC002000048000100002400008000120000480001000000000000000000000000000000000800010000240000800012000048000100002400080F9C5
:392A15000400000000000000000000000000000000000000000000000000000000000000000000000000000000000000000000000000000000000090AC48
:392A4E002000048000100002400008000120000480001000000000000000000000000000000000800010000240000800012000048000100002400080F952
:392A87000000000000000000000000000000000000000000000000000000000000000000000000000000000000000000000000000000000000000080F99D
:392AC0000000000000000000000000000000000000000000000000000000000000000000000000000000000000000000000000000000000000000080F964
:392AF9000000000000000000000000000000000000000000000000000000000000000000000000000000000000000000000000000000000000000080F92B
:392B32000800000000000000000000000000000000000000000000000000000000000000000000000000000000000000000000000000000000000000F969
:392B6B000000000000000000000000000000000000000000000000000000000000000000000000000000000000000000000000000000000000000080F9B8
:392BA4000000000000000000000000000000000000000000000000000000000000000000000000000000000000000000000000000000000000000080F97F
:392BDD000000000000000000000000000000000000000000000000000000000000000000000000000000000000000000000000000000000000000080F946
:392C16000000000000000000000000000000000000000000000000000000000000000000000000000000000000000000000000000000000000000080F90C
:392C4F000000000000000000000000000000000000000000000000000000000000000000000000000000000000000000000000000000000000000080F9D3
:392C88000000000000002000000000000000000000000000000000000000000000000000000000000000000000000000000000000000000000000080FB78
:392CC1000000000000001000000000000000000000000000000000000000000000000000000000000000000000000000000000000000000000000080F852
:392CFA000000000000000000000000000000000000000000000000000000000000000000000000000000000000000000000000000000000000000080F928
:392D33000000000000000000000000000000000000000000000000000000000000000000000000000000000000000000000000000000000000000080F9EE
:392D6C000000000000000000000000000000000000000000000000000000000000000000000000000000000000000000000000000000000000000080F9B5
:392DA5000000000000000000000000000000000000000000000000000000000000000000000000000000000000000000000000000000000000000080F97C
:392DDE000000000000000000000000000000000000000000000000000000000000000000000000000000000000000000000000000000000000000080F943
:392E17000000000000000000000000000000000000000000000000000000000000000000000000000000000000000000000000000000000000000080F909
:392E50000000000000000000000000000000000000000000000000000000000000000000000000000000000000000000000000000000000000000080F9D0
:392E89000000000000000000000000000000000000000000000000000000000000000000000000000000000000000000000000000000000000000080F997
:392EC2000000000000000000000000000000000000000000000000000000000000000000000000000000000000000000000000000000000000000080F95E
:392EFB000000000000000000000000000000000000000000000000000000000000000000000000000000000000000000000000000000000000000080F925
:392F34000000000000000000000000000000000000000000000000000000000000000000000000000000000000000000000000000000000000000080F9EB
:392F6D000000000000000000000000000000000000000000000000000000000000000000000000000000000000000000000000000000000000000080F9B2
:392FA6000000000000000000000000000000000000000000000000000000000000000000000000000000000000000000000000000000000000000080F979
:392FDF000000000000000000000000000000000000000000000000000000000000000000000000000000000000000000000000000000000000000080F940
:393018000000000000000000000000000000000000000000000000000000000000000000000000000000000000000000000000000000000000000080F906
:393051000000000000000000000000000000000000000000000000000000000000000000000000000000000000000000000000000000000000000080F9CD
:39308A000000000000000000000000000000000000000000000000000000000000000000000000000000000000000000000000000000000000000080F994
:3930C3000000000000000000000000000000000000000000000000000000000000000000000000000000000000000000000000000000000000000080F95B
:3930FC000000000000000000000000000000000000000000000000000000000000000000000000000000000000000000000000000000000000000080F922
:393135000000000000000000000000000000000000000000000000000000000000000000000000000000000000000000000000000000000000000080F9E8
:39316E000000000000000000000000000000000000000000000000000000000000000000000000000000000000000000000000000000000000000080F9AF
:3931A7000000000000000000000000000000000000000000000000000000000000000000000000000000000000000000000000000000000000000080F976
:3931E0000000000000000000000000000000000000000000000000000000000000000000000000000000000000000000000000000000000000000080F93D
:393219000000000000000000000000000000000000000000000000000000000000000000000000000000000000000000000000000000000000000080F903
:393252000000000000000000000000000000000000000000000000000000000000000000000000000000000000000000000000000000000000000080F9CA
:39328B000000000000000000000000000000000000000000000000000000000000000000000000000000000000000000000000000000000000000080F991
:3932C4000000000000000000000000000000000000000000000000000000000000000000000000000000000000000000000000000000000000000080F958
:3932FD000000000000000000000000000000000000000000000000000000000000000000000000000000000000000000000000000000000000000080F91F
:393336000000000000000000000000000000000000000000000000000000000000000000000000000000000000000000000000000000000000000080F9E5
:39336F000000000000000000000000000000000000000000000000000000000000000000000000000000000000000000000000000000000000000080F9AC
:3933A8000000000000000000000000000000000000000000000000000000000000000000000000000000000000000000000000000000000000000080F973
:3933E1000000000000000000000000000000000000000000000000000000000000000000000000000000000000000000000000000000000000000080F93A
:39341A000000000000000000000000000000000000000000000000000000000000000000000000000000000000000000000000000000000000000080F900
:393453000000000000000000000000000000000000000000000000000000000000000000000000000000000000000000000000000000000000000080F9C7
:39348C000000000000000000000000000000000000000000000000000000000000000000000000000000000000000000000000000000000000000080F98E
:3934C5000000000000000000000000000000000000000000000000000000000000000000000000000000000000000000000000000000000000000080F955
:3934FE000000000000000000000000000000000000000000000000000000000000000000000000000000000000000000000000000000000000000080F91C
:393537000000000000000000000000000000000000000000000000000000000000000000000000000000000000000000000000000000000000000080F9E2
:393570000000000000000000000000000000000000000000000000000000000000000000000000000000000000000000000000000000000000000080F9A9
:3935A9000000000000000000000000000000000000000000000000000000000000000000000000000000000000000000000000000000000000000080F970
:3935E2000800000000000000000000000000000000000000000000000000000000000000000000000000000000000000000000000000000000000020DBAD
:39361B000000000000000000000000000000000000000000000000000000000000000000000000000000000000000000000000000000000000000080F9FD
:393654000000000000000000000000000000000000000000000000000000000000000000000000000000000000000000000000000000000000000080F9C4
:39368D000400000000000000000000000000000000000000000000000000000000000000000000000000000000000000000000000000000000000090ACC4
:3936C6000000000000000000000000000000000000000000000000000000000000000000000000000000000000000000000000000000000000000080F952
:3936FF000000000000000000000000000000000000000000000000000000000000000000000000000000000000000000000000000000000000000080F919
:393738000000000000000000000000000000000000000000000000000000000000000000000000000000000000000000000000000000000000000080F9DF
:393771000000000000000000000000000000000000000000000000000000000000000000000000000000000000000000000000000000000000000080F9A6
:3937AA000C000000000000000000000000000000000000000000000000000000000000000000000000000000000000000000000000000000000000209F1B
:3937E3000400000000000000000000000000000000000000000000000000000000000000000000000000000000000000000000000000000000000080BD6C
:39381C000000000000000000000000000000000000000000000000000000000000000000000000000000000000000000000000000000000000000080F9FA
:393855000C00000000000000000000000000000000000000000000000000000000000000000000000000000000000000000000000000000000000010AC72
:39388E000000000000000000000000000000000000000000000000000000000000000000000000000000000000000000000000000000000000000080F988
:3938C7000000000000000000000000000000000000000000000000000000000000000000000000000000000000000000000000000000000000000080F94F
:393900000000000000000000000000000000000000000000000000000000000000000000000000000000000000000000000000000000000000000080F915
:393939000000000000000000000000000000000000000000000000000000000000000000000000000000000000000000000000000000000000000080F9DC
:393972000800000000000000000000000000000000000000000000000000000000000000000000000000000000000000000000000000000000000020DB19
:3939AB000000000000000000000000000000000000000000000000000000000000000000000000000000000000000000000000000000000000000080F96A
:3939E4000000000000000000000000000000000000000000000000000000000000000000000000000000000000000000000000000000000000000080F931
:393A1D000400000000000000000000000000000000000000000000000000000000000000000000000000000000000000000000000000000000000090AC30
:393A56000000000000000000000000000000000000000000000000000000000000000000000000000000000000000000000000000000000000000080F9BE
:393A8F000000000000000000000000000000000000000000000000000000000000000000000000000000000000000000000000000000000000000080F985
:393AC8000000000000000000000000000000000000000000000000000000000000000000000000000000000000000000000000000000000000000080F94C
:393B01000000000000000000000000000000000000000000000000000000000000000000000000000000000000000000000000000000000000000080F912
:393B3A000800000000000000000000000000000000000000000000000000000000000000000000000000000000000000000000000000000000000020DB4F
:393B73000000000000000000000000000000000000000000000000000000000000000000000000000000000000000000000000000000000000000080F9A0
:393BAC000000000000000000000000000000000000000000000000000000000000000000000000000000000000000000000000000000000000000080F967
:393BE5000400000000000000000000000000000000000000000000000000000000000000000000000000000000000000000000000000000000000090AC67
:393C1E000000000000000000000000000000000000000000000000000000000000000000000000000000000000000000000000000000000000000080F9F4
:393C57000000000000000000000000000000000000000000000000000000000000000000000000000000000000000000000000000000000000000080F9BB
:393C90000000000000000000000000000000000000000000000000000000000000000000000000000000000000000000000000000000000000000080F982
:393CC9000000000000000000000000000000000000000000000000000000000000000000000000000000000000000000000000000000000000000080F949
:393D02000800000000000000000000000000000000000000000000000000000000000000000000000000000000000000000000000000000000000020DB85
:393D3B000000000000000000000000000000000000000000000000000000000000000000000000000000000000000000000000000000000000000080F9D6
:393D74000000000000000000000000000000000000000000000000000000000000000000000000000000000000000000000000000000000000000080F99D
:393DAD000400000000000000000000000000000000000000000000000000000000000000000000000000000000000000000000000000000000000090AC9D
:393DE6000000000000000000000000000000000000000000000000000000000000000000000000000000000000000000000000000000000000000080F92B
:393E1F000000000000000000000000000000000000000000000000000000000000000000000000000000000000000000000000000000000000000080F9F1
:393E58000000000000000000000000000000000000000000000000000000000000000000000000000000000000000000000000000000000000000080F9B8
:393E91000000000000000000000000000000000000000000000000000000000000000000000000000000000000000000000000000000000000000080F97F
:393ECA000800000000000000000000000000000000000000000000000000000000000000000000000000000000000000000000000000000000000020DBBC
:393F03000000000000000000000000000000000000000000000000000000000000000000000000000000000000000000000000000000000000000080F90C
:393F3C000000000000000000000000000000000000000000000000000000000000000000000000000000000000000000000000000000000000000080F9D3
:393F75000400000000000000000000000000000000000000000000000000000000000000000000000000000000000000000000000000000000000090ACD3
:393FAE000000000000000000000000000000000000000000000000000000000000000000000000000000000000000000000000000000000000000080F961
:393FE7000000000000000000000000000000000000000000000000000000000000000000000000000000000000000000000000000000000000000080F928
:394020000000000000000000000000000000000000000000000000000000000000000000000000000000000000000000000000000000000000000080F9EE
:394059000000000000000000000000000000000000000000000000000000000000000000000000000000000000000000000000000000000000000080F9B5
:394092000800000000000000000000000000000000000000000000000000000000000000000000000000000000000000000000000000000000000020DBF2
:3940CB000000000000000000000000000000000000000000000000000000000000000000000000000000000000000000000000000000000000000080F943
:394104000000000000000000000000000000000000000000000000000000000000000000000000000000000000000000000000000000000000000080F909
:39413D000400000000000000000000000000000000000000000000000000000000000000000000000000000000000000000000000000000000000090AC09
:394176000000000000000000000000000000000000000000000000000000000000000000000000000000000000000000000000000000000000000080F997
:3941AF000000000000000000000000000000000000000000000000000000000000000000000000000000000000000000000000000000000000000080F95E
:3941E8002000048000100002400008000120000480001000000000000000000000000000000000800010000240000800012000048000100002400080F9A1
:394221000000000000000000000000000000000000000000000000000000000000000000000000000000000000000000000000000000000000000080F9EB
:39425A002800048000100002400008000120000480001000000000000000000000000000000000800010000240000800012000048000100002400020DBA4
:394293000000000000000000000000000000000000000000000000000000000000000000000000000000000000000000000000000000000000000080F979
:3942CC002000048000100002400008000120000480001000000000000000000000000000000000800010000240000800012000048000100002400080F9BC
:394305000400000000000000000000000000000000000000000000000000000000000000000000000000000000000000000000000000000000000090AC3F
:39433E002000048000100002400008000120000480001000000000000000000000000000000000800010000240000800012000048000100002400080F949
:394377000000000000000000000000000000000000000000000000000000000000000000000000000000000000000000000000000000000000000080F994
:3943B0000000000000000000000000000000000000000000000000000000000000000000000000000000000000000000000000000000000000000080F95B
:3943E9000000000000000000000000000000000000000000000000000000000000000000000000000000000000000000000000000000000000000080F922
:394422000000000000000000000000000000000000000000000000000000000000000000000000000000000000000000000000000000000000000080F9E8
:39445B000000000000000000000000000000000000000000000000000000000000000000000000000000000000000000000000000000000000000080F9AF
:394494000000000000000000000000000000000000000000000000000000000000000000000000000000000000000000000000000000000000000080F976
:3944CD000000000000000000000000000000000000000000000000000000000000000000000000000000000000000000000000000000000000000080F93D
:394506000000000000000000000000000000000000000000000000000000000000000000000000000000000000000000000000000000000000000080F903
:39453F000000000000000000000000000000000000000000000000000000000000000000000000000000000000000000000000000000000000000080F9CA
:394578000000000000000000000000000000000000000000000000000000000000000000000000000000000000000000000000000000000000000080F991
:3945B1000000000000000000000000000000000000000000000000000000000000000000000000000000000000000000000000000000000000000080F958
:3945EA000000000000000000000000000000000000000000000000000000000000000000000000000000000000000000000000000000000000000080F91F
:394623000000000000000000000000000000000000000000000000000000000000000000000000000000000000000000000000000000000000000080F9E5
:39465C000000000000000000000000000000000000000000000000000000000000000000000000000000000000000000000000000000000000000080F9AC
:394695000000000000000000000000000000000000000000000000000000000000000000000000000000000000000000000000000000000000000080F973
:3946CE000000000000000000000000000000000000000000000000000000000000000000000000000000000000000000000000000000000000000080F93A
:394707000000000000000000000000000000000000000000000000000000000000000000000000000000000000000000000000000000000000000080F900
:394740000000000000000000000000000000000000000000000000000000000000000000000000000000000000000000000000000000000000000080F9C7
:394779000000000000000000000000000000000000000000000000000000000000000000000000000000000000000000000000000000000000000080F98E
:3947B2000000000000000000000000000000000000000000000000000000000000000000000000000000000000000000000000000000000000000080F955
:3947EB000000000000000000000000000000000000000000000000000000000000000000000000000000000000000000000000000000000000000080F91C
:394824000000000000000000000000000000000000000000000000000000000000000000000000000000000000000000000000000000000000000080F9E2
:39485D000000000000000000000000000000000000000000000000000000000000000000000000000000000000000000000000000000000000000080F9A9
:394896000000000000000000000000000000000000000000000000000000000000000000000000000000000000000000000000000000000000000080F970
:3948CF000000000000000000000000000000000000000000000000000000000000000000000000000000000000000000000000000000000000000080F937
:394908000000000000000000000000000000000000000000000000000000000000000000000000000000000000000000000000000000000000000080F9FD
:394941000000000000000000000000000000000000000000000000000000000000000000000000000000000000000000000000000000000000000080F9C4
:39497A000000000000000000000000000000000000000000000000000000000000000000000000000000000000000000000000000000000000000080F98B
:3949B3000000000000000000000000000000000000000000000000000000000000000000000000000000000000000000000000000000000000000080F952
:3949EC000000000000000000000000000000000000000000000000000000000000000000000000000000000000000000000000000000000000000080F919
:394A25000000000000000000000000000000000000000000000000000000000000000000000000000000000000000000000000000000000000000080F9DF
:394A5E000000000000000000000000000000000000000000000000000000000000000000000000000000000000000000000000000000000000000080F9A6
:394A97000000000000000000000000000000000000000000000000000000000000000000000000000000000000000000000000000000000000000080F96D
:394AD0000000000000000000000000000000000000000000000000000000000000000000000000000000000000000000000000000000000000000080F934
:394B09000000000000000000000000000000000000000000000000000000000000000000000000000000000000000000000000000000000000000080F9FA
:394B42000000000000000000000000000000000000000000000000000000000000000000000000000000000000000000000000000000000000000080F9C1
:394B7B000000000000000000000000000000000000000000000000000000000000000000000000000000000000000000000000000000000000000080F988
:394BB4000000000000000000000000000000000000000000000000000000000000000000000000000000000000000000000000000000000000000080F94F
:394BED000000000000000000000000000000000000000000000000000000000000000000000000000000000000000000000000000000000000000080F916
:394C26000000000000000000000000000000000000000000000000000000000000000000000000000000000000000000000000000000000000000080F9DC
:394C5F000000908010000000000000000000000000000000000000000000000000000000000000000000000000000002000000000000000000000000D822
:394C98000000200004000000004000000000000000000000000000000000000000000000000000000000000000000028000000000000000000000000B7A0
:394CD1000000000000000000000000000000000000000000000000000000000000000000000000000000000000000000000000000000000000000080F931
:394D0A000000000000000000000000000000000000000000000000000000000000000000000000000000000000000000000000000000000000000080F9F7
:394D43000012E0025C00092001748004900012400248000900000000000000000000000000000000480009200124800E900012400248800B2001240087E9
:394D7C00000C9001320006C00098000360000C800130000600000000000000000000000000000000300006C00018001360000C8001304006C0001880903F
:024DB500FFFFFE
:00000001FF
