:020000040000FA
:39000000FFFF62FF3600FFFFFFFFFFFFFFFFFFFFFFFFFFFFFFFFFFFFFFFFFFFFFFFFFFFFFFFFFFFFFFFFFFFFFFFFFFFFFFFFFFFFFFFFFFFFFFFFFFFFFF65
:39003900000C8001300006C00018000360000C800930000600000000000000000000000000000000300026C00018000360800C8001300006C0041800DD38
:3900720000124002480009200124800490001240074800090000000000000000000000000000000048001D20012480049000174002480009A0032400EF8F
:3900AB000000000000000000000000000000000000000000000000000000000000000000000000000000000000000000000000000000000000000080F9A3
:3900E4000000000000000000000000000000000000000000000000000000000000000000000000000000000000000000000000000000000000000080F96A
:39011D00000000000000000000000000000000000400000000000000000000000000000000000000000030000000000000000000000000000802000083E8
:390156000000000000000000000000000000000000000000000000000000000000000100000000000000000000000000000005000000000000000080B832
:39018F000000000000000000000000000000000000000000000000000000000000000000000000000000000000000000000000000000000000000080F9BE
:3901C8000000000000000000000000000000000000000000000000000000000000000000000000000000000000000000000000000000000000000080F985
:390201000000000000000000000000000000000000000000000000000000000000000000000000000000000000000000000000000000000000000080F94B
:39023A000000000000000000000000000000000000000000000000000000000000000000000000000000000000000000000000000000000000000080F912
:390273000000000000000000000000000000000000000000000000000000000000000000000000000000000000000000000000000000000000000080F9D9
:3902AC000000000000000000000000000000000000000000000000000000000000000000000000000000000000000000000000000000000000000080F9A0
:3902E5000000000000000000000000000000000000000000000000000000000000000000000000000000000000000000000000000000000000000080F967
:39031E000000000000000000000000000000000000000000000000000000000000000000000000000000000000000000000000000000000000000080F92D
:390357000000000000000000000000000000000000000000000000000000000000000000000000000000000000000000000000000000000000000080F9F4
:390390000000000000000000000000000000000000000000000000000000000000000000000000000000000000000000000000000000000000000080F9BB
:3903C9000000000000000000000000000000000000000000000000000000000000000000000000000000000000000000000000000000000000000080F982
:390402000800000000000000000000000000000000000000000000000000000000000000000000000000000000000000000000000000000000000020DBBE
:39043B000000000000000000000000000000000000000000000000000000000000000000000000000000000000000000000000000000000000000080F90F
:390474000000000000000000000000000000000000000000000000000000000000000000000000000000000000000000000000000000000000000080F9D6
:3904AD000400000000000000000000000000000000000000000000000000000000000000000000000000000000000000000000000000000000000090ACD6
:3904E6000000000000000000000000000000000000000000000000000000000000000000000000000000000000000000000000000000000000000080F964
:39051F0000000000000000000000000000000000000000000000000000000000000000000000000000000000000000000000000000000000000000C0BD26
:390558000000000000000000000000000000000000000000000000000000000000000000000000000000000000000000000000000000000000000080F9F1
:390591000000000000000000000000000000000000000000000000000000000000000000000000000000000000000000000000000000000000000080F9B8
:3905CA000800000000000000000000000000000000000000000000000000000000000000000000000000000000000000000000000000000000000030CAF6
:390603000000000000000000000000000000000000000000000000000000000000000000000000000000000000000000000000000000000000000090E846
:39063C000000000000000000000000000000000000000000000000000000000000000000000000000000000000000000000000000000000000000080F90C
:3906750004000000000000000000000000000000000000000000000000000000000000000000000000000000000000000000000000000000000000B08E0A
:3906AE000000000000000000000000000000000000000000000000000000000000000000000000000000000000000000000000000000000000000080F99A
:3906E7000000000000000000000000000000000000000000000000000000000000000000000000000000000000000000000000000000000000000080F961
:390720000000000000000000000000000000000000000000000000000000000000000000000000000000000000000000000000000000000000000080F927
:390759000000000000000000000000000000000000000000000000000000000000000000000000000000000000000000000000000000000000000080F9EE
:390792000800000000000000000000000000000000000000000000000000000000000000000000000000000000000000000000000000000000000020DB2B
:3907CB000000000000000000000000000000000000000000000000000000000000000000000000000000000000000000000000000000000000000080F97C
:390804000000000000000000000000000000000000000000000000000000000000000000000000000000000000000000000000000000000000000080F942
:39083D000400000000000000000000000000000000000000000000000000000000000000000000000000000000000000000000000000000000000090AC42
:390876000000000000000000000000000000000000000000000000000000000000000000000000000000000000000000000000000000000000000080F9D0
:3908AF000000000000000000000000000000000000000000000000000000000000000000000000000000000000000000000000000000000000000080F997
:3908E8000000000000000000000000000000000000000000000000000000000000000000000000000000000000000000000000000000000000000080F95E
:390921000000000000000000000000000000000000000000000000000000000000000000000000000000000000000000000000000000000000000080F924
:39095A000800000000000000000000000000000000000000000000000000000000000000000000000000000000000000000000000000000000000020DB61
:390993000000000000000000000000000000000000000000000000000000000000000000000000000000000000000000000000000000000000000080F9B2
:3909CC000000000000000000000000000000000000000000000000000000000000000000000000000000000000000000000000000000000000000080F979
:390A05000400000000000000000000000000000000000000000000000000000000000000000000000000000000000000000000000000000000000090AC78
:390A3E000000000000000000000000000000000000000000000000000000000000000000000000000000000000000000000000000000000000000080F906
:390A77000000000000000000000000000000000000000000000000000000000000000000000000000000000000000000000000000000000000000080F9CD
:390AB0000000000000000000000000000000000000000000000000000000000000000000000000000000000000000000000000000000000000000080F994
:390AE9000000000000000000000000000000000000000000000000000000000000000000000000000000000000000000000000000000000000000080F95B
:390B22000C000000000000000000000000000000000000000000000000000000000000000000000000000000000000000000000000000000000000209FCF
:390B5B000400000000000000000000000000000000000000000000000000000000000000000000000000000000000000000000000000000000000080BD20
:390B94000000000000000000000000000000000000000000000000000000000000000000000000000000000000000000000000000000000000000080F9AF
:390BCD000C00000000000000000000000000000000000000000000000000000000000000000000000000000000000000000000000000000000000010AC27
:390C06000000000000000000000000000000000000000000000000000000000000000000000000000000000000000000000000000000000000000080F93C
:390C3F000000000000000000000000000000000000000000000000000000000000000000000000000000000000000000000000000000000000000080F903
:390C78000000000000000000000000000000000000000000000000000000000000000000000000000000000000000000000000000000000000000080F9CA
:390CB1000000000000000000000000000000000000000000000000000000000000000000000000000000000000000000000000000000000000000080F991
:390CEA000800000000000000000000000000000000000000000000000000000000000000000000000000000000000000000000000000000000000030CACF
:390D23000000000000000000000000000000000000000000000000000000000000000000000000000000000000000000000000000000000000000090E81F
:390D5C000000000000000000000000000000000000000000000000000000000000000000000000000000000000000000000000000000000000000080F9E5
:390D950004000000000000000000000000000000000000000000000000000000000000000000000000000000000000000000000000000000000000B08EE3
:390DCE000000000000000000000000000000000000000000000000000000000000000000000000000000000000000000000000000000000000000080F973
:390E07001000000000000000000000000000000000000000000000000000000000000000000000000000000000000000000000000000000000000080F82A
:390E40000000000000000000000000000000000000000000000000000000000000000000000000000000000000000000000000000000000000000080F900
:390E79000000000000000000000000000000000000000000000000000000000000000000000000000000000000000000000000000000000000000080F9C7
:390EB2000C000000000000000000000000000000000000000000000000000000000000000000000000000000000000000000000000000000000000209F3C
:390EEB000400000000000000000000000000000000000000000000000000000000000000000000000000000000000000000000000000000000000080BD8D
:390F24000000000000000000000000000000000000000000000000000000000000000000000000000000000000000000000000000000000000000080F91B
:390F5D000C00000000000000000000000000000000000000000000000000000000000000000000000000000000000000000000000000000000000010AC93
:390F96000000000000000000000000000000000000000000000000000000000000000000000000000000000000000000000000000000000000000080F9A9
:390FCF000000000000000000000000000000000000000000000000000000000000000000000000000000000000000000000000000000000000000080F970
:391008002000048000100002400008000120000480001000000000000000000000000000000000800010000240000800012000048000100002400080F9B2
:391041000000000000000000000000000000000000000000000000000000000000000000000000000000000000000000000000000000000000000080F9FD
:39107A002800048000100002400008000120000480001000000000000000000000000000000000800010000240000800012000048000100002400020DBB6
:3910B3000000000000000000000000000000000000000000000000000000000000000000000000000000000000000000000000000000000000000080F98B
:3910EC002000048000100002400008000120000480001000000000000000000000000000000000800010000240000800012000048000100002400080F9CE
:391125000400000000000000000000000000000000000000000000000000000000000000000000000000000000000000000000000000000000000090AC51
:39115E002000048000100002400008000120000480001000000000000000000000000000000000800010000240000800012000048000100002400080F95B
:391197000000000000000000000000000000000000000000000000000000000000000000000000000000000000000000000000000000000000000080F9A6
:3911D0000000000000000000000000000000000000000000000000000000000000000000000000000000000000000000000000000000000000000080F96D
:391209000000000000000000000000000000000000000000000000000000000000000000000000000000000000000000000000000000000000000080F933
:391242000000000000000000000000000000000000000000000000000000000000000000000000000000000000000000000000000000000000000080F9FA
:39127B000000000000000000000000000000000000000000000000000000000000000000000000000000000000000000000000000000000000000080F9C1
:3912B4000000000000000000000000000000000000000000000000000000000000000000000000000000000000000000000000000000000000000080F988
:3912ED000000000000000000000000000000000000000000000000000000000000000000000000000000000000000000000000000000000000000080F94F
:391326000000000000000000000000000000000000000000000000000000000000000000000000000000000000000000000000000000000000000080F915
:39135F000000000000000000000000000000000000000000000000000000000000000000000000000000000000000000000000000000000000000080F9DC
:391398000000000000000000000000000000000000000000000000000000000000000000000000000000000000000000000040000000000000000080BD9F
:3913D1000000000000000000000000000000000000000000000000000000000000000000000000000000000000000000000080000000000000000000F96A
:39140A0000000000000000000000000000000000000000000000000000000000000000000000000000000000000000000000000000000000000000A0DB2E
:391443000000000000000000000000000000000000000000000000000000000000000000000000000000000000000000000000000000000000000080F9F7
:39147C000000000000000000000000000000000000000000000000000000000000000000000000000000000000000000000000000000000000000080F9BE
:3914B5000000000000000000000000000000000000000000000000000000000000000000000000000000000000000000000000000000000000000080F985
:3914EE000000000000000000000000000000000000000000000000000000000000000000000000000000000000000000000000000000000000000080F94C
:391527000000000000000000000000000000000000000000000000000000000000000000000000000000000000000000000000000000000000000080F912
:391560000000000000000000000000000000000000000000000000000000000000000000000000000000000000000000000000000000000000000080F9D9
:391599000000000000000000000000000000000000000000000000000000000000000000000000000000000000000000000000000000000000000080F9A0
:3915D2000000000000000000000000000000000000000000000000000000000000000000000000000000000000000000000000000000000000000080F967
:39160B0000000000000000000000000000000000000000000000000000000000000000000000000000000000000000000000000000000000000000A0DB2B
:391644000000000000000000000000000000000000000000000000000000000000000000000000000000000000000000000000000000000000000080F9F4
:39167D000000000000000000000000000000000000000000000000000000000000000000000000000000000000000000000000000000000000000080F9BB
:3916B6000000000000000000000000000000000000000000000000000000000000000000000000000000000080000000000000000000000000000000F982
:3916EF000000000000000000000000000000000000000000000000000000000000000000000000000000000040000000000000000000000000000080BD45
:391728000400000000000000000000000000000000000000000000000000000000000000000000000000000000000000000000000000000000000080BD47
:391761000000000000000000000000000000000000000000000000000000000000000000000000000000000000000000000000000000000000000080F9D6
:39179A000000000000000000000000000000000000000000000000000000000000000000000000000000000000000000000000000000000000000080F99D
:3917D3000000000000000000000000000000000000000000000000000000000000000000000000000000000000000000000000000000000000000080F964
:39180C000000000000000000000000000000000000000000000000000000000000000000000000000000000000000000000000000000000000000080F92A
:391845000000000000000000000000000000000000000000000000000000000000000000000000000000000000000000000000000000000000000080F9F1
:39187E000000000000000000000000000000000000000000000000000000000000000000000000000000000000000000000000000000000000000080F9B8
:3918B7000000000000000000000000000000000000000000000000000000000000000000000000000000000000000000000000000000000000000080F97F
:3918F0000000000000000000000000000000000000000000000000000000000000000000000000000000000000000000000000000000000000000080F946
:391929000000000000000000000000000000000000000000000000000000000000000000000000000000000000000000000000000000000000000080F90C
:391962000000000000000000000000000000000000000000000000000000000000000000000000000000000000000000000000000000000000000080F9D3
:39199B000000000000000000000000000000000000000000000000000000000000000000000000000000000000000000000000000000000000000080F99A
:3919D4000000000000000000000000000000000000000000000000000000000000000000000000000000000000000000000000000000000000000080F961
:391A0D000000000000000000000000000000000000000000000000000000000000000000000000000000000000000000000000000000000000000080F927
:391A46000400000000000000000000000000000000000000000000000000000000000000000000000000000000000000000000000000000000000080BD26
:391A7F000000000000000000000000000000000000000000000000000000000000000000000000000000000000000000000000000000000000000080F9B5
:391AB8000000000000000000000000000000000000000000000000000000000000000000000000000000000000000000000000000000000000000080F97C
:391AF1000000000000000000000000000000000000000000000000000000000000000000000000000000000000000000000000000000000000000080F943
:391B2A000000000000000000000000000000000000000000000000000000000000000000000000000000000000000000000000000000000000000080F909
:391B63000000000000000000000000000000000000000000000000000000000000000000000000000000000000000000000000000000000000000080F9D0
:391B9C000000000000000000000000000000000000000000000000000000000000000000000000000000000000000000000000000000000000000080F997
:391BD5000000000000000000000000000000000000000000000000000000000000000000000000000000000000000000000000000000000000000080F95E
:391C0E000000000000000000000000000000000000000000000000000000000000000000000000000000000000000000000000000000000000000080F924
:391C47000000000000000000000000000000000000000000000000000000000000000000000000000000000000000000000000000000000000000080F9EB
:391C80000000000000000000000000000000000000000000000000000000000000000000000000000000000000000000000000000000000000000080F9B2
:391CB9000000000000000000000000000000000000000000000000000000000000000000000000000000000000000000000000000000000000000080F979
:391CF2000800000000000000000000000000000000000000000000000000000000000000000000000000000000000000000000000000000000000020DBB6
:391D2B000000000000000000000000000000000000000000000000000000000000000000000000000000000000000000000000000000000000000080F906
:391D64000000000000000000000000000000000000000000000000000000000000000000000000000000000000000000000000000000000000000080F9CD
:391D9D000400000000000000000000000000000000000000000000000000000000000000000000000000000000000000000000000000000000000090ACCD
:391DD6000000000000000000000000000000000000000000000000000000000000000000000000000000000000000000000000000000000000000080F95B
:391E0F000000000000000000000000000000000000000000000000000000000000000000000000000000000000000000000000000000000000000080F921
:391E48000000000000000000000000000000000000000000000000000000000000000000000000000000000000000000000000000000000000000080F9E8
:391E81000000000000000000000000000000000000000000000000000000000000000000000000000000000000000000000000000000000000000080F9AF
:391EBA000800000000000000000000000000000000000000000000000000000000000000000000000000000000000000000000000000000000000020DBEC
:391EF3000000000000000000000000000000000000000000000000000000000000000000000000000000000000000000000000000000000000000080F93D
:391F2C000000000000000000000000000000000000000000000000000000000000000000000000000000000000000000000000000000000000000080F903
:391F65000400000000000000000000000000000000000000000000000000000000000000000000000000000000000000000000000000000000000090AC03
:391F9E000000000000000000000000000000000000000000000000000000000000000000000000000000000000000000000000000000000000000080F991
:391FD7000000000000000000000000000000000000000000000000000000000000000000000000000000000000000000000000000000000000000080F958
:392010000000000000000000000000000000000000000000000000000000000000000000000000000000000000000000000000000000000000000080F91E
:392049000000000000000000000000000000000000000000000000000000000000000000000000000000000000000000000000000000000000000080F9E5
:392082000800000000000000000000000000000000000000000000000000000000000000000000000000000000000000000000000000000000000020DB22
:3920BB000000000000000000000000000000000000000000000000000000000000000000000000000000000000000000000000000000000000000080F973
:3920F4000000000000000000000000000000000000000000000000000000000000000000000000000000000000000000000000000000000000000080F93A
:39212D000400000000000000000000000000000000000000000000000000000000000000000000000000000000000000000000000000000000000090AC39
:392166000000000000000000000000000000000000000000000000000000000000000000000000000000000000000000000000000000000000000080F9C7
:39219F000000000000000000000000000000000000000000000000000000000000000000000000000000000000000000000000000000000000000080F98E
:3921D8000000000000000000000000000000000000000000000000000000000000000000000000000000000000000000000000000000000000000080F955
:392211000000000000000000000000000000000000000000000000000000000000000000000000000000000000000000000000000000000000000080F91B
:39224A000800000000000000000000000000000000000000000000000000000000000000000000000000000000000000000000000000000000000020DB58
:392283000000000000000000000000000000000000000000000000000000000000000000000000000000000000000000000000000000000000000080F9A9
:3922BC000000000000000000000000000000000000000000000000000000000000000000000000000000000000000000000000000000000000000080F970
:3922F5000400000000000000000000000000000000000000000000000000000000000000000000000000000000000000000000000000000000000090AC70
:39232E000000000000000000000000000000000000000000000000000000000000000000000000000000000000000000000000000000000000000080F9FD
:392367000000000000000000000000000000000000000000000000000000000000000000000000000000000000000000000000000000000000000080F9C4
:3923A0000000000000000000000000000000000000000000000000000000000000000000000000000000000000000000000000000000000000000080F98B
:3923D9000000000000000000000000000000000000000000000000000000000000000000000000000000000000000000000000000000000000000080F952
:392412000800000000000000000000000000000000000000000000000000000000000000000000000000000000000000000000000000000000000020DB8E
:39244B000000000000000000000000000000000000000000000000000000000000000000000000000000000000000000000000000000000000000080F9DF
:392484000000000000000000000000000000000000000000000000000000000000000000000000000000000000000000000000000000000000000080F9A6
:3924BD000400000000000000000000000000000000000000000000000000000000000000000000000000000000000000000000000000000000000090ACA6
:3924F6000000000000000000000000000000000000000000000000000000000000000000000000000000000000000000000000000000000000000080F934
:39252F000000000000000000000000000000000000000000000000000000000000000000000000000000000000000000000000000000000000000080F9FA
:392568000000000000000000000000000000000000000000000000000000000000000000000000000000000000000000000000000000000000000080F9C1
:3925A1000000000000000000000000000000000000000000000000000000000000000000000000000000000000000000000000000000000000000080F988
:3925DA000800000000000000000000000000000000000000000000000000000000000000000000000000000000000000000000000000000000000020DBC5
:392613000000000000000000000000000000000000000000000000000000000000000000000000000000000000000000000000000000000000000080F915
:39264C000000000000000000000000000000000000000000000000000000000000000000000000000000000000000000000000000000000000000080F9DC
:392685000400000000000000000000000000000000000000000000000000000000000000000000000000000000000000000000000000000000000090ACDC
:3926BE000000000000000000000000000000000000000000000000000000000000000000000000000000000000000000000000000000000000000080F96A
:3926F7000000000000000000000000000000000000000000000000000000000000000000000000000000000000000000000000000000000000000080F931
:392730000000000000000000000000000000000000000000000000000000000000000000000000000000000000000000000000000000000000000080F9F7
:392769000000000000000000000000000000000000000000000000000000000000000000000000000000000000000000000000000000000000000080F9BE
:3927A2000800000000000000000000000000000000000000000000000000000000000000000000000000000000000000000000000000000000000020DBFB
:3927DB000000000000000000000000000000000000000000000000000000000000000000000000000000000000000000000000000000000000000080F94C
:392814000000000000000000000000000000000000000000000000000000000000000000000000000000000000000000000000000000000000000080F912
:39284D000400000000000000000000000000000000000000000000000000000000000000000000000000000000000000000000000000000000000090AC12
:392886000000000000000000000000000000000000000000000000000000000000000000000000000000000000000000000000000000000000000080F9A0
:3928BF000000000000000000000000000000000000000000000000000000000000000000000000000000000000000000000000000000000000000080F967
:3928F8002000048000100002400008000120000480001000000000000000000000000000000000800010000240000800012000048000100002400080F9AA
:392931000000000000000000000000000000000000000000000000000000000000000000000000000000000000000000000000000000000000000080F9F4
:39296A002C000480001000024000080001200004800010000000000000000000000000000000008000100002400008000120000480001000024000209FE5
:3929A3000400000000000000000000000000000000000000000000000000000000000000000000000000000000000000000000000000000000000080BDBA
:3929DC002000048000100002400008000120000480001000000000000000000000000000000000800010000240000800012000048000100002400080F9C5
:392A15000C00000000000000000000000000000000000000000000000000000000000000000000000000000000000000000000000000000000000010ACC0
:392A4E002000048000100002400008000120000480001000000000000000000000000000000000800010000240000800012000048000100002400080F952
:392A87000000000000000000000000000000000000000000000000000000000000000000000000000000000000000000000000000000000000000080F99D
:392AC0000000000000000000000000000000000000000000000000000000000000000000000000000000000000000000000000000000000000000080F964
:392AF9000000000000000000000000000000000000000000000000000000000000000000000000000000000000000000000000000000000000000080F92B
:392B32000000000000000000000000000000000000000000000000000000000000000000000000000000000000000000000000000000000000000080F9F1
:392B6B000000000000000000000000000000000000000000000000000000000000000000000000000000000000000000000000000000000000000080F9B8
:392BA4000000000000000000000000000000000000000000000000000000000000000000000000000000000000000000000000000000000000000080F97F
:392BDD000000000000000000000000000000000000000000000000000000000000000000000000000000000000000000000000000000000000000080F946
:392C16000000000000000000000000000000000000000000000000000000000000000000000000000000000000000000000000000000000000000080F90C
:392C4F000000000000000000000000000000000000000000000000000000000000000000000000000000000000000000000000000000000000000080F9D3
:392C88000000000000000000000000000000000000000000000000000000000000000000000000000000000000000000000000000000000000000080F99A
:392CC1000000000000000000000000000000000000000000000000000000000000000000000000000000000000000000000000000000000000000080F961
:392CFA000000000000000000000000000000000000000000000000000000000000000000000000000000000000000000000000000000000000000080F928
:392D33000000000000000000000000000000000000000000000000000000000000000000000000000000000000000000000000000000000000000080F9EE
:392D6C000000000000000000000000000000000000000000000000000000000000000000000000000000000000000000000000000000000000000080F9B5
:392DA5000000000000000000000000000000000000000000000000000000000000000000000000000000000000000000000000000000000000000080F97C
:392DDE000000000000000000000000000000000000000000000000000000000000000000000000000000000000000000000000000000000000000080F943
:392E17000000000000000000000000000000000000000000000000000000000000000000000000000000000000000000000000000000000000000080F909
:392E50000000000000000000000000000000000000000000000000000000000000000000000000000000000000000000000000000000000000000080F9D0
:392E89000000000000000000000000000000000000000000000000000000000000000000000000000000000000000000000000000000000000000080F997
:392EC2000000000000000000000000000000000000000000000000000000000000000000000000000000000000000000000000000000000000000080F95E
:392EFB000000000000000000000000000000000000000000000000000000000000000000000000000000000000000000000000000000000000000080F925
:392F34000000000000000000000000000000000000000000000000000000000000000000000000000000000000000000000000000000000000000080F9EB
:392F6D000000000000000000000000000000000000000000000000000000000000000000000000000000000000000000000000000000000000000080F9B2
:392FA6000000000000000000000000000000000000000000000000000000000000000000000000000000000000000000000000000000000000000080F979
:392FDF000000000000000000000000000000000000000000000000000000000000000000000000000000000000000000000000000000000000000080F940
:393018000000000000000000000000000000000000000000000000000000000000000000000000000000000000000000000000000000000000000080F906
:393051000000000000000000000000000000000000000000000000000000000000000000000000000000000000000000000000000000000000000080F9CD
:39308A000000000000000000000000000000000000000000000000000000000000000000000000000000000000000000000000000000000000000080F994
:3930C3000000000000000000000000000000000000000000000000000000000000000000000000000000000000000000000000000000000000000080F95B
:3930FC000000000000000000000000000000000000000000000000000000000000000000000000000000000000000000000000000000000000000080F922
:393135000000000000000000000000000000000000000000000000000000000000000000000000000000000000000000000000000000000000000080F9E8
:39316E000000000000000000000000000000000000000000000000000000000000000000000000000000000000000000000000000000000000000080F9AF
:3931A7000000000000000000000000000000000000000000000000000000000000000000000000000000000000000000000000000000000000000080F976
:3931E0000000000000000000000000000000000000000000000000000000000000000000000000000000000000000000000000000000000000000080F93D
:393219000000000000000000000000000000000000000000000000000000000000000000000000000000000000000000000000000000000000000080F903
:393252000000000000000000000000000000000000000000000000000000000000000000000000000000000000000000000000000000000000000080F9CA
:39328B000000000000000000000000000000000000000000000000000000000000000000000000000000000000000000000000000000000000000080F991
:3932C4000000000000000000000000000000000000000000000000000000000000000000000000000000000000000000000000000000000000000080F958
:3932FD000000000000000000000000000000000000000000000000000000000000000000000000000000000000000000000000000000000000000080F91F
:393336000000000000000000000000000000000000000000000000000000000000000000000000000000000000000000000000000000000000000080F9E5
:39336F000000000000000000000000000000000000000000000000000000000000000000000000802400000A20000804002040008006000002400000B96A
:3933A8000000000000000000000000000000000000000000000000000000000000000000000000000602001000000010000000000006000018000000D6D0
:3933E1000000000000000000000000000000000000000000000000000000000000000000000000000401000000000020000000010006010018080001EE77
:39341A000000000000000000000000000000000000000000000000000000000000000000000000000600000010000001000010000010000018012300B74F
:393453000000000000000000000000000000000000000000000000000000000000000000000000004608000801002002000010020026080018020000E38A
:39348C00000000000000000000000000000000000000000000000000000000000000000000000080030000160400182000600000800700001EC000819953
:3934C5000000000000000000000000000000000000000000000000000000000000000000000000000600000000000000008000000006020018000000EC3C
:3934FE000000000000000000000000000000000000000000000000000000000000000000000000000601009010000008000008010006000018092001F4A1
:3935370010000000000000000000000000000000000000000000000000000000000000000000008006000002420B080800A0410080160200024000009615
:393570000000000000000000000000000000000000000000000000000000000000000000000000000600000000024100008000000002000000000080A037
:3935A9000000000000000000000000000000000000000000000000000000000000000000000000000602000000030000008001010006000000000081D500
:3935E2000C000000000000000000000000000000000000000000000000000000000000000000000046000040080B64440080110000420100000020A0D2FD
:39361B000400000000000000000000000000000000000000000000000000000000000000000000004004008800236440000005000014010080042080D2CF
:393654000000000000000000000000000000000000000000000000000000000000000000000000800700001EC803780000E041008007000006C0008283E2
:39368D000C00000000000000000000000000000000000000000000000000000000000000000000000600000004036020000001000006000018000090C4F8
:3936C6000000000000000000000000000000000000000000000000000000000000000000000000000602004000436002008005020006020018052301DB33
:3936FF00100000000000000000000000000000000000000000000000000000000000000000000080000000024013680400A00900800000001A400080A09E
:393738000000000000000000000000000000000000000000000000000000000000000000000000000000000000016120008081000006000000000000B51A
:393771000000000000000000000000000000000000000000000000000000000000000000000000000001001800000120000080000000000018080300F949
:3937AA000C000000000000000000000000000000000000000000000000000000000000000000000040000000052000040000110000460200180103B0B696
:3937E30004000000000000000000000000000000000000000000000000000000000000000000000040020018038B600100802100004600001800031098B6
:39381C000000000000000000000000000000000000000000000000000000000000000000000000800100001EC003782000E00100800101001EC88380E04D
:393855000C00000000000000000000000000000000000000000000000000000000000000000000000001001800000200000000000006000018008330FF43
:39388E0000000000000000000000000000000000000000000000000000000000000000000000000016000018100020240000080100260200180923008684
:3938C7000000000000000000000000000000000000000000000000000000000000000000000000800000001A4208281200200402800600001A400080DC48
:3939000000000000000000000000000000000000000000000000000000000000000000000000000000000000000041000000010000060000000000809C2A
:3939390000000000000000000000000000000000000000000000000000000000000000000000000000000018000020100000000000060000180800818ADC
:3939720008000000000000000000000000000000000000000000000000000000000000000000000000000048080844010000000200060000180120A0F79F
:3939AB000000000000000000000000000000000000000000000000000000000000000000000000004000008010220404008005000040020018022000C523
:3939E40000000000000000000000000000000000000000000000000000000000000000000000008001010006C000584000E08100800100001EC000828404
:393A1D000400000000000000000000000000000000000000000000000000000000000000000000000601000000002000008041000006000018000010FD59
:393A56000000000000000000000000000000000000000000000000000000000000000000000000000600004020404008008011000086000018092301AD40
:393A8F001000000000000000000000000000000000000000000000000000000000000000000000800000001A4408680000A0010080240000024000408D4C
:393AC80000000000000000000000000000000000000000000000000000000000000000000000000000000018000261000080010000060200180000808E9B
:393B010000000000000000000000000000000000000000000000000000000000000000000000000000000018100060200080010000040000180800819429
:393B3A000C000000000000000000000000000000000000000000000000000000000000000000000000000090000864040080010000260200180120B0CFE5
:393B73000400000000000000000000000000000000000000000000000000000000000000000000002000005804206444000000000006000018002090F60D
:393BAC000000000000000000000000000000000000000000000000000000000000000000000000800101001EC000180000600001800301001EC80082F526
:393BE5000C00000000000000000000000000000000000000000000000000000000000000000000000600001808006000008081000006020018000330B70A
:393C1E000000000000000000000000000000000000000000000000000000000000000000000000004602001800406020008009000016000018092001BDAF
:393C570000000000000000000000000000000000000000000000000000000000000000000000008040000002400B682000204000804601009A501080BF3F
:393C90000000000000000000000000000000000000000000000000000000000000000000000000000002000000036100000000000004000000000281BF4F
:393CC9000000000000000000000000000000000000000000000000000000000000000000000000000402001800036000000000010006000008000381D3DB
:393D020008000000000000000000000000000000000000000000000000000000000000000000000040000018000B4444000010000006080080202320F99B
:393D3B000000000000000000000000000000000000000000000000000000000000000000000000004000005808220440000010020016000000054080B1AB
:393D74000000000000000000000000000000000000000000000000000000000000000000000000800304001EC003180000600000800702001EC00080EE61
:393DAD000400000000000000000000000000000000000000000000000000000000000000000000000004001810030000008000000006040000000310A06D
:393DE6000000000000000000000000000000000000000000000000000000000000000000000000000200001800430081000008010006000000048300DF51
:393E1F001000000000000000000000000000000000000000000000000000000000000000000000800600000A6003284100204000800600001A4003C0A754
:393E58000000000000000000000000000000000000000000000000000000000000000000000000000600001000034000000000000006000018000000E0DA
:393E91000000000000000000000000000000000000000000000000000000000000000000000000000602000800032140000000010006000018000381B031
:393ECA000C000000000000000000000000000000000000000000000000000000000000000000000046000040042340040000100000060000180023B0962B
:393F030004000000000000000000000000000000000000000000000000000000000000000000000040000048081320000000100200100800000003908C75
:393F3C0000000000000000000000000000000000000000000000000000000000000000000000008007040016C0831840006000008001000006C40301BAA7
:393F75000C00000000000000000000000000000000000000000000000000000000000000000000000600000008032000008000000006000018000330A362
:393FAE0000000000000000000000000000000000000000000000000000000000000000000000000006020000002041120000080100A6000018022301CAA8
:393FE7001000000000000000000000000000000000000000000000000000000000000000000000802600000242030801002000008006000002400080CB68
:3940200000000000000000000000000000000000000000000000000000000000000000000000000006010018000360100000000000000000000000009A3B
:394059000000000000000000000000000000000000000000000000000000000000000000000000000601000008030100000000000000000018080381A7D0
:394092000C00000000000000000000000000000000000000000000000000000000000000000000001600009800236082000000000040020000012020B102
:3940CB000400000000000000000000000000000000000000000000000000000000000000000000004402004820136000000010000000000000020000FD88
:3941040000000000000000000000000000000000000000000000000000000000000000000000008007000006C0835840006000018007010006C00001A8C2
:39413D000C00000000000000000000000000000000000000000000000000000000000000000000000600001800006000008001010000040000000090D0D9
:394176000000000000000000000000000000000000000000000000000000000000000000000000001602004008236114008005000046000000092001B073
:3941AF0000000000000000000000000000000000000000000000000000000000000000000000000000000000000000000000000000000000000000C0BD5A
:3941E8002000048000100002400008000120000480001000000000000000000000000000000000800010000240000800012000048000100002400080F9A1
:394221000000000000000000000000000000000000000000000000000000000000000000000000000000000000000000000000000000000000000080F9EB
:39425A002800048000100002400008000120000480001000000000000000000000000000000000800010000240000800012000048000100002400030CAA5
:394293000000000000000000000000000000000000000000000000000000000000000000000000000000000000000000000000000000000000000090E87A
:3942CC002000048000100002400008000120000480001000000000000000000000000000000000800010000240000800012000048000100002400080F9BC
:3943050004000000000000000000000000000000000000000000000000000000000000000000000000000000000000000000000000000000000000B08E3D
:39433E002000048000100002400008000120000480001000000000000000000000000000000000800010000240000800012000048000100002400080F949
:394377000000000000000000000000000000000000000000000000000000000000000000000000000000000000000000000000000000000000000080F994
:3943B0000000000000000000000000000000000000000000000000000000000000000000000000000000000000000000000000000000000000000080F95B
:3943E9000000000000000000000000000000000000000000000000000000000000000000000000000000004000000030000080000008000000000080C65D
:394422000000000000000000000000000000000000000000000000000000000000000000000000001100000400000001000000000001000000000080AD1D
:39445B000000000000000000000000000000000000000000000000000000000000000000000000000000000000000000000000000000000000000080F9AF
:394494000000000000000000000000000000000000000000000000000000000000000000000000000000000000000000000000000000000000000080F976
:3944CD000000000000000000000000000000000000000000000000000000000000000000000000000000000800000000008000000000000008048108ECAD
:3945060000000000000000000000000000000000000000000000000000000000000000000000000000000000040000000000000000000000000000A09B3D
:39453F00120000000000000000000000000000000000000000000000000000000000000000000000A000000410000000004000000000000004880001D1DF
:3945780000000000000000000000000000000000000000000000000000000000000000000000000004014869050000000080806200000088E403BD00BB06
:3945B1000000000000000000000000000000000000000000000000000000000000000000000000000001000804000000008000000000000000008100B80B
:3945EA0010000000000000000000000000000000000000000000000000000000000000000000000002000000000000000000001000000000000400A0ECE6
:394623000000000000000000000000000000000000000000000000000000000000000000000000000000000000000000000000000000000000000080F9E5
:39465C000000000000000000000000000000000000000000000000000000000000000000000000000000000000000008000000000080000000000080F12C
:394695000000000000000000000000000000000000000000000000000000000000000000000000000400000208000808000020000004000000000000FDAD
:3946CE000000000000000000000000000000000000000000000000000000000000000000000000000400004008000020000001000004000020020400A775
:394707000000000000000000000000000000000000000000000000000000000000000000000000000000000000000000000000000000000000000080F900
:394740000000000000000000000000000000000000000000000000000000000000000000000000000000001000000000000000000000000000000080F8B8
:394779000000000000000000000000000000000000000000000000000000000000000000000000000800000000028000000001000002000010000200F078
:3947B2000000000000000000000000000000000000000000000000000000000000000000000000000200000000032000008000000000000008000100CB55
:3947EB000000000000000000000000000000000000000000000000000000000000000000000000000000000440001400004000000000000000000080B8C5
:394824000800000000000000000000000000000000000000000000000000000000000000000000000000000200000A00000000008000000000000080F156
:39485D000000000000000000000000000000000000000000000000000000000000000000000000000200000004810000000040000000000008048080D27D
:394896000400000000000000000000000000000000000000000000000000000000000000000000000000000800000000000000000000000000000000BD20
:3948CF000000000000000000000000000000000000000000000000000000000000000000000000000100000288010100000080000800000004080A01A8DC
:394908000000000000000000000000000000000000000000000000000000000000000000000000000241012805001000804100008B001001082881A0E166
:394941000000000000000000000000000000000000000000000000000000000000000000000000000241000804000000000000000800000008008100DE7F
:39497A000000000000000000000000000000000000000000000000000000000000000000000000000000000000000000000200000000000000000080DBA7
:3949B3000000000000000000000000000000000000000000000000000000000000000000000000000000000000000000000000000000000000000080F952
:3949EC000000000000000000000000000000000000000000000000000000000000000000000000000000000000000000000000000000000000000080F919
:394A25000000000000000000000000000000000000000000000000000000000000000000000000000000001810006040000000008000000002100000936B
:394A5E0000000000000000000000000000000000000000000000000000000000000000000000000000040000000000000020A0000008080002400080F990
:394A97000000000000000000000000000000000000000000000000000000000000000000000000000000000000000000000000000000000000000080F96D
:394AD0000000000000000000000000000000000000000000000000000000000000000000000000000000000000000000000000000000000000000080F934
:394B09000000000000000000000000000000000000000000000000000000000000000000000000000000000000000000000000000000000000000080F9FA
:394B42000000000000000000000000000000000000000000000000000000000000000000000000000000000000000000000000000000000000000080F9C1
:394B7B000800000000000000000000000000000000000000000000000000000000000000000000000002000020000081000000020000080000000081F1DA
:394BB4000000000000000000000000000000000000000000000000000000000000000000000000000000000002084000000000010010040000000008C998
:394BED0000000000000000000000000000000000000000000000000000000000000000000000000000000000000000000000000000000000000000A0DB14
:394C26000000000000000000000000000000000000000000000000000000000000000000000000000000000000000000000000000000000000000080F9DC
:394C5F000000000000000000000000000000000000000000000000000000000000000000000000000000000000004002000000000102800080420080A66F
:394C98000000000000000000000000000000000000000000000000000000000000000000000000000404000000000008000000001404803000020080F990
:394CD1000000000000000000000000000000000000000000000000000000000000000000000000000000000000000000000000000000000000000080F931
:394D0A000000000000000000000000000000000000000000000000000000000000000000000000000000000000000000000000000000000000000080F9F7
:394D43000012400248000920012480049000124002480009000000000000000000000000000000005C0009200124800E90001240075C801FA0032E80DF48
:394D7C00000C8001300006C00018000360000C800130000600000000000000000000000000000000320006C00018001360000C8009324026C0041900BDF3
:024DB500FFFFFE
:00000001FF
