:020000040000FA
:39000000FFFF62FF3600FFFFFFFFFFFFFFFFFFFFFFFFFFFFFFFFFFFFFFFFFFFFFFFFFFFFFFFFFFFFFFFFFFFFFFFFFFFFFFFFFFFFFFFFFFFFFFFFFFFFFF65
:39003900000C9001304006C00018200360020C800132000600000000000000000000000000000000300006C00098000360000C8001300006C0041800A524
:390072000012E00248800B200124C005D0011240025C00090000000000000000000000000000000048000920017480049000124002480009A0032400ECA8
:3900AB000000000000000000000000000000000000000000000000000000000000000000000000000000000000000000000000000000000000000080F9A3
:3900E4000000000000000000000000000000000000000000000000000000000000000000000000000000000000000000000000000000000000000080F96A
:39011D000000201000800000000040000101000000040000000000000000000000000000000000000000000000000000000000000000000000020000931E
:390156000000800000200200000040014000000000500000000000000000000000000100000000000000000000000000000000000000000088000000FB79
:39018F002000148A040800000000000001A001008046D402000000000000000000000000000000000000000000000000000000000000000000400000D01F
:3901C8000000200002000000000000000080010000048040000000000000000000000000000000000000000000000000000000000000000000000000B0E7
:390201000000110004000000000000000C8001000006C000000000000000000000000000000000000000000000000000000000000000000000000080E7F5
:39023A000010200402040000000000000082210000A6C002010000000000000000000000000000000000000000000000000000000000000000000080AA1B
:39027300800910112402000000000000208009000006C008010000000000000000000000000000000000000000000000000000000000000000000301A264
:3902AC0060802C800700000000000000036880008007F400000000000000000000000000000000000000000000000000000000000000000000C00300C994
:3902E5000080100004000000000000000C8081000006C000000000000000000000000000000000000000000000000000000000000000000000000081FEFA
:39031E000010301002020000000000008C8411000086C010000000000000000000000000000000000000000000000000000000000000000000000000F5E6
:390357002000048612040000000000000D0000008016100200000000000000000000000000000000000000000000000000000000000000000040008086B2
:390390000000000004000000000000000000000000008140000000000000000000000000000000000000000000000000000000000000000000000080E40B
:3903C9000000010002040000000000000C000000000600000000000000000000000000000000000000000000000000000000000000000000000000009E44
:390402000800002004000000000000000C080000004008020100000000000000000000000000000000000000000000000000000000000000000000A0B4E2
:39043B0080051011000200000000000020000000001002080100000000000000000000000000000000000000000000000000000000000000000000018A1A
:3904740060003D8005000000000000000304000080013000000000000000000000000000000000000000000000000000000000000000000000C00080A392
:3904AD0004000000020100000000000000000000000002000000000000000000000000000000000000000000000000000000000000000000000003909CDE
:3904E6000084001044000000000000000001000000240010000000000000000000000000000000000000000000000000000000000000000000002301B8F4
:39051F0030000480C6000000000000004D20000080421400000000000000000000000000000000000000000000000000000000000000000000408980FF9E
:390558000040000000000000000000000402000000060000000000000000000000000000000000000000000000000000000000000000000000000280FD9F
:390591000000000006000000000000000880010000020000000000000000000000000000000000000000000000000000000000000000000000000381B963
:3905CA000C04022040080000000000002488010000A400240000000000000000000000000000000000000000000000000000000000000000000012B0A0A7
:39060300041000021001000000000000288009000016C004000000000000000000000000000000000000000000000000000000000000000000009390E405
:39063C0060403C9001000000000000000FE4810080073240000000000000000000000000000000000000000000000000000000000000000000C00300DF09
:390675008C80001000000000000000000880810000060040000000000000000000000000000000000000000000000000000000000000000000000330FFAF
:3906AE008005000204080000000000000C81110000260408000000000000000000000000000000000000000000000000000000000000000000004300D39A
:3906E7002090248146040000000000000D0000008012140200000000000000000000000000000000000000000000000000000000000000000040000095B1
:390720000000101006000000000000000000000000000040000000000000000000000000000000000000000000000000000000000000000000000082ECCC
:390759000080200006000000000000000000000000020000000000000000000000000000000000000000000000000000000000000000000000000000BB04
:390792000810100416020000000000008004000000400202010000000000000000000000000000000000000000000000000000000000000000002024A439
:3907CB008009201126000000000000002000000000C08008010000000000000000000000000000000000000000000000000000000000000000000881C063
:39080400E0801C8007020000000000000F04000080053000000000000000000000000000000000000000000000000000000000000000000000C00280CAE2
:39083D000400210002000000000000000000000000000100000000000000000000000000000000000000000000000000000000000000000000000091AC1D
:390876008010301026040000000000000C08000000160010000000000000000000000000000000000000000000000000000000000000000000000380EFA3
:3908AF00302014800000000000000000850000008006D1020000000000000000000000000000000000000000000000000000000000000000004003409437
:3908E8000000200800000000000000000C0200000000C040000000000000000000000000000000000000000000000000000000000000000000000380C658
:39092100000010200600000000000000040800000006C000000000000000000000000000000000000000000000000000000000000000000000000300FE94
:39095A000C5020020600000000000000880000000040C802010000000000000000000000000000000000000000000000000000000000000000000330EF2B
:3909930004101011100000000000000044040000001082080100000000000000000000000000000000000000000000000000000000000000000008918FDB
:3909CC0060402C8001020000000000000B0000008001F000000000000000000000000000000000000000000000000000000000000000000000C00000F86F
:390A05008C8030000000000000000000040000000000C2000000000000000000000000000000000000000000000000000000000000000000000003B1FF03
:390A3E00800520102004000000000000080400000024C010000000000000000000000000000000000000000000000000000000000000000000000300ECB7
:390A7700300094800000000000000000810000008000D000000000000000000000000000000000000000000000000000000000000000000000400080BAB7
:390AB000000020080000000000000000000200000000C000000000000000000000000000000000000000000000000000000000000000000000000000F52E
:390AE900000010200600000000000000000400000000C400000000000000000000000000000000000000000000000000000000000000000000000380B0A3
:390B22000C282002060000000000000000000000000000240000000000000000000000000000000000000000000000000000000000000000000003A086F1
:390B5B00041010112604000000000000200400000000C804000000000000000000000000000000000000000000000000000000000000000000000880E4A6
:390B9400E0412C800700000000000000030000008001F040000000000000000000000000000000000000000000000000000000000000000000C00081D689
:390BCD000C4030000600000000000000080000000006C240000000000000000000000000000000000000000000000000000000000000000000000091C408
:390C0600000820101604000000000000400400000020C008000000000000000000000000000000000000000000000000000000000000000000002080C7D0
:390C3F002000048000000000000000000D000000800010000000000000000000000000000000000000000000000000000000000000000000004023C18691
:390C780000400000000000000000000000000000000000000000000000000000000000000000000000000000000000000000000000000000000003808EF2
:390CB1000000000000000000000000000000000000000000000000000000000000000000000000000000000000000000000000000000000000000380CABD
:390CEA0008040220000000000000000080020000002004280000000000000000000000000000000000000000000000000000000000000000000043B0DB07
:390D23000010000210010000000000002000000000160104000000000000000000000000000000000000000000000000000000000000000000000B11AD70
:390D5C0060400C9001000000000000000F04000080013040000000000000000000000000000000000000000000000000000000000000000000C00300A4B6
:390D95008480001006000000000000000000000000000040000000000000000000000000000000000000000000000000000000000000000000000131A2F7
:390DCE008005300226080000000000000C0100000010C208000000000000000000000000000000000000000000000000000000000000000000001380A9E4
:390E0700B001348000000000000000004DA0010080061000000000000000000000000000000000000000000000000000000000000000000000401200C8AF
:390E40008001300006010000000000000482010000060000000000000000000000000000000000000000000000000000000000000000000000000101D260
:390E7900800130200000000000000000080000000006C400000000000000000000000000000000000000000000000000000000000000000000000200BFDC
:390EB2008C0100024608000000000000248821000000C000000000000000000000000000000000000000000000000000000000000000000000000322F97F
:390EEB000484300216010000000000002880090000C0C002000000000000000000000000000000000000000000000000000000000000000000000A00D2EE
:390F240060003C9005000000000000000FE481008007F080000000000000000000000000000000000000000000000000000000000000000000C001818333
:390F5D008C0130100600000000000000088081000000C000000000000000000000000000000000000000000000000000000000000000000000000390D359
:390F96008051300206010000000000000C8111000026C424000000000000000000000000000000000000000000000000000000000000000000008B00B52C
:390FCF0000000000000000000000000000000000000000000000000000000000000000000000000000000000000000000000000000000000000000C0BD6C
:391008002000048000100002400008000120000480001000000000000000000000000000000000800010000240000800012000048000100002400080F9B2
:391041000000000000000000000000000000000000000000000000000000000000000000000000000000000000000000000000000000000000000080F9FD
:39107A002C000480001000024000080001200004800010000000000000000000000000000000008000100002400008000120000480001000024000308EEF
:3910B3000400000000000000000000000000000000000000000000000000000000000000000000000000000000000000000000000000000000000090ACC4
:3910EC002000048000100002400008000120000480001000000000000000000000000000000000800010000240000800012000048000100002400080F9CE
:391125000C000000000000000000000000000000000000000000000000000000000000000000000000000000000000000000000000000000000000308EC7
:39115E002000048000100002400008000120000480001000000000000000000000000000000000800010000240000800012000048000100002400080F95B
:391197000000040000000000000000000120000000000000000000000000000000000000000000000000000000000000000000000000000000000080CEAC
:3911D0000000000000000000000000000000000000000000000000000000000000000000000000000000000000000000000000000000000000000180E87D
:391209000000000000000000000000000000000000000000000000000000000000000000000000000000000000000000000000000000000000000080F933
:391242006801000004000000000000000000000080040000000000000000000000000000000000000000000000000000000000000000000000000080AB57
:39127B0000000010000200000000000000040000000000000000000000000000000000000000000000000000000000000000000000000000000000A188FB
:3912B4000000000000010000000000000800000000000020000000000000000000000000000000000000000000000000000000000000000000000200F8DE
:3912ED00004010000000000000000000000000000002002000000000000000000000000000000000000000000000000000000000000000000000000885C9
:391326000000000000000000000000000080000000000000000000000000000000000000000000000000000000000000000000000000000000040000FD0D
:39135F000085080000800200000000100420000000018042000000000000000000000000000000000000000000000000000000000000000000100080803F
:39139800803A000000002A000000000200000060001C8413000000000000000000000000000000000000000000000000000000000000000080470000F864
:3913D1008000000000002000000000000000000000000000000000000000000000000000000000000000000000000000000000000000000000040080F7C8
:39140A0002400000000000000000000000000010000240200000000000000000000000000000000000000000000000000000000000000000000400289435
:391443008000000000000000000000000000000000000000000000000000000000000000000000000000000000000000000000000000000000000080F17F
:39147C000000000000000000000000000200000000000000000000000000000000000000000000000000000000000000000000000000000000800000D3E2
:3914B5000000000000000000000000000000000000000000000000000000000000000000000000000000000000000000000000000000000000000080F985
:3914EE000004000010000000000000000000000000100000000000000000000000000000000000000000000000000000000000000000000000000080B869
:391527000000000000000000000000000000000000010000000000000000000000000000000000000000000000000000000000000000000000000080F812
:391560000000000000000000000000001000000000000000000000000000000000000000000000000000000000000000000000000000000000000080F8CA
:391599000001400008000000000000001000010000008000000000000000000000000000000000000000000000000000000000000000000000400000E916
:3915D200800010000200000000000000048000000000C0000000000000000000000000000000000000000000000000000000000000000000000000008981
:39160B000200200000000000000000000800000000041000010000000000000000000000000000000000000000000000000000000000000000000200DD88
:391644000000000000000000000000000000000000000080000000000000000000000000000000000000000000000000000000000000000000000000F9F4
:39167D008600100000000000000000100000000000000120000000000000000000000000000000000000000000000000000000000000000000000080A449
:3916B6001040000002000000000020000000000000020000000000000000000000000000000000000000000000000000000000000000000000000180AD59
:3916EF004000098500000000000008200000000080000240000000000000000000000000000000000000000000000000000000000000000000400080A7A3
:39172800105FC807010000000000880F00800000005E0128000000000000000000000000000000000000000000000000000000000000000024000028D887
:3917610000400000000000000000000000800000000201200000000000000000000000000000000000000000000000000000000000000000000000008CE0
:39179A008000000800000000000000100000000000020000000000000000000000000000000000000000000000000000000000000000000000000000E399
:3917D3000000000001000000000000000400000000020000000000000000000000000000000000000000000000000000000000000000000000800100B69F
:39180C000000000000000000000000000000000000000000000000000000000000000000000000000000000000000000000000000000000000000080F92A
:391845000000020080000000000000000000000080000000000000000000000000000000000000000000000000000000000000000000000000000080FBED
:39187E000000000000000000000000000000000000000000000000000000000000000000000000000000000000000000000000000000000000000080F9B8
:3918B7000000008000000000000000000000000000000000000000000000000000000000000000000000000000000000000000000000000000000080F107
:3918F0000000000000000000000000000000000000000000000000000000000000000000000000000000000000000000000000000000000000000081E955
:391929000000000000000000000000000000000000000000000000000000000000000000000000000000000000000000000000000000000000000080F90C
:39196200000000000008000000000000000200000000080000000000000000000000000000000000000000000000000000000000000000000000000491A5
:39199B00000000000004000000000000000000000080040000000000000000000000000000000000000000000000000000000000000000000000002093D8
:3919D4000020000480060000000000000001000000000200000000000000000000000000000000000000000000000000000000000000000000000000AB82
:391A0D000000000004000000000000000000000000000000000000000000000000000000000000000000000000000000000000000000000000000080B963
:391A46000040000000000000000000000000000000000000000000000000000000000000000000000000000000000000000000000000000000000008B56A
:391A7F000000000000000000000000000000000000000000000000000000000000000000000000000000000000000000000000000000000000000080F9B5
:391AB8000000000000000000000000000000000000000000000000000000000000000000000000000000000000000000000000000000000000000080F97C
:391AF1000000000000000000000000000000000000000000000000000000000000000000000000000000000000000000000000000000000000000080F943
:391B2A000000000000000000000000000000000000000000000000000000000000000000000000000000000000000000000000000000000000000080F909
:391B63000000000000000000000000000000000000000000000000000000000000000000000000000000000000000000000000000000000000000080F9D0
:391B9C000000000000000000000000000000000000000000000000000000000000000000000000000000000000000000000000000000000000000080F997
:391BD5000000000000000000000000000000000000000000000000000000000000000000000000000000000000000000000000000000000000000080F95E
:391C0E000000000000000000000000000000000000000000000000000000000000000000000000000000000000000000000000000000000000000080F924
:391C470000000000000000000000000000000000000000000000000000000000000000000000000000000000000000000000000000000000000000C0BDE7
:391C80000000000000000000000000000000000000000000000000000000000000000000000000000000000000000000000000000000000000000080F9B2
:391CB9000000000000000000000000000000000000000000000000000000000000000000000000000000000000000000000000000000000000000080F979
:391CF2000800000000000000000000000000000000000000000000000000000000000000000000000000000000000000000000000000000000000030CAB7
:391D2B000000000000000000000000000000000000000000000000000000000000000000000000000000000000000000000000000000000000000090E807
:391D64000000000000000000000000000000000000000000000000000000000000000000000000000000000000000000000000000000000000000080F9CD
:391D9D0004000000000000000000000000000000000000000000000000000000000000000000000000000000000000000000000000000000000000B08ECB
:391DD6000000000000000000000000000000000000000000000000000000000000000000000000000000000000000000000000000000000000000080F95B
:391E0F000000000000000000000000000000000000000000000000000000000000000000000000000000000000000000000000000000000000000080F921
:391E48000000000000000000000000000000000000000000000000000000000000000000000000000000000000000000000000000000000000000080F9E8
:391E81000000000000000000000000000000000000000000000000000000000000000000000000000000000000000000000000000000000000000080F9AF
:391EBA000800000000000000000000000000000000000000000000000000000000000000000000000000000000000000000000000000000000000020DBEC
:391EF3000000000000000000000000000000000000000000000000000000000000000000000000000000000000000000000000000000000000000080F93D
:391F2C000000000000000000000000000000000000000000000000000000000000000000000000000000000000000000000000000000000000000080F903
:391F65000400000000000000000000000000000000000000000000000000000000000000000000000000000000000000000000000000000000000090AC03
:391F9E000000000000000000000000000000000000000000000000000000000000000000000000000000000000000000000000000000000000000080F991
:391FD7000000000000000000000000000000000000000000000000000000000000000000000000000000000000000000000000000000000000000080F958
:392010000000000000000000000000000000000000000000000000000000000000000000000000000000000000000000000000000000000000000080F91E
:392049000000000000000000000000000000000000000000000000000000000000000000000000000000000000000000000000000000000000000080F9E5
:392082000800000000000000000000000000000000000000000000000000000000000000000000000000000000000000000000000000000000000020DB22
:3920BB000000000000000000000000000000000000000000000000000000000000000000000000000000000000000000000000000000000000000080F973
:3920F4000000000000000000000000000000000000000000000000000000000000000000000000000000000000000000000000000000000000000080F93A
:39212D000400000000000000000000000000000000000000000000000000000000000000000000000000000000000000000000000000000000000090AC39
:392166000000000000000000000000000000000000000000000000000000000000000000000000000000000000000000000000000000000000000080F9C7
:39219F000000000000000000000000000000000000000000000000000000000000000000000000000000000000000000000000000000000000000080F98E
:3921D8000000000000000000000000000000000000000000000000000000000000000000000000000000000000000000000000000000000000000080F955
:392211000000000000000000000000000000000000000000000000000000000000000000000000000000000000000000000000000000000000000080F91B
:39224A000800000000000000000000000000000000000000000000000000000000000000000000000000000000000000000000000000000000000020DB58
:392283000000000000000000000000000000000000000000000000000000000000000000000000000000000000000000000000000000000000000080F9A9
:3922BC000000000000000000000000000000000000000000000000000000000000000000000000000000000000000000000000000000000000000080F970
:3922F5000400000000000000000000000000000000000000000000000000000000000000000000000000000000000000000000000000000000000090AC70
:39232E000000000000000000000000000000000000000000000000000000000000000000000000000000000000000000000000000000000000000080F9FD
:3923670000000000000000000000000000000000000000000000000000000000000000000000000000000000000000000000000000000000000000C0BDC0
:3923A0000000000000000000000000000000000000000000000000000000000000000000000000000000000000000000000000000000000000000080F98B
:3923D9000000000000000000000000000000000000000000000000000000000000000000000000000000000000000000000000000000000000000080F952
:392412000800000000000000000000000000000000000000000000000000000000000000000000000000000000000000000000000000000000000030CA8F
:39244B000000000000000000000000000000000000000000000000000000000000000000000000000000000000000000000000000000000000000090E8E0
:392484000000000000000000000000000000000000000000000000000000000000000000000000000000000000000000000000000000000000000080F9A6
:3924BD0004000000000000000000000000000000000000000000000000000000000000000000000000000000000000000000000000000000000000B08EA4
:3924F6000000000000000000000000000000000000000000000000000000000000000000000000000000000000000000000000000000000000000080F934
:39252F000000000000000000000000000000000000000000000000000000000000000000000000000000000000000000000000000000000000000080F9FA
:392568000000000000000000000000000000000000000000000000000000000000000000000000000000000000000000000000000000000000000080F9C1
:3925A1000000000000000000000000000000000000000000000000000000000000000000000000000000000000000000000000000000000000000080F988
:3925DA000800000000000000000000000000000000000000000000000000000000000000000000000000000000000000000000000000000000000020DBC5
:392613000000000000000000000000000000000000000000000000000000000000000000000000000000000000000000000000000000000000000080F915
:39264C000000000000000000000000000000000000000000000000000000000000000000000000000000000000000000000000000000000000000080F9DC
:392685000400000000000000000000000000000000000000000000000000000000000000000000000000000000000000000000000000000000000090ACDC
:3926BE000000000000000000000000000000000000000000000000000000000000000000000000000000000000000000000000000000000000000080F96A
:3926F7000000000000000000000000000000000000000000000000000000000000000000000000000000000000000000000000000000000000000080F931
:392730000000000000000000000000000000000000000000000000000000000000000000000000000000000000000000000000000000000000000080F9F7
:392769000000000000000000000000000000000000000000000000000000000000000000000000000000000000000000000000000000000000000080F9BE
:3927A2000800000000000000000000000000000000000000000000000000000000000000000000000000000000000000000000000000000000000020DBFB
:3927DB000000000000000000000000000000000000000000000000000000000000000000000000000000000000000000000000000000000000000080F94C
:392814000000000000000000000000000000000000000000000000000000000000000000000000000000000000000000000000000000000000000080F912
:39284D000400000000000000000000000000000000000000000000000000000000000000000000000000000000000000000000000000000000000090AC12
:392886000000000000000000000000000000000000000000000000000000000000000000000000000000000000000000000000000000000000000080F9A0
:3928BF000000000000000000000000000000000000000000000000000000000000000000000000000000000000000000000000000000000000000080F967
:3928F8002000048000100002400008000120000480001000000000000000000000000000000000800010000240000800012000048000100002400080F9AA
:392931000000000000000000000000000000000000000000000000000000000000000000000000000000000000000000000000000000000000000080F9F4
:39296A002C000480001000024000080001200004800010000000000000000000000000000000008000100002400008000120000480001000024000209FE5
:3929A3000400000000000000000000000000000000000000000000000000000000000000000000000000000000000000000000000000000000000080BDBA
:3929DC002000048000100002400008000120000480001000000000000000000000000000000000800010000240000800012000048000100002400080F9C5
:392A15000C00000000000000000000000000000000000000000000000000000000000000000000000000000000000000000000000000000000000010ACC0
:392A4E002000048000100002400008000120000480001000000000000000000000000000000000800010000240000800012000048000100002400080F952
:392A87000000000000000000000000000000000000000000000000000000000000000000000000000000000000000000000000000000000000000080F99D
:392AC0000000000000000000000000000000000000000000000000000000000000000000000000000000000000000000000000000000000000000080F964
:392AF9000000000000000000000000000000000000000000000000000000000000000000000000000000000000000000000000000000000000000080F92B
:392B32000000000000000000000000000000000000000000000000000000000000000000000000000000000000000000000000000000000000000080F9F1
:392B6B000000000000000000000000000000000000000000000000000000000000000000000000000000000000000000000000000000000000000080F9B8
:392BA4000000000000000000000000000000000000000000000000000000000000000000000000000000000000000000000000000000000000000080F97F
:392BDD000000000000000000000000000000000000000000000000000000000000000000000000000000000000000000000000000000000000000080F946
:392C16000000000000000000000000000000000000000000000000000000000000000000000000000000000000000000000000000000000000000080F90C
:392C4F000000000000000000000000000000000000000000000000000000000000000000000000000000000000000000000000000000000000000080F9D3
:392C88000000000000000000000000000000000000000000000000000000000000000000000000000000000000000000000000000000000000000080F99A
:392CC1000000000000000000000000000000000000000000000000000000000000000000000000000000000000000000000000000000000000000080F961
:392CFA000000000000000000000000000000000000000000000000000000000000000000000000000000000000000000000000000000000000000080F928
:392D33000000000000000000000000000000000000000000000000000000000000000000000000000000000000000000000000000000000000000080F9EE
:392D6C000000000000000000000000000000000000000000000000000000000000000000000000000000000000000000000000000000000000000080F9B5
:392DA5000000000000000000000000000000000000000000000000000000000000000000000000000000000000000000000000000000000000000080F97C
:392DDE000000000000000000000000000000000000000000000000000000000000000000000000000000000000000000000000000000000000000080F943
:392E17000000000000000000000000000000000000000000000000000000000000000000000000000000000000000000000000000000000000000080F909
:392E50000000000000000000000000000000000000000000000000000000000000000000000000000000000000000000000000000000000000000080F9D0
:392E89000000000000000000000000000000000000000000000000000000000000000000000000000000000000000000000000000000000000000080F997
:392EC2000000000000000000000000000000000000000000000000000000000000000000000000000000000000000000000000000000000000000080F95E
:392EFB000000000000000000000000000000000000000000000000000000000000000000000000000000000000000000000000000000000000000080F925
:392F34000000000000000000000000000000000000000000000000000000000000000000000000000000000000000000000000000000000000000080F9EB
:392F6D000000000000000000000000000000000000000000000000000000000000000000000000000000000000000000000000000000000000000080F9B2
:392FA6000000000000000000000000000000000000000000000000000000000000000000000000000000000000000000000000000000000000000080F979
:392FDF000000000000000000000000000000000000000000000000000000000000000000000000000000000000000000000000000000000000000080F940
:393018000000000000000000000000000000000000000000000000000000000000000000000000000000000000000000000000000000000000000080F906
:393051000000000000000000000000000000000000000000000000000000000000000000000000000000000000000000000000000000000000000080F9CD
:39308A000000000000000000000000000000000000000000000000000000000000000000000000000000000000000000000000000000000000000080F994
:3930C3000000000000000000000000000000000000000000000000000000000000000000000000000000000000000000000000000000000000000080F95B
:3930FC000000000000000000000000000000000000000000000000000000000000000000000000000000000000000000000000000000000000000080F922
:393135000000000000000000000000000000000000000000000000000000000000000000000000000000000000000000000000000000000000000080F9E8
:39316E000000000000000000000000000000000000000000000000000000000000000000000000000000000000000000000000000000000000000080F9AF
:3931A7000000000000000000000000000000000000000000000000000000000000000000000000000000000000000000000000000000000000000080F976
:3931E0000000000000000000000000000000000000000000000000000000000000000000000000000000000000000000000000000000000000000080F93D
:393219000000000000000000000000000000000000000000000000000000000000000000000000000000000000000000000000000000000000000080F903
:393252000000000000000000000000000000000000000000000000000000000000000000000000000000000000000000000000000000000000000080F9CA
:39328B000000000000000000000000000000000000000000000000000000000000000000000000000000000000000000000000000000000000000080F991
:3932C4000000000000000000000000000000000000000000000000000000000000000000000000000000000000000000000000000000000000000080F958
:3932FD000000000000000000000000000000000000000000000000000000000000000000000000000000000000000000000000000000000000000080F91F
:393336000000000000000000000000000000000000000000000000000000000000000000000000000000000000000000000000000000000000000080F9E5
:39336F000000000000000000000000000000000000000000000000000000000000000000000000000000000000000000000000000000000000000080F9AC
:3933A8000000000000000000000000000000000000000000000000000000000000000000000000000000000000000000000000000000000000000080F973
:3933E1000000000000000000000000000000000000000000000000000000000000000000000000000000000000000000000000000000000000000080F93A
:39341A000000000000000000000000000000000000000000000000000000000000000000000000000000000000000000000000000000000000000080F900
:393453000000000000000000000000000000000000000000000000000000000000000000000000000000000000000000000000000000000000000080F9C7
:39348C000000000000000000000000000000000000000000000000000000000000000000000000000000000000000000000000000000000000000080F98E
:3934C5000000000000000000000000000000000000000000000000000000000000000000000000000000000000000000000000000000000000000080F955
:3934FE000000000000000000000000000000000000000000000000000000000000000000000000000000000000000000000000000000000000000080F91C
:393537001000000000000000000000000000000000000000000000000000000000000000000000000000000000000000000000000000000000000080F8D3
:393570000000000000000000000000000000000000000000000000000000000000000000000000000000000000000000000000000000000000000080F9A9
:3935A9000000000000000000000000000000000000000000000000000000000000000000000000000000000000000000000000000000000000000080F970
:3935E2000C000000000000000000000000000000000000000000000000000000000000000000000000000000000000000000000000000000000000209FE5
:39361B000400000000000000000000000000000000000000000000000000000000000000000000000000000000000000000000000000000000000080BD35
:393654000000000000000000000000000000000000000000000000000000000000000000000000000000000000000000000000000000000000000080F9C4
:39368D000C00000000000000000000000000000000000000000000000000000000000000000000000000000000000000000000000000000000000010AC3C
:3936C6000000000000000000000000000000000000000000000000000000000000000000000000000000000000000000000000000000000000000080F952
:3936FF000000000000000000000000000000000000000000000000000000000000000000000000000000000000000000000000000000000000000080F919
:393738000000000000000000000000000000000000000000000000000000000000000000000000000000000000000000000000000000000000000080F9DF
:393771000000000000000000000000000000000000000000000000000000000000000000000000000000000000000000000000000000000000000080F9A6
:3937AA000800000000000000000000000000000000000000000000000000000000000000000000000000000000000000000000000000000000000020DBE3
:3937E3000000000000000000000000000000000000000000000000000000000000000000000000000000000000000000000000000000000000000080F934
:39381C000000000000000000000000000000000000000000000000000000000000000000000000000000000000000000000000000000000000000080F9FA
:393855000400000000000000000000000000000000000000000000000000000000000000000000000000000000000000000000000000000000000090ACFA
:39388E000000000000000000000000000000000000000000000000000000000000000000000000000000000000000000000000000000000000000080F988
:3938C7000000000000000000000000000000000000000000000000000000000000000000000000000000000000000000000000000000000000000080F94F
:393900000000000000000000000000000000000000000000000000000000000000000000000000000000000000000000000000000000000000000080F915
:393939000000000000000000000000000000000000000000000000000000000000000000000000000000000000000000000000000000000000000080F9DC
:393972000800000000000000000000000000000000000000000000000000000000000000000000000000000000000000000000000000000000000020DB19
:3939AB000000000000000000000000000000000000000000000000000000000000000000000000000000000000000000000000000000000000000080F96A
:3939E4000000000000000000000000000000000000000000000000000000000000000000000000000000000000000000000000000000000000000080F931
:393A1D000400000000000000000000000000000000000000000000000000000000000000000000000000000000000000000000000000000000000090AC30
:393A56000000000000000000000000000000000000000000000000000000000000000000000000000000000000000000000000000000000000000080F9BE
:393A8F000000000000000000000000000000000000000000000000000000000000000000000000000000000000000000000000000000000000000080F985
:393AC8000000000000000000000000000000000000000000000000000000000000000000000000000000000000000000000000000000000000000080F94C
:393B01000000000000000000000000000000000000000000000000000000000000000000000000000000000000000000000000000000000000000080F912
:393B3A000800000000000000000000000000000000000000000000000000000000000000000000000000000000000000000000000000000000000020DB4F
:393B73000000000000000000000000000000000000000000000000000000000000000000000000000000000000000000000000000000000000000080F9A0
:393BAC000000000000000000000000000000000000000000000000000000000000000000000000000000000000000000000000000000000000000080F967
:393BE5000400000000000000000000000000000000000000000000000000000000000000000000000000000000000000000000000000000000000090AC67
:393C1E000000000000000000000000000000000000000000000000000000000000000000000000000000000000000000000000000000000000000080F9F4
:393C57000000000000000000000000000000000000000000000000000000000000000000000000000000000000000000000000000000000000000080F9BB
:393C90000000000000000000000000000000000000000000000000000000000000000000000000000000000000000000000000000000000000000080F982
:393CC9000000000000000000000000000000000000000000000000000000000000000000000000000000000000000000000000000000000000000080F949
:393D02000800000000000000000000000000000000000000000000000000000000000000000000000000000000000000000000000000000000000020DB85
:393D3B000000000000000000000000000000000000000000000000000000000000000000000000000000000000000000000000000000000000000080F9D6
:393D74000000000000000000000000000000000000000000000000000000000000000000000000000000000000000000000000000000000000000080F99D
:393DAD000400000000000000000000000000000000000000000000000000000000000000000000000000000000000000000000000000000000000090AC9D
:393DE6000000000000000000000000000000000000000000000000000000000000000000000000000000000000000000000000000000000000000080F92B
:393E1F000000000000000000000000000000000000000000000000000000000000000000000000000000000000000000000000000000000000000080F9F1
:393E58000000000000000000000000000000000000000000000000000000000000000000000000000000000000000000000000000000000000000080F9B8
:393E91000000000000000000000000000000000000000000000000000000000000000000000000000000000000000000000000000000000000000080F97F
:393ECA000800000000000000000000000000000000000000000000000000000000000000000000000000000000000000000000000000000000000020DBBC
:393F03000000000000000000000000000000000000000000000000000000000000000000000000000000000000000000000000000000000000000080F90C
:393F3C000000000000000000000000000000000000000000000000000000000000000000000000000000000000000000000000000000000000000080F9D3
:393F75000400000000000000000000000000000000000000000000000000000000000000000000000000000000000000000000000000000000000090ACD3
:393FAE000000000000000000000000000000000000000000000000000000000000000000000000000000000000000000000000000000000000000080F961
:393FE7000000000000000000000000000000000000000000000000000000000000000000000000000000000000000000000000000000000000000080F928
:394020000000000000000000000000000000000000000000000000000000000000000000000000000000000000000000000000000000000000000080F9EE
:394059000000000000000000000000000000000000000000000000000000000000000000000000000000000000000000000000000000000000000080F9B5
:394092000800000000000000000000000000000000000000000000000000000000000000000000000000000000000000000000000000000000000020DBF2
:3940CB000000000000000000000000000000000000000000000000000000000000000000000000000000000000000000000000000000000000000080F943
:394104000000000000000000000000000000000000000000000000000000000000000000000000000000000000000000000000000000000000000080F909
:39413D000400000000000000000000000000000000000000000000000000000000000000000000000000000000000000000000000000000000000090AC09
:394176000000000000000000000000000000000000000000000000000000000000000000000000000000000000000000000000000000000000000080F997
:3941AF000000000000000000000000000000000000000000000000000000000000000000000000000000000000000000000000000000000000000080F95E
:3941E8002000048000100002400008000120000480001000000000000000000000000000000000800010000240000800012000048000100002400080F9A1
:394221000000000000000000000000000000000000000000000000000000000000000000000000000000000000000000000000000000000000000080F9EB
:39425A002C000480001000024000080001200004800010000000000000000000000000000000008000100002400008000120000480001000024000209FDC
:394293000400000000000000000000000000000000000000000000000000000000000000000000000000000000000000000000000000000000000080BDB1
:3942CC002000048000100002400008000120000480001000000000000000000000000000000000800010000240000800012000048000100002400080F9BC
:394305000C00000000000000000000000000000000000000000000000000000000000000000000000000000000000000000000000000000000000010ACB7
:39433E002000048000100002400008000120000480001000000000000000000000000000000000800010000240000800012000048000100002400080F949
:394377000000000000000000000000000000000000000000000000000000000000000000000000000000000000000000000000000000000000000080F994
:3943B0000000000000000000000000000000000000000000000000000000000000000000000000000000000000000000000000000000000000000080F95B
:3943E9000000000000000000000000000000000000000000000000000000000000000000000000000000000000000000000000000000000000000080F922
:394422001000000000000000000000000000000000000000000000000000000000000000000000000000000000000000000000000000000000000080F8D9
:39445B000000000000000000000000000000000000000000000000000000000000000000000000000000000000000000000000000000000000000080F9AF
:394494000000000000000000000000000000000000000000000000000000000000000000000000000000000000000000000000000000000000000080F976
:3944CD000000000000000000000000080000000000000000000000000000000000000000000000000000000000000000000000000000000000000080F13D
:394506000000000000000000000000000000000000000000000000000000000000000000000000000000000000000000000000000000000000000080F903
:39453F000000000000000000000000200000000000000000000000000000000000000000000000000000000000000000000000000000000000000080D9CA
:394578000000000000000000000000000000000000000000000000000000000000000000000000000000000000000000000000000000000000000080F991
:3945B1000000000000000000000000000000000000000000000000000000000000000000000000000000000000000000000000000000000000000080F958
:3945EA000000000000000000000000000000000000000000000000000000000000000000000000000000000000000000000000000000000000000080F91F
:394623000000000000000000000000000000000000000000000000000000000000000000000000000000000000000000000000000000000000000080F9E5
:39465C000000000000000000000000000000000000000000000000000000000000000000000000000000000000000000000000000000000000000080F9AC
:394695000000000000000000000000000000000000000000000000000000000000000000000000000000000000000000000000000000000000000080F973
:3946CE000000000000000000000000000000000000000000000000000000000000000000000000000000000000000000000000000000000000000080F93A
:394707000000000000000000000000000000000000000000000000000000000000000000000000000000000000000000000000000000000000000080F900
:394740000000000000000000000000000000000000000000000000000000000000000000000000000000000000000000000000000000000000000080F9C7
:394779000000000000000000000000000000000000000000000000000000000000000000000000000000000000000000000000000000000000000080F98E
:3947B2000000000000000000000000000000000000000000000000000000000000000000000000000000000000000000000000000000000000000080F955
:3947EB000000000000000000000000000000000000000000000000000000000000000000000000000000000000000000000000000000000000000080F91C
:394824000000000000000000000000000000000000000000000000000000000000000000000000000000000000000000000000000000000000000080F9E2
:39485D000000000000000000000000000000000000000000000000000000000000000000000000000000000000000000000000000000000000000080F9A9
:394896000000000000000000000000000000000000000000000000000000000000000000000000000000000000000000000000000000000000000080F970
:3948CF000000000000000000000000000000000000000000000000000000000000000000000000000000000000000000000000000000000000000080F937
:394908000000000000000000000000000000000000000000000000000000000000000000000000000000000000000000000000000000000000000080F9FD
:394941000000000000000000000000000000000000000000000000000000000000000000000000000000000000000000000000000000000000000080F9C4
:39497A000000000000000000000000000000000000000000000000000000000000000000000000000000000000000000000000000000000000000080F98B
:3949B3000000000000000000000000000000000000000000000000000000000000000000000000000000000000000000000000000000000000000080F952
:3949EC000000000000000000000000000000000000000000000000000000000000000000000000000000000000000000000000000000000000000080F919
:394A25000000000000000000000000000000000000000000000000000000000000000000000000000000000000000000000000000000000000000080F9DF
:394A5E000000000000000000000000000000000000000000000000000000000000000000000000000000000000000000000000000000000000000080F9A6
:394A97000000000000000000000000000000000000000000000000000000000000000000000000000000000000000000000000000000000000000080F96D
:394AD0000000000000000000000000000000000000000000000000000000000000000000000000000000000000000000000000000000000000000080F934
:394B09000000000000000000000000000000000000000000000000000000000000000000000000000000000000000000000000000000000000000080F9FA
:394B42000000000000000000000000000000000000000000000000000000000000000000000000000000000000000000000000000000000000000080F9C1
:394B7B000000000000000000000000000000000000000000000000000000000000000000000000000000000000000000000000000000000000000080F988
:394BB4000000000000000000000000000000000000000000000000000000000000000000000000000000000000000000000000000000000000000080F94F
:394BED000000000000000000000000000000000000000000000000000000000000000000000000000000000000000000000000000000000000000080F916
:394C26000000000000000000000000000000000000000000000000000000000000000000000000000000000000000000000000000000000000000080F9DC
:394C5F004008900012000000000000000000000000002004000000000000000000000000000000000000000000000000000000000000000000001480DB9F
:394C98000020200004000000000000000000000000000010000000000000000000000000000000000000000000000000000000000000000000004080AE21
:394CD1000000000000000000000000000000000000000000000000000000000000000000000000000000000000000000000000000000000000000080F931
:394D0A000000000000000000000000000000000000000000000000000000000000000000000000000000000000000000000000000000000000000080F9F7
:394D4300003AE0025C00092001248004900012400248001D000000000000000000000000000000004800092001248004900012400248000920017480FE42
:394D7C00004C9001320006C00018000360000C800130002600000000000000000000000000000000300006C00018000360000C8001300006C0009880A718
:024DB500FFFFFE
:00000001FF
