:020000040000FA
:39000000FFFF62FF3600FFFFFFFFFFFFFFFFFFFFFFFFFFFFFFFFFFFFFFFFFFFFFFFFFFFFFFFFFFFFFFFFFFFFFFFFFFFFFFFFFFFFFFFFFFFFFFFFFFFFFF65
:39003900000C9001304006C80019000360020C800932000600000000000000000000000000000000300006C00018000360000C8001300006C00018809A42
:390072000012E00248800B70012E8004D0011240075C0009000000000000000000000000000000004800092001248004900012400248000920012400DC6C
:3900AB000000000000000000000000000000000000000000000000000000000000000000000000000000000000000000000000000000000000000080F9A3
:3900E4000000000000000000000000000000000000000000000000000000000000000000000000000000000000000000000000000000000000000080F96A
:39011D0000002000000000100002000000030000040400000000000000000000000000000000000000000000000000000000000000000000000000809E4E
:390156000000C00000000A40020C0000000000100111000000000000000000000000010000000000000000000000000000000000000000000000000080B5
:39018F00A00104862200001221000800810000008000500800000000000000000000000000000000000000000000000000000000000000000000000087CF
:3901C80000000100000200180000004008040000000084200000000000000000000000000000000000000000000000000000000000000000000000808DE6
:390201000001100000020010040000000004000000004000000000000000000000000000000000000000000000000000000000000000000000000080AA2F
:39023A00002000124000001801000008800000000024C248000000000000000000000000000000000000000000000000000000000000000000000080E2E8
:390273000008801010080018100000084008000000104080000000000000000000000000000000000000000000000000000000000000000000000000F862
:3902AC00E0410C800100000E00001800030000008001B400000000000000000000000000000000000000000000000000000000000000000000000000BB52
:3902E5000000002000000018000000100000000000004040000000000000000000000000000000000000000000000000000000000000000000000000B266
:39031E008005020100080058080040042010000000008108000000000000000000000000000000000000000000000000000000000000000000000080AD8C
:390357002021348620000012210008000D00000080869000000000000000000000000000000000000000000000000000000000000000000000000080FBF9
:390390000000100000020018000060000C00000000040080000000000000000000000000000000000000000000000000000000000000000000000000D446
:3903C90000812010000200100400000000000000000604000000000000000000000000000000000000000000000000000000000000000000000000009D8D
:390402008808100040000018010060420000000000160010000000000000000000000000000000000000000000000000000000000000000000000020B42C
:39043B000004B01010080018020060804C08000000220208010000000000000000000000000000000000000000000000000000000000000000000080AD04
:3904740060003D800300000E000078000F000000800530000000000000000000000000000000000000000000000000000000000000000000000000809CC9
:3904AD000401301000000018000060000C00000000020000000000000000000000000000000000000000000000000000000000000000000000000090B407
:3904E6008000310200080058080000242C10000000440242000000000000000000000000000000000000000000000000000000000000000000000080CE8C
:39051F00B00034840000005A000008048100000080061000000000000000000000000000000000000000000000000000000000000000000000000040A1DD
:39055800000021000000000808006010080400000000C020000000000000000000000000000000000000000000000000000000000000000000000080C09D
:390591000000300006000018000020000C040000000642200000000000000000000000000000000000000000000000000000000000000000000000809437
:3905CA000C90301106000008210060088C0000000026C0020000000000000000000000000000000000000000000000000000000000000000000000B0DE82
:39060300840480004608005020006002800000000046C010000000000000000000000000000000000000000000000000000000000000000000000010826E
:39063C0060010DA00700001E000018100302000080073400000000000000000000000000000000000000000000000000000000000000000000000000BBAF
:390675000C00000806000018080060000C0000000006C0400000000000000000000000000000000000000000000000000000000000000000000000B0935D
:3906AE0000000100260400980000600A2C08000000460202000000000000000000000000000000000000000000000000000000000000000000000080C127
:3906E700A09104862600001A000008008D0000008042D800000000000000000000000000000000000000000000000000000000000000000000000080F937
:390720000001000006020000000060200C04000000040000000000000000000000000000000000000000000000000000000000000000000000000000CD36
:39075900804010000602000000000000000400000000C0000000000000000000000000000000000000000000000000000000000000000000000000808BC0
:39079200080500124600000020006084880000000044C8000100000000000000000000000000000000000000000000000000000000000000000000A08709
:3907CB000010801014080000020020818C0000000002C018000000000000000000000000000000000000000000000000000000000000000000000080CAE6
:3908040060800C800700001E000018000F0200008005F100000000000000000000000000000000000000000000000000000000000000000000000000A7E4
:39083D00040000200600000004006020000000000002C0000000000000000000000000000000000000000000000000000000000000000000000000908200
:39087600000001010608001800000000800400000014C842000000000000000000000000000000000000000000000000000000000000000000000080AC53
:3908AF00B001048620000002000008000D200000808610000000000000000000000000000000000000000000000000000000000000000000000000C0BEEA
:3908E800800100000402000000000000000000000006C000000000000000000000000000000000000000000000000000000000000000000000000080A961
:390921000000100000020018000060000C0000000006C000000000000000000000000000000000000000000000000000000000000000000000000080DAE7
:39095A008C09011240000018000060240C0400000024C2000100000000000000000000000000000000000000000000000000000000000000000000B0AC8D
:390993008441801010080098100060808C0000020016C118000000000000000000000000000000000000000000000000000000000000000000000090FB2E
:3909CC00E0010C800100001E000018000F6200008007F000000000000000000000000000000000000000000000000000000000000000000000000080AA3C
:390A05008C01002000000018000060000C8401000006C2000000000000000000000000000000000000000000000000000000000000000000000000B0C6C4
:390A3E008005020100080098100060848C8091000006C042000000000000000000000000000000000000000000000000000000000000000000000080E25C
:390A77003020348026000002000068020100000080161400000000000000000000000000000000000000000000000000000000000000000000000080A8DD
:390AB0008000002006020018000060200000000000060000000000000000000000000000000000000000000000000000000000000000000000000000C8FF
:390AE9000080200006020000000060000C0000000006C00000000000000000000000000000000000000000000000000000000000000000000000008093E7
:390B22000C0800044600001820006084000400000044C2000000000000000000000000000000000000000000000000000000000000000000000000A08EE8
:390B5B00040580001208005800000081800000000026C004000000000000000000000000000000000000000000000000000000000000000000000000EA91
:390B9400E0003D880700000604007800030200008007F420000000000000000000000000000000000000000000000000000000000000000000000000D486
:390BCD000C0100000600001804004000000400000006C4000000000000000000000000000000000000000000000000000000000000000000000000908B97
:390C06008090B0400608001801006082800000000026C084000000000000000000000000000000000000000000000000000000000000000000000000A220
:390C3F002030048226000002000068000D0000008014D400000000000000000000000000000000000000000000000000000000000000000000000000E2BF
:390C78000001001006020000000060000C0000000000C0200000000000000000000000000000000000000000000000000000000000000000000000008658
:390CB1008000001006020000000060000C000000000680200000000000000000000000000000000000000000000000000000000000000000000000009CC4
:390CEA00080512014600000000006042000400000016C102000000000000000000000000000000000000000000000000000000000000000000000030F2CA
:390D23008040002016080040000060088C0000000016C21000000000000000000000000000000000000000000000000000000000000000000000001090DD
:390D5C0060000C8003000006080018000F0200008007F000000000000000000000000000000000000000000000000000000000000000000000000000E5DC
:390D95008400000006000018040060100C0400000006C2400000000000000000000000000000000000000000000000000000000000000000000000B0E562
:390DCE000044001206080018010060048C0000000046C002000000000000000000000000000000000000000000000000000000000000000000000080EA0D
:390E0700B001048022000002000008000DA001008006D000000000000000000000000000000000000000000000000000000000000000000000000080B914
:390E4000000000000602000000000000000000000000C000000000000000000000000000000000000000000000000000000000000000000000000080979A
:390E7900808130000602000000000000008401000006C200000000000000000000000000000000000000000000000000000000000000000000000080DA60
:390EB2008C0130004600000000000000808091000026C000000000000000000000000000000000000000000000000000000000000000000000000020A8C5
:390EEB008411301116080000050000804088050200160248000000000000000000000000000000000000000000000000000000000000000000000080B3F3
:390F2400E0813C80070000060000180003E00100800730000000000000000000000000000000000000000000000000000000000000000000000000808AAD
:390F5D008C0130000600001800006000008081000006C100000000000000000000000000000000000000000000000000000000000000000000000090893F
:390F9600802930100608001820006024209011000016C020000000000000000000000000000000000000000000000000000000000000000000000000D3E5
:390FCF0000000000000000000000000000000000000000000000000000000000000000000000000000000000000000000000000000000000000000C0BD6C
:391008002000048000100002400008000120000480001000000000000000000000000000000000800010000240000800012000048000100002400080F9B2
:391041000000000000000000000000000000000000000000000000000000000000000000000000000000000000000000000000000000000000000080F9FD
:39107A002800048000100002400008000120000480001000000000000000000000000000000000800010000240000800012000048000100002400030CAB7
:3910B3000000000000000000000000000000000000000000000000000000000000000000000000000000000000000000000000000000000000000090E88C
:3910EC002000048000100002400008000120000480001000000000000000000000000000000000800010000240000800012000048000100002400080F9CE
:3911250004000000000000000000000000000000000000000000000000000000000000000000000000000000000000000000000000000000000000B08E4F
:39115E002000048000100002400008000120000480001000000000000000000000000000000000800010000240000800012000048000100002400080F95B
:391197000000000000000000000000000000000000000000000000000000000000000000000000000000000000000000000000000000000000000080F9A6
:3911D0000000000000000000000000000000000000000000000000000000000000000000000000000000000000000000000000000000000000000080F96D
:391209000000800000000000000000000000000000000100000000000000000000000000000000000000000000000000000000000000000000000000E04B
:391242002200040000000000000000000000000080000000000000000000000000000000000000000000000000000000000000000000000000000000DDF0
:39127B000800000000000000000000000000000000000000000000000000000000000000000000000000000000000000000000000000000000000000F939
:3912B40000000000000000000000000000000000000000000000000000000000000000000000000000000000000000000000000000000000000000A0DB86
:3912ED000000000000000000000020100000000000000000000000000000000000000000000000000000000000000000000000000000000000000080CB4D
:391326000000000000010000000000000000000000000000000000000000000000000000000000000000000000000000000000000000000000000080F815
:39135F000000000800040000000A10200000000000148002000000000000000000000000000000000000000000000000000000000000000000000080D227
:391398004022440404018800440CA01794080000001A0002000000000000000000000000000000000000000000000000000000000000000000000080FCAA
:3913D100000000000001000004002010040000000002000000000000000000000000000000000000000000000000000000000000000000000000008088A0
:39140A0008400008020000000000000000000000000000000000000000000000000000000000000000000000000000000000000000000000000000A0BFF8
:391443000000400000000000000000000000000000800000000000000000000000000000000000000000000000000000000000000000000000000000B1FF
:39147C000000000000000000000010000000000000000000000000000000000000000000000000000000000000000000000000000000000000000080E8BF
:3914B5000000000000000000000000000000000000000000000000000000000000000000000000000000000000000000000000000000000000000080F985
:3914EE000000100000040000000000800000000000020000000000000000000000000000000000000000000000000000000000000000000000000000E748
:391527000000200000000000000000000800000000100000000000000000000000000000000000000000000000000000000000000000000000000000C98A
:391560000000000000000000000000000000000000000000000000000000000000000000000000000000000000000000000000000000000000000080F9D9
:391599000000000004000000000040001000010000008002000000000000000000000000000000000000000000000000000000000000000000000080D5ED
:3915D200000000000200000000000000048000000000C0000000000000000000000000000000000000000000000000000000000000000000000000009109
:39160B004000180000080000000000000010000200031000000000000000000000000000000000000000000000000000000000000000000000000008D445
:39164400400040000000000200008000000000000008008000000000000000000000000000000000000000000000000000000000000000000000008095CE
:39167D000040000002000008000020000002000000000120000000000000000000000000000000000000000000000000000000000000000000000000A403
:3916B6000400000000000000000000100000000000020000000000000000000000000000000000000000000000000000000000000000000000000080AFB6
:3916EF0000850000010000040000104000040000800042400000000000000000000000000000000000000000000000000000000000000000000000808AD8
:39172800841A6100028101101000400FC402014800C2400000000000000000000000000000000000000000000000000000000000000000000000002896C7
:391761008000000002010000000000000402000000024000000000000000000000000000000000000000000000000000000000000000000000000080B252
:39179A000000100000400008000020100080000000000100000000000000000000000000000000000000000000000000000000000000000000000080820B
:3917D3002000040000000000000008000000000000000200000000000000000000000000000000000000000000000000000000000000000000000000D5DA
:39180C000040000000020000080000000002000000000040000000000000000000000000000000000000000000000000000000000000000000000080D3C4
:391845000080000000000004200000C00000000100004000000000000000000000000000000000000000000000000000000000000000000000000080C481
:39187E000080081000000010000000200000000000012A00000000000000000000000000000000000000000000000000000000000000000000000080E0DE
:3918B7000000000000000040000000000000000000000000000000000000000000000000000000000000000000000000000000000000000000000080BD7B
:3918F0000000000000000000000000000000000000000000000000000000000000000000000000000000000000000000000000000000000000000080F946
:391929001000000000000000000000000000000000000000000000000000000000000000000000000000000000000000000000000000000000000008F07D
:391962000000000000000000000000000000000000000000000000000000000000000000000000000000000000000000000000000000000000000080F9D3
:39199B000002000000000000000000000000000000000000000000000000000000000000000000000000000000000000000000000000000000000080D9B8
:3919D4000000000800000000220000000001000000001100000000000000000000000000000000000000000000000000000000000000000000000000DBC3
:391A0D000001024000000000000000000000000000040800000000000000000000000000000000000000000000000000000000000000000000000000EB66
:391A4600000000000000000010000800000000000000040000000000000000000000000000000000000000000000000000000000000000000000002087A4
:391A7F000000000000000000000000000000000000000000000000000000000000000000000000000000000000000000000000000000000000000080F9B5
:391AB8000000000000000000000000000000000000000000000000000000000000000000000000000000000000000000000000000000000000000080F97C
:391AF1000000000000000000000000000000000000000000000000000000000000000000000000000000000000000000000000000000000000000080F943
:391B2A000000000000000000000000000000000000000000000000000000000000000000000000000000000000000000000000000000000000000080F909
:391B63000000000000000000000000000000000000000000000000000000000000000000000000000000000000000000000000000000000000000080F9D0
:391B9C000000000000000000000000000000000000000000000000000000000000000000000000000000000000000000000000000000000000000080F997
:391BD5000000000000000000000000000000000000000000000000000000000000000000000000000000000000000000000000000000000000000080F95E
:391C0E000000000000000000000000000000000000000000000000000000000000000000000000000000000000000000000000000000000000000080F924
:391C47000000000000000000000000000000000000000000000000000000000000000000000000000000000000000000000000000000000000000080F9EB
:391C80000000000000000000000000000000000000000000000000000000000000000000000000000000000000000000000000000000000000000080F9B2
:391CB9000000000000000000000000000000000000000000000000000000000000000000000000000000000000000000000000000000000000000080F979
:391CF2000800000000000000000000000000000000000000000000000000000000000000000000000000000000000000000000000000000000000030CAB7
:391D2B000000000000000000000000000000000000000000000000000000000000000000000000000000000000000000000000000000000000000090E807
:391D64000000000000000000000000000000000000000000000000000000000000000000000000000000000000000000000000000000000000000080F9CD
:391D9D0004000000000000000000000000000000000000000000000000000000000000000000000000000000000000000000000000000000000000B08ECB
:391DD6000000000000000000000000000000000000000000000000000000000000000000000000000000000000000000000000000000000000000080F95B
:391E0F000000000000000000000000000000000000000000000000000000000000000000000000000000000000000000000000000000000000000080F921
:391E48000000000000000000000000000000000000000000000000000000000000000000000000000000000000000000000000000000000000000080F9E8
:391E81000000000000000000000000000000000000000000000000000000000000000000000000000000000000000000000000000000000000000080F9AF
:391EBA000800000000000000000000000000000000000000000000000000000000000000000000000000000000000000000000000000000000000020DBEC
:391EF3000000000000000000000000000000000000000000000000000000000000000000000000000000000000000000000000000000000000000080F93D
:391F2C000000000000000000000000000000000000000000000000000000000000000000000000000000000000000000000000000000000000000080F903
:391F65000400000000000000000000000000000000000000000000000000000000000000000000000000000000000000000000000000000000000090AC03
:391F9E000000000000000000000000000000000000000000000000000000000000000000000000000000000000000000000000000000000000000080F991
:391FD7000000000000000000000000000000000000000000000000000000000000000000000000000000000000000000000000000000000000000080F958
:392010000000000000000000000000000000000000000000000000000000000000000000000000000000000000000000000000000000000000000080F91E
:392049000000000000000000000000000000000000000000000000000000000000000000000000000000000000000000000000000000000000000080F9E5
:392082000800000000000000000000000000000000000000000000000000000000000000000000000000000000000000000000000000000000000020DB22
:3920BB000000000000000000000000000000000000000000000000000000000000000000000000000000000000000000000000000000000000000080F973
:3920F4000000000000000000000000000000000000000000000000000000000000000000000000000000000000000000000000000000000000000080F93A
:39212D000400000000000000000000000000000000000000000000000000000000000000000000000000000000000000000000000000000000000090AC39
:392166000000000000000000000000000000000000000000000000000000000000000000000000000000000000000000000000000000000000000080F9C7
:39219F000000000000000000000000000000000000000000000000000000000000000000000000000000000000000000000000000000000000000080F98E
:3921D8000000000000000000000000000000000000000000000000000000000000000000000000000000000000000000000000000000000000000080F955
:392211000000000000000000000000000000000000000000000000000000000000000000000000000000000000000000000000000000000000000080F91B
:39224A000800000000000000000000000000000000000000000000000000000000000000000000000000000000000000000000000000000000000020DB58
:392283000000000000000000000000000000000000000000000000000000000000000000000000000000000000000000000000000000000000000080F9A9
:3922BC000000000000000000000000000000000000000000000000000000000000000000000000000000000000000000000000000000000000000080F970
:3922F5000400000000000000000000000000000000000000000000000000000000000000000000000000000000000000000000000000000000000090AC70
:39232E000000000000000000000000000000000000000000000000000000000000000000000000000000000000000000000000000000000000000080F9FD
:392367000000000000000000000000000000000000000000000000000000000000000000000000000000000000000000000000000000000000000080F9C4
:3923A0000000000000000000000000000000000000000000000000000000000000000000000000000000000000000000000000000000000000000080F98B
:3923D9000000000000000000000000000000000000000000000000000000000000000000000000000000000000000000000000000000000000000080F952
:392412000800000000000000000000000000000000000000000000000000000000000000000000000000000000000000000000000000000000000020DB8E
:39244B000000000000000000000000000000000000000000000000000000000000000000000000000000000000000000000000000000000000000080F9DF
:392484000000000000000000000000000000000000000000000000000000000000000000000000000000000000000000000000000000000000000080F9A6
:3924BD000400000000000000000000000000000000000000000000000000000000000000000000000000000000000000000000000000000000000090ACA6
:3924F6000000000000000000000000000000000000000000000000000000000000000000000000000000000000000000000000000000000000000080F934
:39252F000000000000000000000000000000000000000000000000000000000000000000000000000000000000000000000000000000000000000080F9FA
:392568000000000000000000000000000000000000000000000000000000000000000000000000000000000000000000000000000000000000000080F9C1
:3925A1000000000000000000000000000000000000000000000000000000000000000000000000000000000000000000000000000000000000000080F988
:3925DA000800000000000000000000000000000000000000000000000000000000000000000000000000000000000000000000000000000000000020DBC5
:392613000000000000000000000000000000000000000000000000000000000000000000000000000000000000000000000000000000000000000080F915
:39264C000000000000000000000000000000000000000000000000000000000000000000000000000000000000000000000000000000000000000080F9DC
:392685000400000000000000000000000000000000000000000000000000000000000000000000000000000000000000000000000000000000000090ACDC
:3926BE000000000000000000000000000000000000000000000000000000000000000000000000000000000000000000000000000000000000000080F96A
:3926F70000000000000000000000000000000000000000000000000000000000000000000000000000000000000000000000000000000000000000C0BD2D
:392730000000000000000000000000000000000000000000000000000000000000000000000000000000000000000000000000000000000000000080F9F7
:392769000000000000000000000000000000000000000000000000000000000000000000000000000000000000000000000000000000000000000080F9BE
:3927A2000800000000000000000000000000000000000000000000000000000000000000000000000000000000000000000000000000000000000030CAFC
:3927DB000000000000000000000000000000000000000000000000000000000000000000000000000000000000000000000000000000000000000090E84D
:392814000000000000000000000000000000000000000000000000000000000000000000000000000000000000000000000000000000000000000080F912
:39284D0004000000000000000000000000000000000000000000000000000000000000000000000000000000000000000000000000000000000000B08E10
:392886000000000000000000000000000000000000000000000000000000000000000000000000000000000000000000000000000000000000000080F9A0
:3928BF000000000000000000000000000000000000000000000000000000000000000000000000000000000000000000000000000000000000000080F967
:3928F8002000048000100002400008000120000480001000000000000000000000000000000000800010000240000800012000048000100002400080F9AA
:392931000000000000000000000000000000000000000000000000000000000000000000000000000000000000000000000000000000000000000080F9F4
:39296A002800048000100002400008000120000480001000000000000000000000000000000000800010000240000800012000048000100002400030CAAE
:3929A3000000000000000000000000000000000000000000000000000000000000000000000000000000000000000000000000000000000000000090E883
:3929DC002000048000100002400008000120000480001000000000000000000000000000000000800010000240000800012000048000100002400080F9C5
:392A150004000000000000000000000000000000000000000000000000000000000000000000000000000000000000000000000000000000000000B08E46
:392A4E002000048000100002400008000120000480001000000000000000000000000000000000800010000240000800012000048000100002400080F952
:392A87000000000000000000000000000000000000000000000000000000000000000000000000000000000000000000000000000000000000000080F99D
:392AC0000000000000000000000000000000000000000000000000000000000000000000000000000000000000000000000000000000000000000080F964
:392AF9000000000000000000000000000000000000000000000000000000000000000000000000000000000000000000000000000000000000000080F92B
:392B32000000000000000000000000000000000000000000000000000000000000000000000000000000000000000000000000000000000000000080F9F1
:392B6B000000000000000000000000000000000000000000000000000000000000000000000000000000000000000000000000000000000000000080F9B8
:392BA4000000000000000000000000000000000000000000000000000000000000000000000000000000000000000000000000000000000000000080F97F
:392BDD000000000000000000000000000000000000000000000000000000000000000000000000000000000000000000000000000000000000000080F946
:392C16000000000000000000000000000000000000000000000000000000000000000000000000000000000000000000000000000000000000000080F90C
:392C4F000000000000000000000000000000000000000000000000000000000000000000000000000000000000000000000000000000000000000080F9D3
:392C88000000000000000000000000000000000000000000000000000000000000000000000000000000000000000000000000000000000000000080F99A
:392CC1000000000000000000000000000000000000000000000000000000000000000000000000000000000000000000000000000000000000000080F961
:392CFA000000000000000000000000000000000000000000000000000000000000000000000000000000000000000000000000000000000000000080F928
:392D33000000000000000000000000000000000000000000000000000000000000000000000000000000000000000000000000000000000000000080F9EE
:392D6C000000000000000000000000000000000000000000000000000000000000000000000000000000000000000000000000000000000000000080F9B5
:392DA5000000000000000000000000000000000000000000000000000000000000000000000000000000000000000000000000000000000000000080F97C
:392DDE000000000000000000000000000000000000000000000000000000000000000000000000000000000000000000000000000000000000000080F943
:392E17000000000000000000000000000000000000000000000000000000000000000000000000000000000000000000000000000000000000000080F909
:392E50000000000000000000000000000000000000000000000000000000000000000000000000000000000000000000000000000000000000000080F9D0
:392E89000000000000000000000000000000000000000000000000000000000000000000000000000000000000000000000000000000000000000080F997
:392EC2000000000000000000000000000000000000000000000000000000000000000000000000000000000000000000000000000000000000000080F95E
:392EFB000000000000000000000000000000000000000000000000000000000000000000000000000000000000000000000000000000000000000080F925
:392F34000000000000000000000000000000000000000000000000000000000000000000000000000000000000000000000000000000000000000080F9EB
:392F6D000000000000000000000000000000000000000000000000000000000000000000000000000000000000000000000000000000000000000080F9B2
:392FA6000000000000000000000000000000000000008000000000000000000000000000000000000000000000000000000000000000000000000080F101
:392FDF000000000000000000000000000000000000001000000000000000000000000000000000000000000000000000000000000000000000000080F831
:393018000000000000000000000000000000000000000000000000000000000000000000000000000000000000000000000000000000000000000090E807
:393051000000000000000000000000000000000000000000000000000000000000000000000000000000000000000000000000000000000000000080F9CD
:39308A000000000000000000000000000000000000000000000000000000000000000000000000000000000000000000000000000000000000000080F994
:3930C3000000000000000000000000000000000000000000000000000000000000000000000000000000000000000000000000000000000000000080F95B
:3930FC000000000000000000000000000000000000000000000000000000000000000000000000000000000000000000000000000000000000000080F922
:393135000000000000000000000000000000000000000000000000000000000000000000000000000000000000000000000000000000000000000080F9E8
:39316E000000000000000000000000000000000000000000000000000000000000000000000000000000000000000000000000000000000000000080F9AF
:3931A7000000000000000000000000000000000000000000000000000000000000000000000000000000000000000000000000000000000000000080F976
:3931E0000000000000000000000000000000000000000000000000000000000000000000000000000000000000000000000000000000000000000080F93D
:393219000000000000000000000000000000000000000000000000000000000000000000000000000000000000000000000000000000000000000080F903
:393252000000000000000000000000000000000000000000000000000000000000000000000000000000000000000000000000000000000000000080F9CA
:39328B000000000000000000000000000000000000000000000000000000000000000000000000000000000000000000000000000000000000000090E892
:3932C4000000000000000000000000000000000000000000000000000000000000000000000000000000000000000000000000000000000000000080F958
:3932FD000000000000000000000000000000000000000000000000000000000000000000000000000000000000000000000000000000000000000080F91F
:393336000000000000000000000000000000000000000000000000000000000000000000000000000000000000000000000000000000000000000080F9E5
:39336F000000000000000000000000000000000000000000000000000000000000000000000000000000000000000000000000000000000000000080F9AC
:3933A8000000000000000000000000000000000000000000000000000000000000000000000000000000000000000000000000000000000000000080F973
:3933E1000000000000000000000000000000000000000000000000000000000000000000000000000000000000000000000000000000000000000080F93A
:39341A000000000000000000000000000000000000000000000000000000000000000000000000000000000000000000000000000000000000000080F900
:393453000000000000000000000000000000000000000000000000000000000000000000000000000000000000000000000000000000000000000080F9C7
:39348C000000000000000000000000000000000000000000000000000000000000000000000000000000000000000000000000000000000000000080F98E
:3934C5000000000000000000000000000000000000000000000000000000000000000000000000000000000000000000000000000000000000000080F955
:3934FE000000000000000000000000000000000000000000000000000000000000000000000000000000000000000000000000000000000000000080F91C
:393537000000000000000000000000000000000000000000000000000000000000000000000000000000000000000000000000000000000000000080F9E2
:393570000000000000000000000000000000000000000000000000000000000000000000000000000000000000000000000000000000000000000080F9A9
:3935A9000000000000000000000000000000000000000000000000000000000000000000000000000000000000000000000000000000000000000080F970
:3935E2000800000000000000000000000000000000000000000000000000000000000000000000000000000000000000000000000000000000000020DBAD
:39361B000000000000000000000000000000000000000000000000000000000000000000000000000000000000000000000000000000000000000080F9FD
:393654000000000000000000000000000000000000000000000000000000000000000000000000000000000000000000000000000000000000000080F9C4
:39368D000400000000000000000000000000000000000000000000000000000000000000000000000000000000000000000000000000000000000090ACC4
:3936C6000000000000000000000000000000000000000000000000000000000000000000000000000000000000000000000000000000000000000080F952
:3936FF000000000000000000000000000000000000000000000000000000000000000000000000000000000000000000000000000000000000000080F919
:393738000000000000000000000000000000000000000000000000000000000000000000000000000000000000000000000000000000000000000080F9DF
:393771000000000000000000000000000000000000000000000000000000000000000000000000000000000000000000000000000000000000000080F9A6
:3937AA000800000000000000000000000000000000000000000000000000000000000000000000000000000000000000000000000000000000000020DBE3
:3937E3000000000000000000000000000000000000000000000000000000000000000000000000000000000000000000000000000000000000000080F934
:39381C000000000000000000000000000000000000000000000000000000000000000000000000000000000000000000000000000000000000000080F9FA
:393855000400000000000000000000000000000000000000000000000000000000000000000000000000000000000000000000000000000000000090ACFA
:39388E000000000000000000000000000000000000000000000000000000000000000000000000000000000000000000000000000000000000000080F988
:3938C7000000000000000000000000000000000000000000000000000000000000000000000000000000000000000000000000000000000000000080F94F
:393900000000000000000000000000000000000000000000000000000000000000000000000000000000000000000000000000000000000000000080F915
:393939000000000000000000000000000000000000000000000000000000000000000000000000000000000000000000000000000000000000000080F9DC
:393972000800000000000000000000000000000000000000000000000000000000000000000000000000000000000000000000000000000000000020DB19
:3939AB000000000000000000000000000000000000000000000000000000000000000000000000000000000000000000000000000000000000000080F96A
:3939E4000000000000000000000000000000000000000000000000000000000000000000000000000000000000000000000000000000000000000080F931
:393A1D000400000000000000000000000000000000000000000000000000000000000000000000000000000000000000000000000000000000000090AC30
:393A56000000000000000000000000000000000000000000000000000000000000000000000000000000000000000000000000000000000000000080F9BE
:393A8F000000000000000000000000000000000000000000000000000000000000000000000000000000000000000000000000000000000000000080F985
:393AC8000000000000000000000000000000000000000000000000000000000000000000000000000000000000000000000000000000000000000080F94C
:393B01000000000000000000000000000000000000000000000000000000000000000000000000000000000000000000000000000000000000000080F912
:393B3A000800000000000000000000000000000000000000000000000000000000000000000000000000000000000000000000000000000000000020DB4F
:393B73000000000000000000000000000000000000000000000000000000000000000000000000000000000000000000000000000000000000000080F9A0
:393BAC000000000000000000000000000000000000000000000000000000000000000000000000000000000000000000000000000000000000000080F967
:393BE5000400000000000000000000000000000000000000000000000000000000000000000000000000000000000000000000000000000000000090AC67
:393C1E000000000000000000000000000000000000000000000000000000000000000000000000000000000000000000000000000000000000000080F9F4
:393C57000000000000000000000000000000000000000000000000000000000000000000000000000000000000000000000000000000000000000080F9BB
:393C90000000000000000000000000000000000000000000000000000000000000000000000000000000000000000000000000000000000000000080F982
:393CC9000000000000000000000000000000000000000000000000000000000000000000000000000000000000000000000000000000000000000080F949
:393D02000800000000000000000000000000000000000000000000000000000000000000000000000000000000000000000000000000000000000020DB85
:393D3B000000000000000000000000000000000000000000000000000000000000000000000000000000000000000000000000000000000000000080F9D6
:393D74000000000000000000000000000000000000000000000000000000000000000000000000000000000000000000000000000000000000000080F99D
:393DAD000400000000000000000000000000000000000000000000000000000000000000000000000000000000000000000000000000000000000090AC9D
:393DE6000000000000000000000000000000000000000000000000000000000000000000000000000000000000000000000000000000000000000080F92B
:393E1F000000000000000000000000000000000000000000000000000000000000000000000000000000000000000000000000000000000000000080F9F1
:393E58000000000000000000000000000000000000000000000000000000000000000000000000000000000000000000000000000000000000000080F9B8
:393E91000000000000000000000000000000000000000000000000000000000000000000000000000000000000000000000000000000000000000080F97F
:393ECA000800000000000000000000000000000000000000000000000000000000000000000000000000000000000000000000000000000000000030CABD
:393F03000000000000000000000000000000000000000000000000000000000000000000000000000000000000000000000000000000000000000090E80D
:393F3C000000000000000000000000000000000000000000000000000000000000000000000000000000000000000000000000000000000000000080F9D3
:393F750004000000000000000000000000000000000000000000000000000000000000000000000000000000000000000000000000000000000000B08ED1
:393FAE000000000000000000000000000000000000000000000000000000000000000000000000000000000000000000000000000000000000000080F961
:393FE7001000000000000000000000000000000000000000000000000000000000000000000000000000000000000000000000000000000000000080F819
:394020000000000000000000000000000000000000000000000000000000000000000000000000000000000000000000000000000000000000000080F9EE
:394059000000000000000000000000000000000000000000000000000000000000000000000000000000000000000000000000000000000000000080F9B5
:394092000C000000000000000000000000000000000000000000000000000000000000000000000000000000000000000000000000000000000000209F2A
:3940CB000400000000000000000000000000000000000000000000000000000000000000000000000000000000000000000000000000000000000080BD7B
:394104000000000000000000000000000000000000000000000000000000000000000000000000000000000000000000000000000000000000000080F909
:39413D000C00000000000000000000000000000000000000000000000000000000000000000000000000000000000000000000000000000000000010AC81
:394176000000000000000000000000000000000000000000000000000000000000000000000000000000000000000000000000000000000000000080F997
:3941AF000000000000000000000000000000000000000000000000000000000000000000000000000000000000000000000000000000000000000080F95E
:3941E8002000048000100002400008000120000480001000000000000000000000000000000000800010000240000800012000048000100002400080F9A1
:394221000000000000000000000000000000000000000000000000000000000000000000000000000000000000000000000000000000000000000080F9EB
:39425A002800048000100002400008000120000480001000000000000000000000000000000000800010000240000800012000048000100002400020DBA4
:394293000000000000000000000000000000000000000000000000000000000000000000000000000000000000000000000000000000000000000080F979
:3942CC002000048000100002400008000120000480001000000000000000000000000000000000800010000240000800012000048000100002400080F9BC
:394305000400000000000000000000000000000000000000000000000000000000000000000000000000000000000000000000000000000000000090AC3F
:39433E002000048000100002400008000120000480001000000000000000000000000000000000800010000240000800012000048000100002400080F949
:394377000000000000000000000000000000000000000000000000000000000000000000000000000000000000000000000000000000000000000080F994
:3943B0000000000000000000000000000000000000000000000000000000000000000000000000000000000000000000000000000000000000000080F95B
:3943E9000000000000000000000000000000000000000000000000000000000000000000000000000000000000000000000000000000000000000080F922
:394422000000000000000000000000000000000000000000000000000000000000000000000000000000000000000000000000000000000000000080F9E8
:39445B000000000000000000000000000000000000000000000000000000000000000000000000000000000000000000000000000000000000000080F9AF
:394494000000000000000000000000000000000000000000000000000000000000000000000000000000000000000000000000000000000000000080F976
:3944CD000000000000000000000000000000000000000000000000000000000000000000000000000000000000000000000000000000000000000080F93D
:394506000000000000000000000000000000000000000000000000000000000000000000000000000000000000000000000000000000000000000080F903
:39453F000000000000000000000000000000000000000000000000000000000000000000000000000000000000000000000000000000000000000080F9CA
:394578000000000000000000000000000000000000000000000000000000000000000000000000000000000000000000000000000000000000000080F991
:3945B1000000000000000000000000000000000000000000000000000000000000000000000000000000000000000000000000000000000000000080F958
:3945EA000000000000000000000000000000000000000000000000000000000000000000000000000000000000000000000000000000000000000080F91F
:394623000000000000000000000000000000000000000000000000000000000000000000000000000000000000000000000000000000000000000080F9E5
:39465C000000000000000000000000000000000000000000000000000000000000000000000000000000000000000000000000000000000000000080F9AC
:394695000000000000000000000000000000000000000000000000000000000000000000000000000000000000000000000000000000000000000080F973
:3946CE000000000000000000000000000000000000000000000000000000000000000000000000000000000000000000000000000000000000000080F93A
:394707000000000000000000000000000000000000000000000000000000000000000000000000000000000000000000000000000000000000000080F900
:394740000000000000000000000000000000000000000000000000000000000000000000000000000000000000000000000000000000000000000080F9C7
:394779000000000000000000000000000000000000000000000000000000000000000000000000000000000000000000000000000000000000000080F98E
:3947B2000000000000000000000000000000000000000000000000000000000000000000000000000000000000000000000000000000000000000080F955
:3947EB000000000000000000000000000000000000000000000000000000000000000000000000000000000000000000000000000000000000000080F91C
:394824000000000000000000000000000000000000000000000000000000000000000000000000000000000000000000000000000000000000000080F9E2
:39485D004400000000000000000000000000000000000000000000000000000000000000000000000000000000000000000000000000000000000080B9A5
:394896000000000000000000000000000000000000000000000000000000000000000000000000000000000000000000000000000000000000000080F970
:3948CF004000000000000000000000000000000000000000000000000000000000000000000000000000000000000000000000000000000000000080FDF3
:394908000000000000000000000000000000000000000000000000000000000000000000000000000000000000000000000000000000000000000080F9FD
:394941000000000000000000000000000000000000000000000000000000000000000000000000000000000000000000000000000000000000000080F9C4
:39497A000000000000000000000000000000000000000000000000000000000000000000000000000000000000000000000000000000000000000080F98B
:3949B3000000000000000000000000000000000000000000000000000000000000000000000000000000000000000000000000000000000000000080F952
:3949EC000000000000000000000000000000000000000000000000000000000000000000000000000000000000000000000000000000000000000080F919
:394A25000000000000000000000000000000000000000000000000000000000000000000000000000000000000000000000000000000000000000080F9DF
:394A5E000000000000000000000000000000000000000000000000000000000000000000000000000000000000000000000000000000000000000080F9A6
:394A97000000000000000000000000000000000000000000000000000000000000000000000000000000000000000000000000000000000000000080F96D
:394AD0000000000000000000000000000000000000000000000000000000000000000000000000000000000000000000000000000000000000000080F934
:394B09000000000000000000000000000000000000000000000000000000000000000000000000000000000000000000000000000000000000000080F9FA
:394B42000000000000000000000000000000000000000000000000000000000000000000000000000000000000000000000000000000000000000080F9C1
:394B7B000000000000000000000000000000000000000000000000000000000000000000000000000000000000000000000000000000000000000080F988
:394BB4000000000000000000000000000000000000000000000000000000000000000000000000000000000000000000000000000000000000000080F94F
:394BED000000000000000000000000000000000000000000000000000000000000000000000000000000000000000000000000000000000000000080F916
:394C26000000000000000000000000000000000000000000000000000000000000000000000000000000000000000000000000000000000000000080F9DC
:394C5F00002C800000000000801000000000000000002004000000000000000000000000000000000000000000000000000000000000000000000000D0EC
:394C98008021202000000000004000000000000000000010000000000000000000000000000000000400000000000000000000000000000000000080B07E
:394CD1000000000000000000000000000000000000000000000000000000000000000000000000000000000000000000000000000000000000000080F931
:394D0A000000000000000000000000000000000000000000000000000000000000000000000000000000000000000000000000000000000000000080F9F7
:394D4300003FE0024800092001748004900012400248001D000000000000000000000000000000005C00092001248004900012400248000920012480BA81
:394D7C00804C9001300006C00098000360000C800130002600000000000000000000000000000000320006C00018000360000C8001300006C0001880AD92
:024DB500FFFFFE
:00000001FF
