:020000040000FA
:39000000FFFF62FF3600FFFFFFFFFFFFFFFFFFFFFFFFFFFFFFFFFFFFFFFFFFFFFFFFFFFFFFFFFFFFFFFFFFFFFFFFFFFFFFFFFFFFFFFFFFFFFFFFFFFFFF65
:39003900000C9001304006C00018000360004C800932000600000000000000000000000000000000300006C00018000360000C8001300006C0001800E344
:390072000012E00248800B200124800490003A40075C000900000000000000000000000000000000480009200124800490001240024800092001248097A4
:3900AB000000000000000000000000000000000000000000000000000000000000000000000000000000000000000000000000000000000000000080F9A3
:3900E4000000000000000000000000000000000000000000000000000000000000000000000000000000000000000000000000000000000000000080F96A
:39011D000000201000800000000000000000200104040000000000000000000000000000000000000000000000000000000000000000000000000000A52B
:390156000000000000200000000000000000081001010000000000000000000000000100000000000000000000000000000000000000000000000080D0E5
:39018F000000000000000000000000000000000000000000000000000000000000000000000000000000000000000000000000000000000000000080F9BE
:3901C8000000000000000000000000000000000000000000000000000000000000000000000000000000000000000000000000000000000000000080F985
:390201000000000000000000000000000000000000000000000000000000000000000000000000000000000000000000000000000000000000000080F94B
:39023A000000000000000000000000000000000000000000000000000000000000000000000000000000000000000000000000000000000000000080F912
:390273000000000000000000000000000000000000000000000000000000000000000000000000000000000000000000000000000000000000000080F9D9
:3902AC000000000000000000000000000000000000000000000000000000000000000000000000000000000000000000000000000000000000000080F9A0
:3902E5000000000000000000000000000000000000000000000000000000000000000000000000000000000000000000000000000000000000000080F967
:39031E000000000000000000000000000000000000000000000000000000000000000000000000000000000000000000000000000000000000000080F92D
:390357000000000000000000000000000000000000000000000000000000000000000000000000000000000000000000000000000000000000000080F9F4
:390390000000000000000000000000000000000000000000000000000000000000000000000000000000000000000000000000000000000000000080F9BB
:3903C9000000000000000000000000000000000000000000000000000000000000000000000000000000000000000000000000000000000000000080F982
:390402000800000000000000000000000000000000000000000000000000000000000000000000000000000000000000000000000000000000000020DBBE
:39043B000000000000000000000000000000000000000000000000000000000000000000000000000000000000000000000000000000000000000080F90F
:390474000000000000000000000000000000000000000000000000000000000000000000000000000000000000000000000000000000000000000080F9D6
:3904AD000400000000000000000000000000000000000000000000000000000000000000000000000000000000000000000000000000000000000090ACD6
:3904E6000000000000000000000000000000000000000000000000000000000000000000000000000000000000000000000000000000000000000080F964
:39051F000000000000000000000000000000000000000000000000000000000000000000000000000000000000000000000000000000000000000080F92A
:390558000000000000000000000000000000000000000000000000000000000000000000000000000000000000000000000000000000000000000080F9F1
:390591000000000000000000000000000000000000000000000000000000000000000000000000000000000000000000000000000000000000000080F9B8
:3905CA000800000000000000000000000000000000000000000000000000000000000000000000000000000000000000000000000000000000000020DBF5
:390603000000000000000000000000000000000000000000000000000000000000000000000000000000000000000000000000000000000000000080F945
:39063C000000000000000000000000000000000000000000000000000000000000000000000000000000000000000000000000000000000000000080F90C
:390675000400000000000000000000000000000000000000000000000000000000000000000000000000000000000000000000000000000000000090AC0C
:3906AE000000000000000000000000000000000000000000000000000000000000000000000000000000000000000000000000000000000000000080F99A
:3906E7000000000000000000000000000000000000000000000000000000000000000000000000000000000000000000000000000000000000000080F961
:390720000000000000000000000000000000000000000000000000000000000000000000000000000000000000000000000000000000000000000080F927
:390759000000000000000000000000000000000000000000000000000000000000000000000000000000000000000000000000000000000000000080F9EE
:390792000800000000000000000000000000000000000000000000000000000000000000000000000000000000000000000000000000000000000020DB2B
:3907CB000000000000000000000000000000000000000000000000000000000000000000000000000000000000000000000000000000000000000080F97C
:390804000000000000000000000000000000000000000000000000000000000000000000000000000000000000000000000000000000000000000080F942
:39083D000400000000000000000000000000000000000000000000000000000000000000000000000000000000000000000000000000000000000090AC42
:390876000000000000000000000000000000000000000000000000000000000000000000000000000000000000000000000000000000000000000080F9D0
:3908AF000000000000000000000000000000000000000000000000000000000000000000000000000000000000000000000000000000000000000080F997
:3908E8000000000000000000000000000000000000000000000000000000000000000000000000000000000000000000000000000000000000000080F95E
:390921000000000000000000000000000000000000000000000000000000000000000000000000000000000000000000000000000000000000000080F924
:39095A000800000000000000000000000000000000000000000000000000000000000000000000000000000000000000000000000000000000000020DB61
:390993000000000000000000000000000000000000000000000000000000000000000000000000000000000000000000000000000000000000000080F9B2
:3909CC000000000000000000000000000000000000000000000000000000000000000000000000000000000000000000000000000000000000000080F979
:390A05000400000000000000000000000000000000000000000000000000000000000000000000000000000000000000000000000000000000000090AC78
:390A3E000000000000000000000000000000000000000000000000000000000000000000000000000000000000000000000000000000000000000080F906
:390A77000000000000000000000000000000000000000000000000000000000000000000000000000000000000000000000000000000000000000080F9CD
:390AB0000000000000000000000000000000000000000000000000000000000000000000000000000000000000000000000000000000000000000080F994
:390AE9000000000000000000000000000000000000000000000000000000000000000000000000000000000000000000000000000000000000000080F95B
:390B22000800000000000000000000000000000000000000000000000000000000000000000000000000000000000000000000000000000000000020DB97
:390B5B000000000000000000000000000000000000000000000000000000000000000000000000000000000000000000000000000000000000000080F9E8
:390B94000000000000000000000000000000000000000000000000000000000000000000000000000000000000000000000000000000000000000080F9AF
:390BCD000400000000000000000000000000000000000000000000000000000000000000000000000000000000000000000000000000000000000090ACAF
:390C06000000000000000000000000000000000000000000000000000000000000000000000000000000000000000000000000000000000000000080F93C
:390C3F000000000000000000000000000000000000000000000000000000000000000000000000000000000000000000000000000000000000000080F903
:390C78000000000000000000000000000000000000000000000000000000000000000000000000000000000000000000000000000000000000000080F9CA
:390CB1000000000000000000000000000000000000000000000000000000000000000000000000000000000000000000000000000000000000000080F991
:390CEA000800000000000000000000000000000000000000000000000000000000000000000000000000000000000000000000000000000000000030CACF
:390D23000000000000000000000000000000000000000000000000000000000000000000000000000000000000000000000000000000000000000090E81F
:390D5C000000000000000000000000000000000000000000000000000000000000000000000000000000000000000000000000000000000000000080F9E5
:390D950004000000000000000000000000000000000000000000000000000000000000000000000000000000000000000000000000000000000000B08EE3
:390DCE000000000000000000000000000000000000000000000000000000000000000000000000000000000000000000000000000000000000000080F973
:390E07000000000000000000000000000000000000000000000000000000000000000000000000000000000000000000000000000000000000000080F939
:390E40000000000000000000000000000000000000000000000000000000000000000000000000000000000000000000000000000000000000000080F900
:390E79000000000000000000000000000000000000000000000000000000000000000000000000000000000000000000000000000000000000000080F9C7
:390EB2000800000000000000000000000000000000000000000000000000000000000000000000000000000000000000000000000000000000000020DB04
:390EEB000000000000000000000000000000000000000000000000000000000000000000000000000000000000000000000000000000000000000080F955
:390F24000000000000000000000000000000000000000000000000000000000000000000000000000000000000000000000000000000000000000080F91B
:390F5D000400000000000000000000000000000000000000000000000000000000000000000000000000000000000000000000000000000000000090AC1B
:390F96000000000000000000000000000000000000000000000000000000000000000000000000000000000000000000000000000000000000000080F9A9
:390FCF000000000000000000000000000000000000000000000000000000000000000000000000000000000000000000000000000000000000000080F970
:391008002000048000100002400008000120000480001000000000000000000000000000000000800010000240000800012000048000100002400080F9B2
:391041000000000000000000000000000000000000000000000000000000000000000000000000000000000000000000000000000000000000000080F9FD
:39107A002800048000100002400008000120000480001000000000000000000000000000000000800010000240000800012000048000100002400020DBB6
:3910B3000000000000000000000000000000000000000000000000000000000000000000000000000000000000000000000000000000000000000080F98B
:3910EC002000048000100002400008000120000480001000000000000000000000000000000000800010000240000800012000048000100002400080F9CE
:391125000400000000000000000000000000000000000000000000000000000000000000000000000000000000000000000000000000000000000090AC51
:39115E002000048000100002400008000120000480001000000000000000000000000000000000800010000240000800012000048000100002400080F95B
:391197000000000000000000000000000000000000000000000000000000000000000000000000000000000000000000000000000000000000000080F9A6
:3911D0000000000000000000000000000000000000000000000000000000000000000000000000000000000000000000000000000000000000000080F96D
:391209000000000000000000000000000000000000000000000000000000000000000000000000000000000000000000000000000000000000000080F933
:391242000000000000000000000000000000000000000000000000000000000000000000000000000000000000000000000000000000000000000080F9FA
:39127B000000000000000000000000000000000000000000000000000000000000000000000000000000000000000000000000000000000000000080F9C1
:3912B4000000000000000000000000000000000000000000000000000000000000000000000000000000000000000000000000000000000000000080F988
:3912ED000000000000000000000000000000000000000000000000000000000000000000000000000000000000000000000000000000000000000080F94F
:391326000000000000000000000000000000000000000000000000000000000000000000000000000000000000000000000000000000000000000080F915
:39135F000000000000000000000000000000000000000000000000000000000000000000000000000000000000000000000000000000000000000080F9DC
:391398000000000000000000000000000000000000000000000000000000000000000000000000000000000000000000000000000000000000000080F9A3
:3913D1000000000000000000000000000000000000000000000000000000000000000000000000000000000000000000000000000000000000000080F96A
:39140A000000000000000000000000000000000000000000000000000000000000000000000000000000000000000000000000000000000000000080F930
:391443000000000000000000000000000000000000000000000000000000000000000000000000000000000000000000000000000000000000000080F9F7
:39147C000000000000000000000000000000000000000000000000000000000000000000000000000000000000000000000000000000000000000080F9BE
:3914B5000000000000000000000000000000000000000000000000000000000000000000000000000000000000000000000000000000000000000080F985
:3914EE000000000000000000000000000000000000000000000000000000000000000000000000000000000000000000000000000000000000000080F94C
:391527000000000000000000000000000000000000000000000000000000000000000000000000000000000000000000000000000000000000000080F912
:391560000000000000000000000000000000000000000000000000000000000000000000000000000000000000000000000000000000000000000080F9D9
:391599000000000000000000000000000000000000000000000000000000000000000000000000000000000000000000000000000000000000000080F9A0
:3915D2000000000000000000000000000000000000000000000000000000000000000000000000000000000000000000000000000000000000000080F967
:39160B000000000000000000000000000000000000000000000000000000000000000000000000000000000000000000000000000000000000000080F92D
:391644000000000000000000000000000000000000000000000000000000000000000000000000000000000000000000000000000000000000000080F9F4
:39167D000000000000000000000000000000000000000000000000000000000000000000000000000000000000000000000000000000000000000080F9BB
:3916B6000000000000000000000000000000000000000000000000000000000000000000000000000000000000000000000000000000000000000080F982
:3916EF000000000000000000000000000000000000000000000000000000000000000000000000000000000000000000000000000000000000000080F949
:391728000000000000000000000000000000000000000000000000000000000000000000000000000000000000000000000000000000000000000080F90F
:391761000000000000000000000000000000000000000000000000000000000000000000000000000000000000000000000000000000000000000080F9D6
:39179A000000000000000000000000000000000000000000000000000000000000000000000000000000000000000000000000000000000000000080F99D
:3917D3000000000000000000000000000000000000000000000000000000000000000000000000000000000000000000000000000000000000000080F964
:39180C000000000000000000000000000000000000000000000000000000000000000000000000000000000000000000000000000000000000000080F92A
:391845000000000000000000000000000000000000000000000000000000000000000000000000000000000000000000000000000000000000000080F9F1
:39187E000000000000000000000000000000000000000000000000000000000000000000000000000000000000000000000000000000000000000080F9B8
:3918B7000000000000000000000000000000000000000000000000000000000000000000000000000000000000000000000000000000000000000080F97F
:3918F0000000000000000000000000000000000000000000000000000000000000000000000000000000000000000000000000000000000000000080F946
:391929000000000000000000000000000000000000000000000000000000000000000000000000000000000000000000000000000000000000000080F90C
:391962000000000000000000000000000000000000000000000000000000000000000000000000000000000000000000000000000000000000000080F9D3
:39199B000000000000000000000000000000000000000000000000000000000000000000000000000000000000000000000000000000000000000080F99A
:3919D4000000000000000000000000000000000000000000000000000000000000000000000000000000000000000000000000000000000000000080F961
:391A0D000000000000000000000000000000000000000000000000000000000000000000000000000000000000000000000000000000000000000080F927
:391A46000000000000000000000000000000000000000000000000000000000000000000000000000000000000000000000000000000000000000080F9EE
:391A7F002000008006000002000000000020110280061000000000000000000000000000000000000000000000000000000000000000000000000000A518
:391AB80000000000060000000000000000800000000600000000000000000000000000000000000000000000000000000000000000000000000000009FCA
:391AF10000000000060000000000000000E0810000000000000000000000000000000000000000000000000000000000000000000000000000000080F6DF
:391B2A0080210000160800180200000000A001000000001000000000000000000000000000000000000000000000000000000000000000000000008093E5
:391B63000020000046000080000000000000050000060120000000000000000000000000000000000000000000000000000000000000000000000000CF68
:391B9C0060000080070100061000000000E040008007F000000000000000000000000000000000000000000000000000000000000000000000000080D823
:391BD500000001000602000000000000000001010006C0000000000000000000000000000000000000000000000000000000000000000000000000808006
:391C0E00000400004000008002000000008011000026C484000000000000000000000000000000000000000000000000000000000000000000000000C018
:391C47002049008006000082100000000020110280C65008010000000000000000000000000000000000000000000000000000000000000000000000AC65
:391C800080000000060000000000000000800000000280000000000000000000000000000000000000000000000000000000000000000000000000009B08
:391CB9000000008007000000080000000060010000067000000000000000000000000000000000000000000000000000000000000000000000000080EF1D
:391CF20088200080060000800000000000A0840000A690280000000000000000000000000000000000000000000000000000000000000000000000908970
:391D2B000009000000020088000000000000050000060120000000000000000000000000000000000000000000000000000000000000000000000030E8A8
:391D6400E00001800100001E0400000000E040008007B000000000000000000000000000000000000000000000000000000000000000000000000000B9B2
:391D9D000401000000000008000000000000010100064040000000000000000000000000000000000000000000000000000000000000000000000020D187
:391DD6008028000000000010090000000080110000268404000000000000000000000000000000000000000000000000000000000000000000000080F85C
:391E0F00300501800602001A030000000020000080201000000000000000000000000000000000000000000000000000000000000000000000000080F877
:391E4800800100000600001000000000000000000000010000000000000000000000000000000000000000000000000000000000000000000000008081C8
:391E8100E0010080070400100000000000000000000000000000000000000000000000000000000000000000000000000000000000000000000000808AA2
:391EBA00AC210080260000800200000000008800000208000000000000000000000000000000000000000000000000000000000000000000000000A0EDDB
:391EF3008401000044020088000000000000800000440008000000000000000000000000000000000000000000000000000000000000000000000080EF28
:391F2C00E0010180070000161000000000E0010080013420000000000000000000000000000000000000000000000000000000000000000000000080FCBB
:391F65008C0100000600000000000000000000000000C000000000000000000000000000000000000000000000000000000000000000000000000010D808
:391F9E0080290000A600008010000000000004020040C444000000000000000000000000000000000000000000000000000000000000000000000000B32A
:391FD700A00100800212001A000000000020000480061084000000000000000000000000000000000000000000000000000000000000000002000040A55D
:392010008001000004000018000000000000000400000000000000000000000000000000000000000000000000000000000000000000000000000000FCFA
:392049008001008003040000000000000000000C00064000000000000000000000000000000000000000000000000000000000000000000006000000FB03
:3920820088910080240000180200000000000004008600100000000000000000000000000000000000000000000000000000000000000000020000B0C939
:3920BB000004000040021098000000000000080100060000000000000000000000000000000000000000000000000000000000000000000018020010F2D3
:3920F400600001800530001E10000000006000088007348000000000000000000000000000000000000000000000000000000000000000001E000000A00E
:39212D000440000002C040180000000000800100000640200000000000000000000000000000000000000000000000000000000000000000180000B087E5
:3921660080110000A4C00898020000000080010200A68008000000000000000000000000000000000000000000000000000000000000000018000000D50B
:39219F00300000800212001A0300000000A0000080061000000000000000000000000000000000000010000000000000000000000000000000000000CE12
:3921D8000000000004100008000000000080810000000000000000000000000000000000000000000000000000000000000000000000000000000000A809
:3922110000000080013400180000000000E0000000000000000000000000000000000000000000000030000000000000000000000000000000000080999E
:39224A000C000080201000980400000000A0510000000800000000000000000000000000000000000010000000000000000000000000000000000020DA00
:39228300844100004202001001000000008081000020C0020000000000000000000000000000000000C0400000000000000000000000000000000000968F
:3922BC00E00100800120001E04000000006000008001F4800000000000000000000000000000000000F0000000000000000000000000000000000080F987
:3922F5000C000000000000000000000000800101000000000000000000000000000000000000000000C0000000000000000000000000000000000010F85A
:39232E0000480000A00000981000000000000900000004020100000000000000000000000000000000C0000000000000000000000000000000000000B660
:3923670020040180060000020000000000A0010080269008010000000000000000000000000000000000000000000000000000000000000000000040B3BD
:3923A0000001000006000000000000000080010000044100000000000000000000000000000000000000000000000000000000000000000000000000999E
:3923D900600000000600001800000000008001000006F0000000000000000000000000000000000000000000000000000000000000000000000000808EC8
:39241200282000000608001800000000008001000006D8800000000000000000000000000000000000000000000000000000000000000000000000309183
:39244B000000000046000040080000000080090100468020000000000000000000000000000000000000000000000000000000000000000000000010F456
:3924840060000180070100060000000000E001008007F400000000000000000000000000000000000000000000000000000000000000000000000080CC88
:3924BD00040000000602000000000000000000000006C0400000000000000000000000000000000000000000000000000000000000000000000000B0A282
:3924F600002800004000000020000000000088000046C404000000000000000000000000000000000000000000000000000000000000000000000080F916
:39252F00B00904800600001A40000000002000008000D000000000000000000000000000000000000000000000000000000000000000000000000000D096
:39256800808104000600000040000000000080000006C000000000000000000000000000000000000000000000000000000000000000000000000080C762
:3925A10080400C0006000018C0000000006000000006F000000000000000000000000000000000000000000000000000000000000000000000000080E79A
:3925DA008C11040086000018420000000020500000A6D0000000000000000000000000000000000000000000000000000000000000000000000000A0F8C9
:392613008405020046000098000000000000800000060120000000000000000000000000000000000000000000000000000000000000000000000000E797
:39264C00E00108800701001E900000000060000080073000000000000000000000000000000000000000000000000000000000000000000000000000958A
:392685008C01000006020018000000000000000000060000000000000000000000000000000000000000000000000000000000000000000000000090C910
:3926BE008005010040000098020000000000050200260400000000000000000000000000000000000000000000000000000000000000000000000080BA18
:3926F7002005358000D0005A000000000020000080061000000000000000000000000000000000000000000000000000000000000000000000000040D2DE
:392730008001308000C0000004000000000000000000C0000000000000000000000000000000000000000000000000000000000000000000000000009922
:392769008001308001C0001E04000000000000000006C000000000000000000000000000000000000000000000000000000000000000000000000080F6E7
:3927A2008821308400C0024300000000000000000006C8100000000000000000000000000000000000000000000000000000000000000000000000308905
:3927DB008001301100C0440009000000000010000026C004000000000000000000000000000000000000000000000000000000000000000000000010AB41
:39281400E0013D0001F0000600000000006040008007F480000000000000000000000000000000000000000000000000000000000000000000000000B823
:39284D008401301000C0400000000000008081000006C000000000000000000000000000000000000000000000000000000000000000000000000030E8AE
:39288600802900000000000804000000008011000006C414000000000000000000000000000000000000000000000000000000000000000000000000C92C
:3928BF001000000800002000004000000000000012000000000000000000000000000000000000000000000000000000000000000000000000000000CF87
:3928F8002000048000110002400008000120000480001000000000000000000000000000000000800010000240000800012000048000100002400080F8AA
:392931000000000000000000000000000000000000000000000000000000000000000000000000000000000000000000000000000000000000000080F9F4
:39296A002C00000000000002000008000120000080001000000000000000000000000000000000800010000240000800012000048000100002400010B4B8
:3929A30004012000048000100002000000000120000080000000000000000000000000000000000000800000000000000000000000000000100000B0DF80
:3929DC000000000000000000000008000100000080000000000000000000000000000000000000800000000240000800012000048000100000400080D129
:392A15000C000000000000000000000000000000000000000000000000000000000000000000000000000000000000000000000000000000000000209FBD
:392A4E002000100002400002000108000120001080001000000000000000000000000000000000800010000240000800012000048000100002400080813F
:392A87000000000000000000000000000040000000000000000000000000000000000000000000000000000000000000000000000000000000000080BD99
:392AC0000000000001000004020000000000000000000010000000000000000000000000000000000000000000000000000000000000000000000080BA8C
:392AF9000000000000000000000000000000000000000000000000000000000000000000000000000000000000000000000000000000000000000080F92B
:392B32000800000000000000000000000000000000000000000000000000000000000000000000000000000000000000000000000000000000000000F969
:392B6B000001000000000000000000000000000000000000000000000000000000000000000000000000000000000000000000000000000000000080E9C7
:392BA4000000000000000000000000000000000000000000000000000000000000000000000000000000000000000000000000000000000000000080F97F
:392BDD000000000000000000000000000000000000000000000000000000000000000000000000000000000000000000000000000000000000000180E856
:392C16000200000000000008000000000000000000000120000000000000000000000000000000000000000000000000000000000000000000000010F159
:392C4F000000000000400002000000000000280000020480000000000000000000000000000000000000000000000000000000000000000000800080FF5D
:392C8800002160220A042A10000000000000030000908039000000000000000000000000000000000000000000000000000000000000000000000800AE26
:392CC1000000000002002000000000000000000000000020000000000000000000000000000000000000000000000000000000000000000000000080F91F
:392CFA008240100000000008000000000080000000004120000000000000000000000000000000000000000000000000000000000000000000000090A9AD
:392D33000000000000000000000000000000000000000000000000000000000000000000000000000000000000000000000000000000000000000080F9EE
:392D6C000000000000000000000000000040010000000000000000000000000000000000000000000000000000000000000000000000000000000080BCB1
:392DA5000000000000000010000000000000000000000000000000000000000000000000000000000000000000000000000000000000000000000080E87D
:392DDE000000000000000000000000000000000000000000000000000000000000000000000000000000000000000000000000000000000000000080F943
:392E170020400200000000020000000000000002800010200100000000000000000000000000000000000000000000000000000000000000000000009DCE
:392E50000040000000000000000000000000020000000020000000000000000000000000000000000000000000000000000000000000000002000080BDA8
:392E89000000000000000000040000000000000000000000000000000000000000000000000000000000000000000000000000000000000000000080FD8F
:392EC2000000100002400000000000000080000000000001000000000000000000000000000000000000000000000000000000000000000000000000996B
:392EFB000000040000000001000000000000000000000000000000000000000000000000000000000000000000000000000000000000000000000080ED2C
:392F34000000000000140000000000000000000000000000000000000000000000000000000000000000000000000000000000000000000000000080EDE3
:392F6D000000000002000000000000000000000000000000000000000000000000000000000000000001000000000000000000000000000000000080C9DF
:392FA6008000000000402008040100000080000008024100000000000000000000000000000000000000000000000000000000000000000000000000B189
:392FDF0020000008A11080025000000000200000A00014000000000000000000000000000000000000020000000000000000000000000000000000408078
:393018000805000704010208000000000080204801800020000000000000000000000000000000002000000000000000000000000000000000000010B8EB
:393051000000000000010008000000000080000000000020000000000000000000000000000000000000000000000000000000000000000000000080D24B
:39308A008000000801000000000000000000400000000100000000000000000000000000000000000000000000000000000000000000000000000000B093
:3930C30000000000000800040000000000000000000000000000000000000000000000000000000000200000000000000000000000000000000000809395
:3930FC002000080000200002000000000000000080001000000000000000000000000000000000000000000000000000000000000000000000000000F2CF
:393135000000000000000000000000000000000000000000000000000000000000000000000000000000000000000000000000000000000000000080F9E8
:39316E000000000000000000400000000000000800000000000000000000000000000000000000000000000000000000000000000000000000000000B927
:3931A7000000000000000008000000000000000000002200000000000000000000000000000000000000000000000000000000000000000000000088D964
:3931E0000000008000000000080000000000000000000440000000000000000000000000000000000000000000000000000000000000000000000080F971
:3932190000000080000000000000000000000000000001000000000000000000000000000000000000000000000000000000000000000000000000C0A497
:393252000800000000000000000000000000000000000000000000000000000000000000000000000000000000000000000000000000000000000000F942
:39328B000000000000000000000000000000000000000000000000000000000000000000000000000000000000000000000000000000000000000090E892
:3932C4000200000000000000000000000000000000000000000000000000000000000000000000000000000000000000000000000000000000000080DB74
:3932FD0000200000110000000000000000000400000000400000000000000000000000000000000000000000000000000000000000000000000000809A09
:393336000080000000000000100000000000200100000280000000000000000000000000000000000000000000000000000000000000000000000080FAB1
:39336F000000000000100000000000000000000000000000000000000000000000000000000000000000000000000000000000000000000000000080E9AC
:3933A8000000000000000000000000000000000000000000000000000000000000000000000000000000000000000000000000000000000000000080F973
:3933E1000000000000000000000000000000000000000000000000000000000000000000000000000000000000000000000000000000000000000080F93A
:39341A000000000000000000000000000000000000000000000000000000000000000000000000000000000000000000000000000000000000000080F900
:393453000000000000000000000000000000000000000000000000000000000000000000000000000000000000000000000000000000000000000080F9C7
:39348C000000000000304000000000000000000000000000000000000000000000000000000000000000000000000000000000000000000000000080CD4A
:3934C5000000000000C00000000000000000000000000000000000000000000000000000000000000000000000000000000000000000000000000000B15D
:3934FE000000000000C00401000000000000000000000000000000000000000000000000000000000000000000000000000000000000000000000000E5EB
:393537001000000000000000000000000000000000000000000000000000000000000000000000000000000000000000000000000000000000000080F8D3
:393570000000000000000000000000000000000000000000000000000000000000000000000000000000000000000000000000000000000000000080F9A9
:3935A9000000000000000000000000000000000000000000000000000000000000000000000000000000000000000000000000000000000000000080F970
:3935E2000C000000000000000000000000000000000000000000000000000000000000000000000000000000000000000000000000000000000000209FE5
:39361B000400000000000000000000000000000000000000000000000000000000000000000000000000000000000000000000000000000000000080BD35
:393654000000000000000000000000000000000000000000000000000000000000000000000000000000000000000000000000000000000000000080F9C4
:39368D000C00000000000000000000000000000000000000000000000000000000000000000000000000000000000000000000000000000000000010AC3C
:3936C6000000000000000000000000000000000000000000000000000000000000000000000000000000000000000000000000000000000000000080F952
:3936FF000000000000000000000000000000000000000000000000000000000000000000000000000000000000000000000000000000000000000080F919
:393738000000000000000000000000000000000000000000000000000000000000000000000000000000000000000000000000000000000000000080F9DF
:393771000000000000000000000000000000000000000000000000000000000000000000000000000000000000000000000000000000000000000080F9A6
:3937AA000800000000000000000000000000000000000000000000000000000000000000000000000000000000000000000000000000000000000020DBE3
:3937E3000000000000000000000000000000000000000000000000000000000000000000000000000000000000000000000000000000000000000080F934
:39381C000000000000000000000000000000000000000000000000000000000000000000000000000000000000000000000000000000000000000080F9FA
:393855000400000000000000000000000000000000000000000000000000000000000000000000000000000000000000000000000000000000000090ACFA
:39388E000000000000000000000000000000000000000000000000000000000000000000000000000000000000000000000000000000000000000080F988
:3938C7000000000000D00000000000000000000000000000000000000000000000000000000000000000000000000000000000000000000000000000A157
:393900000000000000C00000000000000000000000000000000000000000000000000000000000000000000000000000000000000000000000000000B11D
:393939000000000000000000000000000000000000000000000000000000000000000000000000000000000000000000000000000000000000000080F9DC
:393972000800000000000000000000000000000000000000000000000000000000000000000000000000000000000000000000000000000000000020DB19
:3939AB000000000000C02400000000000000000000000000000000000000000000000000000000000000000000000000000000000000000000000000F708
:3939E4000000000000F000000000000000000000000000000000000000000000000000000000000000000000000000000000000000000000000000008139
:393A1D000400000000C00000000000000000000000000000000000000000000000000000000000000000000000000000000000000000000000000010E4B8
:393A56000000000000C00401000000000000000000000000000000000000000000000000000000000000000000000000000000000000000000000000E58D
:393A8F001000000000D00000000000000000000000000000000000000000000000000000000000000000000000000000000000000000000000000000A07E
:393AC8000000000000C00000000000000000000000000000000000000000000000000000000000000000000000000000000000000000000000000000B154
:393B01000000000000F00000000000000000000000000000000000000000000000000000000000000000000000000000000000000000000000000000811A
:393B3A000C00000000D000000000000000000000000000000000000000000000000000000000000000000000000000000000000000000000000000A0C70F
:393B73000400000000C00000000000000000000000000000000000000000000000000000000000000000000000000000000000000000000000000000F560
:393BAC000000000000F00000000000000000000000000000000000000000000000000000000000000000000000000000000000000000000000000000816F
:393BE5000C00000000C00000000000000000000000000000000000000000000000000000000000000000000000000000000000000000000000000090E467
:393C1E000000000000C00000000000000000000000000000000000000000000000000000000000000000000000000000000000000000000000000000B1FC
:393C57000000000000100000000000000000000000000000000000000000000000000000000000000000000000000000000000000000000000000080E9BB
:393C90000000000000C00000000000000000000000000000000000000000000000000000000000000000000000000000000000000000000000000000B18A
:393CC9000000000000C00000000000000000000000000000000000000000000000000000000000000000000000000000000000000000000000000000B151
:393D02000800000000C004010000000000000000000000000000000000000000000000000000000000000000000000000000000000000000000000A0C754
:393D3B000000000000000200000000000000000000000000000000000000000000000000000000000000000000000000000000000000000000000080DBF2
:393D74000000000000304000000000000000000000000000000000000000000000000000000000000000000000000000000000000000000000000080CD59
:393DAD000400000000C02000000000000000000000000000000000000000000000000000000000000000000000000000000000000000000000000010E603
:393DE6000000000000C00800000000000000000000000000000000000000000000000000000000000000000000000000000000000000000000000080B1AB
:393E1F001000000000D00000000000000000000000000000000000000000000000000000000000000000000000000000000000000000000000000000A0EA
:393E58000000000000C00000000000000000000000000000000000000000000000000000000000000000000000000000000000000000000000000000B1C0
:393E91000000000000C08000000000000000000000000000000000000000000000000000000000000000000000000000000000000000000000000000B9FF
:393ECA000C00000000C00400000000000000000000000000000000000000000000000000000000000000000000000000000000000000000000000090A0BF
:393F03000400000000C00000000000000000000000000000000000000000000000000000000000000000000000000000000000000000000000000030C6CB
:393F3C000000000000F040000000000000000000000000000000000000000000000000000000000000000000000000000000000000000000000000008597
:393F75000C00000000C040000000000000000000000000000000000000000000000000000000000000000000000000000000000000000000000000A0D394
:393FAE000000000000000800000000000000000000000000000000000000000000000000000000000000000000000000000000000000000000000000F9D9
:393FE7000000000000100000000000000000000000000000000000000000000000000000000000000000000000000000000000000000000000000080E928
:394020000000000000100000000000000000000000000000000000000000000000000000000000000000000000000000000000000000000000000080E9EE
:394059000000000000300000000000000000000000000000000000000000000000000000000000000000000000000000000000000000000000000080C9B5
:394092000800000000100000000000000000000000000000000000000000000000000000000000000000000000000000000000000000000000000020CBF2
:3940CB000000000000000000000000000000000000000000000000000000000000000000000000000000000000000000000000000000000000000080F943
:394104000000000000200000000000000000000000000000000000000000000000000000000000000000000000000000000000000000000000000080D909
:39413D000400000000000000000000000000000000000000000000000000000000000000000000000000000000000000000000000000000000000090AC09
:394176000000000000000000000000000000000000000000000000000000000000000000000000000000000000000000000000000000000000000080F997
:3941AF000000000000002800000000000000000000000000000000000000000000000000000000000000000000000000000000000000000000000000FBB4
:3941E8002000048000100002400008000120000480001000000000000000000000000000000000800010000240000800012000048000100002400080F9A1
:394221000000000000000000000000000000000000000000000000000000000000000000000000000000000000000000000000000000000000000080F9EB
:39425A0024000480000000024000080001200004800010000000000000000000000000000000008000100002400008000120000480001000024000A08F84
:394293000C00000000800000000000000000000000000000000000000000000000000000000000000000000000000000000000000000000000000080B531
:3942CC002000048000000002400008000120000480001000000000000000000000000000000000800010000240000800012000048000100002400080E9DC
:394305000800000000000000000000000000000000000000000000000000000000000000000000000000000000000000000000000000000000000010E87F
:39433E002000048000400002400008000120000480001000000000000000000000000000000000800010000240000800012000048000100002400080A969
:394377000000000000000000000000000000000000000000000000000000000000000000000000000000000000000000000000000000000000000080F994
:3943B0000000000000000000000000000000000000000000000000000000000000000000000000000000000000000000000000000000000000000080F95B
:3943E9000000000000000000000000000000000000000000000000000000000000000000000000000000000000000000000000000000000000000080F922
:394422000000000000000000000000000000000000000000000000000000000000000000000000000000000000000000000000000000000000000080F9E8
:39445B000000000000000000000000000000000000000000000000000000000000000000000000000000000000000000000000000000000000000080F9AF
:394494000000000000000000000000000000000000000000000000000000000000000000000000000000000000000000000000000000000000000080F976
:3944CD000000000000010000000000000000000000000000000000000000000000000000000000000000000000000000000000000000000000000080F83D
:394506000200000000000000000000000000000000000000000000000000000000000000000000000000000000000000000000000000000000000080DB1F
:39453F000000000000020000000000000000000000000000000000000000000000000000000000000000000000000000000000000000000000000080FBC6
:39457800100000002A010000000000000000000000000000000000000000000000000000000000000000000000000000000000000000000000000000F3DC
:3945B1000000000082000000000000000000000000000000000000000000000000000000000000000000000000000000000000000000000000000000D976
:3945EA000200000000000000000000000000000000000000000000000000000000000000000000000000000000000000000000000000000000000080DB3B
:394623000000000000000000000000000000000000000000000000000000000000000000000000000000000000000000000000000000000000000080F9E5
:39465C000000000000000000000000000000000000000000000000000000000000000000000000000000000000000000000000000000000000000080F9AC
:394695000000000000000000000000000000000000000000000000000000000000000000000000000000000000000000000000000000000000000080F973
:3946CE000000000000000100000000000000000000000000000000000000000000000000000000000000000000000000000000000000000000000080E84A
:394707000000000000000000000000000000000000000000000000000000000000000000000000000000000000000000000000000000000000000080F900
:394740000000000000000000000000000000000000000000000000000000000000000000000000000000000000000000000000000000000000000080F9C7
:394779000000000000000000000000000000000000000000000000000000000000000000000000000000000000000000000000000000000000000080F98E
:3947B2000000000000C00000000000000000000000000000000000000000000000000000000000000000000000000000000000000000000000000000B15D
:3947EB000000000000000000000000000000000000000000000000000000000000000000000000000000000000000000000000000000000000000080F91C
:394824000000000000000000000000000000000000000000000000000000000000000000000000000000000000000000000000000000000000000080F9E2
:39485D000000000000000000000000000000000000000000000000000000000000000000000000000000000000000000000000000000000000000080F9A9
:394896000800000000000000000000000000000000000000000000000000000000000000000000000000000000000000000000000000000000000000F9E8
:3948CF000000000000000000000000000000000000000000000000000000000000000000000000000000000000000000000000000000000000000080F937
:394908000800000049010000000000000000000000000000000000000000000000000000000000000000000000000000000000000000000000000080A400
:394941000000000000010000000000000000000000000000000000000000000000000000000000000000000000000000000000000000000000000080F8C4
:39497A000000000000000000000000000000000000000000000000000000000000000000000000000000000000000000000000000000000000000080F98B
:3949B3000000000000008000000000000000000000000000000000000000000000000000000000000000000000000000000000000000000000000080F1DA
:3949EC000000000000000000000000000000000000000000000000000000000000000000000000000000000000000000000000000000000000000080F919
:394A25000000000000000000000000000000000000000000000000000000000000000000000000000000000000000000000000000000000000000080F9DF
:394A5E000000000000000000000000000000000000000000000000000000000000000000000000000000000000000000000000000000000000000080F9A6
:394A970002000000000000000000000000000000000000000000000000000000000000000000000000000000000000000000000000000000000000A0F94B
:394AD0000000000000000000000000000000000000000000000000000000000000000000000000000000000000000000000000000000000000000080F934
:394B09000000000000000000000000000000000000000000000000000000000000000000000000000000000000000000000000000000000000000080F9FA
:394B42000000000000000000000000000000000000000000000000000000000000000000000000000000000000000000000000000000000000000080F9C1
:394B7B000000000000000000000000000000000000000000000000000000000000000000000000000000000000000000000000000000000000000080F988
:394BB4000000000000000000000000000000000000000000000000000000000000000000000000000000000000000000000000000000000000000080F94F
:394BED000000000000000200000000000000000000000000000000000000000000000000000000000000000000000000000000000000000000000080DB32
:394C26000000000000000000000000000000000000000000000000000000000000000000000000000000000000000000000000000000000000000080F9DC
:394C5F000000800010040000000000000000000000000000000000000000000000000000000000000000000000000000000000000000000000000000E4A4
:394C98000000200804000000000000000000000000000000000000000000000000000000000000000000000000000000000000000000000000000000991E
:394CD1000000000000000000000000000000000000000000000000000000000000000000000000000000000000000000000000000000000000000080F931
:394D0A000000000000000000000000000000000000000000000000000000000000000000000000000000000000000000000000000000000000000080F9F7
:394D43000012E0025C00092001248004900012400248000900000000000000000000000000000000480009200124800490001240024800092001240080CC
:394D7C00000C9001320006C00018000360000C800130000600000000000000000000000000000000300006C00018000360000C8001300006C0001880C9D6
:024DB500FFFFFE
:00000001FF
