:020000040000FA
:39000000FFFF62FF3600FFFFFFFFFFFFFFFFFFFFFFFFFFFFFFFFFFFFFFFFFFFFFFFFFFFFFFFFFFFFFFFFFFFFFFFFFFFFFFFFFFFFFFFFFFFFFFFFFFFFFF65
:39003900000C80013000069A4013000360000C800130000600000000000000000000000000000000900526C00018000360A009800130000640161800C133
:390072000012400248000950012A8004900012400248000900000000000000000000000000000000A8001D20012480049000154002480009A002248081EF
:3900AB000000000000000000000000000000000000000000000000000000000000000000000000000000000000000000000000000000000000000080F9A3
:3900E4000000000000000000000000000000000000000000000000000000000000000000000000000000000000000000000000000000000000000080F96A
:39011D000000000000000000000000000000000000000000000000000000000000000000000000000000100000000000000000000000000000000080E930
:390156000000000000000000000000000000000000000000000000000000000000000100000000000010040000000000000000000000000000000080FDDE
:39018F000000000000000000000000000000000000000000000000000000000000000000000000000000000000000000000000000000000000000080F9BE
:3901C8000000000000000000000000000000000000000000000000000000000000000000000000000000000000000000000000000000000000000080F985
:390201000000000000000000000000000000000000000000000000000000000000000000000000000000000000000000000000000000000000000080F94B
:39023A000000000000000000000000000000000000000000000000000000000000000000000000000000000000000000000000000000000000000080F912
:390273000000000000000000000000000000000000000000000000000000000000000000000000000000000000000000000000000000000000000080F9D9
:3902AC000000000000000000000000000000000000000000000000000000000000000000000000000000000000000000000000000000000000000080F9A0
:3902E5000000000000000000000000000000000000000000000000000000000000000000000000000000000000000000000000000000000000000080F967
:39031E000000000000000000000000000000000000000000000000000000000000000000000000000000000000000000000000000000000000000080F92D
:390357000000000000000000000000000000000000000000000000000000000000000000000000000000000000000000000000000000000000000080F9F4
:390390000000000000000000000000000000000000000000000000000000000000000000000000000000000000000000000000000000000000000080F9BB
:3903C9000000000000000000000000000000000000000000000000000000000000000000000000000000000000000000000000000000000000000080F982
:390402000800000000000000000000000000000000000000000000000000000000000000000000000000000000000000000000000000000000000020DBBE
:39043B000000000000000000000000000000000000000000000000000000000000000000000000000000000000000000000000000000000000000080F90F
:390474000000000000000000000000000000000000000000000000000000000000000000000000000000000000000000000000000000000000000080F9D6
:3904AD000400000000000000000000000000000000000000000000000000000000000000000000000000000000000000000000000000000000000090ACD6
:3904E6000000000000000000000000000000000000000000000000000000000000000000000000000000000000000000000000000000000000000080F964
:39051F000000000000000000000000000000000000000000000000000000000000000000000000000000000000000000000000000000000000000080F92A
:390558000000000000000000000000000000000000000000000000000000000000000000000000000000000000000000000000000000000000000080F9F1
:390591000000000000000000000000000000000000000000000000000000000000000000000000000000000000000000000000000000000000000080F9B8
:3905CA000800000000000000000000000000000000000000000000000000000000000000000000000000000000000000000000000000000000000020DBF5
:390603000000000000000000000000000000000000000000000000000000000000000000000000000000000000000000000000000000000000000080F945
:39063C000000000000000000000000000000000000000000000000000000000000000000000000000000000000000000000000000000000000000080F90C
:390675000400000000000000000000000000000000000000000000000000000000000000000000000000000000000000000000000000000000000090AC0C
:3906AE000000000000000000000000000000000000000000000000000000000000000000000000000000000000000000000000000000000000000080F99A
:3906E7000000000000000000000000000000000000000000000000000000000000000000000000000000000000000000000000000000000000000080F961
:390720000000000000000000000000000000000000000000000000000000000000000000000000000000000000000000000000000000000000000080F927
:390759000000000000000000000000000000000000000000000000000000000000000000000000000000000000000000000000000000000000000080F9EE
:390792000800000000000000000000000000000000000000000000000000000000000000000000000000000000000000000000000000000000000020DB2B
:3907CB000000000000000000000000000000000000000000000000000000000000000000000000000000000000000000000000000000000000000080F97C
:390804000000000000000000000000000000000000000000000000000000000000000000000000000000000000000000000000000000000000000080F942
:39083D000400000000000000000000000000000000000000000000000000000000000000000000000000000000000000000000000000000000000090AC42
:390876000000000000000000000000000000000000000000000000000000000000000000000000000000000000000000000000000000000000000080F9D0
:3908AF000000000000000000000000000000000000000000000000000000000000000000000000000000000000000000000000000000000000000080F997
:3908E8000000000000000000000000000000000000000000000000000000000000000000000000000000000000000000000000000000000000000080F95E
:390921000000000000000000000000000000000000000000000000000000000000000000000000000000000000000000000000000000000000000080F924
:39095A000800000000000000000000000000000000000000000000000000000000000000000000000000000000000000000000000000000000000020DB61
:390993000000000000000000000000000000000000000000000000000000000000000000000000000000000000000000000000000000000000000080F9B2
:3909CC000000000000000000000000000000000000000000000000000000000000000000000000000000000000000000000000000000000000000080F979
:390A05000400000000000000000000000000000000000000000000000000000000000000000000000000000000000000000000000000000000000090AC78
:390A3E000000000000000000000000000000000000000000000000000000000000000000000000000000000000000000000000000000000000000080F906
:390A77000000000000000000000000000000000000000000000000000000000000000000000000000000000000000000000000000000000000000080F9CD
:390AB0000000000000000000000000000000000000000000000000000000000000000000000000000000000000000000000000000000000000000080F994
:390AE9000000000000000000000000000000000000000000000000000000000000000000000000000000000000000000000000000000000000000080F95B
:390B22000800000000000000000000000000000000000000000000000000000000000000000000000000000000000000000000000000000000000020DB97
:390B5B000000000000000000000000000000000000000000000000000000000000000000000000000000000000000000000000000000000000000080F9E8
:390B94000000000000000000000000000000000000000000000000000000000000000000000000000000000000000000000000000000000000000080F9AF
:390BCD000400000000000000000000000000000000000000000000000000000000000000000000000000000000000000000000000000000000000090ACAF
:390C06000000000000000000000000000000000000000000000000000000000000000000000000000000000000000000000000000000000000000080F93C
:390C3F000000000000000000000000000000000000000000000000000000000000000000000000000000000000000000000000000000000000000080F903
:390C78000000000000000000000000000000000000000000000000000000000000000000000000000000000000000000000000000000000000000080F9CA
:390CB1000000000000000000000000000000000000000000000000000000000000000000000000000000000000000000000000000000000000000080F991
:390CEA000800000000000000000000000000000000000000000000000000000000000000000000000000000000000000000000000000000000000020DBCE
:390D23000000000000000000000000000000000000000000000000000000000000000000000000000000000000000000000000000000000000000080F91E
:390D5C000000000000000000000000000000000000000000000000000000000000000000000000000000000000000000000000000000000000000080F9E5
:390D95000400000000000000000000000000000000000000000000000000000000000000000000000000000000000000000000000000000000000090ACE5
:390DCE000000000000000000000000000000000000000000000000000000000000000000000000000000000000000000000000000000000000000080F973
:390E07000000000000000000000000000000000000000000000000000000000000000000000000000000000000000000000000000000000000000080F939
:390E40000000000000000000000000000000000000000000000000000000000000000000000000000000000000000000000000000000000000000080F900
:390E79000000000000000000000000000000000000000000000000000000000000000000000000000000000000000000000000000000000000000080F9C7
:390EB2000800000000000000000000000000000000000000000000000000000000000000000000000000000000000000000000000000000000000020DB04
:390EEB000000000000000000000000000000000000000000000000000000000000000000000000000000000000000000000000000000000000000080F955
:390F24000000000000000000000000000000000000000000000000000000000000000000000000000000000000000000000000000000000000000080F91B
:390F5D000400000000000000000000000000000000000000000000000000000000000000000000000000000000000000000000000000000000000090AC1B
:390F96000000000000000000000000000000000000000000000000000000000000000000000000000000000000000000000000000000000000000080F9A9
:390FCF000000000000000000000000000000000000000000000000000000000000000000000000000000000000000000000000000000000000000080F970
:391008002000048000100002400008000120000480001000000000000000000000000000000000800010000240000800012000048000100002400080F9B2
:391041000000000000000000000000000000000000000000000000000000000000000000000000000000000000000000000000000000000000000080F9FD
:39107A002800048000100002400008000120000480001000000000000000000000000000000000800010000240000800012000048000100002400020DBB6
:3910B3000000000000000000000000000000000000000000000000000000000000000000000000000000000000000000000000000000000000000080F98B
:3910EC002000048000100002400008000120000480001000000000000000000000000000000000800010000240000800012000048000100002400080F9CE
:391125000400000000000000000000000000000000000000000000000000000000000000000000000000000000000000000000000000000000000090AC51
:39115E002000048000100002400008000120000480001000000000000000000000000000000000800010000240000800012000048000100002400080F95B
:391197000000000000000000000000000000000000000000000000000000000000000000000000000000000000000000000000000000000000000080F9A6
:3911D0000000000000000000000000000000000000000000000000000000000000000000000000000000000000000000000000000000000000000080F96D
:391209000000000000000000000000000000000000000000000000000000000000000000000000000000000000000000000000000000000000000080F933
:391242000000000000000000000000000000000000000000000000000000000000000000000000000000000000000000000000000000000000000080F9FA
:39127B000000000000000000000000000000000000000000000000000000000000000000000000000000000000000000000000000000000000000080F9C1
:3912B4000000000000000000000000000000000000000000000000000000000000000000000000000000000000000000000000000000000000000080F988
:3912ED000000000000000000000000000000000000000000000000000000000000000000000000000000000000000000000000000000000000000080F94F
:391326000000000000000000000000000000000000000000000000000000000000000000000000000000000000000000000000000000000000000080F915
:39135F000000000000000000000000000000000000000000000000000000000000000000000000000000000000000000000000000000000000000080F9DC
:391398000000000000000000000000000000000000000000000000000000000000000000000000000000000000000000000000000000000000000080F9A3
:3913D1000000000000000000000000000000000000000000000000000000000000000000000000000000000000000000000000000000000000000080F96A
:39140A000000000000000000000000000000000000000000000000000000000000000000000000000000000000000000000000000000000000000080F930
:391443000000000000000000000000000000000000000000000000000000000000000000000000000000000000000000000000000000000000000080F9F7
:39147C000000000000000000000000000000000000000000000000000000000000000000000000000000000000000000000000000000000000000080F9BE
:3914B5000000000000000000000000000000000000000000000000000000000000000000000000000000000000000000000000000000000000000080F985
:3914EE000000000000000000000000000000000000000000000000000000000000000000000000000000000000000000000000000000000000000080F94C
:391527000000000000000000000000000000000000000000000000000000000000000000000000000000000000000000000000000000000000000080F912
:391560000000000000000000000000000000000000000000000000000000000000000000000000000000000000000000000000000000000000000080F9D9
:391599000000000000000000000000000000000000000000000000000000000000000000000000000000000000000000000000000000000000000080F9A0
:3915D2000000000000000000000000000000000000000000000000000000000000000000000000000000000000000000000000000000000000000080F967
:39160B000000000000000000000000000000000000000000000000000000000000000000000000000000000000000000000000000000000000000080F92D
:391644000000000000000000000000000000000000000000000000000000000000000000000000000000000000000000000000000000000000000080F9F4
:39167D000000000000000000000000000000000000000000000000000000000000000000000000000000000000000000000000000000000000000080F9BB
:3916B6000000000000000000000000000000000000000000000000000000000000000000000000000000000000000000000000000000000000000080F982
:3916EF000000000000000000000000000000000000000000000000000000000000000000000000000000000000000000000000000000000000000080F949
:391728000000000000000000000000000000000000000000000000000000000000000000000000000000000000000000000000000000000000000080F90F
:391761000000000000000000000000000000000000000000000000000000000000000000000000000000000000000000000000000000000000000080F9D6
:39179A000000000000000000000000000000000000000000000000000000000000000000000000000000000000000000000000000000000000000080F99D
:3917D3000000000000000000000000000000000000000000000000000000000000000000000000000000000000000000000000000000000000000080F964
:39180C000000000000000000000000000000000000000000000000000000000000000000000000000000000000000000000000000000000000000080F92A
:391845000000000000000000000000000000000000000000000000000000000000000000000000000000000000000000000000000000000000000080F9F1
:39187E000000000000000000000000000000000000000000000000000000000000000000000000000000000000000000000000000000000000000080F9B8
:3918B7000000000000000000000000000000000000000000000000000000000000000000000000000000000000000000000000000000000000000080F97F
:3918F0000000000000000000000000000000000000000000000000000000000000000000000000000000000000000000000000000000000000000080F946
:391929000000000000000000000000000000000000000000000000000000000000000000000000000000000000000000000000000000000000000080F90C
:391962000000000000000000000000000000000000000000000000000000000000000000000000000000000000000000000000000000000000000080F9D3
:39199B000000000000000000000000000000000000000000000000000000000000000000000000000000000000000000000000000000000000000080F99A
:3919D4000000000000000000000000000000000000000000000000000000000000000000000000000000000000000000000000000000000000000080F961
:391A0D000000000000000000000000000000000000000000000000000000000000000000000000000000000000000000000000000000000000000080F927
:391A46000000000000000000000000000000000000000000000000000000000000000000000000000000000000000000000000000000000000000080F9EE
:391A7F000000000000000000000000000000000000000000000000000000000000000000000000000010000000000000000000000000000000000080E8B6
:391AB8000000000000000000000000000000000000000000000000000000000000000000000000000000000000000000000000000000000000000080F97C
:391AF10000000000000000000000000000000000000000000000000000000000000000000000000000C0000000000000000000000000000000000000BD3F
:391B2A0000000000000000000000000000000000000000000000000000000000000000000000000000C0020100000000000000000000000000000000AE11
:391B63000000000000000000000000000000000000000000000000000000000000000000000000000000040000000000000000000000000000000080FDC8
:391B9C0000000000000000000000000000000000000000000000000000000000000000000000000000F0400000000000000000000000000000000000CE12
:391BD5000000000000000000000000000000000000000000000000000000000000000000000000000000000000000000000000000000000000000080F95E
:391C0E0000000000000000000000000000000000000000000000000000000000000000000000000000C0040100000000000000000000000000000000A830
:391C47000000000000000000000000000000000000000000000000000000000000000000000000000010000000000000000000000000000000000080E8EC
:391C80000000000000000000000000000000000000000000000000000000000000000000000000000000000000000000000000000000000000000080F9B2
:391CB90000000000000000000000000000000000000000000000000000000000000000000000000000C0800000000000000000000000000000000080B57D
:391CF20008000000000000000000000000000000000000000000000000000000000000000000000000C0080000000000000000000000000000000090A4B5
:391D2B0000000000000000000000000000000000000000000000000000000000000000000000000000000400000000000000000000000000000000B0CEFD
:391D640000000000000000000000000000000000000000000000000000000000000000000000000000F0400000000000000000000000000000000000CE48
:391D9D0004000000000000000000000000000000000000000000000000000000000000000000000000000000000000000000000000000000000000A09FCA
:391DD60000000000000000000000000000000000000000000000000000000000000000000000000000C0820000000000000000000000000000000080B75B
:391E0F0000000000000000000000000000000000000000000000000000000000000000000000000000D0000000000000000000000000000000000000AC1E
:391E48000000000000000000000000000000000000000000000000000000000000000000000000000000000000000000000000000000000000000080F9E8
:391E81000000000000000000000000000000000000000000000000000000000000000000000000000000000000000000000000000000000000000080F9AF
:391EBA00040000000000000000000000000000000000000000000000000000000000000000000000000084000000000000000000000000000000002093B4
:391EF3000C00000000000000000000000000000000000000000000000000000000000000000000000000000000000000000000000000000000000000BDED
:391F2C0000000000000000000000000000000000000000000000000000000000000000000000000000F0200000000000000000000000000000000000AEBE
:391F650008000000000000000000000000000000000000000000000000000000000000000000000000C0400000000000000000000000000000000090ECBF
:391F9E0000000000000000000000000000000000000000000000000000000000000000000000000000C0080000000000000000000000000000000000B58D
:391FD70000000000000000000000000000000000000000000000000000000000000000000000000000100000000000000000000000000000000000C0AC55
:392010000000000000000000000000000000000000000000000000000000000000000000000000000000000000000000000000000000000000000080F91E
:3920490000000000000000000000000000000000000000000000000000000000000000000000000000C0400000000000000000000000000000000000FD61
:3920820008000000000000000000000000000000000000000000000000000000000000000000000000C00200000000000000000000000000000000B08C1F
:3920BB000000000000000000000000000000000000000000000000000000000000000000000000000000040000000000000000000000000000000090EC6C
:3920F40000000000000000000000000000000000000000000000000000000000000000000000000000F0400000000000000000000000000000000000CEB5
:39212D0004000000000000000000000000000000000000000000000000000000000000000000000000000000000000000000000000000000000000B08E37
:3921660000000000000000000000000000000000000000000000000000000000000000000000000000C0420000000000000000000000000000000000FF3F
:39219F0000000000000000000000000000000000000000000000000000000000000000000000000000D0000000000000000000000000000000000000AC8B
:3921D8000000000000000000000000000000000000000000000000000000000000000000000000000000000000000000000000000000000000000080F955
:392211000000000000000000000000000000000000000000000000000000000000000000000000000000800000000000000000000000000000000000F123
:39224A0004000000000000000000000000000000000000000000000000000000000000000000000000000400000000000000000000000000000000A09B18
:392283000C00000000000000000000000000000000000000000000000000000000000000000000000000040000000000000000000000000000000000B959
:3922BC0000000000000000000000000000000000000000000000000000000000000000000000000000F0200000000000000000000000000000000000AE2B
:3922F50008000000000000000000000000000000000000000000000000000000000000000000000000C0400000000000000000000000000000000090EC2C
:39232E0000000000000000000000000000000000000000000000000000000000000000000000000000C0080000000000000000000000000000000000B5F9
:3923670000000000000000000000000000000000000000000000000000000000000000000000000000100000000000000000000000000000000000C0ACC1
:3923A0000000000000000000000000000000000000000000000000000000000000000000000000000000000000000000000000000000000000000080F98B
:3923D90000000000000000000000000000000000000000000000000000000000000000000000000000C0400000000000000000000000000000000000FDCE
:3924120008000000000000000000000000000000000000000000000000000000000000000000000000C00400000000000000000000000000000000B08A8B
:39244B000000000000000000000000000000000000000000000000000000000000000000000000000000040000000000000000000000000000000090ECD8
:3924840000000000000000000000000000000000000000000000000000000000000000000000000000F0400000000000000000000000000000000000CE21
:3924BD0004000000000000000000000000000000000000000000000000000000000000000000000000000000000000000000000000000000000000B08EA4
:3924F60000000000000000000000000000000000000000000000000000000000000000000000000000C0440000000000000000000000000000000000F9B0
:39252F0000000000000000000000000000000000000000000000000000000000000000000000000000D0000000000000000000000000000000000000ACF7
:392568000000000000000000000000000000000000000000000000000000000000000000000000000000000000000000000000000000000000000080F9C1
:3925A1000000000000000000000000000000000000000000000000000000000000000000000000000000400000000000000000000000000000000080B988
:3925DA0004000000000000000000000000000000000000000000000000000000000000000000000000000000000000000000000000000000000000A09F85
:392613000C000000000000000000000000000000000000000000000000000000000000000000000000002200000000000000000000000000000000009FC1
:39264C0000000000000000000000000000000000000000000000000000000000000000000000000000F00000000000000000000000000000000000008ED7
:3926850008000000000000000000000000000000000000000000000000000000000000000000000000C0400000000000000000000000000000000090EC98
:3926BE0000000000000000000000000000000000000000000000000000000000000000000000000000C0080000000000000000000000000000000000B566
:3926F70000000000000000000000000000000000000000000000000000000000000000000000000000D0000000000000000000000000000000000000AC2E
:392730000000000000000000000000000000000000000000000000000000000000000000000000000000000000000000000000000000000000000080F9F7
:392769000000000000000000000000000000000000000000000000000000000000000000000000000000000000000000000000000000000000000080F9BE
:3927A2000800000000000000000000000000000000000000000000000000000000000000000000000000400000000000000000000000000000000010A8FE
:3927DB0000000000000000000000000000000000000000000000000000000000000000000000000000000800000000000000000000000000000000B0C24B
:3928140000000000000000000000000000000000000000000000000000000000000000000000000000F0200000000000000000000000000000000000AECD
:39284D0004000000000000000000000000000000000000000000000000000000000000000000000000C04000000000000000000000000000000000209B93
:3928860000000000000000000000000000000000000000000000000000000000000000000000000000C0080000000000000000000000000000000000B59C
:3928BF0000000000000000000000000000000000000000000000000000000000000000000000000000000000000000000000000000000000000000C0BD63
:3928F8002000048000100002400008000120000480001000000000000000000000000000000000800010000240000800012000048000100002400080F9AA
:392931000000000000000000000000000000000000000000000000000000000000000000000000000000000000000000000000000000000000000080F9F4
:39296A0024000480001000024000080001200004800010000000000000000000000000000000008000100002400008000120000480001000024000B08E6E
:3929A3000C00000000000000000000000000000000000000000000000000000000000000000000000000000000000000000000000000000000000010AC33
:3929DC002000048000100002400008000120000480001000000000000000000000000000000000800010000240000800012000048000100002400080F9C5
:392A15000800000000000000000000000000000000000000000000000000000000000000000000000000000000000000000000000000000000000030CA86
:392A4E002000048000100002400008000120000480001000000000000000000000000000000000800010000240000800012000048000100002400080F952
:392A87000000000000000000000000000000000000000000000000000000000000000000000000000000000000000000000000000000000000000080F99D
:392AC0000000000000000000000000000000000000000000000000000000000000000000000000000000000000000000000000000000000000000080F964
:392AF9000000000000000000000000000000000000000000000000000000000000000000000000000000000000000000000000000000000000000080F92B
:392B32000000000000000000000000000000000000000000000000000000000000000000000000000000000000000000000000000000000000000080F9F1
:392B6B000000000000000000000000000000000000000000000000000000000000000000000000000000000000000000000000000000000000000080F9B8
:392BA4000000000000000000000000000000000000000000000000000000000000000000000000000000000000000000000000000000000000000080F97F
:392BDD000000000000000000000000000000000000000000000000000000000000000000000000000200000000000000000000000000000000000090CA63
:392C16000000000000000000000000000000000000000000000000000000000000000000000000000000000000000000000000000000000000000080F90C
:392C4F000000000000000000000000000000000000000000000000000000000000000000000000000100000000000000000000000000000000000080E8E3
:392C88000000000000000000000000000000000000000000000000000000000000000000000000001001000000000000008000000000000000020080E21E
:392CC1000000000000000000000000000000000000000000000000000000000000000000000000000004000000000000000001000000000000000080A9AC
:392CFA000000000000000000000000000000000000000000000000000000000000000000000000000000000000000000000000000000000000100080E928
:392D33000000000000000000000000000000000000000000000000000000000000000000000000000000000000000000000000000000000000000080F9EE
:392D6C000000000000000000000000000000000000000000000000000000000000000000000000000000000000000000000000000000000000000080F9B5
:392DA5000000000000000000000000000000000000000000000000000000000000000000000000000000000000000000000000000000000000000080F97C
:392DDE000000000000000000000000000000000000000000000000000000000000000000000000000000100000000000000000000000000000000080E943
:392E17000000000000000000000000000000000000000000000000000000000000000000000000000000000000000000000000000000000000000080F909
:392E50000000000000000000000000000000000000000000000000000000000000000000000000000000010000000000000000000000000000000080F8D0
:392E890000000000000000000000000000000000000000000000000000000000000000000000000000C0000000000000000000000000000000000000BD93
:392EC2000000000000000000000000000000000000000000000000000000000000000000000000000040000000000000000000000000000000000080BD5A
:392EFB000000000000000000000000000000000000000000000000000000000000000000000000000020010000000000000000000000000000000080DA23
:392F340000000000000000000000000000000000000000000000000000000000000000000000000000A0000000000000000000000000000000000000DBE9
:392F6D000000000000000000000000000000000000000000000000000000000000000000000000000001000000000000000000000000000000000080E9C1
:392FA6000000000000000000000000000000000000000000000000000000000000000000000000000000000000000000000000000000000000000080F979
:392FDF000A000000000000000000000000000000000000000000000000000000000000000000000000820200000000000000000000000000000000C0BDAE
:393018000000000000000000000000000000000000000000000000000000000000000000000000002A00000000000000000000000002000000040188E4E2
:393051000000000000000000000000000000000000000000000000000000000000000000000000000200000000000000000000000001000000820000C100
:39308A000000000000000000000000000000000000000000000000000000000000000000000000000000000000000000000000000000000000000080F994
:3930C3000000000000000000000000000000000000000000000000000000000000000000000000000000000100000000000000000000000000000080E86B
:3930FC000000000000000000000000000000000000000000000000000000000000000000000000000000200000000000000000000000000000000080D922
:393135000000000000000000000000000000000000000000000000000000000000000000000000000000000000000000000000000000000000000080F9E8
:39316E000000000000000000000000000000000000000000000000000000000000000000000000000000400000000000000000000000000000000080B9AF
:3931A7000A00000000000000000000000000000000000000000000000000000000000000000000000000000000000000000000000000000000000010CA0B
:3931E0000000000000000000000000000000000000000000000000000000000000000000000000000000000000000000000000000000000000000080F93D
:3932190000000000000000000000000000000000000000000000000000000000000000000000000000000000000000000000000000000000000000C0BDFF
:393252000000000000000000000000000000000000000000000000000000000000000000000000000000000000000000000000000000000000000008F14A
:39328B000000000000000000000000000000000000000000000000000000000000000000000000000000800000000000000000000000000000000000F199
:3932C4000000000000000000000000000000000000000000000000000000000000000000000000000000000000000000000000000000000000000080F958
:3932FD000000000000000000000000000000000000000000000000000000000000000000000000000000020000000000000000000000000000000080FB1B
:393336000000000000000000000000000000000000000000000000000000000000000000000000000000000000000000000000000000000000000080F9E5
:39336F000000000000000000000000000000000080060000000000000000000000000000000000000000000000000000000000000000000000000000FFA0
:3933A8000000000000000000000000000000000000000000000000000000000000000000000000000000000000000000000000000000000000000080F973
:3933E1000000000000000000000000000000000000000400000000000000000000000000000000000000000000000000000000000000000000000080BD72
:39341A000000000000000000000000000000000000200000000000000000000000000000000000000000000000000000000000000000000000000080D900
:393453000000000000000000000000000000000000200000000000000000000000000000000000000000000000000000000000000000000000000080D9C7
:39348C000000000000000000000000000000000080070100000000000000000000000000000000000000000000000000000000000000000000000000EF90
:3934C5000000000000000000000000000000000000060200000000000000000000000000000000000000000000000000000000000000000000000080DD69
:3934FE000000000000000000000000000000000000460000000000000000000000000000000000000000000000000000000000000000000000000080BF10
:393537001000000000000000000000000000000080060000000000000000000000000000000000000000000000000000000000000000000000000000FEC7
:393570000000000000000000000000000000000000000000000000000000000000000000000000000000000000000000000000000000000000000080F9A9
:3935A9000000000000000000000000000000000000000000000000000000000000000000000000000000000000000000000000000000000000000080F970
:3935E2000C00000000000000000000000000000000100200000000000000000000000000000000000000000000000000000000000000000000000020ADC5
:39361B000400000000000000000000000000000000100100000000000000000000000000000000000000000000000000000000000000000000000080BC25
:393654000000000000000000000000000000000080070000000000000000000000000000000000000000000000000000000000000000000000000000FEB8
:39368D000C000000000000000000000000000000000602000000000000000000000000000000000000000000000000000000000000000000000000108858
:3936C6000000000000000000000000000000000000460000000000000000000000000000000000000000000000000000000000000000000000000080BF46
:3936FF001000000000000000000000000000000080000000000000000000000000000000000000000000000000000000000000000000000000000000F80A
:393738000000000000000000000000000000000000000000000000000000000000000000000000000000000000000000000000000000000000000080F9DF
:393771000000000000000000000000000000000000060000000000000000000000000000000000000000000000000000000000000000000000000080FF9A
:3937AA000C000000000000000000000000000000002608000000000000000000000000000000000000000000000000000000000000000000000000908A92
:3937E30004000000000000000000000000000000002000000000000000000000000000000000000000000000000000000000000000000000000000B0AE2B
:39381C000000000000000000000000000000000080070200000000000000000000000000000000000000000000000000000000000000000000000000DC0E
:393855000C000000000000000000000000000000000000000000000000000000000000000000000000000000000000000000000000000000000000209F6F
:39388E000000000000000000000000000000000000860000000000000000000000000000000000000000000000000000000000000000000000000000F784
:3938C7000000000000000000000000000000000080000000000000000000000000000000000000000000000000000000000000000000000000000000F94F
:393900000000000000000000000000000000000000000000000000000000000000000000000000000000000000000000000000000000000000000080F915
:393939000000000000000000000000000000000000060200000000000000000000000000000000000000000000000000000000000000000000000080DDF0
:393972000800000000000000000000000000000000060000000000000000000000000000000000000000000000000000000000000000000000000020DD11
:3939AB000000000000000000000000000000000000200000000000000000000000000000000000000000000000000000000000000000000000000080D96A
:3939E4000000000000000000000000000000000080070200000000000000000000000000000000000000000000000000000000000000000000000000DC45
:393A1D000400000000000000000000000000000000000000000000000000000000000000000000000000000000000000000000000000000000000090AC30
:393A56000000000000000000000000000000000000160800000000000000000000000000000000000000000000000000000000000000000000000000EF2A
:393A8F000000000000000000000000000000000080000000000000000000000000000000000000000000000000000000000000000000000000000000F985
:393AC8000000000000000000000000000000000000000000000000000000000000000000000000000000000000000000000000000000000000000080F94C
:393B01000000000000000000000000000000000000060200000000000000000000000000000000000000000000000000000000000000000000000080DD26
:393B3A0004000000000000000000000000000000002600000000000000000000000000000000000000000000000000000000000000000000000000908A0E
:393B73000C00000000000000000000000000000000200000000000000000000000000000000000000000000000000000000000000000000000000030AE0F
:393BAC000000000000000000000000000000000080070200000000000000000000000000000000000000000000000000000000000000000000000000DC7B
:393BE5000800000000000000000000000000000000000000000000000000000000000000000000000000000000000000000000000000000000000020DBA4
:393C1E000000000000000000000000000000000000060800000000000000000000000000000000000000000000000000000000000000000000000000FF60
:393C57000000000000000000000000000000000080000000000000000000000000000000000000000000000000000000000000000000000000000000F9BB
:393C90000000000000000000000000000000000000000000000000000000000000000000000000000000000000000000000000000000000000000080F982
:393CC9000000000000000000000000000000000000060400000000000000000000000000000000000000000000000000000000000000000000000080BB7D
:393D02000800000000000000000000000000000000160000000000000000000000000000000000000000000000000000000000000000000000000020CD7D
:393D3B000000000000000000000000000000000000200000000000000000000000000000000000000000000000000000000000000000000000000080D9D6
:393D74000000000000000000000000000000000080070200000000000000000000000000000000000000000000000000000000000000000000000000DCB1
:393DAD000400000000000000000000000000000000000400000000000000000000000000000000000000000000000000000000000000000000000090E85D
:393DE6000000000000000000000000000000000000460000000000000000000000000000000000000000000000000000000000000000000000000080BF1F
:393E1F001000000000000000000000000000000080060000000000000000000000000000000000000000000000000000000000000000000000000000FED6
:393E58000000000000000000000000000000000000000000000000000000000000000000000000000000000000000000000000000000000000000080F9B8
:393E91000000000000000000000000000000000000000000000000000000000000000000000000000000000000000000000000000000000000000080F97F
:393ECA000C00000000000000000000000000000000400800000000000000000000000000000000000000000000000000000000000000000000000090ECEF
:393F030004000000000000000000000000000000001000000000000000000000000000000000000000000000000000000000000000000000000000B09E23
:393F3C000000000000000000000000000000000080070100000000000000000000000000000000000000000000000000000000000000000000000000EFD5
:393F75000C00000000000000000000000000000000060200000000000000000000000000000000000000000000000000000000000000000000000020BB24
:393FAE000000000000000000000000000000000000460000000000000000000000000000000000000000000000000000000000000000000000000080BF55
:393FE7001000000000000000000000000000000080060000000000000000000000000000000000000000000000000000000000000000000000000000FE0D
:394020000000000000000000000000000000000000000000000000000000000000000000000000000000000000000000000000000000000000000080F9EE
:394059000000000000000000000000000000000000000000000000000000000000000000000000000000000000000000000000000000000000000080F9B5
:394092000C00000000000000000000000000000000000200000000000000000000000000000000000000000000000000000000000000000000000020BD0A
:3940CB0004000000000000000000000000000000002001000000000000000000000000000000000000000000000000000000000000000000000000808C8B
:394104000000000000000000000000000000000080070000000000000000000000000000000000000000000000000000000000000000000000000000FEFD
:39413D000C00000000000000000000000000000000060200000000000000000000000000000000000000000000000000000000000000000000000010889D
:394176000000000000000000000000000000000000460000000000000000000000000000000000000000000000000000000000000000000000000080BF8B
:3941AF000000000000000000000000000000000000000000000000000000000000000000000000000000000000000000000000000000000000000080F95E
:3941E8002000048000100002400008000120000480001000000000000000000000000000000000800010000240000800012000048000100002400080F9A1
:394221000000000000000000000000000000000000000000000000000000000000000000000000000000000000000000000000000000000000000080F9EB
:39425A002400048000100002400008000120000480001000000000000000000000000000000000800010000240000800012000048000100002400090AC67
:394293000C000000000000000000000000000000000000000000000000000000000000000000000000000000000000000000000000000000000000308E28
:3942CC002000048000100002400008000120000480001000000000000000000000000000000000800010000240000800012000048000100002400080F9BC
:394305000800000000000000000000000000000000000000000000000000000000000000000000000000000000000000000000000000000000000020DB7C
:39433E002000048000100002400008000120000480001000000000000000000000000000000000800010000240000800012000048000100002400080F949
:394377000000000000000000000000000000000000000000000000000000000000000000000000000000000000000000000000000000000000000080F994
:3943B0000000000000000000000000000000000000000000000000000000000000000000000000000000000000000000000000000000000000000080F95B
:3943E9000000000000000000000000000000000000080000000000000000000000000000000000000000000000000000000000000000000000000080F122
:394422000000000000000000000000000000000000000000000000000000000000000000000000000000000000000000000000000000000000000080F9E8
:39445B000800000000000000000000000000000000000000000000000000000000000000000000000000000000000000000000000000000000000000F927
:394494000000000000000000000000000000000000000000000000000000000000000000000000000000000000000000000000000000000000000080F976
:3944CD000000000000000000000000000000000000000100000000000000000000000000000000000000000000000000000000000000000000000080E84D
:394506001000000000000000000000000000000000000000000000000000000000000000000000000000000000000000000000000000000000000080F8F4
:39453F000000000000000000000000000000000000000200000000000000000000000000000000000000000000000000000000000000000000000080DBE6
:394578000000000000000008000100000000000000000100000000000000000000000000000000000000000000000000000000000000000000000000F10F
:3945B1000000000000000010000200000000000000000100000000000000000000000000000000000000000000000000000000000000000000000008D3E3
:3945EA001800000000000000000000000000000000000000000000000000000000000000000000000000000000000000000000000000000000000000F888
:394623000000000000000000000000000000000000010000000000000000000000000000000000000000000000000000000000000000000000000080F8E5
:39465C000000000000000000000000000000000000000000000000000000000000000000000000000000000000000000000000000000000000000080F9AC
:394695000000000000000000000000000000000000000800000000000000000000000000000000000000000000000000000000000000000000000000F9EB
:3946CE000000000000000000000000000000000000000000000000000000000000000000000000000000000000000000000000000000000000000080F93A
:394707000000000000000000000000000000000000000000000000000000000000000000000000000000000000000000000000000000000000000080F900
:394740000000000000000000000000000000000000000000000000000000000000000000000000000000000000000000000000000000000000000080F9C7
:394779000000000000000000000000000000000000040000000000000000000000000000000000000000000000000000000000000000000000000080FD86
:3947B2000000000000000000000000000000000000060000000000000000000000000000000000000000000000000000000000000000000000000080FF49
:3947EB000000000000000000000000000000000000800000000000000000000000000000000000000000000000000000000000000000000000000000F124
:394824000000000000000000000000000000000000810C00000000000000000000000000000000000000000000000000000000000000000000000080B49A
:39485D000000000000000000000000000000000000004000000000000000000000000000000000000000000000000000000000000000000000000080FD65
:394896000000000000000000000000000000000000000000000000000000000000000000000000000000000000000000000000000000000000000080F970
:3948CF0002000000000000000000000000000000000020000000000000000000000000000000000000000000000000000000000000000000000000A0FBF3
:394908000C0000000000000000000000000000000000002A000000000000000000000000000000000000000000000000000000000000000000000080B709
:394941000000000000000000000000000000000000000020000000000000000000000000000000000000000000000000000000000000000000000080DBC2
:39497A000000000000000000000000000000000000000000000000000000000000000000000000000000000000000000000000000000000000000080F98B
:3949B3000000000000000000000000000000000000000400000000000000000000000000000000000000000000000000000000000000000000000080BD8A
:3949EC000000000000000000000000000000000000000000000000000000000000000000000000000000000000000000000000000000000000000080F919
:394A25000000000000000000000000000000000000000000000000000000000000000000000000000000000000000000000000000000000000000080F9DF
:394A5E000000000000000000000000000000000000000000000000000000000000000000000000000000000000000000000000000000000000000080F9A6
:394A97000200000000000000000000000000000000000000000000000000000000000000000000000000000000000000000000000000000000000028F1CB
:394AD0000000000000000000000000000000000000000000000000000000000000000000000000000000000000000000000000000000000000000080F934
:394B09000000000000000000000000000000000080000000000000000000000000000000000000000000000000000000000000000000000000000000F9FA
:394B42000C00000000000000000000000000000000000000000000000000000000000000000000000000000000000000000000000000000000000000BD71
:394B7B000000000000000000000000000000000000000000000000000000000000000000000000000000000000000000000000000000000000000080F988
:394BB4000000000000000000000000000000000000000000000000000000000000000000000000000000000000000000000000000000000000000080F94F
:394BED000000000000000000000000000000000000100000000000000000000000000000000000000000000000000000000000000000000000000080E916
:394C26000000000000000000000000000000000000000000000000000000000000000000000000000000000000000000000000000000000000000080F9DC
:394C5F000000000000000000000000000000000000000000000000000000000000000000000000000000000000000000000000000000000000000080F9A3
:394C98000000000000000000000000000000000000000000000000000000000000000000000000000000000000000000000000000000000000000080F96A
:394CD1000000000000000000000000000000000000000000000000000000000000000000000000000000000000000000000000000000000000000080F931
:394D0A000000000000000000000000000000000000000000000000000000000000000000000000000000000000000000000000000000000000000080F9F7
:394D430000124002480009200124800490001240024800090000000000000000000000000000000048000920012480049000124002540009A0022A00C5A8
:394D7C00000C8001300006C00018000360000C800130000600000000000000000000000000000000300006C00018000360000C808126000640561380E585
:024DB500FFFFFE
:00000001FF
