:020000040000FA
:39000000FFFF62FF3600FFFFFFFFFFFFFFFFFFFFFFFFFFFFFFFFFFFFFFFFFFFFFFFFFFFFFFFFFFFFFFFFFFFFFFFFFFFFFFFFFFFFFFFFFFFFFFFFFFFFFF65
:39003900000C8001300006C00018000360000C8001300006000000000000000000000000000000003000B2C000C8020360000C8001300006C0001880BF24
:39007200001240024800092001248004900012400248000900000000000000000000000000000000480015200154800490001240024800092001248095CD
:3900AB000000000000000000000000000000000000000000000000000000000000000000000000000000000000000000000000000000000000000080F9A3
:3900E4000000000000000000000000000000000000000000000000000000000000000000000000000000000000000000000000000000000000000080F96A
:39011D000000000000000000000000000000000000000000000000000000000000000000000000000000000000000000000000000000000000000080F930
:390156000000000000000000000000000000000000000000000000000000000000000100000000000000000000000000000000000000000000000080E807
:39018F000000000000000000000000000000000000000000000000000000000000000000000000000000000000002880000000000000000000000080FB14
:3901C8000000000000000000000000000000000000000000000000000000000000000000000000000000000000004000000000000000000000000080FD41
:390201000000000000000000000000000000000000000000000000000000000000000000000000000000000000006010000000000000000000000080EEE6
:39023A000000000000000000000000000000000000000000000000000000000000000000000000000000000000000004000000000000000000000080B94E
:390273000000000000000000000000000000000000000000000000000000000000000000000000000000000000000002000000000000000000000080D9F7
:3902AC000000000000000000000000000000000000000000000000000000000000000000000000000000000000007820000000000000000000000000DCA5
:3902E5000000000000000000000000000000000000000000000000000000000000000000000000000000000000000020000000000000000000000080DB65
:39031E000000000000000000000000000000000000000000000000000000000000000000000000000000000000006004000000000000000000000080BF03
:3903570000000000000000000000000000000000000000000000000000000000000000000000000000000000000028240000000000000000000000009988
:390390000000000000000000000000000000000000000000000000000000000000000000000000000000000000004000000000000000000000000080FD77
:3903C9000000000000000000000000000000000000000000000000000000000000000000000000000000000000006000000000000000000000000080FF1C
:390402000800000000000000000000000000000000000000000000000000000000000000000000000000000000000011000000000000000000000020DAAE
:39043B000000000000000000000000000000000000000000000000000000000000000000000000000000000000000002000000000000000000000080D92D
:390474000000000000000000000000000000000000000000000000000000000000000000000000000000000000007820000000000000000000000000DCDB
:3904AD0004000000000000000000000000000000000000000000000000000000000000000000000000000000000000200000000000000000000000908ED4
:3904E6000000000000000000000000000000000000000000000000000000000000000000000000000000000000006004000000000000000000000080BF3A
:39051F00000000000000000000000000000000000000000000000000000000000000000000000000000000000000680C0000000000000000000000C0F37C
:390558000000000000000000000000000000000000000000000000000000000000000000000000000000000000000000000000000000000000000080F9F1
:390591000000000000000000000000000000000000000000000000000000000000000000000000000000000000006000000000000000000000000080FF52
:3905CA0004000000000000000000000000000000000000000000000000000000000000000000000000000000000000140000000000000000000000B0DF51
:390603000C000000000000000000000000000000000000000000000000000000000000000000000000000000000020020000000000000000000000108EF2
:39063C000000000000000000000000000000000000000000000000000000000000000000000000000000000000007820000000000000000000000000DC11
:390675000800000000000000000000000000000000000000000000000000000000000000000000000000000000000020000000000000000000000030E80C
:3906AE000000000000000000000000000000000000000000000000000000000000000000000000000000000000006004000000000000000000000080BF70
:3906E7000000000000000000000000000000000000000000000000000000000000000000000000000000000000000802000000000000000000000000D9F7
:390720000000000000000000000000000000000000000000000000000000000000000000000000000000000000000020000000000000000000000080DB25
:390759000000000000000000000000000000000000000000000000000000000000000000000000000000000000004020000000000000000000000080DFA8
:3907920008000000000000000000000000000000000000000000000000000000000000000000000000000000000000040000000000000000000000209B67
:3907CB000000000000000000000000000000000000000000000000000000000000000000000000000000000000004040000000000000000000000080B93C
:390804000000000000000000000000000000000000000000000000000000000000000000000000000000000000005800000000000000000000000000FC67
:39083D0004000000000000000000000000000000000000000000000000000000000000000000000000000000000040200000000000000000000000908A04
:390876000000000000000000000000000000000000000000000000000000000000000000000000000000000000006002000000000000000000000080DF88
:3908AF000000000000000000000000000000000000000000000000000000000000000000000000000000000000006801000000000000000000000040ABBC
:3908E8000000000000000000000000000000000000000000000000000000000000000000000000000000000000000020000000000000000000000080DB5C
:390921000000000000000000000000000000000000000000000000000000000000000000000000000000000000006010000000000000000000000080EEBF
:39095A0004000000000000000000000000000000000000000000000000000000000000000000000000000000000000010000000000000000000000B09E11
:390993000C000000000000000000000000000000000000000000000000000000000000000000000000000000000020020000000000000000000000108E5F
:3909CC000000000000000000000000000000000000000000000000000000000000000000000000000000000000007820000000000000000000000000DC7E
:390A05000800000000000000000000000000000000000000000000000000000000000000000000000000000000000020000000000000000000000030E878
:390A3E000000000000000000000000000000000000000000000000000000000000000000000000000000000000006004000000000000000000000080BFDC
:390A77000000000000000000000000000000000000000000000000000000000000000000000000000000000000000802000000000000000000000000D963
:390AB0000000000000000000000000000000000000000000000000000000000000000000000000000000000000000020000000000000000000000080DB92
:390AE9000000000000000000000000000000000000000000000000000000000000000000000000000000000000004020000000000000000000000080DF15
:390B220004000000000000000000000000000000000000000000000000000000000000000000000000000000000000040000000000000000000000A0DF13
:390B5B000C00000000000000000000000000000000000000000000000000000000000000000000000000000000004008000000000000000000000080B1DC
:390B94000000000000000000000000000000000000000000000000000000000000000000000000000000000000005800000000000000000000000000FCD4
:390BCD000800000000000000000000000000000000000000000000000000000000000000000000000000000000004000000000000000000000000010ECAB
:390C06000000000000000000000000000000000000000000000000000000000000000000000000000000000000006044000000000000000000000080FB96
:390C3F000000000000000000000000000000000000000000000000000000000000000000000000000000000000000802000000000000000000000000D999
:390C78000000000000000000000000000000000000000000000000000000000000000000000000000000000000000020000000000000000000000080DBC8
:390CB1000000000000000000000000000000000000000000000000000000000000000000000000000000000000004020000000000000000000000080DF4B
:390CEA000800000000000000000000000000000000000000000000000000000000000000000000000000000000000004000000000000000000000010A80D
:390D230000000000000000000000000000000000000000000000000000000000000000000000000000000000000040410000000000000000000000B09ACC
:390D5C000000000000000000000000000000000000000000000000000000000000000000000000000000000000005800000000000000000000000000FC0A
:390D950004000000000000000000000000000000000000000000000000000000000000000000000000000000000040000000000000000000000000A09BA6
:390DCE000000000000000000000000000000000000000000000000000000000000000000000000000000000000006081000000000000000000000000EF1C
:390E07000000000000000000000000000000000000000000000000000000000000000000000000000000000000006882000000000000000000000080DF69
:390E40000000000000000000000000000000000000000000000000000000000000000000000000000000000000000000000000000000000000000080F900
:390E79000000000000000000000000000000000000000000000000000000000000000000000000000000000000006010000000000000000000000080EE62
:390EB20004000000000000000000000000000000000000000000000000000000000000000000000000000000000000000000000000000000000000A09FC4
:390EEB000C000000000000000000000000000000000000000000000000000000000000000000000000000000000020020000000000000000000000009F01
:390F24000000000000000000000000000000000000000000000000000000000000000000000000000000000000007820000000000000000000000000DC20
:390F5D000800000000000000000000000000000000000000000000000000000000000000000000000000000000000020000000000000000000000010CA59
:390F96000000000000000000000000000000000000000000000000000000000000000000000000000000000000006004000000000000000000000080BF7F
:390FCF000000000000000000000000000000000000000000000000000000000000000000000000000000000000000000000000000000000000000080F970
:391008002000048000100002400008000120000480001000000000000000000000000000000000800010000240000800012000048000100002400080F9B2
:391041000000000000000000000000000000000000000000000000000000000000000000000000000000000000000000000000000000000000000080F9FD
:39107A002400048000100002400008000120000480001000000000000000000000000000000000800010000240000800012000048000100002400090AC79
:3910B3000C000000000000000000000000000000000000000000000000000000000000000000000000000000000000000000000000000000000000308E3A
:3910EC002000048000100002400008000120000480001000000000000000000000000000000000800010000240000800012000048000100002400080F9CE
:391125000800000000000000000000000000000000000000000000000000000000000000000000000000000000000000000000000000000000000020DB8E
:39115E002000048000100002400008000120000480001000000000000000000000000000000000800010000240000800012000048000100002400080F95B
:391197000000000000000000000000000000000000000000000000000000000000000000000000000000000000000000000000000000000000000080F9A6
:3911D0000000000000000000000000000000000000000000000000000000000000000000000000000000000000000000000000000000000000000080F96D
:391209000000000000000000000000000000000000000000000000000000000000000000000000000000000000000000000000000000000000000080F933
:391242000000000000000000000000000000000000000000000000000000000000000000000000000000000000000000000000000000000000000080F9FA
:39127B000000000000000000000000000000000000000000000000000000000000000000000000000000000000000000000000000000000000000080F9C1
:3912B4000000000000000000000000000000000000000000000000000000000000000000000000000000000000000000000000000000000000000080F988
:3912ED000000000000000000000000000000000000000000000000000000000000000000000000000000000000000000000000000000000000000008F1CF
:391326000000000000000000000000000000000000000000000000000000000000000000000000000000000000000000000000000000000000000080F915
:39135F000000000000000000000000000000000000000000000000000000000000000000000000000000000000000000000000000000000000000080F9DC
:391398000000000000000000000000000000000000000000000000000000000000000000000000000000000000000008140000000000000000000000E51B
:3913D1000000000000000000000000000000000000000000000000000000000000000000000000000000000000000000040000000000000000000080FD62
:39140A000000000000000000000000000000000000000000000000000000000000000000000000000000000000000010000000000000000000000080E831
:391443000000000000000000000000000000000000000000000000000000000000000000000000000000000000000000000000000000000000000080F9F7
:39147C000000000000000000000000000000000000000000000000000000000000000000000000000000000000000000000000000000000000000080F9BE
:3914B5000000000000000000000000000000000000000000000000000000000000000000000000000000000000000000000000000000000000000080F985
:3914EE000000000000000000000000000000000000000000000000000000000000000000000000000000000000000000000000000000000000000080F94C
:391527000000000000000000000000000000000000000000000000000000000000000000000000000000000000000000000000000000000000000080F912
:391560000000000000000000000000000000000000000000000000000000000000000000000000000000000000000000000000000000000000000080F9D9
:391599000000000000000000000000000000000000000000000000000000000000000000000000000000000000004000000000000000000000000080FD5C
:3915D2000000000000000000000000000000000000000000000000000000000000000000000000000000000000002080000000000000000000000000FB45
:39160B0000000000000000000000000000000000000000000000000000000000000000000000000000000000000000880000000000000000000000A0D3AB
:391644000000000000000000000000000000000000000000000000000000000000000000000000000000000000005000000000000000000000000080FCA1
:39167D000000000000000000000000000000000000000000000000000000000000000000000000000000000000000000000000000000000000000080F9BB
:3916B6000000000000000000000000000000000000000000000000000000000000000000000000000000000000000000000000000000000000000080F982
:3916EF000A00000000000000000000000000000000000000000000000000000000000000000000000000000000000000000000000000000000000000DBDD
:391728000000000000000000000000000000000000000000000000000000000000000000000000000000000000401000000000000000000000000080B800
:391761000000000000000000000000000000000000000000000000000000000000000000000000000000000000000000000000000000000000000080F9D6
:39179A000000000000000000000000000000000000000000000000000000000000000000000000000000000000400000000000000000000000000080B99D
:3917D3000000000000000000000000000000000000000000000000000000000000000000000000000000000000001040000000000000000000000080BC51
:39180C000000000000000000000000000000000000000000000000000000000000000000000000000000000000000800000000000000000000000000F9A2
:391845000000000000000000000000000000000000000000000000000000000000000000000000000000000000000000000000000000000000000080F9F1
:39187E000000000000000000000000000000000000000000000000000000000000000000000000000000000000000000000000000000000000000080F9B8
:3918B7001600000000000000000000000000000000000000000000000000000000000000000000000000000000000000000000000000000000000028B406
:3918F0000000000000000000000000000000000000000000000000000000000000000000000000000000000000000000000000000000000000000080F946
:391929000000000000000000000000000000000000000000000000000000000000000000000000000000000000000800000000000000000000000000F984
:391962000000000000000000000000000000000000000000000000000000000000000000000000000000000000000000000000000000000000000080F9D3
:39199B000000000000000000000000000000000000000000000000000000000000000000000000000000000000000000000000000000000000000080F99A
:3919D4000000000000000000000000000000000000000000000000000000000000000000000000000000000000000000000000000000000000000080F961
:391A0D000000000000000000000000000000000000000000000000000000000000000000000000000000000000000011000000000000000000000080F817
:391A46000000000000000000000000000000000000000000000000000000000000000000000000000000000000000000000000000000000000000080F9EE
:391A7F000000000000000000000000000000000000000000000000000000000000000000000000000000000000000000450000000000000000000080BCAD
:391AB8000000000000000000000000000000000000000000000000000000000000000000000000000000000000000000080800000000000000000000F1F4
:391AF10000000000000000000000000000000000000000000000000000000000000000000000000000000000000000000C0200000000000000000080D757
:391B2A000000000000000000000000000000000000000000000000000000000000000000000000000000000000000000800000000000000000000000F111
:391B63000000000000000000000000000000000000000000000000000000000000000000000000000000000000000000400000000000000000000080B9D0
:391B9C0000000000000000000000000000000000000000000000000000000000000000000000000000000000000000000F0400000000000000000080B2CB
:391BD5000000000000000000000000000000000000000000000000000000000000000000000000000000000000000000000400000000000000000080BD96
:391C0E0000000000000000000000000000000000000000000000000000000000000000000000000000000000000000008C0000000000000000000000FD14
:391C470000000000000000000000000000000000000000000000000000000000000000000000000000000000000000008D0000000000000000000040B8DF
:391C80000000000000000000000000000000000000000000000000000000000000000000000000000000000000000000000400000000000000000080BDEA
:391CB90000000000000000000000000000000000000000000000000000000000000000000000000000000000000000000C0000000000000000000080F571
:391CF20008000000000000000000000000000000000000000000000000000000000000000000000000000000000000008002000000000000000000B0E09F
:391D2B000000000000000000000000000000000000000000000000000000000000000000000000000000000000000000440000000000000000000090ACFF
:391D640000000000000000000000000000000000000000000000000000000000000000000000000000000000000000000F0400000000000000000080B201
:391D9D0004000000000000000000000000000000000000000000000000000000000000000000000000000000000000000004000000000000000000B0CA8B
:391DD60000000000000000000000000000000000000000000000000000000000000000000000000000000000000000008C0000000000000000000000FD4B
:391E0F000000000000000000000000000000000000000000000000000000000000000000000000000000000000000000410000000000000000000080B821
:391E48000000000000000000000000000000000000000000000000000000000000000000000000000000000000000000000400000000000000000080BD20
:391E81000000000000000000000000000000000000000000000000000000000000000000000000000000000000000000080400000000000000000080B5E7
:391EBA00040000000000000000000000000000000000000000000000000000000000000000000000000000000000000080000000000000000000002097B4
:391EF3000C00000000000000000000000000000000000000000000000000000000000000000000000000000000000000280400000000000000000000D1AD
:391F2C0000000000000000000000000000000000000000000000000000000000000000000000000000000000000000000B0000000000000000000080F2FF
:391F65000800000000000000000000000000000000000000000000000000000000000000000000000000000000000000080000000000000000000010E043
:391F9E0000000000000000000000000000000000000000000000000000000000000000000000000000000000000000002C1000000000000000000080D47A
:391FD7000000000000000000000000000000000000000000000000000000000000000000000000000000000000000000410000000000000000000080B858
:392010000000000000000000000000000000000000000000000000000000000000000000000000000000000000000000000400000000000000000080BD56
:392049000000000000000000000000000000000000000000000000000000000000000000000000000000000000000000080400000000000000000080B51D
:392082000800000000000000000000000000000000000000000000000000000000000000000000000000000000000000800000000000000000000090E02D
:3920BB000000000000000000000000000000000000000000000000000000000000000000000000000000000000000000080800000000000000000030C2EA
:3920F40000000000000000000000000000000000000000000000000000000000000000000000000000000000000000000B0000000000000000000080F236
:39212D0004000000000000000000000000000000000000000000000000000000000000000000000000000000000000000804000000000000000000A0D3F6
:3921660000000000000000000000000000000000000000000000000000000000000000000000000000000000000000004C0000000000000000000080B5BF
:39219F0000000000000000000000000000000000000000000000000000000000000000000000000000000000000000000D1000000000000000000080F575
:3921D8000000000000000000000000000000000000000000000000000000000000000000000000000000000000000000000000000000000000000080F955
:3922110000000000000000000000000000000000000000000000000000000000000000000000000000000000000000000C0200000000000000000080D72F
:39224A0004000000000000000000000000000000000000000000000000000000000000000000000000000000000000002000000000000000000000A0BFD8
:392283000C00000000000000000000000000000000000000000000000000000000000000000000000000000000000000440000000000000000000000F9D9
:3922BC0000000000000000000000000000000000000000000000000000000000000000000000000000000000000000000F0400000000000000000080B2A4
:3922F5000800000000000000000000000000000000000000000000000000000000000000000000000000000000000000000400000000000000000010ACE8
:39232E0000000000000000000000000000000000000000000000000000000000000000000000000000000000000000008C0000000000000000000000FDED
:392367000000000000000000000000000000000000000000000000000000000000000000000000000000000000000000410000000000000000000080B8C4
:3923A0000000000000000000000000000000000000000000000000000000000000000000000000000000000000000000000400000000000000000080BDC3
:3923D9000000000000000000000000000000000000000000000000000000000000000000000000000000000000000000080400000000000000000080B58A
:392412000800000000000000000000000000000000000000000000000000000000000000000000000000000000000000800000000000000000000090E099
:39244B0000000000000000000000000000000000000000000000000000000000000000000000000000000000000000008804000000000000000000308E0E
:3924840000000000000000000000000000000000000000000000000000000000000000000000000000000000000000000B0000000000000000000080F2A2
:3924BD0004000000000000000000000000000000000000000000000000000000000000000000000000000000000000000800000000000000000000A097A3
:3924F60000000000000000000000000000000000000000000000000000000000000000000000000000000000000000004C0800000000000000000000B5A4
:39252F000000000000000000000000000000000000000000000000000000000000000000000000000000000000000000250000000000000000000080DCF2
:392568000000000000000000000000000000000000000000000000000000000000000000000000000000000000000000080400000000000000000080B5F9
:3925A10000000000000000000000000000000000000000000000000000000000000000000000000000000000000000000C0000000000000000000080F580
:3925DA0004000000000000000000000000000000000000000000000000000000000000000000000000000000000000000002000000000000000000A0BD65
:392613000C00000000000000000000000000000000000000000000000000000000000000000000000000000000000000400000000000000000000000FD45
:39264C0000000000000000000000000000000000000000000000000000000000000000000000000000000000000000000F0400000000000000000080B210
:392685000800000000000000000000000000000000000000000000000000000000000000000000000000000000000000000400000000000000000010AC54
:3926BE0000000000000000000000000000000000000000000000000000000000000000000000000000000000000000008C0000000000000000000000FD5A
:3926F7000000000000000000000000000000000000000000000000000000000000000000000000000000000000000000851000000000000000000040B124
:392730000000000000000000000000000000000000000000000000000000000000000000000000000000000000000000080000000000000000000080F1F7
:3927690000000000000000000000000000000000000000000000000000000000000000000000000000000000000000000C0000000000000000000080F5B6
:3927A2000800000000000000000000000000000000000000000000000000000000000000000000000000000000000000000100000000000000000030DBEA
:3927DB000000000000000000000000000000000000000000000000000000000000000000000000000000000000000000400000000000000000000090A84D
:3928140000000000000000000000000000000000000000000000000000000000000000000000000000000000000000000F0400000000000000000080B246
:39284D0004000000000000000000000000000000000000000000000000000000000000000000000000000000000000000004000000000000000000B0CAD0
:3928860000000000000000000000000000000000000000000000000000000000000000000000000000000000000000008C0000000000000000000000FD90
:3928BF0000000000000000000000000000000000000000000000000000000000000000000000000000000000000000000000000000000000000000C0BD63
:3928F8002000048000100002400008000120000480001000000000000000000000000000000000800010000240000800012000048000100002400080F9AA
:392931000000000000000000000000000000000000000000000000000000000000000000000000000000000000000000000000000000000000000080F9F4
:39296A0024000480001000024000080001200004800010000000000000000000000000000000008000100002400008000120000480001000024000B08E6E
:3929A3000C00000000000000000000000000000000000000000000000000000000000000000000000000000000000000000000000000000000000010AC33
:3929DC002000048000100002400008000120000480001000000000000000000000000000000000800010000240000800012000048000100002400080F9C5
:392A15000800000000000000000000000000000000000000000000000000000000000000000000000000000000000000000000000000000000000030CA86
:392A4E002000048000100002400008000120000480001000000000000000000000000000000000800010000240000800012000048000100002400080F952
:392A87000000000000000000000000000000000000000000000000000000000000000000000000000000000000000000000000000000000000000080F99D
:392AC0000000000000000000000000000000000000000000000000000000000000000000000000000000000000000000000000000000000000000080F964
:392AF9000000000000000000000000000000000000000000000000000000000000000000000000000000000000000000000000000000000000000080F92B
:392B32000000000000000000000000000000000000000000000000000000000000000000000000000000000000000000000000000000000000000080F9F1
:392B6B000000000000000000000000000000000000000000000000000000000000000000000000000000000000000000000000000000000000000080F9B8
:392BA4000000000000000000000000000000000000000000000000000000000000000000000000000000000000000000000000000000000000000080F97F
:392BDD000000000000000000000000000000000000000000000000000000000000000000000000000000000000000010000000000000000000000080E847
:392C160000000000000000000000000000000000000000000000000000000000000000000000000000000000000000000000000000000000000000C0BD08
:392C4F000000000000000000000000000000000000000000000000000000000000000000000000000000000000000020040000000000000000000080DFC9
:392C88000000000000000000000000000000000000000000000000000000000000000000000000000000200000000002000000000000000000000080F978
:392CC1000000000000000000000000000000000000000000000000000000000000000000000000000000800000000000000000000000000000000000F169
:392CFA0000000000000000000000000000000000000000000000000000000000000000000000000000000000000000000000000000000000000000C0BD24
:392D33000000000000000000000000000000000000000000000000000000000000000000000000000000000000000000000000000000000000000080F9EE
:392D6C000000000000000000000000000000000000000000000000000000000000000000000000000000000000000000000000000000000000000080F9B5
:392DA5000000000000000000000000000000000000000000000000000000000000000000000000000000000000000000040000000000000000000080FD74
:392DDE000000000000000000000000000000000000000000000000000000000000000000000000000000000000000000000000000000000000000080F943
:392E17000000000000000000000000000000000000000000000000000000000000000000000000000000000000000000000000000000000000000080F909
:392E50000000000000000000000000000000000000000000000000000000000000000000000000000000000000000000000000000000000000000080F9D0
:392E89000000000000000000000000000000000000000000000000000000000000000000000000000000000000000000080000000000000000000080F197
:392EC2000000000000000000000000000000000000000000000000000000000000000000000000000000000000000000040000000000000000000080FD56
:392EFB000000000000000000000000000000000000000000000000000000000000000000000000000000000000000000100000000000000000000080E925
:392F340000000000000000000000000000000000000000000000000000000000000000000000000000000000000000000A0800000000000000000000F35F
:392F6D000000000000000000000000000000000000000000000000000000000000000000000000000000000000002000000000000000000000000008F310
:392FA6000000000000000000000000000000000000000000000000000000000000000000000000000000000000000000000000000000000000000080F979
:392FDF000A00000000000000000000000000000000000000000000000000000000000000000000000000000000001000000000000000000000000010CBC4
:39301800000000000000000000000000000000000000000000000000000000000000000000000000000000000000E011000000000002000000020080D436
:393051000000000000000000000000000000000000000000000000000000000000000000000000000000000000002008000000000001000000000000E33A
:39308A000000000000000000000000000000000000000000000000000000000000000000000000000000000000004000000000000000000000020080FF4C
:3930C3000000000000000000000000000000000000000000000000000000000000000000000000000000000000000000010200000000000000000080DA77
:3930FC000000000000000000000000000000000000000000000000000000000000000000000000000000000000000000000000000000000000000080F922
:393135000000000000000000000000000000000000000000000000000000000000000000000000000000000000000000000000000000000000000080F9E8
:39316E000000000000000000000000000000000000000000000000000000000000000000000000000000000000000000000400000000000000000080BDE7
:3931A7000A000000000000000000000000000000000000000000000000000000000000000000000000000000000000000000000000000000000000409F06
:3931E0000000000000000000000000000000000000000000000000000000000000000000000000000000000000000000000000000000000000000080F93D
:393219000000000000000000000000000000000000000000000000000000000000000000000000000000000000000000001000000000000000000090E9F3
:393252000000000000000000000000000000000000000000000000000000000000000000000000000000000000000000000000000000000000000080F9CA
:39328B000000000000000000000000000000000000000000000000000000000000000000000000000000000000000000000800000000000000000000F909
:3932C4000000000000000000000000000000000000000000000000000000000000000000000000000000000000000000000000000000000000000080F958
:3932FD000000000000000000000000000000000000000000000000000000000000000000000000000000000000000000220000000000000000000080DB1B
:393336000000000000000000000000000000000000000000000000000000000000000000000000000000000000000000000000000000000000000080F9E5
:39336F000000000000000000000000000000000000000000000000000000000000000000000000000000000000006821000000000000000000000000CDCF
:3933A8000000000000000000000000000000000000000000000000000000000000000000000000000000000000000000000000000000000000000080F973
:3933E1000000000000000000000000000000000000000000000000000000000000000000000000000000000000006000000000000000000000000080FFD4
:39341A000000000000000000000000000000000000000000000000000000000000000000000000000000000000000010000000000000000000000080E801
:393453000000000000000000000000000000000000000000000000000000000000000000000000000000000000002002000000000000000000000080DBC3
:39348C000000000000000000000000000000000000000000000000000000000000000000000000000000000000007820000000000000000000000000DC93
:3934C5000000000000000000000000000000000000000000000000000000000000000000000000000000000000000000000000000000000000000080F955
:3934FE000000000000000000000000000000000000000000000000000000000000000000000000000000000000006022000000000000000000000080FD96
:393537000000000000000000000000000000000000000000000000000000000000000000000000000000000000000802000000000000000000000000D978
:393570000000000000000000000000000000000000000000000000000000000000000000000000000000000000000020000000000000000000000080DBA7
:3935A9000000000000000000000000000000000000000000000000000000000000000000000000000000000000004000000000000000000000000080FD2C
:3935E20004000000000000000000000000000000000000000000000000000000000000000000000000000000000000220000000000000000000000A09D4D
:39361B000C00000000000000000000000000000000000000000000000000000000000000000000000000000000004001000000000000000000000000A980
:393654000000000000000000000000000000000000000000000000000000000000000000000000000000000000005840000000000000000000000000B8ED
:39368D000800000000000000000000000000000000000000000000000000000000000000000000000000000000004000000000000000000000000010ECC0
:3936C60000000000000000000000000000000000000000000000000000000000000000000000000000000000000060420000000000000000000000809B0E
:3936FF000000000000000000000000000000000000000000000000000000000000000000000000000000000000006804000000000000000000000000BF67
:393738000000000000000000000000000000000000000000000000000000000000000000000000000000000000000040000000000000000000000080BDDB
:393771000000000000000000000000000000000000000000000000000000000000000000000000000000000000006010000000000000000000000080EE41
:3937AA000400000000000000000000000000000000000000000000000000000000000000000000000000000000000004000000000000000000000090EC62
:3937E3000C00000000000000000000000000000000000000000000000000000000000000000000000000000000002002000000000000000000000030ACA3
:39381C000000000000000000000000000000000000000000000000000000000000000000000000000000000000007820000000000000000000000000DCFF
:393855000800000000000000000000000000000000000000000000000000000000000000000000000000000000000000000000000000000000000020DB37
:39388E000000000000000000000000000000000000000000000000000000000000000000000000000000000000006022000000000000000000000080FD02
:3938C7000000000000000000000000000000000000000000000000000000000000000000000000000000000000002840000000000000000000000000BFA1
:393900000000000000000000000000000000000000000000000000000000000000000000000000000000000000004000000000000000000000000080FDD1
:393939000000000000000000000000000000000000000000000000000000000000000000000000000000000000006000000000000000000000000080FF76
:393972000800000000000000000000000000000000000000000000000000000000000000000000000000000000000011000000000000000000000020DA09
:3939AB000000000000000000000000000000000000000000000000000000000000000000000000000000000000000002000000000000000000000080D988
:3939E4000000000000000000000000000000000000000000000000000000000000000000000000000000000000007820000000000000000000000000DC36
:393A1D000400000000000000000000000000000000000000000000000000000000000000000000000000000000000000000000000000000000000090AC30
:393A56000000000000000000000000000000000000000000000000000000000000000000000000000000000000006022000000000000000000000080FD38
:393A8F0000000000000000000000000000000000000000000000000000000000000000000000000000000000000008020000000000000000000000409D17
:393AC8000000000000000000000000000000000000000000000000000000000000000000000000000000000000000020000000000000000000000080DB4A
:393B01000000000000000000000000000000000000000000000000000000000000000000000000000000000000004000000000000000000000000080FDCE
:393B3A0004000000000000000000000000000000000000000000000000000000000000000000000000000000000000220000000000000000000000B08CF0
:393B73000C000000000000000000000000000000000000000000000000000000000000000000000000000000000040200000000000000000000000108A13
:393BAC000000000000000000000000000000000000000000000000000000000000000000000000000000000000005800000000000000000000000000FC8C
:393BE5000800000000000000000000000000000000000000000000000000000000000000000000000000000000004020000000000000000000000030EC23
:393C1E000000000000000000000000000000000000000000000000000000000000000000000000000000000000006004000000000000000000000080BFCA
:393C570000000000000000000000000000000000000000000000000000000000000000000000000000000000000068240000000000000000000000009D0B
:393C90000000000000000000000000000000000000000000000000000000000000000000000000000000000000000000000000000000000000000080F982
:393CC9000000000000000000000000000000000000000000000000000000000000000000000000000000000000006000000000000000000000000080FFE3
:393D0200080000000000000000000000000000000000000000000000000000000000000000000000000000000000000A0000000000000000000000A0F3E3
:393D3B000000000000000000000000000000000000000000000000000000000000000000000000000000000000002002000000000000000000000080DBD2
:393D74000000000000000000000000000000000000000000000000000000000000000000000000000000000000007820000000000000000000000000DCA2
:393DAD000400000000000000000000000000000000000000000000000000000000000000000000000000000000000000000000000000000000000090AC9D
:393DE6000000000000000000000000000000000000000000000000000000000000000000000000000000000000006022000000000000000000000080FDA5
:393E1F0000000000000000000000000000000000000000000000000000000000000000000000000000000000000028020000000000000000000000409F61
:393E58000000000000000000000000000000000000000000000000000000000000000000000000000000000000004040000000000000000000000080B978
:393E91000000000000000000000000000000000000000000000000000000000000000000000000000000000000006000000000000000000000000080FF19
:393ECA0004000000000000000000000000000000000000000000000000000000000000000000000000000000000000120000000000000000000000B0BF3A
:393F03000C000000000000000000000000000000000000000000000000000000000000000000000000000000000000020000000000000000000000108CDB
:393F3C000000000000000000000000000000000000000000000000000000000000000000000000000000000000007820000000000000000000000000DCD8
:393F75000800000000000000000000000000000000000000000000000000000000000000000000000000000000000000000000000000000000000030CA11
:393FAE000000000000000000000000000000000000000000000000000000000000000000000000000000000000006022000000000000000000000080FDDB
:393FE7000000000000000000000000000000000000000000000000000000000000000000000000000000000000002882000000000000000000000080DB9C
:394020000000000000000000000000000000000000000000000000000000000000000000000000000000000000004000000000000000000000000080FDAA
:394059000000000000000000000000000000000000000000000000000000000000000000000000000000000000006010000000000000000000000080EE50
:3940920004000000000000000000000000000000000000000000000000000000000000000000000000000000000000010000000000000000000000A08FC1
:3940CB000C000000000000000000000000000000000000000000000000000000000000000000000000000000000000020000000000000000000000009D11
:394104000000000000000000000000000000000000000000000000000000000000000000000000000000000000007820000000000000000000000000DC0E
:39413D000800000000000000000000000000000000000000000000000000000000000000000000000000000000000000000000000000000000000010E849
:394176000000000000000000000000000000000000000000000000000000000000000000000000000000000000006022000000000000000000000080FD11
:3941AF0000000000000000000000000000000000000000000000000000000000000000000000000000000000000000000000000000000000000000C0BD5A
:3941E8002000048000100002400008000120000480001000000000000000000000000000000000800010000240000800012000048000100002400080F9A1
:394221000000000000000000000000000000000000000000000000000000000000000000000000000000000000000000000000000000000000000080F9EB
:39425A0024000480001000024000080001200004800010000000000000000000000000000000008000100002400008000120000480001000024000B08E65
:394293000C00000000000000000000000000000000000000000000000000000000000000000000000000000000000000000000000000000000000010AC2A
:3942CC002000048000100002400008000120000480001000000000000000000000000000000000800010000240000800012000048000100002400080F9BC
:394305000800000000000000000000000000000000000000000000000000000000000000000000000000000000000000000000000000000000000030CA7D
:39433E002000048000100002400008000120000480001000000000000000000000000000000000800010000240000800012000048000100002400080F949
:394377000000000000000000000000000000000000000000000000000000000000000000000000000000000000000000000000000000000000000080F994
:3943B0000000000000000000000000000000000000000000000000000000000000000000000000000000000000000000000000000000000000000080F95B
:3943E9000000000000000000000000000000000000000000000000000000000000000000000000000000000000000000000000000000000000000080F922
:394422000000000000000000000000000000000000000000000000000000000000000000000000000000000000000010000000000000000000000080E8E9
:39445B000000000000000000000000000000000000000000000000000000000000000000000000000000000000000000000000000000000000000080F9AF
:394494000000000000000000000000000000000000000000000000000000000000000000000000000000000000000000000000000000000000000080F976
:3944CD000000000000000000000000000000000000000000000000000000000000000000000000000000000000000000010000000000000000000080F83D
:394506000000000000000000000000000000000000000000000000000000000000000000000000000000000000000000000000000000000000000080F903
:39453F000000000000000000000000000000000000000000000000000000000000000000000000000000000000000000020000000000000000000080FBC6
:394578000000000000000000000000000000000000000000000000000000000000000000000000000000000000802000000000000000000000000088FBE7
:3945B1000000000000000000000000000000000000000000000000000000000000000000000000000000000000002200000000000000000000000080D956
:3945EA000000000000000000000000000000000000000000000000000000000000000000000000000000000000000000000000000000000000000080F91F
:394623000000000000000000000000000000000000000000000000000000000000000000000000000000000000000000000000000000000000000080F9E5
:39465C000000000000000000000000000000000000000000000000000000000000000000000000000000000000000000000000000000000000000080F9AC
:394695000000000000000000000000000000000000000000000000000000000000000000000000000000000000000000000000000000000000000080F973
:3946CE000000000000000000000000000000000000000000000000000000000000000000000000000000000000000800000000000000000000000000F9B2
:394707000000000000000000000000000000000000000000000000000000000000000000000000000000000000000000000000000000000000000080F900
:394740000000000000000000000000000000000000000000000000000000000000000000000000000000000000000000000000000000000000000080F9C7
:394779000000000000000000000000000000000000000000000000000000000000000000000000000000000000004000000000000000000000000080FD4A
:3947B2000000000000000000000000000000000000000000000000000000000000000000000000000000000000008000000000000000000000000080F1DD
:3947EB000000000000000000000000000000000000000000000000000000000000000000000000000000000000002000000000000000000000000080FBFA
:394824000000000000000000000000000000000000000000000000000000000000000000000000000000000000003080000000000000000000000000FAB1
:39485D000000000000000000000000000000000000000000000000000000000000000000000000000000000000000000000000000000000000000008F129
:394896000000000000000000000000000000000000000000000000000000000000000000000000000000000000000000000000000000000000000080F970
:3948CF001A00000000000000000000000000000000000000000000000000000000000000000000000000000000000000000000000000000000000020F87E
:394908000000000000000000000000000000000000000000000000000000000000000000000000000000000000002000800200000000400000004020B77D
:394941000000000000000000000000000000000000000000000000000000000000000000000000000000000000002000000200000000200000000080F982
:39497A000000000000000000000000000000000000000000000000000000000000000000000000000000000000000000000000000000000000004080FD47
:3949B3000000000000000000000000000000000000000000000000000000000000000000000000000000000000001000000000000000000000000080F843
:3949EC000000000000000000000000000000000000000000000000000000000000000000000000000000000000000000000000000000000000000080F919
:394A25000000000000000000000000000000000000000000000000000000000000000000000000000000000000000010000000000000000000000080E8E0
:394A5E000000000000000000000000000000000000000000000000000000000000000000000000000000000000000000000000000000000000000080F9A6
:394A97000E000000000000000000000000000000000000000000000000000000000000000000000000000000000000000000000000000000000000009F39
:394AD0000000000000000000000000000000000000000000000000000000000000000000000000000000000000000000000000000000000000000080F934
:394B09000000000000000000000000000000000000000000000000000000000000000000000000000000000000000000000000000000000000000080F9FA
:394B420000000000000000000000000000000000000000000000000000000000000000000000000000000000000000200000000000000000000000A0F981
:394B7B000000000000000000000000000000000000000000000000000000000000000000000000000000000000000000000000000000000000000080F988
:394BB4000000000000000000000000000000000000000000000000000000000000000000000000000000000000000000000000000000000000000080F94F
:394BED000000000000000000000000000000000000000000000000000000000000000000000000000000000000000021000000000000000000000080CB23
:394C26000000000000000000000000000000000000000000000000000000000000000000000000000000000000000000000000000000000000000080F9DC
:394C5F000000000000000000000000000000000000000000000000000000000000000000000000000000000000000000000000000000000000000080F9A3
:394C98000000000000000000000000000000000000000000000000000000000000000000000000000000000000000000000000000000000000000080F96A
:394CD1000000000000000000000000000000000000000000000000000000000000000000000000000000000000000000000000000000000000000080F931
:394D0A000000000000000000000000000000000000000000000000000000000000000000000000000000000000000000000000000000000000000080F9F7
:394D4300001240024800092001248004900012400248000900000000000000000000000000000000480009200154800A900012400254800AA00254808785
:394D7C00000C8001300006C00018000360000C800130000600000000000000000000000000000000300006C000C8025960000C808126D0044016C882C657
:024DB500FFFFFE
:00000001FF
