:020000040000FA
:4D000000FFFF62FF3900FFFFFFFFFFFFFFFFFFFFFFFFFFFFFFFFFFFFFFFFFFFFFFFFFFFFFFFFFFFFFFFFFFFFFFFFFFFFFFFFFFFFFFFFFFFFFFFFFFFFFFFFFFFFFFFFFFFFFFFFFFFFFFFFFFFFFFFFFFFFFF62
:4D004D00800C9001324006C00019001320074C80093040069A0018000360800C8001000000000000000000000000000000000C8001300006C00018000360800C8001320006C00498000360000C8001C8FA00
:4D009A000017E0025C800B20012E800E50013A400748800B5001248004900017400200000000000000000000000000000000124002480009200124800490001740025C0009A003748004900012400258FD45
:4D00E70000000000000000000000000000000000000000000000000000000000000000000000000000000000000000000000000000000000000000000000000000000000000000000000000000000098FF35
:4D01340000000000000000000000000000000000000000000000000000000000000000000000000000000000000000000000000000000000000000000000000000000000000000000000000000000098FFE7
:4D01810000012010048000000002000800002000040080000000000000004001000000000000000000000000000000000000000000000000000000000000400100000000000000000000000000000060FDEF
:4D01CE00000680009000030000280040000048040000004000000000000000040000000000000000000000400000000000000000000000000000000000000004000000000000000000000000000000D0FFC0
:4D021B00000034800610020240000800013008048006D0001A40006A008500000000000000000000000000000000000000A00100800000000200000801002000008040D00000400000000DA0100000F0F9E2
:4D02680000000000000040000000000000000001000000000000006000000200000000000000000000000000000000000000000000000000000000004000000000000002000000000000000080000048FE9E
:4D02B500000000000001000600036000008200301006002000080260000C00000000000000000000000000000000000000004000000602000000004020000000000004042000000300000C00400000F8F825
:4D0302000000000806808202000360002C0021000026C40298000862218C02000000000000000000000000000000000000000800000000000000002000008029000042C00400000001008C1001000010F8D2
:4D034F00000030202688081801836021440204310900C40898080361228000000000000000000000000000000000000000800101001600004000002004000048000002C00401001300004C08050000F0FDE4
:4D039C0000003C800170201EC40378000BE0010C8001302006C00078000308000000000000000000000000000000000000E0010080010100060800782000E001008007320000C08000000FE041000040FD08
:4D03E9000000001000C20018000301000C8000300000020000000302200000000000000000000000000000000000000000008000000600001804006000008001000006008000000300000C8801000088FAD3
:4D043600000030011640001900130084488129300A16C01058100960010810000000000000000000000000000000000000800900008600009800006011008049000006C10000008B00002C8040000098FF90
:4D0483002000B4900410085A40910824810000048040120002400068000D00000000000000000000000000000000000000000000801200008220004844413000008000981000000008000020000000CCFFFB
:4D04D000000030000004401004000000000400000000000000000000000C0000000000000000000000000000000000000000000000000400000000000000000000000000000000000000000000000000FD46
:4D051D00008010000480400808014100080400300800C00000000000000C000000000000000000000000000000000000000000000004020018080060000C000000000680000000006000008001000090FE54
:4D056A00880920211241001001000080040000800014044898100301210C000000000000000000000000000000000000000000000026000000010040102082290000A040220000000020008051000063F841
:4D05B700005010411241804800606012240800300014000481004000220000000000000000000000000000000000000000000000001601008800002080440008000022410400000060020000880000D1FA6B
:4D060400E0013C8007F00016C80258000F00000C8803F1001EC403180003080000000000000000000000000000000000000000008003000016040078000BE241008005F020000000181000E0010000B8FBAA
:4D0651008441000006C00008000060000C0000300006C20018000300200C04000000000000000000000000000000000000000000000001000800000000048001000002C0200000006000008001010043F98C
:4D069E008009200446C12290080961112C0200300812C08258048B00012C000000000000000000000000000000000000000000000004000098020020144C8141000016C1020000006011000004000008FC26
:4D06EB00304084804012001B4820290201020004804010000A498A08000D0000340000000000000000000000000000000000000080000000020100088225240000800050440040036800852000000048FA55
:4D07380000011010000000000001002000000000000002000000000000000000000000000000000000000000000000000000000000000000000800000008000000000600000000000000000400000010FE08
:4D0785000000200002C000000400001000000000080404000004010020000000300000000000000000000000000000000000000000060000100800600008000000000642000000800010000000000068FB0B
:4D07D2000C10014084008400010044002C1000B00042C0141001106201400200B02000000000000000000000000000000000000000000200080000000A248829000020000801001360022890290000B2FF7F
:4D081F008448102180402208010A421284000080004208205004A300010C0100000800000000000000000000000000000000000000060000080300201448000400000004820000036108480200000038F9CD
:4D086C00E0010C8005B0001EC40178000B02003C8807F0001EC00118200F00003C00000000000000000000000000000000000000800101001E000058000BE841008007B00000C00018000FE041000038FAFB
:4D08B9008C01010002402000008060200C0000300006C00018008300200004000010000000000000000000000000000000000000000602001800002010048041000006408000000001000C8841000089FFF8
:4D0906008001201240C8080008092004480100302246C12848102200044C0000300000000000000000000000000000000000000000160000180400600404811100001002080000236021848011000050FC9D
:4D095300A00104804012000240422882010000048400504402408A08002D1000040600000000000000000000000000000000000080160000020000080001209000800610000040000800012000000044FCEA
:4D09A000000000000200000000000000000000000000000000000000000800001000000000000000000000000000000000000000000004000010000000000800000000000000000000000000000000C8FD0F
:4D09ED00008030100000001800022020000000200006000018000000100C000000200000000000000000000000000000000000000000010018000000000C0000000006C2000000000000000000000000FF3D
:4D0A3A000804800000C8080108810001401000002026884200081002014C0400000100000000000000000000000000000000000000460000000900000080040501002600400000536042809081000053F8AC
:4D0A8700000430091401041804090201800100B00010812418010064000008000002000000000000000000000000000000000000000200000808000020840109000000C4080000000004400808000029FB33
:4D0AD400E0813C8003F02006C00358200F00000CA007F00006C40018100F00000C100000000000000000000000000000000000008003040016000018000BE000018001302000C083781003E0010100D0FBA8
:4D0B21008401300000C1001810032000000000301006C10018000000000400000020000000000000000000000000000000000000000400000804006040048201000000C000000083601000880100005BFCB9
:4D0B6E008089002042C02458008B6082000400100146401098042102112C040000020000000000000000000000000000000000000044020058000060012C8000020016C22400002360042C8051000030FD1F
:4D0BBB00300404A006100002500308040100000482001008034003080001A00134000000000000000000000000000000000000008010000002000008008120000080201000004021292401A090040010F904
:4D0C08000000010000C0000000000020000800001000400000000060000000000000000000000000000000000000000000000000000004000000006000000400000000040000000000000000000000B8F8EA
:4D0C55000000100000C00008048000000C0000202000804000000300000000400008000000000000000000000000000000000000000202001808006000088481000006C02000000000000000800000D0F8E0
:4D0CA2000C112140260214400020200A00010010022602040002030421000010B000000000000000000000000000000000000000002000000000000022040000000080000400000A41084C01113042BAF9F8
:4D0CEF00844500218600080005102212441000102000C02000020004224010103000000000000000000000000000000000000000004001001805000002448401020002040401008A4014200045800830FDAD
:4D0D3C00E0013C8007F08006C00078000B00003C8001B40006C000180003E0010D100000000000000000000000000000000000008005000006000078200F6000008005F00000C00378000FE2013C00D8FE77
:4D0D89008C01110000C0000000006000040200301000400000080000200C800100100000000000000000000000000000000000000006010018000060000C8041000002C08000000361000C8201310861F801
:4D0DD6008001902040080041100061100C0000B000A6C01058002302010C9081B0000000000000000000000000000000000000000016000018110000800C8205000016C800000011200A2C8004300248FD86
:4D0E2300201035800010040A419228420D0000348020D0000261006800010000040000000000000000000000000000000020000080000000121100680085280001800010440040200C00452410060034FAFB
:4D0E70000000000000008000100200000C0000300000040008000000000000000000000000000000000000000000000000800100000000000000000000000000000000400000000100000C8000000040F8D5
:4D0EBD000001300006C00000000261000000003C0006002010040300200C0400300000000000000000000000000000000080410000000000180400600000020100000604000000026010000081301008FE32
:4D0F0A00081031090002488002112012000000340080000200000300010000003000000000000000000000000000000000000800000000005000006022480004010040000001001002020010100000B3FC04
:4D0F5700000100014640080020822010401000300002044898002301018C02008000000000000000000000000000000000000001002000004800000002288285000006810400000300082C8001B020C9FBE1
:4D0FA40060010D9001B18006C00118000300003C8005F00016C40318200300000C20000000000000000000000000000000E00100800104001E080018200F6000008001702000C08278000F62410C0040FD00
:4D0FF1000441000006402000080260100C0000300002C00008000001200C000000080000000000000000000000000000008081000006040000040000000C82010000060420000001610000880031081BF855
:4D103E008001304026C10050004120012C0800300006C44058101000044C01008000000000000000000000000000000000000800002600008800006080048020000026400000001360218480053000D8FEE1
:4D108B00B0013480005084024000088249000004800010001A401009000100009400000000000000000000000000000000000004800000000200000800012000008040D20000400008840124000404F0FF05
:4D10D80000000000000000000000000000020000000000000000000000000000000800000000000000000000000000000000000000000000000000004000000000000000000000002000000000000018FB4E
:4D1125006080000000C0001800032220080200000800C02018000200000C0000000000000000000000000000000000000000003010000000180000600000000000000000000000834000000000200058FD78
:4D1172002C0480080642441800200001000000B0004608029808200421200800000A000000000000000000000000000000000000000000000008000008008029000014C408010010002280908180209AFA0B
:4D11BF00040400201040181821830010401000000140000818024300222C0200004100000000000000000000000000000000003008C000009804002002800150000004C0840000006104200830302000FE26
:4D120C00E0810C800734001EC00018000700003CA007F1201EC00218000300000C0000000000000000000000000000000000000C80010000060000582003E001008003310000C003581003E0010C00C8FDF2
:4D1259008C01001006C1200010032000040000300806C10018080300200C040000100000000000000000000000000000000000300006020018000020100C8001000006C08000000321000088413020C9F9D9
:4D12A600A089300106400040001364082C0800300006C01058000B64014C000000020000000000000000000000000000000000301216000058100060022C88510000120202000023600A8880011000B8FEB3
:4D12F300A00104800010000240000800010000048000100042400008008110000400000000000000000000000000000000A0850480100000420800484401A001008000100000400008000D2408040094FAA7
:4D13400000000000000000000000000000000000000000000010006000000000000000000000000000000000000000000080010000000400000000000000000000000000000000000000080040000080F8AB
:4D138D006080300006010018080300000C0000000800C00000000300100404003000000000000000000000000000000000800030000600000000006010000000000006000000000000000C8041000078FF4A
:4D13DA002804002100C0080100000100400800B00046084000020861014800008020000000000000000000000000000000000501104002004010004002000080000000C24000000361208C10003042C3FF15
:4D142700000430012008009800A30080800100000000C1020002230000401000B0000000000000000000000000000000008008300A0000000020002020400010000016014000001000402C0888000899FE83
:4D147400E0813C8807F02006C40018000300003C8807302006C08018100F00000C10000000000000000000000000000000E0010D80050400060000780003E841008001F00000C00379000F60013C0000FFDD
:4D14C1008401300006C22018000360000C0000300806C000000803600004000030080000000000000000000000000000000000300002010000000000400C8481000006C02000008360100C88003108A3FE4A
:4D150E008089000516C00418202362214C1000300106C124500093001144100030020000000000000000000000000000000021304046000010110020012C8011000016C20400001360028C8005B000A8FB4D
:4D155B00100000000000000000000000000000000000000000000000000000000000000000000000000000000000000000000000000000000000000000000000000000000000000000000000000000CCFB6C
:4D15A800000004800010000240000800012000048000100002400008000120000400000000000000000000000000000000200004800010000240000800012000048000100002400008000120000400B8FF1B
:4D15F50000800000000000000000000000000000000000000000000000000000000000000000000000000000000000000000000000000000000000000000000000000000000000000000000000000090FF9A
:4D1642002C1004800010000240000800012000048000100002400008000120000400000000000000000000000000000000200004800010000240000800012000048000100002400008000120000400F3F90F
:4D168F00040000000000000000000000000000000000000000000000000000000000000000000000000000000000000000000000000000000000000000000000000000000000000000000000000000C9FA47
:4D16DC00000004800010000040000800012000008000100002400008000120000400000000000000000000000000000000200004800010000240000800012000048000100002400008000120000400F8F9B2
:4D1729000C0000000000000000000000000000000000000000000000000000000000000000000000000000000000000000000000000000000000000000000000000000000000000000000000000000E3F88C
:4D177600202804800010000249000800012000049100100002400008000120000400000000000000000000000000000000200004800010000240000800012000048000100002400008000120000400B0FDF3
:4D17C300004000000000000000000000000000800000000000000020000000008000000000000000000000000000000000000000000000000000000008000000000000000000000000000000000000D0F9A8
:4D181000000000000000010000000000002000000000000000000000000000000000000000000000000000000000000000000000000000000000000000000000000000000000000000000000000000A8FCC6
:4D185D0000000000000000000000000000100008000000000000000000000000000000000000000000000000000000000000000000000000000000000000000000000000000000000000000000000080FEA8
:4D18AA0000020400000000000400000000000000000020000080000000010000200000000000000000000000000000000000000000000000000000000000000000000000000000020000000000000018FC10
:4D18F70000000000000000400000000000000000000000000080000000020000040000000000000000000000000000000000000000000000020000000000000000000000000000000000000000000058FF85
:4D19440000800020000000000000000000000000000000000000000000000000000000000000000000000000000000000000000020000000000000004000800001000000000000000000000000000088FA53
:4D19910002000000000200000080000000000000800000800000000800040000000000000000000000000000000000000000000000000000000000000000000000000000000000000010000000000088F9E8
:4D19DE0020000010000000000400000004024010000001000000000000000200040000000000000000000000000000000000400000024000080000001000000000000000000000800000040040000019FEB6
:4D1A2B002000A0200002000010000100010800050001044000000010000208000400000000000000000000000000000000000001800010000200000040000040000000000000000002200100000100F8FDDE
:4D1A78000020A00E04C010100001005428030000080040001800024000D8010000000000000000000000000000000000000000000080000200000640080000000052048000000000000A040001000000FDC2
:4D1AC500000000080040000000010040000800000800200010000000000000000000000000000000000000000000000000000000000000000000000000000000000000000000000000000400000000A0FB6C
:4D1B12000A400408042010080000000004040000000000000800012000040200000000000000000000000000000000000000000000000100000001201000000000000240000000000010008000000009FBB5
:4D1B5F00000004000000000010000000000000000000000000000000000008000000000000000000000000000000000000200000800000000010000000010000000000001000000000000031200000C8FC47
:4D1BAC0000400000000400000000024000000000000000800010000400000000000000000000000000000000000000000000000000000000000000000000000000000000800000000240000800010028FCE3
:4D1BF90080000000000000000000000000000000000020000000000000000000000000000000000000000000000000000000000000000000000000000000000000000000000000000000000000000038FFC8
:4D1C460080000000000000000000000000000000000000000000000000000000000000000000000000000000000000000000000000000000000000000000000000000000000000000000000000000018FFBA
:4D1C9300000000000080800000004000012800008000040000000000000000004000000000000000000000000000000000000000000000001000009800080000008000040000000000000000000000A0FC07
:4D1CE000000000000100100080001008000000000000400004000100000000000000000000000000000000000000000000000000000000005020000081201000000000400000800010000440000000A8F9F3
:4D1D2D0000000000000000000000000000000010000000000000000000000000000000000000000000000000000000000000000000000000000000000000000000000000000000000000000000000088FFD2
:4D1D7A00000000000000000000004000000000000000020000000000000000000000000000000000000000000000000000000000000000000000000000000000000000000000000000000000000000F8F9E9
:4D1DC7000000000000000000000000000000000000000000000040000000000000000000000000000000000000000000000000000000000000000000000000000000000000000000000000000000009CFFF4
:4D1E1400200400000000000000000000000000000000000000000000000000000000000000000000000000000000000000000000000000000000000000000000000000000000000001000000000000A8FBB9
:4D1E6100080000000000020000000000000000001000000000000000000000000000000000000000000000000000000000000000000000000000000000000000000000080000000000000000000004E8FC2A
:4D1EAE0000000000001020000000000000000000000001000000800200000000004000000000000000000000000000000000000000000000000000800000004000000001000000000000000000000818FE15
:4D1EFB0000000000000000000000000000000000000000000800000400000000000000000000000000000000000000000000000000000000000000000000004000000000000000000000000000000058FBFB
:4D1F4800000000000008002000000000000000000000000000000040000000001000000000000000000000000000000000000000000000000000000000040000000008000000000000000000000000E8FCE4
:4D1F950000000000000000000800000000000000000000000000000000000000000000000000000000000000000000000000000000000000000000000000000000000000000000000000000000000018FFE0
:4D1FE20000000000000000100000000000000000000000000000000000000000000000000000000000000000000000000000000000000000000000000000000000000000000000000000000000000088FE1C
:4D202F0000000000000000000000000000000000000000000000000000000000000000000000000000000000000000000000000000040000000000000000000000000000000080000000020000000018F9CD
:4D207C00000000000000000000000000000000000000002000440000000000000000000000000000000000000000000000000000000000000000000000000000000000000001000000000010000000A8F802
:4D20C900000010100000400800000200000000000000000000000002000004800000000000000000000000000000000000804000000201000804000000048202000000000000000000000000400000D4F877
:4D211600080100C8082100041040200002100000048000002200000000021000080000000000000000000000000000000000000800010000040000100002000000008000000000008800000000000080FB9A
:4D216300020000000000001000400000000100000000000000000000000000000000000000000000000000000000000000000000000000000000000000000000010000000000000000000000000000F8FCE7
:4D21B00000000000000000000000000000000000000000000000002000000000000000000000000000000000000000000000000000000000080000000000000000000000000000000000000000000010FDAD
:4D21FD0040002080000000000080004000000000000000000200880000001000000000000000000000000000000000000000002000000000000000404000000400000000000000020800000000008061F9D3
:4D224A0000000000000080000000000000000004000000000900000000000800000000000000000000000000000000000000000000000200000000000000000000000000000000000000000000040068FF45
:4D22970000001000000000000880000000000000000000000800000000040000100000000000000000000000000000000000000000000000000000000000020000000000000000000000000000000008F943
:4D22E40082000020014200008000111002420000040040000008000010004040002000000000000000000000000000000000000000000000080000000000000000000200200000010000040200100035FC75
:4D233100200008A00014000048000B4001A800002002100004100000504221000920000000000000000000000000000000000000000000000200000000000405008000008000400000000108000408B8F815
:4D237E00804004040D8102180062E0144843B7220401C0001880005018820301300400000000000000000000000000000000402080000000000000000800400000000400000000000000480000900068FD00
:4D23CB00808000000001001000002010000800000000400008000000400008001000000000000000000000000000000000004000000000000000000000000000000000000000000000000000001000F8F99B
:4D24180000000008012000100081400002488008080040000400002010002200201000000000000000000000000000000000001000000000000000001000000000000200000000000000040000000080F93E
:4D24650000000800000000000000200000000000000000000000000000200000000000000000000000000000000000000040000000010000040000000000000000001020000000000001000000000068FA0A
:4D24B20000000014000000000000000000020000080000000000000000000000400000000000000000000000000000000000400000000100000400000000020000000000000000004000000000000010FFE9
:4D24FF0000000000000000044000000000000000001010000000000000000000100000000000000000000000000000000000000000000000000000000000000000000000000000000000000000000098FF85
:4D254C00000000000000000A0000000000000000000004000000000000000400000400000000000000000000000000000000000000000000000000000000000000000000000000000000000000000050F9E3
:4D25990000000000000000000000000000000000080002000000000000000000000000000000000000000000000000000000000000000000000000000000200000000100000000000000000000000000FFCB
:4D25E600000020000000000100000000000000000000080000000000000800000000000000000000000000000000000000000000000000000000000000002000000004001200000000000081000040F0F997
:4D26330000000000021020000000080000006000000001000000000000000000000000000000000000000000000000000000000000000000000000000000000000000001000000000000000000000030FA94
:4D26800000000000008000000000008000040008000900000000020000100000000000000000000000000000000000000000000000000000000800002000440000000100000000010000000000880040FBB5
:4D26CD0000000000000000008200000000000000000200000000000000040000000000000000000000000000000000000000000000000000000000000000000000000000000000000000000000000010FB2D
:4D271A0000000000000000000002000000000040000080000000000000000000000000000000000000000000000000000000000000000000000000000000000000000000000000000000000000000078FD3B
:4D27670000008000080001200004800010000040000880012400040000000002000000000000000000000000000000000000044000180000200000000010000000000800010000048000100002800048F80A
:4D27B40000000000000240004000080001000000800010000008000100000200000800000000000000000000000000000000000000000000020000081001000000800010000040000020012000000020FB63
:4D280100A081008006D2040A40100800452008150000D04202400068440000000422000000000000000000000000000000000000000000001A4923000000000000000000009A000000000000000000D8FA11
:4D284E0000000000000040100400014000080020080000000010000200000000000000000000000000000000000000000000000000000000000000020000000000000000000010000000000000000088F9D3
:4D289B00E00000800370000E040140100F00001C0800700008008138000000000000000000000000000000000000000000000000000000000EC001000000000000000000000E00000000000000000040FB3E
:4D28E80020480080201124120102210441828824020010241004220812000000101100000000000000000000000000000000000000000000824490000000000000000000008204000000000000000000F842
:4D293500009000000008000101080241480010802000004840100802240000000001000000000000000000000000000000000000000000008000200100000000000000000000020000000000000000E8FD29
:4D298200E001008007F0001ED00238000FE4403C0000F00016C00278000000001C20000000000000000000000000000000000000000000001EC803000000000000000000001E00000000000000000098FA04
:4D29CF00000101000484801800800000000801300000808000048040400000002000000000000000000000000000000000000000000000001010020200000000000000000010100000000000000000F0F890
:4D2A1C008005000016C00218041220202C8044300800C00210010A600100000010080000000000000000000000000000000000000000000058000B000000000000000000005800000000000000000048FD24
:4D2A6900A080008006520402510B690201A08404A10000001A510028440120009410000000000000000000000000000000000034820010000A4921080001200004000010048A0000084201200004007CFB0A
:4D2AB60000000000000040000000004000080000000000000000000200000000000000000000000000000000000000000000000020000000000000020000000000000000400010000000000000010000FCDA
:4D2B0300E001008003F00000C001380008800000000604000E000178000C8801110000000000000000000000000000000000001C0006C4801EC00360400C880131200080201E000000000C8800302070FB9F
:4D2B5000284000800011200848800810840281101010000002048A081020000420400000000000000000000000000000000000040810000202448000012000048000004002020400202020004580006BFA79
:4D2B9D00009100008080004100400008200891800026010000090842244C824920040000000000000000000000000000000000001026C12490002261114C8249300900008210020000014C0204310961FFAF
:4D2BEA00E001008007F0000EC403780007E0011C880100001EC00278000360003C0000000000000000000000000000000000003C800130001EC80318000360000C000070001E000038100360010C00D8F802
:4D2C3700040001000404801000024240008201200006000010100000400C800130000000000000000000000000000000000000202006C00000100062100C8001300000002000100040000C0000300043F93C
:4D2C84008005000016C00208050B6001248005110A4601005800A260018C825130420000000000000000000000000000000000B00046C12858000B60048C8251300A00400458000020148C0251300A00F9D5
:4D2CD100B081048102D2048A4009090000A084148100D04202401328440120000422000000000000000000000000000000000014820010001A49230800012000040000D0029A0000282101A021040000FDA8
:4D2D1E00000000100000400010000040000000002000000000100001000000000000000000000000000000000000000000000000200000000000000200000000000000008000100000000000000000D0FA1B
:4D2D6B00E000108807700008C8034000008000100006740008C40178000C8801010000000000000000000000000000000000003C0006C4800EC00160400C880131200070000E000020000CE800302058F926
:4D2DB8002C44208010112250408820100000112205101022504088081120000420110000000000000000000000000000000000840810000242448800012000048000001022420400402120204480001AFDEE
:4D2E0500042080208400081109420041000089A00006010440102041200C824100010000000000000000000000000000000000201046C12800034060108C8251300A00004880000040028C0208300AC8FE73
:4D2E5200E0012C8007F0001EC003380000E0013CA001F04016C00378000360002C0800000000000000000000000000000000003C800130001EC00318000360000C0000F0001E0800784003E0810C0000FA33
:4D2E9F000C0101080084801800000200008001301006818000040202400C824110080000000000000000000000000000000000002006C12010100262100C8241300800808010100060000C02013108B9FD9B
:4D2EEC008005200116C00218020B2014008009320016C00290000B60012C800520020000000000000000000000000000000000B00016C00258000B60002C8005B00000C00258000060422C8005B00040F95E
:4D2F39002008B4900252048A401028024D200815812050420A511108024128089610000000000000000000000000000000000034821018040A4910080081201004010010048A4013282181A020040268F855
:4D2F860000800000000040001000014000080000200002000000000120000000000000000000000000000000000000000000000020000040000000010000080001100000400010000200000800002070FC42
:4D2FD30000011C8007F0000810017800070000108003F4001EC003400007E800110000000000000000000000000000000000001C800374801E0001000007E8001D200080001EC001200007E8011C2030FC28
:4D3020008848048A401128100182081481028920921610280245A020122DA00520100000000000000000000000000000000000048A16D00202058A60422DA005B4000040220245A040402D2050B400F2F982
:4D306D0000040110048408511008420880040420064082049000220141800408A00000000000000000000000000000000000000001200010100308020100019000120000829000604022400009001038FAD9
:4D30BA00E0003C8007F0001EC00278000F60813C8003F0401EC803380007E0803C1000000000000000000000000000000000003C900372001EC002781007E0001C000070001EC803780007E4811C00F0F83E
:4D310700040020200004801800000040088840300006008000100002000C800130000000000000000000000000000000000000202006C00000108060000C8001300000002000100262200C00003100D1FC95
:4D3154008040B00016C00218218A60012C0011302146C10258000B20108C825130210000000000000000000000000000000000B00046C12858000260108C8251300A00400858000B60028C8205300A30FB21
:4D31A100B080048106120002510B690201A08404A12010000A5113684441280896100000000000000000000000000000002000148210180442481008028120100481005002020000084281A021040288F8FE
:4D31EE00000000100000800000000040000800000000028000000001000000000000000000000000000000000000000000000000200000400000000120000800011000008000100000000008000020C8F827
:4D323B00E041108003810000C081381008824000800744201EC48138100FE801110800000000000000000000000000000080013D8807F4801E108138400FE8013D2006F42010000000000FE8403C2048FFD6
:4D3288002C10208A404022104820080404000520901480000241200804292005A000000000000000000000000000000000000404821490025200126801292005A4001010088804004020292010A400F2F859
:4D32D50004218020C000824004600002200831800844028210090001088804092011000000000000000000000000000000805120012480101003080220080191201206814840100000114800302010C8FB24
:4D332200E0012C8007700016C003782007E0012C8001B0001EC00378000360803C0000000000000000000000000000000060003C9001320006C00238000360000C8001F0000E0000580003E4010C00F8FD9E
:4D336F000C0001080404000804024240008201100806012000100242400C824130100000000000000000000000000000008041002006C12018040062100C8241300806018000000020100C02013108B9FBEF
:4D33BC008005A00016402810000B6001448011210046800458000B60018C801130000000000000000000000000000000008005B00046C00818010260048C8011300216C00208040040028C80053002B0FDAD
:4D3409002008949000D0048A4009690245200014814010001A511108024124100401000000000000000000000000000000200804804012480240100802012000849000D002024020282101A020040004FDB4
:4D34560000800000000440001000004000080001200002800000000120000080001000000000000000000000000000000000800020000000001000012000048000000002800010000200000400001048FF75
:4D34A30000013C0804702008C08338100F824010800344000EC483401007E8001108000000000000000000000000000000E0001180037480100001784007E8001DA003742010C001224007E8411C2038FFD1
:4D34F00088448400021102504808080121000120C216802242400820042DA0052000000000000000000000000000000000A005208A16D00248049248012DA005B48016100248440B40002D2004B400ABFC16
:4D353D0000042110100440102162000C8804042140400282000202014180040880200000000000000000000000000000000030802020001040100842200001900012C00040401060400C400031001009FB14
:4D358A00E0003C8003F0001EC00378000F60013C8003B0001EC003380007E0802C00000000000000000000000000000000E0002C800372000EC002180007E0001C8003F0000EC001780007E4011C00C0FD16
:4D35D700044000200080801800004240000880300006010010100002100C824100000000000000000000000000000000008041000806C12000000060100C8241300806818000008360000C020031085BFA3C
:4D3624008010B00012C10298020B60012C0009B04016802858000B20022C800520040000000000000000000000000000008005200216C00208058260012C8005B00016C00208050B60222C8005B00088FDD9
:4D3671003008B4900010008A401028024DA011158100D0420A51000802012000B44000000000000000000000000000000020081482401248024021082401200084900050428A40002814012000040038FC4F
:4D36BE0000800000000480001000014000080000200000000000000220000000000000000000000000000000000000000000800020000000001000020000048000000000000010004000000400011008FA83
:4D370B0000811C08048120080081781007E24010000070201E048140000000001C08000000000000000000000000000000E0013D8807F48010C08338400FE8013D200040001E04033A100F88403C2060FEC5
:4D3758008C1004004240029020220800012000201126140002001220228C84090500000000000000000000000000000000200504801490028844006801292005A4004682420200084804290011A40022FD53
:4D37A50004040104100482500008420C000408200210001810080802412000040010000000000000000000000000000000003120062480104010420020080191201220810810038300414800042110B8FD66
:4D37F200E0003C800370001ED00278000FE0813CA007F1001EC00238000FE2413C0000000000000000000000000000000060003C800132000EC00338000360000C8007F0401EC00078000364010C00F0FE13
:4D383F000C4020200001001808800040080801310006808000100000000C800120200000000000000000000000000000008041002006C12000000062100C8241300806C00000108360000C0240300861FFCA
:4D388C008008B00022401018010A60012C8005304006C10258000A21110C8241B0000000000000000000000000000000008001B00006C00008040B60000C8001300016C22058000B60100C0005300078FE17
:4D38D900A08094900212001A4009090045A04034804050420A5113284441241014080000000000000000000000000000002000048000100002402308240120000480005002024020282101A008040080FDB7
:4D39260000000000000080000000004000080100000002000000000100000080200000000000000000000000000000000000000020000000000000020000000000000002800010000200000000010028FA0F
:4D397300E0413C8807810000C08340100FE200008007F4201EC48178100FE8011D000000000000000000000000000000000000100000000018D0817840000000008007F42010C0032200008000000060FFDB
:4D39C00028080481204024804410200141205100891410048240100802292005A4080000000000000000000000000000008009210826C48440401048018C849130A114100408610A40414C08413012DAFA21
:4D3A0D0000012204C4008200082201410804108010448218100240400888040900020000000000000000000000000000000004802010000298046040202000048000C4804040106240082000858000F0FF90
:4D3A5A00E0013C800770001EC00338000FE0013D8001F0001EC00378000360803C20000000000000000000000000000000E0012D8007F12006C00318000FE2413C8801F0000EC00078000FE2013C0820FFB3
:4D3AA700040001200004001800000210008801301006018000100202400C824130000000000000000000000000000000008041000006C00018000262100C8001300006018000048360000C80813000B9FFA9
:4D3AF4008005B00016402018090B20002C8049300226C00258000B60014C800930090000000000000000000000000000008011A00806C12098020B60020C8241300826C00208001360840C82113008D8FBEE
:4D3B410000000000000000000000000000000000000000000000000000000000000000000000000000000000000000000000000000000000000000000000000000000000000000000000000000000098FFA0
:4D3B8E0020000480001000024000080001200004800010000240000800012000040000000000000000000000000000000020000480001000024000080001200004800010000240000800012000040098FF0F
:4D3BDB0000000000000000000000000000000000000000000000000000000000000000000000000000000000000000000000000000000000000000000000000000000000000000000000000000000098FF06
:4D3C2800280004800010000240000800012000048000100002400008000120000400000000000000000000000000000000200004800010000240000800012000048000100002400008000120000400B2FD54
:4D3C750000000000000000000000000000000000000000000000000000000000000000000000000000000000000000000000000000000000000000000000000000000000000000000000000000000098FF6B
:4D3CC20000000000000000000000000000000000000000000000000000000000000000000000000000000000000000000000000000000000000000000000000000000000000000000000000000000098FF1E
:4D3D0F00040001200004800010000240000800012000048000100002400008000120000000000000000000000000000000000001200004800010000240000800012000048000100002400008000120C9FA62
:4D3D5C00200804810010008240100802412008048020100482401008024120080401000000000000000000000000000000200804812010048240100802412008048120100482401008024120080401F8F8FD
:4D3DA90000048000000000600008000120400460001000024000080001200004800000000000000000000000000000000000048000100002400008000120048480001000024004888101200404801030FBD3
:4D3DF60000000000100002000000000000000280400000000000000000000000400000000000000000000000000000000000000000000000000000000000000000000000200000000000000000000028FE26
:4D3E430000001000000000000001800000000000400040000000000000000000000000000000000000000000000000000000000000000000000000000000000000000000000000000000000000000080FBA6
:4D3E900000000000000000000000000000000000000000000000000000000000000000000000000000000000000000000000000000000000000000000000000000000000000000000000000000000098FF4E
:4D3EDD0000000000000000100000000000000000000000000000000000000000000000000000000000000000000000000000000000000000000000000000000000000000000000000000000000000088FE02
:4D3F2A00000000000000000000000000000000582000000000000000000000000000000000000000000000000000000000000000000000000000000000000000000000000000000000000000000000A4F935
:4D3F770000000800000100000000000000020000000000000000000000040000000000000000000000000000000000000000000000000000000000000000000000000000000000000000000000000008F9ED
:4D3FC40000001010800000021080201002040000000000200800810000010000200000000000000000000000000000000000000000000000000000000000000000000000000000000000000000000088F8FE
:4D40110000000C200006000210000A40010C0000000000800240000200030000040000000000000000000000000000000000000000000000000000000000000000000000000000000000000000000040F8C4
:4D405E00080100008401000882400008080100000800400000004F00002000000000000000000000000000000000000000000000000000000000024000000000000000800030000000000000000000A0FF64
:4D40AB0000000000000200100000000000000000040020000000020000000000000000000000000000000000000000000000000000000000000000000000000000000000000000000000000000000088F810
:4D40F8008800000002040000024000080202000000000000000081000000000000000000000000000000000000000000000000000000000000000120000000000000004000080000000000000000002CFB8E
:4D41450000000000001000000000000000000000000000000000000000000000000000000000000000000000000000000000000000000000000000000000000000000000000000000000000000000098FE87
:4D41920000000000000000000000000000000000100000000000000000000000000000000000000000000000000000000000000000000000000000000000000000000000000000000000000000000088FE4A
:4D41DF0000000000000080000000000000000000000000000000000000000000000000000000000000000000000000000000000000000000000000000000000000000000000000000000000000000018FFFC
:4D422C0080000000000000000000000000000000000000000000000000000000000000000000000000000000000000000000000000000000000000000000000000000000000000000000000000000018FFAE
:4D42790000000000000000080000000000000000000000000000000000000000400000000000000000000000000000000000000010000000000000010000000000000000000000000000000000000040FA65
:4D42C600200004000000004000000800000020000400000002400008000000008000000000000000000000000000000000000000000010000040000000010000000000000002000000080000000000E0F91D
:4D43130000000000000000001404000000800000080000000000000000000000100000000000000000000000000000000000010000008800000000400000000020000040000000002000000040000060FCC8
:4D43600000000000000000080200000000000000000000000000000000000000200000000000000000000000000000000000000000000000000000000000000000000000000000000000000000000010FDD9
:4D43AD0000000000000000000000000000000000000000000000000000000000000000000000000000000000000000000000000000000000000000000000000000000000000000000000000000000098FF2C
:4D43FA00020000000000000000000000000000000000000000000000000401000000000000000000000000000000000000000000000000000000000000000000000000000000000000000000000000A8F9CE
:4D44470000000180000400000000480008000100000090001000000000000001000000000000000000000000000000000020002400040000124000000000000000800000001240000000082001000098F88C
:4D44940040000000000000008000000002000000000120000480001000020000000000000000000000000000000000000000000000000000008000000000400008000020000020000000000000000040FA20
:4D44E10000000000000000000000000000004000000000000000000000000000000000000000000000000000000000000000000000000000000000000000000000000000000000000000000000000098FBBB
:4D452E0000000000000000000000000000000000000000000000000000000000000000000000000000000000000000000000000000000000000000000000000000000000000000000000000000000098FFA9
:4D457B0000000000000000000000000000000000000000000000000000000000000000000000000000000000000000000000000000000000000000000000000000000000000000000000000000000098FF5C
:4D45C80000000000000000000000000000000000000000000000020000000000000000000000000000000000000000000000000000000000000000000000000000000080000000000000000000000018FD0F
:4D46150000000000000000000000000000000000000000000000000000000000000000000000000000000000000000000000000000000000000000000000000000000000000000000000000000000098FFC1
:4D46620000000000000000041000000000000000000000000000000000000000000000000000000000000000000000000000000000000000020000000000000000000000000000002010000000000088FA43
:4D46AF00000000000000000000000000000000002000000000000000000000000000000000000000000000000000000000000000000000000000000000000000000000000100000008000080000000B0FC69
:4D46FC00000000000000000000000000004001000000000000000080000000000000000000000000000000000000000000004000000000000000000000000000000000000000000008A0000000000064FB69
:4D474900000000000000000002000010000200000004000000000000000000000400000000000000000000000000000000000000000000000000000000000000000000000000000000000000000000F8F817
:4D479600000000000000000000000000000000000000000000000000000000000A0000000000000000000000000000000000000000000000000000000000000000000000000000000000000000000010FDBF
:4D47E30000012000000000040002000000000204000000000000004000080000200000000000000000000000000000000000000000000000080002000008000110000480000000000000000000200030F805
:4D48300000000000000240000000002000048000080002400008000100000080004000000000000000000000000000000000800010012240000808102000000000100000000008000000000480000038FA41
:4D487D00000000000000000400004000000200000002000000000200000000000400000000000000000000000000000000000000000000000000000000000000000000000000000000000000000000F8FBAD
:4D48CA00884000000240000010000040010801050000002000000100000400002100000000000000000000000000000000000010000000000800800000000000000002400008040000000080000004ACF9E3
:4D4917002000018000101404100A1040012C00A50001008000C00000000100000D0000000000000000000000000000000000000400000000020000020000000000800010000210004001002000002020FBB9
:4D4964000028000000240002008240180000408804C0C0000000E20018880100180E0000000000000000000000000000000001100404800010024000000800012000040000500200C000000001200010FA94
:4D49B10000000000000000000000024000000001000080000000800040000000080400000000000000000000000000000000001000000000000000000000000000000000000000000000000000000088F999
:4D49FE0000400000000000004000200800000000040011000080400010020200000800000000000000000000000000000080000008024000080480000004800010000400000804002000008000100088FBA6
:4D4A4B0000000000000000000000000000000011000000000000020000000000000800000000000000000000000000000000000000000000000000000000000000000000000000001000000000000018FDDE
:4D4A980000000000000000102000000000000000000000000000000000000000000000000000000000000000000000000000000000000000000000000000000000000000000000000000002000000088FEFB
:4D4AE50000000000000000000000000000000000000800000000000000000002000000000000000000000000000000000000000000000000000000000000000000000000000000000000000000000038FD45
:4D4B3200000000000000000004000000008000000000000000000000000000000400000000000000000000000000000000000000000000000000000000000000000000000000000000000000000000D0FBE3
:4D4B7F0000000800102000000800000002208000040000000480001000000000081000000000000000000000000000000000000800000000000000100000000000000020000000000018000000080068F99E
:4D4BCC0000000080000000004000000000004000000000000000000001000000000000000000000000000000000000000000000000000000040000000010000200000800000000004000108000400060FB12
:4D4C190000200004800010020040000800012000008000100002400008000120000400000000000000000000000000000000200004800010000240000800012000048000100002400020000120000490F96D
:4D4C6600000000000000000000000000000000040000000000000000000000000010000000000000000000000000000000000000000000000000000000000000000000000000000000010000000000C8FB29
:4D4CB30000000000000000004000000000000000100000000000000000000000000000000000000000000000000000000000000000000000000000000000000000000000000000000000000000000088FAE2
:4D4D000000000000000080000000000000000000000000000000000000000000100000000000000000000000000000000000000000000000000000000000000000000000000000000000000000000008FED0
:4D4D4D0048000000018000000000000000000000000000000000000000000000004000000000000000000000000000000000000000000000000000000000000000000000000000000000000000000058FABE
:4D4D9A0000000000000000020000000000000402000000004000000000000000002000000000000000000000000000000000000000000000000000000000000000000400000000008000000000000030F9B7
:4D4DE70000003480800000000000680001A00100801000000200000800000000000000000000000000000000000000000000000000000000000000000000000000000000000000000000000000000038F877
:4D4E3400000030000000000000000000000000000002040000000000000000000000000000000000000000000000000000000000000000000000000000000000000000000000000000000000000000F8F80B
:4D4E810000003C000000000000001820038081008001040000000018000000000000000000000000000000000000000000000000000000000000000000000000000000000000000000000000000000B8F91E
:4D4ECE0000000404000200000000680201800500804200000000000800000000000000000000000000000000000000000000000000000000000000000000000000000000000000000000000000000090F84B
:4D4F1B000000000820000000000060102C804900001002008004000004000000000000000000000000000000000000000000000000000000000000000000000000000000000000000000000000000088F9A1
:4D4F680000003C8005040000000018000FE40100800300000600001010000000000000000000000000000000000000000000000000000000000000000000000000000000000000000000000000000048FC3E
:4D4FB5000000300000040000000060000C800100000000001800006010000000000000000000000000000000000000000000000000000000000000000000000000000000000000000000000000000078F995
:4D5002000000302200000000000060080C8045000040020018050060020000000000000000000000000000000000000000000000000000000000000000000000000000000000000000000000000000B8FE5F
:4D504F00000004800600000000000800002010008010000002000068000D2000040000000000000000000000000000000000000000000000000000000000000000000000000000000000000000000094FA99
:4D509C00000000000000000000000000000040000000040000000060000C0000300000000000000000000000000000000000000000000000000000000000000000000000000000000000000000000060FE89
:4D50E900000030000000000000007820006041008005040000040078000F80010D0000000000000000000000000000000000000000000000000000000000000000000000000000000000000000000050FF20
:4D513600080000041002000000000802002001008040000040000068000D000434120000000000000000000000000000000000000000000000000000000000000000000000000000000000000000001BFA0F
:4D518300000030081000000000000010008031000010020080040000040C8049304000000000000000000000000000000000000000000000000000000000000000000000000000000000000000000049FFAF
:4D51D00000003C80070400000000180000C001008003000006000010100F60000C0000000000000000000000000000000000000000000000000000000000000000000000000000000000000000000010FAC4
:4D521D00040030000600000000000000008000010000000000000000000C80013010000000000000000000000000000000000000000000000000000000000000000000000000000000000000000000D3FBEE
:4D526A00000030220608000000000008008000000040020018050000000C8051300200000000000000000000000000000000000000000000000000000000000000000000000000000000000000000030FC75
:4D52B700100034884002000000006800012004008010000042000028000D2000040000000000000000000000000000000000000000000000000000000000000000000000000000000000000000000098F953
:4D530400000030000000000000006000000040000000040000040000100C0000000000000000000000000000000000000000000000000000000000000000000000000000000000000000000000000060FA0E
:4D53510000003C000000000000007820036001008001040016000000000C80010D0000000000000000000000000000000000000000000000000000000000000000000000000000000000000000000040F969
:4D539E000C0034044404000000006802012051008040000012040000200C00040412000000000000000000000000000000000000000000000000000000000000000000000000000000000000000000BAFA8A
:4D53EB000400300126000000000000104C8001020014020098000000020C90518000000000000000000000000000000000000000000000000000000000000000000000000000000000000000000000D8FE48
:4D54380000003CA007010000000078000FC80100800100001C100018400F60000C10000000000000000000000000000000000000000000000000000000000000000000000000000000000000000000B0FBB8
:4D5485000C00200006040000000060000C8000010000000008100000400080410010000000000000000000000000000000000000000000000000000000000000000000000000000000000000000000B9FDD8
:4D54D2000000300806000000000060080C800000004002000800000000008205300200000000000000000000000000000000000000000000000000000000000000000000000000000000000000000078F8E8
:4D551F00B00104824004000000006800012000008010000002000008000020080100000000000000000000000000000000000000000000000000000000000000000000000000000000000000000000F4FB89
:4D556C0080010008000000000000000000000000000004000000000000000000000000000000000000000000000000000000000000000000000000000000000000000000000000000000000000000050FA1B
:4D55B90080011C0004000000000078200300000080010400060000780000E000010000000000000000000000000000000000000000000000000000000000000000000000000000000000000000000020F96C
:4D5606008C290404400400000000680201004000804200001A0500680000A005000000000000000000000000000000000000000000000000000000000000000000000000000000000000000000000093F931
:4D5653008449000114040000000060100C015000001002001803000004000008000000000000000000000000000000000000000000000000000000000000000000000000000000000000000000000031F9F4
:4D56A000E0012CA005000000000078000F600000800100001C0000101000E080000000000000000000000000000000000000000000000000000000000000000000000000000000000000000000000038F9D6
:4D56ED008C81000804010000000060000C004000000000001810000010008001000000000000000000000000000000000000000000000000000000000000000000000000000000000000000000000043FBB3
:4D573A000004000116000000000060080C8011000040020000000000020080510000000000000000000000000000000000000000000000000000000000000000000000000000000000000000000000E0FB12
:4D5787002000348200000000000008000120480080161000834000080000200805000000000000000000000000000000000000000000000000000000000000000000000000000000000000000000002CFBC9
:4D57D40080013008000000000000600000000000000404000004000010000000000000000000000000000000000000000000000000000000000000000000000000000000000000000000000000000020FB38
:4D58210060802C0006040000000018200360410000067480160403020000E0013D00000000000000000000000000000000000000000000000000000000000000000000000000000000000000000000D0FA47
:4D586E00280834044000000000000802012005000046D00212010800200020053400000000000000000000000000000000000000000000000000000000000000000000000000000000000000000000CBFAA4
:4D58BB000008300106010000000000108C811100001602189800A30002000009001100000000000000000000000000000000000000000000000000000000000000000000000000000000000000000001FFAB
:4D59080060001DA001000000000018000FC08100800770001CC80018400060800C0000000000000000000000000000000000000000000000000000000000000000000000000000000000000000000070FF3E
:4D5955000440300806010000000000000C8000010006C0200810830040008041000000000000000000000000000000000000000000000000000000000000000000000000000000000000000000000063FC14
:4D59A2000008100116000000000000080C8000000046C20808000B4000008011001200000000000000000000000000000000000000000000000000000000000000000000000000000000000000000078FD7A
:4D59EF00B0010482060000004000680000200000801610000340100900012088040000000000000000000000000000000000000000000000000000000000000000000000000000000000000000000000FDBA
:4D5A3C0080010008000000000000600000000000000604000004000000000000000000000000000000000000000000000000000000000000000000000000000000000000000000000000000000000010F81E
:4D5A890080011C800100000000037920000000000006F48016C4011A0000E0000D0000000000000000000000000000000000000000000000000000000000000000000000000000000000000000000008FBB7
:4D5AD6008C2904841002000000106802000000000044900252400B080000A0050412000000000000000000000000000000000000000000000000000000000000000000000000000000000000000000F2FB97
:4D5B23008449000110000000000B601000005000001282185800606004001008004000000000000000000000000000000000000000000000000000000000000000000000000000000000000000000078F9FB
:4D5B7000E0012CA007040000C000190000600000800730001CC801701003E0800C00000000000000000000000000000000000000000000000000000000000000000000000000000000000000000000F8FF75
:4D5BBD008C0101080600000000836000008001000006C02008108300100C82410010000000000000000000000000000000000000000000000000000000000000000000000000000000000000000000E9FD45
:4D5C0A000000208106080000000B6008008041000046C20208000B00024C80053002000000000000000000000000000000000000000000000000000000000000000000000000000000000000000000E0F870
:4D5C5700200004882000000000000800012000008002110002451009000120880400000000000000000000000000000000000000000000000000000000000000000000000000000000000000000000BCF8B7
:4D5CA400000000000004000000006000000000000004000000000000100000000000000000000000000000000000000000000000000000000000000000000000000000000000000000000000000000E8F95A
:4D5CF10000001C000004000000007800030000000002C08016C403220003E0010D00000000000000000000000000000000000000000000000000000000000000000000000000000000000000000000E8FFB2
:4D5D3E000800040402000000000068080100000000A4000292400A0020012005041200000000000000000000000000000000000000000000000000000000000000000000000000000000000000000023FD97
:4D5D8B000048000112000000000060204C0088000022C02218026200022C00098000000000000000000000000000000000000000000000000000000000000000000000000000000000000000000000B9F834
:4D5DD80060000CA007010000000078000F640000800532001CC00018400F64800C1000000000000000000000000000000000000000000000000000000000000000000000000000000000000000000020FC69
:4D5E25008401000006010000000060100C8001000002C42008108300400C8041001000000000000000000000000000000000000000000000000000000000000000000000000000000000000000000043FDC9
:4D5E72008009020826000000000060020C8085000046C00808000300000D80013002000000000000000000000000000000000000000000000000000000000000000000000000000000000000000000E8F8FE
:4D5EBF0030000488060000020000282001A00534801410840240000800012000000000000000000000000000000000000000000000000000000000000000000000000000000000000000000000000060FAC3
:4D5F0C00200000000000000000000800000081300000040000000000000000000000000000000000000000000000000000000000000000000000000000000000000000000000000000000000000000D8FB98
:4D5F590060001C800100000000003800008001000000748000000078000300000000000000000000000000000000000000000000000000000000000000000000000000000000000000000000000000A0FC3A
:4D5FA6002C0004841002000000000808008089000040D002000023690001800901000000000000000000000000000000000000000000000000000000000000000000000000000000000000000000008AFC20
:4D5FF30004000001100000000200001000900100041002180001906004400004000000000000000000000000000000000000000000000000000000000000000000000000000000000000000000000000FF43
:4D604000400008A0070400060000100003E0410C8003700006C403701003E841000000000000000000000000000000000000000000000000000000000000000000000000000000000000000000000048FE28
:4D608D000C00000006000018100000000C8801000004C02018000300100C80010000000000000000000000000000000000000000000000000000000000000000000000000000000000000000000000A1FDBD
:4D60DA000000000806080058000000008C8041802040C20458041301020C81410000000000000000000000000000000000000000000000000000000000000000000000000000000000000000000000F8F8E8
:4D61270010440000000000000000004400000000000000000000000000000000000000000000000000000000000000000000000000000000000000000000000000000000000000000000000000000088FB10
:4D61740020000400001000024000080001200004800010000240000800002000040000000000000000000000000000000020000480001000024000080001200004800010000240000800012000040018FE05
:4D61C100000000000000000000000000000000000000000000000000000002000000000000000000000000000000000000000000000000000000000000000000000000000000000000000000000000B8FFD8
:4D620E000C00048020110002400000000120000480001000024000080021200004000000000000000000000000000000002000048000100002400008000120000480001000024000080001200004005BF887
:4D625B00040000000000000000000000000000000000000000000040000000000000000000000000000000000000000000000000000000000000000000000000000000000000000000000000000000C9FEEB
:4D62A80000000000001000024000000000000004000000000000000000000000000000000000000000000000000000000020000480001000024000080001200004800010000240000800012000040038FBFE
:4D62F5000C0000000002000000000000000200010000008000100002000000000100000000000000000000000000000000000000000000000000000000000000000000000000000000000000000000EBFAD3
:4D63420080881091201000024000202241800804804014048840102000412408042200000000000000000000000000000020000480001000024000080001200004800010000240000800012000040068FEF9
:4D638F0000000000000100000000000000000000000000020000080010000004000000000000000000000000000000000000000000000000000000000000000000000000000000000000000000000050F959
:4D63DC0000000000000000000000000000000000000000000000000000000000000000000000000000000000000000000000000000000000000000000000000000000000000000000000000000000098FFDD
:4D64290000000000800000000000000000000000000000000000000000000000000000000000000000000000000000000000000000000000000000000000000000000000000000000000000000000090FF17
:4D64760008040000000000000000000000000000000000000000000000000000000000000000000000000000000000000000000000000000000000000000000000000000000000000000000000000090FB42
:4D64C30080000000000000000000000000000000000000000000000000000000000000000000000000000000000000000000000000000000000000000000000000000000000000000000000000000018FFF5
:4D651000000000000004000000000000000000000000000000000000000000000000000000000000000000000000000000000000000000000000000000000000000000000000000000000000000000D8FF63
:4D655D0004000800008000020000001000000000000000000800000000000000000000000000000000000000000000000000000000000000000000000000000000000000000000000000000000000050F803
:4D65AA00000000008000000000000000000000000000400000000020100400001000000000000000000000000000000000000000000000000000000000000000000000000000000000000000000000D0F8D8
:4D65F70000050808002500040000002004020000001410140400004841290000A40000000000000000000000000000000000000000000000000000000000000000000000000000000000000000000041FD23
:4D664400800404008004000800002058820900000800600708000040000002000008000000000000000000000000000000000000000000000000000000000000000000000000000000000000000000D8FC5D
:4D66910080000000000000100000202000000000040040000800000000000200000800000000000000000000000000000000000000000000000000000000000000000000000000000000000000000048FA54
:4D66DE000C00000000010000000000080002000000000000000000200000000000000000000000000000000000000000000000000000000000000000000000000000000000000000000000000000809DFE1D
:4D672B0000000000000000000000000000000000000000000000000000000000000000000000000000000000000000000000000000000000000000000000000000000000000000000000000000000098FF8A
:4D67780000000000000000000000000000000000000000000000000000000000000000000000000000000000000000000000000000000000000000000000000000000000000000000000000000000098FF3D
:4D67C500000000000800000000000000000000010002000000000080000000000000000000000000000000000000000000000000000000000000000000000000000000000000000000000000000000A8FE56
:4D681200000000000000000000000000000006040000000040000000000000000000000000000000000000000000000000000000000000000000000000000000000000000000000000000000000000B8FF38
:4D685F0000000100000000000000000000080000000000000000000000000800000000000000000000000000000000000000000000000000000000000000000000000000000000000000000000000080FF5C
:4D68AC0000000000000000000000000008000000000000001000000000000000000000000000000000000000000000000000000000000000000000000000000000000000000000000000000000000090FEF9
:4D68F90000000000000000000000000000000000000000000000000000000000000000000000000000000000000000000000000000000000000000000000000000000000000000000000000000000098FFBB
:4D69460020000080000000020000000000000000000000000000000000000000000000000000000000000000000000000000000000000000000000000000000000000000000000000000000000000038FD2D
:4D69930000000000000000000000000000800000000000800000000000000000000000000000000000000000000000000000000000000000000000000000000000000000000000000000000000000098FF20
:4D69E000000000001000000000000000010000000000000002000100010080200000000000000000000000000000000000000000000000000000000000000000000000000000000000000000000080CCFB6E
:4D6A2D00000000000100000000000000090000000000100012400000000000010000000000000000000000000000000000000000000000000000000000000000000000000000000000000000000000E0FFD0
:4D6A7A0000000000000000000000000000000000000000000000000000000000000000000000000000000000000000000000000000000000000000000000000000000000000000000000000000000098FF38
:4D6AC70000000000000000000000000000000000000000000000000000000000000000000000000000000000000000000000000000000000000000000000000000000000000000000000000000000098FFEB
:4D6B140000000000000000000000000000000000000000000000000000080000000000000000000000000000000000000000000000000000000000000000000000000000000000000000000000000010FF1D
:4D6B610000000000000000000000000000000000000000000000000000000000000000000000000000000000000000000000000000000000000000000000000000000000000000000000000000000098FF50
:4D6BAE0000000000000000000000000100010000000000000000000000000000000000000000000000000000000000000000000000000000000000000000000000000000000000000000000000000088FE12
:4D6BFB00400000000000000000001000000000000000000000000000000000000000000000000000000000000000000000000000000000000000000000000000000000000000000000000000000000C8FE37
:4D6C480010000000040000000000000000000000000000000000000000000000000000000000000000000000000000000000000000000000000000000000000000000000000000000000000000000088FB68
:4D6C950000400408000000000000080000000000000000000000000000010200000000000000000000000000000000000000000000000000000000000000000000000000000000000000000000000038FA29
:4D6CE20000000000000100000000000000800000000000000000000000000000000000000000000000000000000000000000000000000000000000000000000000000000000000000000000000000080FF65
:4D6D2F00000000000000000002000000000000000000000000000000000000000000000000000000000000000000000000000000000000000000000000000000000000000000000000000000000000B8FF5E
:4D6D7C00000000000000000000000000000000000000000000000000000000003000000000000000000000000000000000000000000000000000000000000000000000000000000000000000000000A8FCF6
:4D6DC900040000000000000000000000000000000000000000000200000000000000000000000000000000000000000000000000000000000000000000000000000000000000000000000000000000D8F9A6
:4D6E160000000000800000000000000000000000080001000000000000000080000000000000000000000000000000000000000000000000000000000000000000000000000000000000000000000088FEA0
:4D6E630080001000000020040000000000000004000001000004000000040000000000000000000000000000000000000000000000000000000000000000000000000000000000000000000000000028FFFA
:4D6EB0001000000000000000000000100400000000024000080000000000000000080000000000000000000000000000000000000000000000000000000000000000000000000000000000000000008AF89D
:4D6EFD0040000805020140040000004A69010008800012000208002010028000A02500000000000000000000000000000000000000000000000000000000000000000000000000000000000000000078FA73
:4D6F4A00009122008200041800404012D40821100802110010840100500008048050000000000000000000000000000000000000000000000000000000000000000000000000000000000000000000B8FD79
:4D6F9700000000000200000800000008040000100402010000040200100000000000000000000000000000000000000000000000000000000000000000000000000000000000000000000000000000A0FAD0
:4D6FE40080001000000200020080200000802000000000000800000000000000000000000000000000000000000000000000000000000000000000000000000000000000000000000000000000000010FC78
:4D70310000000000000000000000000000000000000000000000000000000000000000000000000000000000000000000000000000000000000000000000000000000000000000000000000000000098FF7B
:4D707E0000000000010000000000000000000000000000000000040000000000000000000000000000000000000000000000000000000000000000000000000000000000000000000000000000000098FA2E
:4D70CB0000000000000000000000000000020600000000004004000000000000200000000000000000000000000000000000000000000000000000000000000000000000000000000000000000000098FF75
:4D71180000000000000000000002000000000000008000000000000000000000000000000000000000000000000000000000000000000000000000000000000000000000000000000000000000000030FD7B
:4D71650000000000000000000000000000000000000000000000000000000000002000000000000000000000000000000000000000000000000000000000000000000000000000000000000000000098FD28
:4D71B20000000000000000000000000000000000000000000000000000000000000000000000000000000000000000000000000000000000000000000000000000000000000000000000000000000098FFF9
:4D71FF0000000000000000008000000000000000000000100000400000000020000000000000000000000000000000000000000000000000000000000000000000000000000000000000000000000060FAF9
:4D724C0000000000000000000000000000000000000000000000000000000000000000000000000000000000000000000000000000000000000000000000000000000000000000000000000000000098FF5E
:4D7299000000000000000000000000000020000000040100000000000000000000080000000000000000000000000000000000000000000000000000000000000000000000000000000000000000004AFE33
:4D72E600020240000000000000008000000000008000001000000000001000000000000000000000000000000000000000000000000000000000000000000000000000000000000000000000000000B8FB44
:4D73330000000000000000000000000000000000000000000000000000000000000000000000000000000000000000000000000000000000000000000000000000000000000000000000000000000098FF76
:4D73800000000000000000000000000000000100000000000000000000000000000000000000000000000000000000000000000000000000000000000000000000000000000000000000000000000088FF38
