:020000040000FA
:4D000000FFFF62FF3900FFFFFFFFFFFFFFFFFFFFFFFFFFFFFFFFFFFFFFFFFFFFFFFFFFFFFFFFFFFFFFFFFFFFFFFFFFFFFFFFFFFFFFFFFFFFFFFFFFFFFFFFFFFFFFFFFFFFFFFFFFFFFFFFFFFFFFFFFFFFFF62
:4D004D00000C8001324006C00018000360000C8001300006C80018000364000C8001000000000000000000000000000000000C8001300026C00018000364800C9001300006C00098000364000C800168FD69
:4D009A00001240025C800B200124800490001240024800097001248004B8001240020000000000000000000000000000000012400248001D2001248004B80017E0024800092001748004B800124002F8FC1E
:4D00E70000000000000000000000000000000000000000000000000000000000000000000000000000000000000000000000000000000000000000000000000000000000000000000000000000000098FF35
:4D01340000000000000000000000000000000000000000000000000000000000000000000000000000000000000000000000000000000000000000000000000000000000000000000000000000000098FFE7
:4D01810000000000048200000000000000000000000000000000000000080000000000000000000000000000000000000000000000000010000000000000000120000000000000C00000080000000058FF53
:4D01CE00000000001000030000000000000000000000000000000000002004000000000000000000000000400000000000000000000000800000000000000005880000000000000000002004000000A0FD9F
:4D021B00000000000000000000000000000000000000000000000000000000000000000000000000000000000000000000000004A1C6000000000000000D000000000000001A00002800002000020058FA68
:4D02680000000000000000000000000000000000000000000000000000000000000000000000000000000000000000000000000000000000000000000000000000000000000000004010000000000088FB76
:4D02B5000000000000000000000000000000000000000000000000000000000000000000000000000000000000000000000000208803000000000000000C0800000000000018100038000000010000D0F913
:4D0302000000000000000000000000000000000000000000000000000000000000000000000000000000000000000000000000108220010000000000008C000000000000001801004814008050000058FAD8
:4D034F000000000000000000000000000000000000000000000000000000000000000000000000000000000000000000000000800000040000000000000C020000000000001804000004000080000018F81F
:4D039C0000000000000000000000000000000000000000000000000000000000000000000000000000000000000000000000001C9007000000000000000F000000000000001E0000782000E000000078FE46
:4D03E9000000000000000000000000000000000000000000000000000000000000000000000000000000000000000000000000000804020000000000000C000000000000001800006000000040000038F8C5
:4D0436000000000000000000000000000000000000000000000000000000000000000000000000000000000000000000000000100006000000000000004C040000000000009808006010008010000018FF5C
:4D04830000000000000000000000000001000004000000000000000000000000040000000000000000000000000000000020000080061800000000000041220000800000005A442108004100000400D0FBAB
:4D04D000000000000000000000000000000000000000000000000000000000000000000000000000000000000000000000000000000000000000000000000000000000000000008200200004000000F0FD4C
:4D051D000000000000000000000000000C00003010000000000000000000000030100000000000000000000000000000008001008003C000000000000007848100000602000EC0810000000800301070FC2A
:4D056A000800000000000000000000002004000000000000000000000000000000000000000000000000000000000000000084008000014200000000000D000000000000000244222040840000000159FB23
:4D05B7000000000000000000000000004C02003009000000000000000000000030090000000000000000000000000000008049000020C024000000000040804900002601000010100001200000300903F9C4
:4D0604000000000000000000000000000300000C0000000000000000000000000C0000000000000000000000000000000060000080073400000000000007680000800100001EC00339400702000C0010FB09
:4D0651000400000000000000000000000C00003000000000000000000000000030000000000000000000000000000000008001000004C20000000000000C80010000060000100803400008000030001AFE67
:4D069E000000000000000000000000008C0200300A0000000000000000000000300A0000000000000000000000000000008051000006C02800000000000C8251000046010018008B2011840200300A90FE06
:4D06EB000000000000000000000000000100000400000000000000000000000004000000000000000000000000000000002000B4800218001A41130100012000008000D0040240002841250800040070FC1F
:4D0738000000000000000000000000000000000000000000000000000000000000000000000000000000000000000000000000002000000000080000000C0000000000004018000001000000000000A0FE49
:4D0785000000000000000000000000000C000030100000000000000000000000301000000000000000000000000000000080011C8007C0000EC00100000C888100000672001810002200040000301078FB5A
:4D07D2000800000000000000000000002004000000000000000000000000000000000000000000000000000000000000000084848810014242448800008C000000000010221801214082480400000142F97B
:4D081F000000000000000000000000008C02003008000000000000000000000030080000000000000000000000000000008041001224C02000092001000C825100004601041804204044880400300820F8C7
:4D086C000000000000000000000000000300000C0000000000000000000000000C0000000000000000000000000000000060003C800734001EC00300000F6000008001F0801EC00179000F00000C0060FEBB
:4D08B9000400000000000000000000000C02003008000000000000000000000030080000000000000000000000000000008041200000C22010000200000C8041000006814018000260400C00003008E9F828
:4D0906000000000000000000000000002C0000B0000000000000000000000000B0000000000000000000000000000000008005B01006C00258080B01004C8405000016C00098080162048C0800B00000FDAC
:4D09530000000000000000000000000021080004020000000000000000000000842000000000000000000000000000000020109480C610040A4110020041221000801058044A4403080025A8098540A8FED0
:4D09A00000000000000000000000000000000000100000000000000000000000000000000000000000000000000000000000800020000080000800000000008000000000400000000020000000000048FAB0
:4D09ED000000000000000000000000000700001C1000000000000000000000001C10000000000000000000000000000000E0003C800370001E000100000FE480008003F2001E0000000004E0001C1090F892
:4D0A3A000800000000000000000000002D0400340000000000000000000000003400000000000000000000000000000000A085048A40D14202058A000009A00100800610280205084140283050340139FE2B
:4D0A87000000000000000000000000008004000001000000000000000000000000200000000000000000000000000000000090201220004810090800004800080000008404101080001208100001015BFA39
:4D0AD4000000000000000000000000000700001C2000000000000000000000001C00000000000000000000000000000000E0003C800774001EC002010003E800018003F0801EC00358000FE0011C20F0FC4E
:4D0B21000400000000000000000000000C00003000000000000000000000000030000000000000000000000000000000008001000004C20000008000000C8001000006004000080320100C008130005AF833
:4D0B6E000000000000000000000000008C0200300A0000000000000000000000300A0000000000000000000000000000008051B01006C02858080A00008C8251000046C10018000B44010C9009300A50FC56
:4D0BBB000000000000000000000000002108000402000000000000000000000084200000000000000000000000000000002010B4802014041A41100A000D2010008010D804424000284141A0088540F0FCDB
:4D0C08000000000000000000000000000000000010000000000000000000000000000000000000000000000000000000000080002000008000080000000C008000000000400010000100000400000060FE28
:4D0C55000000000000000000000000000F00003C1000000000000000000000003C10000000000000000000000000000000E0011C0802F0000E048160200CE8810080077220080000220000E8413C10D0FCA8
:4D0CA200080000000000000000000000290400240000000000000000000000002400000000000000000000000000000000208504024491420201020000802001008004100810042240088820102401A2F98E
:4D0CEF000000000000000000000000008804002001000000000000000000000020200000000000000000000000000000000091000140824880000860100C020900000404880009884022200201210138FD23
:4D0D3C000000000000000000000000000300000C2000000000000000000000000C0000000000000000000000000000000060003CA00530001ED00219000F6000018001F00016C00278000BE0010C20B8FDB7
:4D0D89000400000000000000000000000C02003008000000000000000000000030080000000000000000000000000000008041200000C12010008060100C8041000006814000008160000402803008F9FFAE
:4D0DD6000000000000000000000000008C00003002000000000000000000000030020000000000000000000000000000008011B01014C00858081260014C8411000046C0001005026021488009300268FBFB
:4D0E2300000000000000000000000000810000040000000000000000000000000402000000000000000000000000000000201005A1C210100A411109040D201035C28050041A40092A4125A8090504D0FC55
:4D0E70000000000000000000000000000004000010000000000000000000000000100000000000000000000000000000000000000000000000080000200C000000000000401800000000000000000080F80D
:4D0EBD000000000000000000000000000700001C1000000000000000000000001C10000000000000000000000000000000E00020800771001EC483382000E8801C8803F220181001212004E8401C1010FCE5
:4D0F0A000800000000000000000000002D0400340000000000000000000000003400000000000000000000000000000000A085908810D04242400868008CA001848006100200010A4000482004340102FB76
:4D0F57000000000000000000000000008004000001000000000000000000000000200000000000000000000000000000000090800024004890002201020C020800010084881804424082880808000168FB38
:4D0FA4000000000000000000000000000700001C2000000000000000000000001C00000000000000000000000000000000E0001C900774001ED00338400FE0003DA003F0001EC00378000FE0011D20D8F91B
:4D0FF1000400000000000000000000000C02003008000000000000000000000030080000000000000000000000000000008041000000C22000000060100C8041201006014018000360200C00813008F9FF82
:4D103E000000000000000000000000002C0000B0000000000000000000000000B0000000000000000000000000000000008005100A06C00258080B61014C8405300016C00098080B62010C8109B00020FD59
:4D108B0000000000000000000000000081000004000000000000000000000000040000000000000000000000000000000020009480201400825013090001201005A18010841A40096A008522000600D8FEFE
:4D10D800000000000000000000000000000400000000000000000000000000000000000000000000000000000000000000000000200000000000000000000000000000000018000000000800000000B0FADD
:4D1125000000000000000000000000000F000000200000000000000000000000002000000000000000000000000000000000003D0802008010C08100400CE48110880782000010010000070241000008FAE7
:4D1172000800000000000000000000002904003002000000000000000000000030020000000000000000000000000000008011040004C1084844006004002001A0800440221801420012898004304172FB46
:4D11BF000000000000000000000000008804008000000000000000000000000080000000000000000000000000000000000004200140020240001000124C000900120404481804220184800080800048F951
:4D120C000000000000000000000000000300003C0800000000000000000000003C08000000000000000000000000000000E0413CA005F0200EC8037A000362002D800170001EC00378000FE4003C08D8FEBC
:4D1259000400000000000000000000000C02003000000000000000000000000030000000000000000000000000000000008001000000C00000000260000C8041000806010018000360400C0040300059FCCB
:4D12A6000000000000000000000000000C00003008000000000000000000000030080000000000000000000000000000008041B01014C12008050B61240C8201200106402898081362020C8208300898FCD5
:4D12F3000000000000000000000000000100000400000000000000000000000004020000000000000000000000000000002010958020141082501109040D200014C20010841A4003680025A808050448FFA9
:4D13400000000000000000000000000000000000100000000000000000000000001000000000000000000000000000000000000020000000000000002000000000000000001800000000000000000028FCC4
:4D138D000000000000000000000000000008003C1000000000000000000000003C10000000000000000000000000000000E0013C0802F00010C48378200C08003D08008420001000000004E4413C1000FAF1
:4D13DA000800000000000000000000008C00002400000000000000000000000024000000000000000000000000000000002085040124914208411048002C80110401464008580080004428200824015AF974
:4D1427000000000000000000000000002000002001000000000000000000000020200000000000000000000000000000000091A02040824840001240024C0004200110004898001001142800092001C0FF71
:4D1474000000000000000000000000000F02000C2000000000000000000000000C0000000000000000000000000000000060003C800530000EC8031A400FE4413CA00771001EC80378000FE8010D20F8FF59
:4D14C1000400000000000000000000000C00003008000000000000000000000030080000000000000000000000000000008041000000C02000040060100C8001001006002018000362000C0480300899FFA9
:4D150E000000000000000000000000000C02003001000000000000000000000030010000000000000000000000000000008009B010A4C00448000B61022C8841300006410258100360818C80093001C8FBF6
:4D155B0010000000000000000000000000000000000000000000000000000000000000000000000000000000000000000000000000000000000000000000000000000000000000000000000000000088FFAC
:4D15A80020000480001000024000080001200004800010000240000800012000040000000000000000000000000000000020000480001000024000080001200004800010000240000800012000040098FF1B
:4D15F50000000000000000000000000000000000000000000000000000000000000000000000000000000000000000000000000000000000000000000000000000000000000000000000000000000098FF12
:4D1642002C0004800010000240000800012000048000100002400008000120000400000000000000000000000000000000200004800010000240000800012000048000100002400008000120000400E3F830
:4D168F00040000000000000000000000000000000000000000000000000000000000000000000000000000000000000000000000000000000000000000000000000000000000000000000000000000C9FA47
:4D16DC0020000480001000024000080000200000800010000240000800012000000000000000000000000000000000000000000000000000000000000000000000000000000000000000000000000028F987
:4D1729000C0000000000000000000000000400001000000000000000000000000000000000000000000000000000000000008000100000400008000120000480001000004000080001200000000000CBFF93
:4D177600200004800010000240000800412000048100100002400008000120000422000000000000000000000000000000200804811012048240100802412008048140140482401008022124848410B8F9C2
:4D17C300000000000000000000000000000000400000000000000000000000000000000000000000000000000000000000000000000000000000000000000000000000000000000000010000000000C8FED2
:4D181000000000000000000000000000000000000000000000000000000000000000000000000000000000000000000000000000000000000000000000000000000000000000000A0000000000000010FD74
:4D185D0000000000000000000000000000000000000000000000000000000000000000000000000000000000000000000000000004000000000000000008000000000000001000028000100000000048F94F
:4D18AA0000000000000000000000000000000000000000000000000000000000000000000000000000000000000000000000000000001000000000000000000000800000000000000000000000040090FAD3
:4D18F70000000000000000000000000000000000000000000000000000000000000000000000000000000000000000000000000000000000000000000000000000000000000000000000000000000098FF0D
:4D19440000000000000000000000000000000000000000000000000000000000000000000000000000000000000000000000000000000000000000000000000000000000000000000000040000000098FBBF
:4D19910000000000000000000000000000000000000000000000000000000000000000000000000000000000000000000020000800000000000000001000080000200000000044000000000000000090F8DD
:4D19DE0000000000000000000000000000000000000000000000000000020000000000000000000000000000000000000000000908000000000000000004000000000000000800000000000040000080F9E4
:4D1A2B0000000000000000000000040000000000000000000000000000010000000000000000000000000000000000000040000D2000000000000000206905000010000000D28A000000000000010040FBC6
:4D1A7800000000000000000000000100000000000000000000000000000000000000000000000000000000000000000000000010080000002800000002000000100000000034800000000000000000C8FE54
:4D1AC50000000000000000000000000000000000000000000000000000000000000000000000000000000000000000000000000420000000080000000000000004000000000000000000000000000065FE41
:4D1B120000000000000000000000000000000000000000000000000000000000000000000000000000000000000000000000000000000000000000000000000000000000000800000000000000000018FF67
:4D1B5F0000000000000000000000000000000000000000000000000000000000000000000000000000000000000000000000000000000000000000000000000000000000000000000000000000000098FFA2
:4D1BAC0000000000000000000000000000000000000000000000000000000000000000000000000000000000000000000000000000000000000000000000000000000000000000000000000000000098FF55
:4D1BF90000000000000000000000000000000000000000000000000000000000000000000000000000000000000000000000020000000000000000000000000200000080000000000000000000012038FEC4
:4D1C460000000000000000000000000000000000000000000000000000000000000000000000000000000000000000000000000000000000000001000000000000000000000000000000000000000088FECA
:4D1C930000000000000000000000000000000000000000000000000000000000000000000000000000000000000000000000000000000000000000000000000000000000000000000000000000000098FF6D
:4D1CE00000000000000000000000000000000000000000000000000000000000000000000000000000000000000000000000000000000000000000000000000000000000000000000000000000000098FF20
:4D1D2D00000000000000000000000000000000000000000000000000000000000000000000000000000000000000000000000000000004000000000000000000000000000000000000100000000000C8FF8E
:4D1D7A0000000000000000000000000000010000040000000000000000000000000400000000000000000000000000000000200004800010000240000800022000048000100004000000000000000098FDC6
:4D1DC700000000000000000000000000000000000000000000000000000000000000000000000000000000000000000000000000000000000000000000000100000000000000024000480001000000A0F8AB
:4D1E1400000000000000000000000000000000000000000000000000000000000000000000000000000000000000000000000400000000000000000000000004000000000000000000000000000000D8FBA6
:4D1E6100000000000000000000000000000000000000000000000000000000008000000000000000000000000000000000000000001000000000000000000000000010000040000000000000040000C0FF91
:4D1EAE00000000000000000000000000000000400000000000000000000000000000000000000000000000000000000000000000000000000000000000000000000000000000000000000000000000D8FFD0
:4D1EFB0000000000000000000000000000000000000000000000000000000000000000000000000000000000000000000000000000000000000000000000000000000000000000000000000000000098FF03
:4D1F480000000000000000000000000000000000000000000000000000000000000000000000000000000000000000000000000000000000000000000000000000000000000000800000000000000090FF3D
:4D1F9500000000000000000000000000000000000000000000000000000000000000000000000000000000000000000000000000000000000000000000000000000000000000000020200000000000B8FD0A
:4D1FE20000000000000000000000000000000000000000000000000000000000000000000000000000000000000000000000000008040000000000000000010000000000000002400000080101200058FFE2
:4D202F00000000000000000000000000020000080000000000000000000000000008000000000000000000000000000000400008000020000480001000024000080000210004800010000000000000F0FC6B
:4D207C00000000000000000000000000000000000000000000000000000000000000000000000000000000000000000000000000000000000000000000000000000000000000000000D0000000000048FF00
:4D20C90000000000000000000000000000000000080000000000000000000000000000000000000000000000000000000000000008000100000480001000024000080000200000050D800000400008F0FFF2
:4D21160002000000000000000000000002000000000000000000000000000000000000000000000000000000000000000040000800002000048000000000000000000000000040004100000800000000FD06
:4D216300000000000000000000000000000000000000000000000000000000000000000000000000000000000000000000000000800000200000000000000000000000080000000000000040000840B8FF48
:4D21B00000000000000000000000000000000000000000000000000000000000000000000000000000000000000000000000000080000000000000000000000000000000000000000000000000000018FF4B
:4D21FD0000000000000000000000000010000000000000000000000000000000400000000000000000000000000000000000000000000000000000C00000000000000000000000000000000800000000FF7E
:4D224A0000000000000000000000000000000000000000000000000000000000000000000000000000000000000000000000000000000000000000000000000000000000000000010000120000000088FDAF
:4D22970000000000000000000000000000000000000000000000000000000000000000000000000000000000000000000000000510001000000000000000000004000000000010000000000000000088FA3F
:4D22E40000000000008000000000000000000010000000000000000000000000100000000000000000000000000000000080000010020100080080200004820000000040000004000000008000000078FC14
:4D233100000000000010000000000000000000040000000000000000000000000400000000000000000000000000000000208008B00024000200000A0041290008000010000018000000282000000058FE87
:4D237E00000000000080000000024000080000200000000000000000000C000020000000000000000000000000000000004003300C1400181000000000000A0500080410001014A04A00000005100618FADB
:4D23CB0000000000000000000000000000000000000000000000000000020000000000000000000000000000000000000000000808000000000000000000020000200000000004800000000000040078FD94
:4D24180000000000008000000002080004000020000000000000000000020000040000000000000000000000000000000020000820020020080000000000800000000200000200002000002000000878FD10
:4D246500000000000000000000000000000000000000000000000000000000000000000000000000000000000000000000000000000000000000000000000000000000000000000000000402000000B8FB71
:4D24B200000000000000000000000000000000000000000000000000000000000000000000000000000000000000000000000000000000000000000000000000000000000000000020010002000000A8FC16
:4D24FF0000000000000000000000000000000000000000000000000000000000000000000000000000000000000000000000000000000000200000000000000000000000000000000000080000000030FD3B
:4D254C0000000000000000000000000000000000000000000000000000000000000000000000000000000000000000000000000000000000000000000010000000200000002000049000000000000020FA44
:4D259900000000000000000000000000000100000000000000000000000000000004000000000000000000000000000000000000000000000000000000000000000000000000000000000110000000D8FE09
:4D25E60000000000000000000000000000000000000000000000000000000000000000000000000000000000000000000000000000000000000000000000000000000000000080000008000000000010FF11
:4D263300000000000000000000000000000000000000000000000000000000000000000000000000000000000000000000000000000000000000000000000000000000000000400000000000000000D8FF43
:4D26800000000000000000000000000008000008000000000000000000000000080000000000000000000000000000000000012000018000100002100002400008000120000400000000200000000080FB27
:4D26CD0000000000000000000000000000000000000000000000000000000000000000000000000000000000000000000000000000000000000000000000000000000000000000000000000000000098FF29
:4D271A00000000000000000000000000000000000000000000000000000000000000000000000000000000000000000000000000000000000000000000000000000000000200000000000000200000B8FD9B
:4D276700000000000000000000000000000000000000000000000000000000000000000000000000000000000000000000000000000000000000000000000000000000000000000000002000000000B8FD50
:4D27B40000000000000000000000000000000000000000000000000000000000000000000000000000000000000000000000000000000000000000000000000000000000000000000000000000000098FF41
:4D280100200004000010080241000000012000000000100000000000000100000400000000000000000000000000000000A03104A110000000000000000000003480205400825001080105A001340678FFF4
:4D284E0000000000000040000800000000000000000000000000000000000000000000000000000000000000000000000000000000000400000000000000000000000080200000820040080200010058FE2E
:4D289B00000001200070000E00000200000800010000C04000000000000C00000020000000000000000000000000000000E00010000200000000000000000000000004700010C001400007E0001C00B0FCF4
:4D28E8008011300200D0425A082300008C80110000000000000000000020040030020000000000000000000000000000002048A008240200000000000000000080104291220845A220148922480409C0F93F
:4D293500000002420000800002100000800010010000C02000000000004C0200000200000000000000000000000000000000900012100000000000000000000000084002084000200001400090001208F976
:4D298200E0013C000070000EC00301000FE401000000300000000000000300003C10000000000000000000000000000000E0012C8005020000000000000000003C8003F0400EC80339200FE4013C0000FB56
:4D29CF008001301000C00018000300000C8001000000C02000000000000C00003010000000000000000000000000000000000100000001000000000000000000300000C10000000300100C0001200078FFBC
:4D2A1C008089B00000C02498044300004C8491000000C00200000000008C020030000000000000000000000000000000008085200A0400000000000000000000301142C02008028320042C8285B010D0FA0C
:4D2A6900200805210010080241100200412808010000000002000000008100000421000000000000000000000000000000A0300080261400024000080001200000000010045A401000000DA001140604FAD2
:4D2AB60000000000000040000800000000000000000000000000000000000400000000000000000000000000000000000000000000000000000000000000000000000000400010000100000000010058FAE3
:4D2B03000001200000F0001E00020000080201000000000018080000000F00002000000000000000000000000000000000E001008003C04018080361200C840100000000800E0000020000E0003C00D8F8E5
:4D2B50008850100A0090425208A1000084805000000000000000000000290400100A00000000000000000000000000000020400080000100000000000000008400000040080204210000002440040873F92E
:4D2B9D000090001200808010020800008004900000000000980400000088040080000000000000000000000000000000000091000040C22458049360122C824900000000020010000400000220201251FAAF
:4D2BEA00E0001C0000300006C001010007E000000000000006000000000300001C10000000000000000000000000000000E001008007300006C000180003600000000070401EC00100000FE0013C0058F9A9
:4D2C37000440000800C0001800800000000240000000000018000000000C000000080000000000000000000000000000000000000004C00018000360000C8001000000800010000200000C00010000B3FC24
:4D2C84008010100200C0201804210000248010000000000018050000000C020010020000000000000000000000000000008085000016C2281805A360148C8251000000401058085100002C9085B010B8FD04
:4D2CD100200805210010080241100200412808010000000002000000000100000421000000000000000000000000000000200835C2221400024000080001200094000010044A4003080101A0003406A8F9E7
:4D2D1E00000000000000400008000000000000000000000000000000000000000000000000000000000000000000000000000000000000000000000000000000200800004000100000400004000100A0FAC9
:4D2D6B00804010080070000E00810000048240000000000018080000000C0000100800000000000000000000000000000080401C8007C04018080361200C84011C080000801E0000411000E8011C0078FE14
:4D2DB8000405A00000D0425A080A000008000500000000000000000000200400A000000000000000000000000000000000001184881001000000000000000084240200800842040020018420448408FAFEA3
:4D2E05000C9000120000480000080000800490000000000018040000000C020080000000000000000000000000000000000004001044C2201804A360140C8241000200000410108000012008210000A8FEF2
:4D2E520060012C000070000EC80201000B6001000000000006000000000300002C1000000000000000000000000000000060813C8007300006C00018000360003C1000B0201EC003382007E0013C1028FBEB
:4D2E9F000840000800C0001800800000000240000000000018040000000C020000080000000000000000000000000000000040201000C02018048360100C8241300000402000000300100800002000F9FEDA
:4D2EEC000009200100C0225804020000480009000000000058000000002C000020000000000000000000000000000000000005300016C20218000B60010C8005300A00800858080B2402448885B010C8F9F1
:4D2F3900A0013400001008024003000025A001000000100042100000000100003400000000000000000000000000000000200815C22614824250080A8141200804811650025A4010680001A001140688F937
:4D2F8600000001200000400000000200000800010000004000000000000004000020000000000000000000000000000000000000000000000000000000000800011000048000100001400004000100B0FF8C
:4D2FD300E0001C0000F00018C001000004E00000000070400E080000000700001C0000000000000000000000000000000080003D800370400EC801392007E40000A00340800E00003A0000E8003C0058F8F5
:4D3020002850040A0090424048A00000282250000000D0001A000000002D0400040A0000000000000000000000000000000001048A40D1001A400368000DA08510824081020205220814882050040AB2FB3C
:4D306D0000800000008048980420010008000402000000400000000000800400002000000000000000000000000000000000042010800010000808042020101080108080100009900024400204220098FF8B
:4D30BA00E0013C1000300006C00300000FE20100000070000E080000000700003C0000000000000000000000000000000060813C800770000EC001380007E0801C8007F0001EC00278000BE0013C10F8FD4E
:4D3107000481201000C00018000200000C0081000000C00018000000000C000020000000000000000000000000000000000040001004C00018000360000C8001201004C2401000814000040201000071FFC1
:4D3154008001300000C02858040B01000C8201000000C02818050000008C0200B0100000000000000000000000000000000001300016C2281805A360148C8251100206C00258080A6021288085B01018FAC3
:4D31A100A000140000100802410100000DA000040000100042100008000100001400000000000000000000000000000000A03134C22214820240080A8101200804811250025A4009280025A0000421C0FFC7
:4D31EE0000000120000040000800020000080001000000400000000000000400002000000000000000000000000000000000000000000000000000000000000001100004800010000240000800010048FF85
:4D323B00E0413C080070001EC083000007E241300000F0401E080060200F00003C08000000000000000000000000000000E0401C8807F14000D003792000E80100A00741000E0401781004E441100090F8F8
:4D3288002810040200D04252482000008120108010009000120000000029040004020000000000000000000000000000002010048240900018410248008C208520824080800201420804482010A0088AFDA5
:4D32D5000081200000000211002201000001053208008040100000601088040020200000000000000000000000000000000020804084801040000A442020001180088480440000124424080805820058FA83
:4D332200E0013C1000700006C80300000FE0010C0000300006080018000300003C00000000000000000000000000000000E0013C800730001EC40018000F62802C8007F0001EC80378000FE0012C10B0FAC6
:4D336F000480001000C0201804000000080480300800C02018040060100C020000000000000000000000000000000000000001201000C02018008360100C8041100800C20010000300000C0400000011F854
:4D33BC008001300000C00818010B01000C8001300000C00818010060008C0000B0100000000000000000000000000000008085300016C20818042360040C8211200006C00859080362218C8085200A70FA8B
:4D340900A0113522001000024023020005A011000000100002010000000100003402000000000000000000000000000000A03004A1101008425020080841202094801610004A40096800252008052128FD4A
:4D34560000000000000000000000000000080001000000400008000000000400002000000000000000000000000000000000000000000440000000010000080000200004000010000240000800000010FFDA
:4D34A300E0401C0800C00018C08100000FE24000000070400E080000000700001C08000000000000000000000000000000E04110080270401EC80139200FE40010800301401E040139100400011000B0FB3F
:4D34F000280484000000424048080000212004000000D0001A000000002D040084000000000000000000000000000000002004200044D100124003680009A08520A110C004420022080188904020095BF90E
:4D353D000080000000C0041801200100080104020000001000000000002010000020000000000000000000000000000000002100121000101008080420281010201210080011000A0200080104800059FF29
:4D358A00E0013C1000302006C40300000FE00100000070000E080000000700003C00000000000000000000000000000000E0012C8005720006C001380003E0803C8007F0001EC80378200FE0802C1070FD3F
:4D35D7000481201000C0001800020000000481000000C02018040000000C020020000000000000000000000000000000000000000800C12018048360100C8241302004C22000000341000C0000000013FB0E
:4D3624008001300000C02298040B01000C8001000000C00258000000002C0000B0100000000000000000000000000000008085200144C00258000B60012C8005300006C00258080B60210C88442008A8FA64
:4D367100A004940000100002412102008DA804040000100002000008000100001402000000000000000000000000000000A03034C22214000241200808012100948020D4008250002800012008350618FBE6
:4D36BE00000001200000000008000000000000011000000000000000200000000020000000000000000000000000000000000000000000000008000100000000002000000000000000400000000000E8FEF6
:4D370B008000100000C0001EC08300000782001C0000C04000100038200C00003C08000000000000000000000000000000E0411C880701800EC8037920070400110004010010040079100000011C0848FC7D
:4D3758000845A0080000425248000000010045B410000000180100680020040004000000000000000000000000000000002000048000C0081A400248000D8011204112002408011308002C8450040012FD24
:4D37A5000001200000C0085020220100000101001200C02440000000408C000020200000000000000000000000000000000005020014080200080A442020100420064002224000004042001004804048F8E8
:4D37F200E0413C0800302006C00300000FE0411C000030001E040038000302003C00000000000000000000000000000000E0013C9007F0200EC000180007E0413C8003F0000EC80379000FE0803C0000FA7D
:4D383F008401300000C0001804000000088401300800C00018000060100C000000000000000000000000000000000000000000201000C00018048360100C8201300000C18000048300000C02402000C1FFDE
:4D388C008041300800C02418000B01000C8041300000C02818040060002C0800B0100000000000000000000000000000008085300016C22018000360000C8041302222C00048000360210C8010B01020FAAE
:4D38D900A0101522001000024109000085A810040000100002010008000100009400000000000000000000000000000000200815C21010080241000800012120348012D00082500328000D2008150650FE89
:4D392600000000000000000008000200000000011000004000080000200004000020000000000000000000000000000000000000000004400008000000000000000000040000000000400000000000B0FF6E
:4D397300E0413C0800C0000E000100000FE2413C0000F0401E080078200F0000100000000000000000000000000000000080003C0802F0401E080002400FE401008007010010000078100000013C08B0FEF3
:4D39C000280804010000425A088A0000412008A4100090001200004800290400A008000000000000000000000000000000004904010491001200236004092085808820000209049008024082480401B2FAC5
:4D3A0D000081200000C044000902000008010522120080101000004040281000200000000000000000000000000000000000042000108010100808000128101100411408284000A04000800204202050FD1C
:4D3A5A00E0013C100030000EC08300000FE0010C0000300006080018000300003C0800000000000000000000000000000060813C9005320006C08378100360803C8007F0000EC80378200FE0803C00F0FF82
:4D3AA7000480001000C0201804030000000480300800C02018040060100C020030000000000000000000000000000000000000001000C02018040360000C8241302000C20000000302000C08000000B1FBC4
:4D3AF4008001300000C00898008300000C8001300100C00498000060024C000030080000000000000000000000000000000041300014C10498008360104C8009300106C04448040360210C8020B01028FDAB
:4D3B410000000000000000000000000000000000000000000000000000000000000000000000000000000000000000000000000000000000000000000000000000000000000000000000000000000098FFA0
:4D3B8E0020000480001000024000080001200004800010000240000800012000040000000000000000000000000000000020000480001000024000080001200004800010000240000800012000040098FF0F
:4D3BDB0000000000000000000000000000000000000000000000000000000000000000000000000000000000000000000000000000000000000000000000000000000000000000000000000000000098FF06
:4D3C2800280004800010000240000800012000048000100002400008000120000400000000000000000000000000000000200004800010000240000800012000048000100002400008000120000400B2FD54
:4D3C750000000000000000000000000000000000000000000000000000000000000000000000000000000000000000000000000000000000000000000000000000000000000000000000000000000098FF6B
:4D3CC200000000800000000000000800000000008000000000400000000020000000000000000000000000000000000000000000000000000000000000000000000000000000000000000000000000D8FD78
:4D3D0F0004000000000000000800000000000000100000000008000000000400000000000000000000000000000000000000800000000240000000010000048000100002000000000020000080000061FDE8
:4D3D5C00201005A20010888240200A00812810058100108882400008444120000422000000000000000000000000000000200804A2201004025110084441200804812010880251200A02812808042220FC8A
:4D3DA90040000000000001200000000000008000000020000000000000100000001000000000000000000000000000000000000800000000040000100000000080000000000000000000000000000040F9D7
:4D3DF600000000000020000000000000000000000000000000000000000000000000000000000000000000000000000000000000000000000000000000000000000000000204000810002000000800F8FC26
:4D3E430000000000000000000000000000000000000000000000000000000000000000000000000000000000000000000000000000000000000000000000000040000000010000040000080000000050FA9B
:4D3E900000000000000000000000000000000000000000000000000000000000000000000000000000000000000000000000000000000000000000080001200000000000000000000000000000000064F860
:4D3EDD0000000000000000000000000000000000000000000000000000000000000000000000000000000000000000000000000000000000000000000000000000000000000000000000000000000098FF01
:4D3F2A0000000000000000000000000000000000000000000000000000000000000000000000000000000000000000000000000000000000000000000000000000000000000000050000000000000098FAB3
:4D3F770000000000000000000000000000000000000000000000000000000000000000000000000000000000000000000080000000000000000000000000080000000000000000000000000000000090FFE6
:4D3FC40000000000000000000000000000000000800000200000002000020200000000000000000000000000000000000020000908000100000000000002004000200000000004010010000000000068FCDF
:4D40110000000000000000000000000000000000800000800000000800010800000000000000000000000000000000000060000520000400000000000001042801200000000050010040000000000078FB76
:4D405E00000000000000001000C0C000000000000000000000000200010000000000000000000000000000000000000000000100080000000000000000000008100000400110000000AC800100000038FCAF
:4D40AB00000000000000000000400000000000000000000000000000000000000000000000000000000000000000000000000000200000000000000000000000040000400000000000000000000000F8FB31
:4D40F80000000000000000080040200000000000000000000000020000000000000000000000000000000000000000000080000000000000000000000000000000000000001000000010000200000084FAF1
:4D41450000000000000000000000000000000000000000000000000000000000000000000000000000000000000000000000000000000000000000000000000000000020000080000000000000000038FF56
:4D41920000000000000000000000000000000000000000000000000000000000000000000000000000000000000000000000000000000000000000000000000000100000000000000000080000000000FECA
:4D41DF0000000000000000000000000000000000000000000000000000000000000000000000000000000000000000000000000000000000000000000000000000000000000000000000000000000098FFFC
:4D422C0000048000000000000008000020000000000000000000000000000000000000000000000000000000000000000000000000000000000000000000000000000000000000000000000000000038FB66
:4D427900000000000000000000020000000000000000000000000000000000000000000000000000000000000000000000000000000000000000000000000000000000000000000000000000000000B8FD41
:4D42C60000800010000000000000010000048000000000000000000000000000001000000000000000000000000000000000000000000000000000000000000000000000000000000000040000000008FF7B
:4D43130000000000000000000000000010000000000000000000000000000000000000000000000000000000000000000000000000000000000000000000000000000000000000000100000000000098FFB5
:4D43600000200004000000000040000000012000000000000002000000000000000400000000000000000000000000000000200004000110000240000800012000008080000002000010000020000400FFB0
:4D43AD0000000000000000000000000000000000000000000000000000000000000000000000000000000000000000000000000000000000000000000000000000000000100000000000000000000088FE2D
:4D43FA0000000000000000000000000000000000000000000000000000000000000000000000000000000000000000000000000000000000000000000000000000000000000100000000000000000088FFEE
:4D44470000000000000002000000000000000000000000000000000001000000800000000000000000000000000000000000000000000000000000000000000000200000004000010000000000800088FB41
:4D449400004000080000000000800000000244400000000100000080001000000008000000000000000000000000000000000000000000000000000000000000000800002000008000000002000000C8FF83
:4D44E10000001000000000012000000000000002000000000000000000001000000000000000000000000000000000000000000240000800000000040000100000000008000000000000100000024050FC47
:4D452E0000004000000000200000000000000008000000002000000000000000000000000000000000000000000000000000004000000000000000000000000000000000002000008000000000400078F927
:4D457B0000000000000000000000000000000000000000000000000000000000000000000000000000000000000000000000000000000000000000000000000000000000000000000000000000000098FF5C
:4D45C800000000000000000000000000000000000000000000000000000000000000000000000000000000000000000000000000000000000000000000000000000400011000044000000005000000C8FB85
:4D4615000040000800002004008000000002410800000020040000001002000000080000000000000000000000000000004000000801200000840000100240020C0001002001048010000042000008D8FAC4
:4D46620000000000000000020000000001000000000010000000000000000000000000000000000000000000000000000020000080001000000000000000000020800000000080000000002000000090FF79
:4D46AF0000000000000000000000000000000000000000000000000000000000000000000000000000000000000000000000000000000000000000000000000000000000000200000400001800000078FE2A
:4D46FC0000000000000000048000000000000000000000000000000000020200000000000000000000000000000000000040000000010000000000000000000040000000010040000408004000000038FDA6
:4D47490000000000000000000000000000000000000000000000000000000000000000000000000000000000000000000020000000000000000000008000024000000000000000000000000000040030FD10
:4D47960000000000000000000000000000000000000000000000000000000000000000000000000000000000000000000000000000080000000000000000000008000000000000000000000000000018FFAF
:4D47E300000000000000000040000000000000000000000020000000000000000000000000000000000000000000000000000000000000012000040000000000000000008000000000000001000000F0FE95
:4D483000000200200000000000000000000000000000000000000000000000000000000000000000000000000000000000000000000000000000000000000000000000000000000000000000000000B8FD64
:4D487D00080000000040000000000000000000000000000000000000000000000000000000000000000000000000000000000005080000000004000000000200040002000000000000000100000000E8FCA8
:4D48CA0080001000000000080000000000800000080200800000000010040000000000000000000000000000000000000000000010020000004000000000040000000000000800002000008040100060FB42
:4D49170020000400002000020000000000200000A000008000000000400100000000000000000000000000000000000000008008B00040000048000000000C0008000100000200000800022000050030FF57
:4D496400000000000080101082000000000001000014000000006000000800000400000000000000000000000000000000203120049040020000024000000200200600E00002048040000020280404C8FAFA
:4D49B10000000000000000000000000000000000000000000000000000000000000000000000000000000000000000000000000000008000000000000000040000000010000008000100000000000018FB09
:4D49FE00000000000040200804000000004000008000000000008000000200000000000000000000000000000000000000004108200001000000012000000000080800400000000010000000400008F0FAA1
:4D4A4B00000000000000000000000000000000000000000000000000000000000000000000000000000000000000000000000000000000000000000000000000100000004000000002002020000000C8FBC9
:4D4A9800000000000000000000000000000000000000000000000000000000000000000000000000000000000000000000000000000000000000000000000000000000400000000000000110000000D8FFA9
:4D4AE50000000000000000000000000000000000000000000000000000000000000000000000000000000000000000000000000000000000000000000000000020000090000000020000000000000028FDAD
:4D4B320000000000000000000000000000000000000000000000000000000000080000000000000000000000000000000000000020800000000000000000000000400000000000000000100000000068FADC
:4D4B7F0000000100000000000000000000000000000000000002000000000000000000000000000000000000000000000000000000000010000240000000000000000000000040000000000000000098FDBF
:4D4BCC0000000000004000000000000000000000000000000000000000000000000000000000000000000000000000000000040000000000000000000000000000000010000000000000000000000088FFC1
:4D4C190000000000000000000000000000000000000000000000000000000000000000000000000000000000000000000000000000000000000000000000000000000000000000000000000000000098FFB7
:4D4C6600400008000080001000020000024000200000200004000010000800002000000000000000000000000000000000000108000420000480001000020001900001000010000040000000012000F0FFB4
:4D4CB30000000000000000000000000000000000000000000000000000000000000000000000000000000000000000000000000000000000000000000000000000080000000000400000000000000050FB21
:4D4D000000000000000000000000000000000000000000000000000000000000000000000000000000000000000000000000000000000000000000000000000000000000000000000020000080000038FF8F
:4D4D4D00000000000000000000000000000000000000000000000000000000004000000000000000000000000000000000000000000000000000000000000000000000400000000000000204000000D8F9C2
:4D4D9A0000000000000000000000000010000000000000000000000000000000000000000000000000000000000000000000000000000000000000000000000000000000000000000000000000000088FF35
:4D4DE7000000000000000000000000000000000000000000000000000000000000000000000000000000000000000000000000000000000002000000000D0000000000000000000000000000000000C0F8B8
:4D4E34000000000000000000000000000000000000000000000000000000000000000000000000000000000000000000000000000000000000000000000C0000000000000000000000000000000000D0FB5A
:4D4E81000000000000000000000000000000000000000000000000000000000000000000000000000000000000000000000000000000000000000000000F0000000000000000000000000000000000E0F8FD
:4D4ECE000000000000000000000000000000000000000000000000000000000000000000000000000000000000000000000000000000000098200000000D000000000000000000000000000000000050F989
:4D4F1B000000000000000000000000000000000000000000000000000000000000000000000000000000000000000000000000000000000000020000000C0000000000000000000000000000000000F0FB50
:4D4F6800000000000000000000000000000000000000000000000000000000000000000000000000000000000000000000000000000000001E000000000F000000000000000000000000000000000078FF58
:4D4FB5000000000000000000000000000000000000000000000000000000000000000000000000000000000000000000000000000000000018000000000C000000000000000000000000000000000048FA49
:4D5002000000000000000000000000000000000000000000000000000000000000000000000000000000000000000000000000000000000018020000000C000000000000000000000000000000000068FAD9
:4D504F0000000000000000000000000000000000000000000000000000000000000000000000000000000000000000000000000000000000022000000000000000000000000000000000000000000098FF5B
:4D509C0000000000000000000000000000000000000000000000000000000000000000000000000000000000000000000000000000000000000000000000000000000000000000000000000000000098FF30
:4D50E90000000000000000000000000000000000000000000000000000000000000000000000000000000000000000000000000000000000100000000000000000000000000000000000000000000088FEE4
:4D5136000800000000000000000000000000000000000000000000000000000000000000000000000000000000000000000000000000000008050000000000000000000000000000000000000000006AFDB0
:4D51830000000000000000000000000000000000000000000000000000000000000000000000000000000000000000000000000000000000000800000000000000000000000000000000000000000018FFC0
:4D51D000000000000000000000000000000000000000000000000000000000000000000000000000000000000000000000000000000000000E0000000000000000000000000000000000000000000010F97B
:4D521D0004000000000000000000000000000000000000000000000000000000000000000000000000000000000000000000000000000000000400000000000000000000000000000000000000000089FAB9
:4D526A0000000000000000000000000000000000000000000000000000000000000000000000000000000000000000000000000000000000080100000000000000000000000000000000000000000000FFEF
:4D52B700000000000000000000000000000000008006000000000000000000000000000000000000000000000000000000000000000000000220000000000000000000000000000000000000000000F0FF13
:4D530400000000000000000000000000000000000006000000000000000000000000000000000000000000000000000000000000000000000000000000000000000000000000000000000000000000F8FF5F
:4D53510000000000000000000000000000000000800700000000000000000000000000000000000000000000000000000000000000000000080400000000000000000000000000000000000000000028FF55
:4D539E000800000000000000000000000000000080060000000000000000000000000000000000000000000000000000000000000000000050000000000000000000000000000000000000000000008AF862
:4D53EB0000000000000000000000000000000000000600000000000000000000000000000000000000000000000000000000000000000000000800000000000000000000000000000000000000000078FFF0
:4D543800000000000000000000000000000000008007000000000000000000000000000000000000000000000000000000000000000000001600000000000000000000000000000000000000000000F0F8A2
:4D548500040000000000000000000000000000000006000000000000000000000000000000000000000000000000000000000000000000000004000000000000000000000000000000000000000000E9FAE9
:4D54D200000000000000000000000000000000000006000000000000000000000000000000000000000000000000000000000000000000001000000000000000000000000000000000000000000000E8FE91
:4D551F00000000000000000000000000000000000000000000000000000000000000000000000000000000000000000000000000000000005A0000000000000000000000000000000000000000000040F8AD
:4D556C0000000000000000000000000000000000000000000000000000000000000000000000000000000000000000000000000000000000001000000000000000000000000000000000000000000098FE4C
:4D55B900000000000000000000000000000000000000000000000000000000000000000000000000000000000000000000000000000000000E0000000000000000000000000000000000000000000010F98E
:4D560600080000000000000000000000000000000000000000000000000000000000000000000000000000000000000000000000000000000205000000000000000000000000000000000000000000E2FF67
:4D56530000000000000000000000000000000000000000000000000000000000000000000000000000000000000000000000000000000000000100000000000000000000000000000000000000000088FF82
:4D56A000000000000000000000000000000000000000000000000000000000000000000000000000000000000000000000000000000000001E0800000000000000000000000000000000000000000080F81F
:4D56ED0004000000000000000000000000000000000000000000000000000000000000000000000000000000000000000000000000000000100800000000000000000000000000000000000000000059FB00
:4D573A0000000000000000000000000000000000000000000000000000000000000000000000000000000000000000000000000000000000980000000000000000000000000000000000000000000008FE84
:4D578700000000000000000000000000000000000000000000000000000000000000000000000000000000000000000000000000000000004A0000000000000000000000000000000000000000000050F942
:4D57D40000000000000000000000000000000000000000000000000000000000000000000000000000000000000000000000000000000000001000000000000000000000000000000000000000000098FEE2
:4D582100000000000000000000000000000000000000000000000000000000000000000000000000000000000000000000000000000000001E0400000000000000000000000000000000000000000040F8E0
:4D586E00080000000000000000000000000000000000000000000000000000000000000000000000000000000000000000000000000000000201000000000000000000000000000000000000000000A2FF41
:4D58BB0000000000000000000000000000000000000000000000000000000000000000000000000000000000000000000000000000000000100100000000000000000000000000000000000000000098FEF9
:4D590800000000000000000000000000000000000000000000000000000000000000000000000000000000000000000000000000000000001E0800000000000000000000000000000000000000000080F8B4
:4D59550004000000000000000000000000000000000000000000000000000000000000000000000000000000000000000000000000000000000800000000000000000000000000000000000000000049FAB6
:4D59A20000000000000000000000000000000000000000000000000000000000000000000000000000000000000000000000000000000000980000000000000000000000000000000000000000000008FE1A
:4D59EF00000000000000000000000000000000000000000000000000000000000000000000000000000000000000000000209000000000009A1000000000000000000010420000000000000000000060FA65
:4D5A3C0000000000000000000000000000000000000000000000000000000000000000000000000000000000000000000000000000000000000000000000000000000000000000000000000000000098FF86
:4D5A8900000000000000000000000000000000000000000000000000000000000000000000000000000000000000000000E08000000000000E0400000000000000000070400000000000000000000088FD29
:4D5AD600080000000000000000000000000000000000000000000000000000000000000000000000000000000000000000A00900000000004200000000000000000000D004000000000000000000000AFEB4
:4D5B230000000000000000000000000000000000000000000000000000000000000000000000000000000000000000000000300000000000000100000000000000000000180000000000000000000020FDCF
:4D5B7000000000000000000000000000000000000000000000000000000000000000000000000000000000000000000000E00000000000001E0800000000000000000070000000000000000000000010F86A
:4D5BBD00040000000000000000000000000000000000000000000000000000000000000000000000000000000000000000804100000000001008000000000000000000C0200000000000000000000079FC69
:4D5C0A00000000000000000000000000000000000000000000000000000000000000000000000000000000000000000000800500000000009800000000000000000000C0020000000000000000000048F92D
:4D5C5700000000000000000000000000000000000000000000000000000000000000000000000000000000000000000000209000000000008A1000000000000000000010420000000000000000000070FBF9
:4D5CA40000000000000000000000000000000000000000000000000000000000000000000000000000000000000000000000000000000000000000000000000000000000000000000000000000000098FF1C
:4D5CF100000000000000000000000000000000000000000000000000000000000000000000000000000000000000000000E08100000000001E04000000000000000000F0400000000000000000000018FD9E
:4D5D3E000800000000000000000000000000000000000000000000000000000000000000000000000000000000000000002009000000000002000000000000000000009004000000000000000000008AFACD
:4D5D8B00000000000000000000000000000000000000000000000000000000000000000000000000000000000000000000003100000000001001000000000000000000801800000000000000000000B0FD44
:4D5DD800000000000000000000000000000000000000000000000000000000000000000000000000000000000000000000600000000000001E08000000000000000000300000000000000000000000D0F800
:4D5E2500040000000000000000000000000000000000000000000000000000000000000000000000000000000000000000804100000000000008000000000000000000C0200000000000000000000069FD1D
:4D5E7200000000000000000000000000000000000000000000000000000000000000000000000000000000000000000000800100000000009800000000000000000000C0000000000000000000000048FFC3
:4D5EBF00000000000000000000000000000000000000000000000000000000000000000000000000000000000000000000200000000000004A1000000000000000000010000000000000000000000060F8B4
:4D5F0C0000000000000000000000000000000000000000000000000000000000000000000000000000000000000000000000000000000000000000000000000000000000000000000000000000000098FFB1
:4D5F5900000000000000000000000000000000000000000000000000000000000000000000000000000000000000000000808100000000000800000000000000000000C0400000000000000000000018FAE0
:4D5FA6000800000000000000000000000000000000000000000000000000000000000000000000000000000000000000000008000000000050040000000000000000000004000000000000000000002AFC20
:4D5FF300000000000000000000000000000000000000000000000000000000000000000000000000000000000000000000805100000000001000000000000000000000C0280000000000000000000030F870
:4D604000000000000000000000000000000000000000000000000000000000000000000000000000000000000000000000600000000000001E0400000000000000000030000000000000000000000010F859
:4D608D00040000000000000000000000000000000000000000000000000000000000000000000000000000000000000000804100000000001800000000000000000000C0200000000000000000000071FC9C
:4D60DA00000000000000000000000000000000000000000000000000000000000000000000000000000000000000000000800500000000001804000000000000000000C0020000000000000000000000F91D
:4D61270000000000000000000000000000000000000000000000000000000000000000000000000000000000000000000000000000000000000000000000000000000000000000000000000000000098FF94
:4D61740020000480001000024000080001200004800010000240000800012000040000000000000000000000000000000020000480001000024000080001200004800010000240000800012000040098FF03
:4D61C10000000000000000000000000000000000000000000000000000000000000000000000000000000000000000000000000000000000000000000000000000000000000000000000000000000098FFFA
:4D620E002C0004800010000240000800012000048000100002400008000120000400000000000000000000000000000000200004800010000240000800012000048000100002400008000120000400E3F818
:4D625B00040000000000000000000000000000000000000000000000000000000000000000000000000000000000000000000000000000000000000000000000000000000000000000000000000000C9FA2F
:4D62A800200004800010000240000800012000040000100002400008000120000400000000000000000000000000000000000004800010000040000800002000048000000002400008000120000400B0FC6C
:4D62F5000C0000000000000000000000000000000000000000000000000000000000000000000000000000000000000000000000000000000000000000000000000000000000000000000000000000E3F875
:4D63420020000480001000024000080001200004800012000240000800012000040000000000000000000000000000000020840480001000424800080001240004800010420240000800012000040030FF87
:4D638F0000000000000000000000000000000000000000000000000000000000000000000000000000000000000000000000000000000000000000000000000000000000000000000000000000000098FF2A
:4D63DC0000000000000000000000000000000000000000000000000000000000000000000000000000000000000000000000000000000000000000000000000000000000000000000000000000000098FFDD
:4D64290000000000000000000000000000000000000000000000000000000000000000000000000000000000000000000000000000000000000000000000000000000000000000000000000000000098FF8F
:4D64760000000000000000000000000000000000000000000000000000000000000000000000000000000000000000000000000000000000000000000000000000000000000000000000000000000098FF42
:4D64C30000000000000000000000000000000000000000000000000000000000000000000000000000000000000000000000000000000000000000000000000000000000000000000000000000000098FFF5
:4D65100000000000000000000000000000000000000000000000000000000000000000000000000000000000000000000000000000000000000000000000000000000000000000000000000000000098FFA7
:4D655D0000000000000000000000000000000000000000000000000000000000000000000000000000000000000000000020000800000000000000000000000000000000000000000000000000000038FF92
:4D65AA0000000000000000000000000000000000000000000000000000000000000000000000000000000000000000000000000000000000000000000000000000000000000000000000000000000098FF0D
:4D65F70000000000000000000000000000000000001400000000000000000000000000000000000000000000000000000040000800000000000000000040010000000000000000000000000000000058FF63
:4D66440000000000000000000000000000000000000000000000000000000000000000000000000000000000000000000000000000000000000000000000000010000000000000000000000000000088FF72
:4D669100000000000000000000000000000000000000000000000000000000000000000000000000000000000000000000000000000000000000000000000000040000000000000000000000000000D8FBE5
:4D66DE0000000000000000000000000000000000000000000000000000000000000000000000000000000000000000000000000000000000000000000000000000000000000000000000000000000098FFD8
:4D672B0000000000000000000000000000000000000000000000000000000000000000000000000000000000000000000000000000000000000000000000000000000000000000000000000000000098FF8A
:4D67780000000000000000000000000000000000000000000000000000000000000000000000000000000000000000000000000000000000000000000000000000000000000000000000000000000098FF3D
:4D67C50000000000000000000000000000000000000000000000000000000000000000000000000000000000000000000000000000000000001000000000000000000000000000000000000000000098FEE1
:4D68120000000000000000000000000000000000000000000000000000000000000000000000000000000000000000000000000000000000000000000000000000000000000000000000000000000098FFA2
:4D685F0000000000000000000000000000000000000000000000000000000000000000000000000000000000000000000000000000000000000000000000000000000000000000000000000000000098FF55
:4D68AC0000000000000000000000000000000000000000000000000000000000000000000000000000000000000000000000000000000000000000000000000000000000000000000000000000000098FF08
:4D68F90000000000000000000000000000000000000000000000000000000000000000000000000000000000000000000000000000000000000000000000000000000000000000000000000000000098FFBB
:4D69460000000000000000000000000000000000000000000000000000000000000000000000000000000000000000000000000000000000000000000000000000000000000000000000000000000098FF6D
:4D699300000000000000000000000000000000000000000000000000000000000000000000000000000000000000000000000000000000000002000000000000000000000000000000000000000000B8FFFE
:4D69E00000000000000000000000000000000000000000000000000000000000000000000000000000000000000000000000000000000000000000000000000000000000000000000000000000000098FFD3
:4D6A2D0000000000000000000000000000000000000000000000000000000000000000000000000000000000000000000000000000000000000000000000000000000000000000000000000000000098FF85
:4D6A7A0000000000000000000000000000000000000000000000000000000000000000000000000000000000000000000000000000000000000000000000000000000000000000000000000000000098FF38
:4D6AC70000000000000000000000000000000000000000000000000000000000000000000000000000000000000000000000000000000000000000000000000000000000000000000000000000000098FFEB
:4D6B140000000000000000000000000000000000000000000000000000000000000000000000000000000000000000000000000000000000000000000000000000000000000000000000000000000098FF9D
:4D6B6100000000000000000000000000000000000000000000000000000000000000000000000000000000000000000000000000000000000000000000000000000000400000000000000000000000D8FFD0
:4D6BAE0000000000000000000000000000000000000000000000000000000000000000000000000000000000000000000000010000000000100400000000000000000080000000000000000000000048FFBE
:4D6BFB0000000000000000000000000000000000000000000000000000000000000000000000000000000000000000000000000000000000000000000000000000000000000000000000000000000098FFB6
:4D6C480000000000000000000000000000000000000000000000000000000000000000000000000000000000000000000000000000000000020000000000000000000000000000000000000000008010FD70
:4D6C950000000000000000000000000000000000000000000000000000000000000000000000000000000000000000000000000000000000020000000000000000000000000000000000000000000098FD1B
:4D6CE20000000000000000000000000000000000000000000000000000000000000000000000000000000000000000000000000000000000000000000000000000000000000000000000000000000098FFCE
:4D6D2F00000000000000000000000000000000000000000000000000000000000000000000000000000000000000000000400000000000000400000000000000000000200000000000000000000000F8FBC0
:4D6D7C00000000000000000000000000000000000000000000000000000000000000000000000000000000000000000000400000000000000000000000000000000000000000000000000000000000D8FFB3
:4D6DC90000000000000000000000000000000000000000000000000000000000000000000000000000000000000000000000000000000000000000000000000000000000000000000000000000000098FFE6
:4D6E160000000000000000000000000000000000000000000000000000000000000000000000000000000000000000000000000000000000000000000000000000000000000000000000000000000098FF98
:4D6E630000000000000000000000000000000000000000000000000000000000000000000000000000000000000000000000000010000000000000000000040000000000000000000000000000000088FB4B
:4D6EB00000000000000000000000000000000000000000000000000008000000000000000000000000000000000000000000000000000000000000000000000000000000000010000000000000008008FFF6
:4D6EFD00000000000000000000000000000000000000000000000000400000000000000000000000000000000000000000000000100000000000000000000400000000000000100000000000000000D8FB11
:4D6F4A0000000000000000000000000000000000000000000000000000000000000000000000000000000000000000000000011008000000020000000000000000000080000004000000000000000050F912
:4D6F970000000000000000000000000000000000000000000000000000000000000000000000000000000000000000000000000820000000000000000000000000000000000008000000000000000030FF4E
:4D6FE40000000000000000000000000000000000000000000000000000000000000000000000000000000000000000000080000000000000000000000000000000000040000000000000000000000058FF49
:4D70310000000000000000000000000000000000000000000000000000000000000000000000000000000000000000000000000000000000000000000000000000000000000000000000000000000098FF7B
:4D707E0000000000000000000000000000000000000000000000000000000000000000000000000000000000000000000000000000000000000000000000000000000000000000000000000000000098FF2E
:4D70CB0000000000000000000000000000000000000000000000000000000000000000000000000000000000000000000000000000000000000000000000000000000000000000000000000000000098FFE1
:4D711800000000000000000000000000000000000000000000000000000000000000000000000000000000000000000000000000000000000002000000000000000000000000000000000000000000B8FF71
:4D71650000000000000000000000000000000000000000000000000000000000000000000000000000000000000000000000000000000000000000000000000000000000000000000000000000000098FF46
:4D71B20000000000000000000000000000000000000000000000000000000000000000000000000000000000000000000000000000000000000000000000000000000000000000000000000000000098FFF9
:4D71FF0000000000000000000000000000000000000000000000000000000000000000000000000000000000000000000020000000000000200000000000000000000010000000000000000000000088FD6E
:4D724C0000000000000000000000000000000000000000000000000000000000000000000000000000000000000000000000000000000000000000000000000000000000000000000000000000000098FF5E
:4D72990000000000000000000000000000000000000000000000000000000000000000000000000000000000000000000000000000000000000000000000000000000000000000000000000000000098FF11
:4D72E60000000000000000000000000000000000000000000000000000000000000000000000000000000000000000000000000000000000000000000000000000000000000000000000000000000098FFC4
:4D73330000000000000000000000000000000000000800000000000000000000000000000000000000000000000000000000000000000000000000000010000000000000000000000000000000000008FFEE
:4D73800000000000000000000000000000000000000000000000000000000000000000000000000000000000000000000000000000000000000000000000000000000000000000000000000000000098FF29
