:020000040000FA
:4D000000FFFF62FF3900FFFFFFFFFFFFFFFFFFFFFFFFFFFFFFFFFFFFFFFFFFFFFFFFFFFFFFFFFFFFFFFFFFFFFFFFFFFFFFFFFFFFFFFFFFFFFFFFFFFFFFFFFFFFFFFFFFFFFFFFFFFFFFFFFFFFFFFFFFFFFF62
:4D004D00000C8001320006C00018001360004C8001300006C00018000360000C8001000000000000000000000000000000000C8001300006C00018000360000C8001300006C00018000360000C800198F872
:4D009A00001240025C0009200124800E90003A400248000920012480049000124002000000000000000000000000000000001240024800092001248004900012400248000920012480049000124002A8F893
:4D00E70000000000000000000000000000000000000000000000000000000000000000000000000000000000000000000000000000000000000000000000000000000000000000000000000000000098FF35
:4D01340000000000000000000000000000000000000000000000000000000000000000000000000000000000000000000000000000000000000000000000000000000000000000000000000000000098FFE7
:4D01810000000000000000000000000000000000000000000000000000000000000000000000000000000000000000000000000000000000000000000000000000000000000000000000000000000098FF9A
:4D01CE00000000000000000000000000000000000000000000000000000000000000000000000000000000400000000000000000000000000000000000000000000000000000000000000000000000D8FFCD
:4D021B0020313410009000020000082485289024800090001243236A20092090000000000000000000000000000000000020000400001048024000080001000004800010420240002804010000041250FDA8
:4D02680000000000000040000000000000000000100000400000000000000400000000000000000000000000000000000000000000000000000000000000000000000000000000000040000000000088FAF3
:4D02B500E0011C0000F00000080040100F00413C0000F2001EC00138000F80400000000000000000000000000000000000008000100070000000000020000400300006700000080320000004001C0038F90D
:4D0302002049040900902418000020004182102409069024924490081249021100000000000000000000000000000000008001300000D04818112362000C0000001240D24818002041140C0000341250FA9E
:4D034F00801000060040084000000002880108100220400808011004218400080000000000000000000000000000000000001001010000420009200000400000B00016004800021341042000000041E8FD01
:4D039C00E0413C0000F0201E040038200FE0803C8807F1201EC40378000F62810000000000000000000000000000000000E0013C080070001EC00379200F04000C880171001EC00078100F04001C00E8FCF2
:4D03E9008000200000400018000000100000801000064000080002400004004000000000000000000000000000000000008001300000C00018000361400C0000300006C00018008360000C0400300090FB66
:4D0436008045301200C02218040020028C8404B00816C12258040B61242C020500000000000000000000000000000000008005B20800C02498080360004C1000300806C12498102360118C0000300950F97F
:4D0483002084349000104202400000008DA81105220010884248212A20210400040000000000000000000000000000000020900000001048824010082481240004921010420249080900810400041230FA49
:4D04D000000000000000000000000000000000000000000000000000000000000000000000000000000000000000000000000000000000000010000200000000000000020000000000000000000000B8FE15
:4D051D0000001D00060080180003000007E000000000008000D003780000080030000000000000000000000000000000000001000000F00010000240000880011C8003F00010C00100200800003C0038FE23
:4D056A00881004084042080009200100012240901000400808418008108400000012000000000000000000000000000000805000000090480805A1201484028434924692480845236100840200241242F9E8
:4D05B700002000111601105804930000200420000600000041001244214004003009000000000000000000000000000000000800000080428000100002208049800010804880006000204000002041F0FF04
:4D060400E0003C8001700006C00000000FE0011C000070000ED00378000700000C00000000000000000000000000000000E08000000030000EC80139200764001CA00334000EC80178000704000C0020F852
:4D0651000401210006800018000300000800012010008000100800000008080030000000000000000000000000000000000040000000C0000004800010008201300006C00000040360000002003000B1FF2E
:4D069E00800430124641881805A300008C8491100100401008000B6124440000300A0000000000000000000000000000008010000000C0200801212004848051300806C1204800836024840000300848FBE2
:4D06EB0020840481001042024000000081A41005A20010884248230A24210400040000000000000000000000000000000020900400001048824010082481240004921010420249000824810400041210F8CC
:4D07380000000020000000000000000000000000000000000000000000000000000000000000000000000000000000000000000000000000001000020000000000000002000000000000000000000098FEAA
:4D07850000001108060080180003000008E001000006008000D001200000080030000000000000000000000000000000008040300000F00008048120100482013C8007700008040340100402001C00A0FE5F
:4D07D200081120024082080009200100042244A010408208104188401488000000120000000000000000000000000000000005001200904850000A4001280084249244D24810002021042800003412BAFF3A
:4D081F000008000106011818048300004000210000160108000210010240000030080000000000000000000000000000000008B0080080188000100002208041A00014004480001300014000000011D8FE3A
:4D086C0060412C9001B00006C000000007E4012CA001B08016C00358200B02000C0000000000000000000000000000000060810C0000300016C80259200B64000CA001740016C88038200B04001C0028F910
:4D08B9008440000806410018048300000000001000064100080002001004020030080000000000000000000000000000000040300800C0000004800010008241300006C0000004030010000200300091FA38
:4D090600001120010680401800030000848291200A46802810050B4101880000B0000000000000000000000000000000000009300200C0229000124000488005B00816C1229000832001480000B00838FD62
:4D095300A0101490C01000024210692085289014820050000A412069200520900404000000000000000000000000000000A00105000010481A50036A400D280804920010421A500809240D0800041200F985
:4D09A000000001000000000000000000000000002000008000100000000008000000000000000000000000000000000000000000000000000000000000000080000000000000000000000000000000B8FD1C
:4D09ED0080803C800300400EC00138000F0041102006404008000238000480401C00000000000000000000000000000000E00030000070000EC001380007E0001C0006F0000EC00320100700003C00C0FA11
:4D0A3A000811048A46C2001A492309148182002002408200100889081408080134120000000000000000000000000000002050001200D0480245A0081481A285341240924802452241008102002412D2FF49
:4D0A870000012011000082400860000C280408201206814210000800084800080006000000000000000000000000000000002030080000104008000082400420000406814440006200010001002011A0FA41
:4D0AD400E0813C8003F2000EC00178000FE0803C8001F0001ED00179000F68811C00000000000000000000000000000000E0010C000070001EC00379000FE0001C800130001ED00058200F00000C00D0F828
:4D0B21008401000006C0001800034000000040301006C10018008040000C004030000000000000000000000000000000000001300800C0001000024000088001300006C1001000030010080000300001F827
:4D0B6E008011311246C1281805A360248C8408B00006C08898080960240C0109300A0000000000000000000000000000008091300000C02818092361242C8451300A16C0281809A340028C0400300A88FEDF
:4D0BBB00A01034900010000A411029208DA811358080D0001A4020092405A0110504000000000000000000000000000000A00005040010480A50012A4005280804921010420A410869400508000400E8FA32
:4D0C0800000001000000000010000000000000000000000000000000000008000000000000000000000000000000000000000000000000000000000000000080000000020000100000000000000000B0FC48
:4D0C550080001C0800028008D003781007E2400C80033000060002202004E0403C00000000000000000000000000000000E0411C0000F0001EC48378100FE2013C8007700008C00138100F0200300018FC94
:4D0CA2000481040206C0041041220904812010048546120203112141048824102412000000000000000000000000000000201034120090480241200804812085249244D2485044230904810000001262FF81
:4D0CEF000C118100100004100062400C000030000A100028000508000288043020060000000000000000000000000000000021001100801050080240824804212004040010100000000C0801003001C8FA4A
:4D0D3C00E0013CA007F1201EC40078000FE4013C8003F4001EC00159200FE0010C00000000000000000000000000000000E0011C000030001EC00379000F60000C800172001EC40179000F00000C0860FF6D
:4D0D89008801200006C0001800830000080001302006C10018008000100C000130080000000000000000000000000000000000300800C0200000000000008041300806C1201800834000000000300081FC86
:4D0DD6008091301206C12418082360248C8491340146D0425A081140004C819130020000000000000000000000000000008091300200C00818092361242C8411300246C00818042360218C0400B00880FA03
:4D0E230020000481C01000024200082481249004808010000240212A2001A0100510000000000000000000000000000000A00505040010005A500B6A412D288004921010000A500829402D0800041260FBC7
:4D0E700000000020000000000000000000000000000000000000000000000000000000000000000000000000000000000000000000000000000000000000000000000002000000000000000000000098FD7E
:4D0EBD000080108007C0401E00004100080201008007000000C083781000E0411C00000000000000000000000000000000E0403C0000C0000EC481381007E2003C8003C0001EC40178100702001C0028FF02
:4D0F0A00880120884402001209032014848040309244C24818490808012C2804341200000000000000000000000000000020042412000048424008080121A08524924602484240230901210000341232FA6A
:4D0F57000010020104C08250080800024000080011140008002012410800043100060000000000000000000000000000000020201100C0084008000082400420200010C204500040400C000100000008FE47
:4D0FA400E0012C9001320006C083382007E4803C8001F4401EC00378000FE0011C00000000000000000000000000000000E0010C000030201EC00379000FE0000C900330201ED00178000F00001C10B8F906
:4D0FF1008441000006C1201804030010000200300806C12018040000000C020030080000000000000000000000000000000001300800C0001000024000088041300806C1000000830000080000300871F915
:4D103E008005200A16C0025800832004448044B00016C00258000B61242C8091B0000000000000000000000000000000008091B00000C02418092361242C8405B00016C02218090B60218C0400B00020FAA8
:4D108B003000349010D20002600869208DA8110580001200024020292001A0110500000000000000000000000000000000A01004100010000A4121284185200004801010005A50006841850000040028FF1B
:4D10D800000000000000000000000000000000000000000000000000000000000000000000000000000000000000000000000001000000000010000200000800000000020000000000000008000000A0FE08
:4D11250000001C880330000EC001381007E2400080030080001002781000E040001000000000000000000000000000000080001C0000C0000800017810040080308007C0000E040338100400003000F0FF31
:4D1172008C0506804612021B49230900012000B0C046C20498009108002C300030000000000000000000000000000000000045341200004850048A0800288201009244024802002009002802000012F2FEFA
:4D11BF000444001200002440086000002000088208100022400408400C20020080000000000000000000000000000000000001001100C0241000024082080004B00884C008400083000C080000300250FF6D
:4D120C00E0013C8003F2000EC00178200FE8013C8003F4001EC00179000FE0813C08000000000000000000000000000000E0411C000030001EC48378000FE2410C800130201ED00078000F02000C0830FAD7
:4D1259008C01200006C1001804834000080001300006C10018000000000C000130000000000000000000000000000000008001300800C00018000300000C8001300006C10010008340000C0000300089FBF5
:4D12A6008049301206D04218000360248C8491300906C02498048160244C829130080000000000000000000000000000008041300000C02818048360240C8241300406C02418090B60210C0200300970F9F7
:4D12F300A001149010D200026008292085A810358000D2001A40210A240DA0100510000000000000000000000000000000A00405100010004A50092A0425288004801010004A500829412508000412E0FA61
:4D134000000000000000000000000000000000000000000000000000000000000000000000000000000000000000000000000000000000000000000040000000000000020000000000000000000000B8F96D
:4D138D0000003C880700001EC00378100FE241008007000000C083200000E8413C00000000000000000000000000000000E0413C0000C0001EC48320000FE201308007C0001EC40378100F02001C0038FB86
:4D13DA000884048144020213492209024120080085440202015110401220200824120000000000000000000000000000002008241200004882401040114120850092440248824022090241000034122AFC11
:4D1427000050A0000400245008624000080009020A14002800050A000280020120060000000000000000000000000000000021201100C0025008024000480421300914C204500042400C080100000620F820
:4D147400E0013CA001F20006C00078200FE4013C8001F4001EC0035A200FE0810C00000000000000000000000000000000E0010C000030201EC00379100F60000C800130801ED00078000F00001C00A0FE1F
:4D14C1008401010006C1001804830000000000302006C10018000000000C000030080000000000000000000000000000000000300800C0000000006000008041300006C1200000830000000000300851F84B
:4D150E008009301226C04298001360248C8491300126C04258080B41102C849130010000000000000000000000000000008091300100C04018092361102C8409300A26C00818091360218C04003001B0F94F
:4D155B0000000000000000000000000000000000000000000000000000000000000000000000000000000000000000000000000000000000000000000000000000000000000000000000000000000098FFAC
:4D15A800200004800000000240000800012000008000000000400008000120000400000000000000000000000000000000200004800010000240000800012000048000100002400008000120000400E8FAF6
:4D15F50000000000000080000000000000000000200000800010000000000000000000000000000000000000000000000000000000000000000000000000000000000000000000000000000000000020FD5C
:4D16420024000480001000024000080001200084800010020240000800012000040000000000000000000000000000000020000480001000024000080001200004800010000240000800012000040049F850
:4D168F000C0000000000000000000000000000000000000000000000000000000000000000000000000000000000000000000000000000000000000000000000000000000000000000000000000000E3F827
:4D16DC0000000000000000000000000000000000000000000000000000000000000000000000000000000000000000000000000080000000000000000000000000000000000000000000002000000018FD0C
:4D172900088000000002400008000100000480000000004000080001000000800000000000000000000000000000000000008000000000400008000120000400001000024000080001000004000010EAFD10
:4D177600200804C2201004824010088441200804C240180482401008848130080442000000000000000000000000000000200804C20010048240100802412010068120100482401008844120000401C8FE2A
:4D17C30000802000040000310802400008000100100400000008004000000001200000000000000000000000000000000000812000008000100802412000040020000480001008020020080400200060F931
:4D18100000000000000000000000000000000000000000400000020000000400000000000000000000000000000000000000000000002000000000000008000108000000000000004000000000080000FFCD
:4D185D0000000880000000000000000000000000000000000000001000000000000000000000000000000000000000000000000000000000000000000000000000000000000000000000000000000098FE10
:4D18AA00002000000000100000010000000000200000001000020000000001000000000000000000000000000000000000000000000000000000000000000000000000000000000000000000000000B8FFD6
:4D18F70000000000000000000000000000000000000000000000000000000000000000000000000000000000000000000000200000000000000240000800010000000040000002010008000100000020FFCE
:4D1944000000000000000000000000000000000C000000002000002000000000000000000000000000000000000000000000000000000000000000000000000000000400000000000000000000000090FB7B
:4D199100000000000000000000000000000021000000004000000001000000000000000000000000000000000000000000000000000000000000000000000000000000000000000000000000000000D8F9D6
:4D19DE0000001008000000000042001004028000000020000080000000000040000000000000000000000000000000000000400000000000000000000000000000080001000800800010000000000098FE75
:4D1A2B0000000420000000004000024001488001000010400040000100000000010000000000000000000000000000000000000100000000000000000000000000200004000200000240000000000088FA81
:4D1A7800004000000001000000410000004000700000C01110000200008001010000000000000000000000000000000000000800000000000000000000000000000004000040000000000000000000B8F88E
:4D1AC50002200000800000000002000000000008000020000000000000000000000000000000000000000000000000000000000000000000000000000000000000000000000000000000000000000098FD73
:4D1B120000000000000000000040000000000010000040400400010000008200000000000000000000000000000000000000000000000000000000000000000000000200000000000000000000000000FA33
:4D1B5F0000010008000000000000000000000000000000000000000000000400000000000000000000000000000000000000000000000000000480000000000000000000000000000000000000000010FE9A
:4D1BAC0000000000010000048000100002400000000100000080001000004000080000000000000000000000000000000040000800000000000000100002400000000000000400001000020000000088FC08
:4D1BF90000000000000000000000000000000020000080001000000000000000000000000000000000000000000000000000000000000000000000000000000000000000000000000000000000000038FEB9
:4D1C4600400000000020000000000000000000000000000000000000000000000000000000000000000000000000000000000000000000000000000000000000000000000000000000000000000000D8FD1C
:4D1C9300000000000000000000000000000000000000000000000000000000000000000000000000000000000000000000000000000000000000040000000000000000000000000000000000000000D8FB2D
:4D1CE000000000000000000000000000000000000000200000000000000000000000000000000000000000000000000000000000000000000000000000000000000000000000080000000000000000B0FFE0
:4D1D2D0000000000000000000000000000800000000000000000000000000000000000000000000000000000000000000000000000000000000000000000000000000000000000001000000000000090FE4B
:4D1D7A0022000000000000000000000000000000040000000000000000000000000000000000000000000000000000000000000000000000040000000000000000000000000000000000000000008010FD65
:4D1DC70020040000000000000000000000000080000000000200000000000000000000000000000000000000000000000000000000000000000000000000000000000000000000000000000000000018FB16
:4D1E1400000000000080010000000000000000400000800110000000001A0004000000000000000000000000000000000000000000000000000000000000000000000000000000000000000000000018F900
:4D1E610000000000000000000000000000000000000000000004000000000000000000000000000000000000000000000000040000000000400008000120000000000000004000000001200000000090FCD6
:4D1EAE00000000000000000000000000000000000000000000080000000000000000000000000000000000000000000000000000000000000000000000000000000000000002000000000000000000B0FF2E
:4D1EFB0000000000000000000000000000000000000000000000000000030000000000000000000000000000000000000000000000000000000000000000000000000000000000000000000000000098FC03
:4D1F480080000000000000000000000000000000000000000000000000000000000000000000000000000000000000000000000000000000000000000000000000000000000000000000000000000018FFB5
:4D1F9500000000000200000000010000000000000000004000000000000000000000000000000000000000000000000000000000000000000000000000000000000000000000000000000000000000C8F8FC
:4D1FE200000000000000000000000000000000001000000000000000000002000000000000000000000000000000000000000000000000000000000000000000000000000000000000000000000000A8FEFA
:4D202F0000000000000000000000000000000008000010000100000000000100000000000000000000000000000000000000000000000000000000000000000000000000000000004000000000000080FB8F
:4D207C0000010800000000000000000000200010000000000000000C00000000000000000000000000000000000000000020000000000000000000008000200004800030000000000000000000004018FE08
:4D20C90000200400000000084000080005200000000000000010002800002000040000000000000000000000000000000000000000005001080000000000000000000200000040000800000000040060FAD4
:4D211600000011000800000002008000100000000000000000000100000000020000000000000000000000000000000000000410000000000000040000040000400008400000000400000000005000C8F915
:4D21630000000000000001001000000000000000000000000000000000080000000000000000000000000000000000000000000000000000000000000000080000000000000000000000000000000088FF87
:4D21B00000000000000000000000000020000400000000000200080000000000000000000000000000000000000000000000000000000000000000000000000000000000000000000000000000000050FF65
:4D21FD00000000000000000000000000000000000401003020000200000000000800000000000000000000000000000000000008000000000000000000004000000000000000000000000000000000F0FC02
:4D224A00080000080000020000000000000200000000010040008000000100000000000000000000000000000000000000000000000000002080000000000000000800010000040000000400000000D0F8F8
:4D229700000000000000000000000100000000000000800004800009000000000010000000000000000000000000000000000000000000000000000000000000000000000000000000000000000008C8FF0D
:4D22E40008000800000110000000002004000000080000000000800010008000001000000000000000000000000000000080000000004000080000200000800010000241000004010000000000100058FB1D
:4D233100000014000204800000000140010028002000210004840113400020000030000000000000000000000000000000200000000010000200000800002000048000140000500000000400000410A8FCF0
:4D237E00400120041D0020180387001008012B280520D0201C004240000A0105100000000000000000000000000000000000000000008010400060100100000010000C00100000000000000000200458FEA8
:4D23CB0000000000000020040041001000000000000080400400000000000000200000000000000000000000000000000000000000000000000000000000000010000000000000000000000000000058FD07
:4D24180080000808020000104400000002822004040040000840002100044400000000000000000000000000000000000000000000004020000080000000000000000200200000000000000000100848FF93
:4D246500000000000000000000000000000000000000408000000000000000000000000000000000000000000000000000000000000000000000000000000001000000000000000000000000000000C0FFAA
:4D24B20000000000000000020000000000000000800000000004000000000000040000000000000000000000000000000000000400000000000000800000000000000000000000000000080000000010FDBA
:4D24FF00804000000040000000000000000000000000000008000000002400000000000000000000000000000000000000000000000000000000000000000000000000000000000000000000000000F8F973
:4D254C0000000000000000000000000000000080000000020400000000000000000000000000000000000000000000000000000000000000000000000000000000000000000000000000000000000058FD67
:4D259900000000000000000000000000000000100000000000000000000000000000000000000000000000000000000000000000000000000000000000000000040000002000000000000000000000E8F9E0
:4D25E600000000000000000000000000000000020000000000000000000400000000000000000000000000000000000000000000000010000000000001000000000000000000400000000100000000E8F96F
:4D2633004000020001203204800000000240000440002002448000000000500000000000000000000000000000000000004000000000200004800010000A000008000120000480000000020000080060F878
:4D26800000040040001000000000008000000000400008000000000080001000004000000000000000000000000000000000000040000000000000000000000002000000000000000080000000000078F9EE
:4D26CD00000000000010000000001000000000000000000100000000000000000000000000000000000000000000000000000002000000000000000000000000000000000000000000000000000000A8FEF7
:4D271A0000000000000000000000000000000000000000000000000000000000000000000000000000000000000000000000000000000000000000000000000000000000000000000000000000000098FFDB
:4D276700000200000000000000000000000000000000000000000000000002000000000000000000000000000000000000000000000000000000000000000000000000000000000000000000000000B8FD6C
:4D27B40000020000000000000000000000000000000000000000000000000000000000000000000000000000000000000000000000000000000000000000000000000000000000010000000000000098FC41
:4D280100200000000000001A61000000000000008000100002406008008121000406000000000000000000000000000000000000000000000000000000000000000000000000000000000000000000D0FB3E
:4D284E0000000000000000000000000000000000000000000000000000000000000000000000000000000000000000000000000000000000000000000000000000000000000000000000000000000098FFA6
:4D289B00808100000000000E00000000000000000000000000C00101000704001C1000000000000000000000000000000000000000000000000000000000000000000000000000000000000000000090FA5E
:4D28E8000008000000000082040B0200000000000016C40259501360814D80053501000000000000000000000000000000000000000000000000000000000000000000000000000000000000000000F0F99E
:4D29350080490000000000000010000000000000002000040009080108200890001100000000000000000000000000000000000000000000000000000000000000000000000000000000000000000068FE0F
:4D298200600000000000001EC8030100000000008007F4401EC001780007E0011C0000000000000000000000000000000000000000000000000000000000000000000000000000000000000000000070FC3C
:4D29CF00800100000000001000030100000000000006C08018000360000C8001300000000000000000000000000000000000000000000000000000000000000000000000000000000000000000000030FF79
:4D2A1C00805100000000001809230000000000000046C20818029360214C8221300900000000000000000000000000000000000000000000000000000000000000000000000000000000000000000020FBD7
:4D2A6900200000000000000A6108000000208900801010024340600881212404040600000000000000000000000000000000000000000000000000000000000000000000000000000000000000000048F843
:4D2AB600000000000000000000000200000000000000040000100000000000000100000000000000000000000000000000000000000000000000000000000000000000000000000000000000000000C8F8FC
:4D2B0300000000000000001E0002000000E001000004800010C00341000704013C10000000000000000000000000000000000000000000000000000000000000000000000000000000000000000000A0FAFA
:4D2B5000880502000000000204A10000002041000042412808451220144D80502401000000000000000000000000000000000000000000000000000000000000000000000000000000000000000000FAFD2A
:4D2B9D00000400000000001000080000008004000010004000010A01042008102011000000000000000000000000000000000000000000000000000000000000000000000000000000000000000000C0F9C9
:4D2BEA00E00101000000001EC801010000E04100800372000ED000384007E0000D0000000000000000000000000000000000000000000000000000000000000000000000000000000000000000000008FA72
:4D2C3700840100000000000000800000008000000000012000040300100C0040300000000000000000000000000000000000000000000000000000000000000000000000000000000000000000000059F8C6
:4D2C8400804900000000001809210000008051000042400808018320040C8204300800000000000000000000000000000000000000000000000000000000000000000000000000000000000000000010FC17
:4D2CD100200000000000001A61080000212484008010100243406008812124040406000000000000000000000000000000000000000000000000000000000000000000000000000000000000000000B8FC35
:4D2D1E00000000000000000000000200000000000000040000100000000000000100000000000000000000000000000000000000000000000000000000000000000000000000000000000000000000C8F891
:4D2D6B00808100000000000E00810000070000010002412008C40121100F84401C10000000000000000000000000000000000000000000000000000000000000000000000000000000000000000000A0F88B
:4D2DB8000808000000000042040A00008D8410000014800250401340014900013401000000000000000000000000000000000000000000000000000000000000000000000000000000000000000000BAFB9F
:4D2E050080510000000000400808000040043000001000400001400004280810000200000000000000000000000000000000000000000000000000000000000000000000000000000000000000000088FE8E
:4D2E5200600000000000001EC002010007E000008005B20016D00158400360011D20000000000000000000000000000000000000000000000000000000000000000000000000000000000000000000E0FBD9
:4D2E9F008441000000000010008000000C0081000000012000040300100C00403000000000000000000000000000000000000000000000000000000000000000000000000000000000000000000000D1F986
:4D2EEC008005000000000018090200002C8200000004800010008B40022C0209B00800000000000000000000000000000000000000000000000000000000000000000000000000000000000000000018FFDC
:4D2F3900203000000000000A61030100212484008006D2021A4860680121A481040600000000000000000000000000000000000000000000000000000000000000000000000000000000000000000060F995
:4D2F8600000000000000000000000000000000000000008000000000400000000000000000000000000000000000000000000000000000000000000000000000000000000000000000000000000000D0FF6F
:4D2FD300E08000000000001EC00100000F000001800370000EC003390007E4003C1000000000000000000000000000000000000000000000000000000000000000000000000000000000000000000090FCA2
:4D302000A80900000000000245A00000890411008040112802451208144D205024010000000000000000000000000000000000000000000000000000000000000000000000000000000000000000001AFEC5
:4D306D0000000000000000500808010048040400008000080002420021000188200200000000000000000000000000000000000000000000000000000000000000000000000000000000000000000080F855
:4D30BA00E08000000000001EC0030000036001018007F0801EC000780007E0010C2000000000000000000000000000000000000000000000000000000000000000000000000000000000000000000030FB97
:4D3107008401000000000000000200000C8040000004804010000340000C0001300000000000000000000000000000000000000000000000000000000000000000000000000000000000000000000001FDD6
:4D3154008051000000000018090B01008C0211000016C2041810A360408C8201310A00000000000000000000000000000000000000000000000000000000000000000000000000000000000000000070F997
:4D31A10020300080400200024901010021A40800800252020A4860280121A4080400000000000000000000000000000000000000000000000000000000000000000000000000000000000000000000D0F96A
:4D31EE00000000000000000000000000000000010000008000000000400000000100000000000000000000000000000000000000000000000000000000000000000000000000000000000000000000C0FF13
:4D323B00E08100800300000EC0830000078000008007F1201EC40379100F8400301000000000000000000000000000000000000000000000000000000000000000000000000000000000000000000010FCA5
:4D328800280900804602001A492000008D0489008040100802411208044900450001000000000000000000000000000000000000000000000000000000000000000000000000000000000000000000EAFAB7
:4D32D5000001000010020000000A0100800081000084800810020A4421080101300100000000000000000000000000000000000000000000000000000000000000000000000000000000000000000028FAA3
:4D332200608000800300000EC803000007E801008007F0801EC000780003E0410C08000000000000000000000000000000000000000000000000000000000000000000000000000000000000000000B0FA03
:4D336F008441000006010018040000000C8201010000004000008300000C82013000000000000000000000000000000000000000000000000000000000000000000000000000000000000000000000C9FE50
:4D33BC008011000046000018010B01008C8009000016C20418102360408C8041B00800000000000000000000000000000000000000000000000000000000000000000000000000000000000000000038FDB2
:4D340900203000804012424240230A40212400008026D8881A5100684401A080040000000000000000000000000000000000000000000000000000000000000000000000000000000000000000000098FC08
:4D34560000000000000000001000000000000000000000000000000000000000000000000000000000000000000000000000000000000000000000000000000000000000000000000000000000000098FE83
:4D34A300E080008007700008C08138000F000001800371200E040339100CE4413010000000000000000000000000000000000000000000000000000000000000000000000000000000000000000000C8F950
:4D34F000A809008044D248504408682489840100801010024200100801402004000100000000000000000000000000000000000000000000000000000000000000000000000000000000000000000022FC4A
:4D353D00008400001402028100080121880008020080000800021300214C02893002000000000000000000000000000000000000000000000000000000000000000000000000000000000000000000D8FFCA
:4D358A00E000008001700016C803380003E801008007F0801EC080780003E0010C0800000000000000000000000000000000000000000000000000000000000000000000000000000000000000000010F950
:4D35D7008441000006C12000000260100C8201000004804010000340000C0000300000000000000000000000000000000000000000000000000000000000000000000000000000000000000000000099FB13
:4D3624008005000016C00210050B61012C8041000016C20418108B60408C8201310900000000000000000000000000000000000000000000000000000000000000000000000000000000000000000090FA8B
:4D367100203000804012424240210A0001A00100802258880A5100280201A011050600000000000000000000000000000000000000000000000000000000000000000000000000000000000000000080FD18
:4D36BE00000000000000000010000000000000000000000000000000400000000000000000000000000000000000000000000000000000000000000000000000000000000000000000000000000000D8FE99
:4D370B00E081008007F00008C08360000C0000008007F1201E040321000CE4401C1000000000000000000000000000000000000000000000000000000000000000000000000000000000000000000070FA3E
:4D375800280900804492489044000024800400018000100002001040114020003401000000000000000000000000000000000000000000000000000000000000000000000000000000000000000000FAFA5C
:4D37A5000085000004800281000A61102C0244000084800810022340002C00888010000000000000000000000000000000000000000000000000000000000000000000000000000000000000000000B8FAE7
:4D37F2006000008001320016C803180003E001008007F0801EC080781003E4011C00000000000000000000000000000000000000000000000000000000000000000000000000000000000000000000D8FEE3
:4D383F008441000006C12000000060100C8201000000004000000360000C00013008000000000000000000000000000000000000000000000000000000000000000000000000000000000000000000E9FBC5
:4D388C008001000006C00010040B61018C8085000016C20418109360104C82013100000000000000000000000000000000000000000000000000000000000000000000000000000000000000000000C8FCCB
:4D38D90020000080001000024011084001A00100804254048A4000284401A0100506000000000000000000000000000000000000000000000000000000000000000000000000000000000000000000B0FAFF
:4D39260000000000000000000000020000000000000000800010000000000000000000000000000000000000000000000000000000000000000000000000000000000000000000000000000000000080FD45
:4D3973000000000006C00018000178000C6000000002400008000379100CE4413C1000000000000000000000000000000000000000000000000000000000000000000000000000000000000000000080F978
:4D39C0008805020040024800098A482480240001001481225004100802402008240100000000000000000000000000000000000000000000000000000000000000000000000000000000000000000042FD0C
:4D3A0D000088000016C12818080240214C0044000004800010009340212C0089200400000000000000000000000000000000000000000000000000000000000000000000000000000000000000000020FA57
:4D3A5A00E001008001300006C083180003E201008007F1201EC400780003E2010C0000000000000000000000000000000000000000000000000000000000000000000000000000000000000000000078FAF0
:4D3AA7008401000006C12018040360100C8001000006C00018000301000C0000300800000000000000000000000000000000000000000000000000000000000000000000000000000000000000000021FD06
:4D3AF4008045000046C00218018360022CA285000006C12018040360400C8201310100000000000000000000000000000000000000000000000000000000000000000000000000000000000000000050FEB2
:4D3B410000000000000000000000000000000000000000000000000000000000000000000000000000000000000000000000000000000000000000000000000000000000000000000000000000000098FFA0
:4D3B8E00200004800010000240000800010000048000100002400008000120000400000000000000000000000000000000200004800010000240000800012000048000100002400008000120000400B8FD11
:4D3BDB0000000000000000000000000000000001000000000000000000000000000000000000000000000000000000000000000000000000000000000000000000000000000000000000000000000088FE16
:4D3C2800280004800010000240000800012004048000100002400008000120000400000000000000000000000000000000200004800010000240000800012000048000100002400008000120000400F2FD10
:4D3C750000000000000000000000000000000000000000000000000000000000000000000000000000000000000000000000000000000000000000000000000000000000000000000000000000000098FF6B
:4D3CC20000000400000000000000000000000004000000000000000000000000000000000000000000000000000000000020000480001000024000080001200004800010000240000800012000040078FC17
:4D3D0F00040000000000000000000000000000000000000000000000000000000000000000000000000000000000000000000000000000000000000000000000000000000000000000000000000000C9FAA0
:4D3D5C0020800480001240024800092001248004800012400248000920012480041000000000000000000000000000000020000480001000024000080001200004800010000240000800012000040060FF09
:4D3DA90000000000048000100000400008000000000000000000000000000000000000000000000000000000000000000000000000000000000000000000000000000000000000000000000000000048FEAB
:4D3DF600000000000000000000020000000000000004000000000000000000000000000000000000000000000000000000000000000000000000000000000000000000000000000000000000000000F8FD85
:4D3E430000000200000000000000000000000000000000000140000080010000040000000000000000000000000000000000000000000000000000000000000000000000000000000000000000000068FA08
:4D3E900000000000000000001480000000002000000001000004000000000040000000000000000000000000000000000000000000000000000000000000000000000000000000000000000000000048F9AB
:4D3EDD0000000000000000000000000000000000000000000000000000000000000000000000000000000000000000000000000000000000000000000000000000000000000000000000000000000098FF01
:4D3F2A0000000000000000000000000000000000000000000000000000000000000000000000000000000000000000000000000000000000000000000000000000000000000000000000000000000098FFB3
:4D3F7700000000000000000000420000000000000000004000000001000000000000000000000000000000000000000000000000000000000000000000000000000000000000000000000000000000A8F9D9
:4D3FC400000000000000000000400000000001000000000000000000000000000000000000000000000000000000000000000000000000000000000000000000000000000000000000000000000000C8FFA8
:4D40110000000000000000008000030000200000000000400000000100000000000000000000000000000000000000000000000000000000000000000000000000000000000000000000000000000060FA24
:4D405E0000000100000100000081000000000100000040000000004000000000000000000000000000000000000000000000000000000000000000000000000000000000000000000000000000000058FABF
:4D40AB00000000008000000000420000000000000000200000000000000000000000000000000000000000000000000000000000000000000000000000000000000000000000000000000000000000D0FD19
:4D40F80000000000000000000000000000000100000000000000001000000000000000000000000000000000000000000000000000000000000000000000000000000000000000000000000000000088FEE4
:4D41450000000000000000000000000000000000000000000000000000000000000000000000000000000000000000000000000000000000000000000000000000000000000000000000000000000098FF96
:4D41920000000000000000000000000000000000000000000000000000000000000000000000000000000000000000000000000000000000000000000000000000000000000000000000000000000098FF49
:4D41DF004000000000000000008000000000400000002020008C0000300200C00800000000000000000000000000000000000000000000000000000000000000000000000000000000000000000000E8FFE6
:4D422C0000000000000000000000000000000000001000000000000000000000000000000000000000000000000000000000000000000000000000000000000000000000000000000000000000000098FE9F
:4D42790000000000000000000000000000000000000000000000000000000000000000000000000000000000000000000000000000000000000000000000000000000000000000000000000000000098FF61
:4D42C600000000000000000000000000000000020000000000000000000000000000000000000000000000000000000000000000000000000000000000000000000000000000000000000000000000B8FDF4
:4D431300000000000000000000000000000004000000000000000000000000000000000000000000000000000000000000000000000000000000000000000000000000000000000000000000000000D8FF82
:4D43600000000000000000000000000000000000000000000000000000000000000000000000000000000000000000000000000000000000000000000000000000000000000000000000000000000098FF79
:4D43AD0000000000000000000000000000000000000000000000000000000000000000000000000000000000000000000000000000000000000000000000000000000000000000000000000000000098FF2C
:4D43FA00000000000000000000080000000001000000080240000000010000040000000000000000000000000000000000000000000000000000000000000000000000000000000000000000000000D8FC4A
:4D44470000000000000000000000000000000000000000000000000000000000000000000000000000000000000000000000000000000000000000000000000000000000000000000000000000000098FF91
:4D44940000000000000000000000000000800000000000000000000000000000000000000000000000000000000000000000000000000000000000000000000000000000000000000000000000000090FFCC
:4D44E10000000000000000000000000000008000000000000000000000000000000000000000000000000000000000000000000000000000000000000000000000000000000000000000000000000010FFFF
:4D452E0000000000000000000000000000000000000000000000000000000000000000000000000000000000000000000000000000000000000000000000000000000000000000000000000000000098FFA9
:4D457B00000000000040000000000001040000000000000000000000000400000000000000000000000000000000000000000000000000000000000000000000000000000000000000000000000000C8FBE7
:4D45C80000000000000000000000000000000000000000000000000000000000000000000000000000000000000000000000000000000000000000000000000000000000000000000000000000000098FF0F
:4D461500000000000000000000020000000000000000000000000000000000000000000000000000000000000000000000000000000000000000000000000000000000000000000000000000000000B8FDA1
:4D466200000000000000000000010000000040008000000000400000000140000000000000000000000000000000000000000000000000000000000000000000000000000000000000000000000000C0FF0A
:4D46AF00000000000000000000002000004400000000004000000120000000000010000000000000000000000000000000000000000000000000000000000000000000000000000000000000000000B8FB36
:4D46FC0000420000080000200000000004000000000000000400000000088000100000000000000000000000000000000000000000000000000000000000000000000000000000000000000000000060FE09
:4D474900200000000000000000000000000000000000000000000000000001000000000000000000000000000000000000000000000000000000000000000000000000000000000000000000000000A8FF5B
:4D479600000000000100000400000000000004000000000002000000000000000400000000000000000000000000000000000000000000000000000000000000000000000000000000000000000000F8FED1
:4D47E30000000000000000000000000000202000000080000000000000000000000000000000000000000000000000000000000000000000000000000000000000000000000000000000000000000038FF92
:4D483000800000000000000000000000004000000000001000000008000000000000000000000000000000000000000000000000000000000000000000000000000000000000000000000000000000C8FAA1
:4D487D00000000000000100000000100000000000000000004000000000400000010000000000000000000000000000000000000000000000000000000000000000000000000000000000000000000C8FB02
:4D48CA0000000800024000000000000004800004000000000000010000000000100800000000000000000000000000000000000000000000000000000000000000000000000000000000080000000008F9AD
:4D49170000000480001040000000010001A000040000800204400020000200000430000000000000000000000000000000000000000000000000000000000000000000000000000000000100000000E0FCE0
:4D4964000001000004800210022202008C4140202200A0221200C2C0000801034804000000000000000000000000000000000000000000000000000000000000000000000000000000000000000000C8F88C
:4D49B100000000000000000000000000020020000000004000000001000000000000000000000000000000000000000000000000000000000000000000000000000000000000000000000000000000E8FB73
:4D49FE0080000000044000080401000004020020000020001000812000088200000800000000000000000000000000000000000000000000000000000000000000000000000000000000000000000028FAF0
:4D4A4B00800000000200000D0001000000000000000400000000000400000000100000000000000000000000000000000000000000000000000000000000000000000000000000000000000000000090F8EE
:4D4A980000000000000000000000000000000000000000000000004000000000000000000000000000000000000000000000000000000000000000000000000000000000000000000000000000000098FBFE
:4D4AE50000020000080001200004800010800200000800012200048000100002400000000000000000000000000000000000000000000000000000000000000000000000000000000000000000000008FA40
:4D4B320000000000000000000000000000000000000000000000000000000000000000000000000000000000000000000000000000000000000000000000000000000000000000000000000000000098FF9F
:4D4B7F0000000000000000000000000000000000000000000000000000002000000000000000000000000000000000000000000000000000000000000000000000000000000000000000000000000098FD34
:4D4BCC0000000000000000000000000000000000000000000080000000000000000000000000000000000000000000000000000000000000000000000000000000000000000000000000000000000018FF05
:4D4C190000000000000000000000000000000000000001000000000000000000000000000000000000000000000000000000000000000000000000000000000000000000000000000000000000000088FEC7
:4D4C660000000000000000000000000000000000000000000000000000000000000000000000000000000000000000000000000000000000000000000000000000000000000000000000000000000098FF6A
:4D4CB30000000000000000008000000000000000000100000400000000004000000000000000000000000000000000000000000000000000000000000000000000000000000000000000000000000040FBB4
:4D4D0000000000000000000000000000000000000000002000000000100000000000000000000000000000000000000000000000000000000000000000000000000000000000000000000000000000A8FD91
:4D4D4D0000000000000000000000000000000000000000000000000000000000000000000000000000000000000000000000000000000000000000000000000000000000000000000000000000000098FF82
:4D4D9A00000000000000000000000000000002000000000000000000000000000000000000000000000000000000000000000000000000000000000000000000000000000000000000000000000000B8FF13
:4D4DE700000004860010081245000804012000048400000002000008000D213000000000000000000000000000000000000000000000D000000000080100000004000010000040000800000000000048FAF2
:4D4E34000000000000002010000000200000000000000000000000000000000000000000000000000000000000000000000000000000C000000000001000000000000000000000000010000000000030F9D8
:4D4E81000000300006412008C00000000C8401100000000018100060000C82000000000000000000000000000000000000000000000000000000005800000000302000C00000C0005810000000000000FB43
:4D4ECE00000000082000020848000041000090001200000000010000808C00850000000000000000000000000000000000000000000000000000004812000000000100004000400048010000000000A8F8E4
:4D4F1B000000001020440290000301822C8411300A1000001802006041841000000000000000000000000000000000000000000000000040000000602100000000100000420000236104000000000068FB65
:4D4F680000002C8007B02016C40318000F60403C8001010006000018000BE08100000000000000000000000000000000000000000000300000000070000000000C0000300000C0037040000000000090F9B5
:4D4FB5000000100806400008000300200C8041300806000018000060000480000000000000000000000000000000000000000000000000000000002000000000000000000000000320200000000000A8FD17
:4D5002000000300226C41048080340010C8801B0004602001804006010888210020000000000000000000000000000000000000000000044000000208100000000110000440000032002000000000060FBB2
:4D504F00200805800058080140000800012000048400000002000008000120800000000000000000000000000000000000000000000000000000000802000000144000D0200040000804000000000034FD9F
:4D509C0000000000000000000000010000000000000000000000000000000000000000000000000000000000000000000000000000000000000000001000000000000000000000000010000000000088FF1F
:4D50E900008030000280800000026000008401301006020018080060200080000000000000000000000000000000000000000000000000000000005800000000302000002000C0005800000000000028FA77
:4D5136000800001204020000001002800000000201400000800000000200009100000000000000000000000000000000000000000000000000000048100000001002000000004000481100000000003BFEE8
:4D51830000803022100404000063600220840910001002001800006000400004000000000000000000000000000000000000000000000000000000600000000020000040420000236024000000000089FC77
:4D51D00060003C8001704000C00018400360002D90010000060400181003E88100000000000000000000000000000000000000000000000000000070200000003C0800B00000C0037200000000000030FE07
:4D521D00040030100200000000036000008001100000000018000060000C8000000000000000000000000000000000000000000000000000000000200000000020000000000000032020000000000003FC84
:4D526A000029000012828400008960110C8851901020020058040060118C84110200000000000000000000000000000000000000000000000000002081000000300A00C04400000320020000000000F0FF32
:4D52B700300815810010000240000800812100048002982002400008000120800000000000000000000000000000000000000000000000000000000800000000040600D0220040000800000000000090FDDE
:4D53040000000010000000000000000000000000000080000000000000000000000000000000000000000000000000000000000000000000000000000000000000000000000000000000000000000008FFC5
:4D5351000080200006C10000C0006000048401300006408018000362100000000000000000000000000000000000000000000000000000000000000000000000102000000000C00000000000000000E0FBB1
:4D539E000C00300410C00000400000820800040105424208000520000100009000000000000000000000000000000000000000000000000000000000000000002002000028004000001400000000007AFF85
:4D53EB000420300A20C0008008086404008401300844800418022360414010040000000000000000000000000000000000000000000000000000000004000000800800404200000B04110000000000E8F87A
:4D54380060011C8007F14006C00018100F60403C8007B1801EC000790003608000000000000000000000000000000000000000000000000000000018100000003C0000B00000C00318000000000000E0F860
:4D5485000C8000080600201800036100048001300004400000100300200C04000000000000000000000000000000000000000000000000000000006000000000100000000000000300000000000000C9FF2D
:4D54D20000082001260208980213601404884500124641489800A360018C00110200000000000000000000000000000000000000000000000000006014000000100800C0440000036012000000000078FFAA
:4D551F00B051348600900202400008002920000480060100824800080001202000000000000000000000000000000000000000040000D0040000000800000000340A0010000040000802000000000090FBBE
:4D556C00000000000000400000000000000200002000000000000000000000000000000000000000000000000000000000000000000000400000000000000000000000000000000000100000000000A8FF99
:4D55B9000040000006C00000C0036100048081100000010018000301200C048000000000000000000000000000000000000000300000C0200000001800000000000800300000C0005810000000000078F9A0
:4D5606000C103008008228004010000A8004082004400000001010600040000000000000000000000000000000000000000000804000C0020000006814000000000200100000400048040000000000F3FAC6
:4D565300848010101644228000086002208811002112020048000B00142084490000000000000000000000000000000000000000100040000000006020000000101000C0040000036022000000000089FF7D
:4D56A00060011C8007F00006D00319400B60403C8005000016C880780003E000000000000000000000000000000000000000000C0000B02000000070000000002C0000F04000C00371000000000000D0FDC9
:4D56ED000C0020080600001800006010008041100000000008048360000080410000000000000000000000000000000000000000000040200000006000000000000000C00000000320200000000000ABFDC2
:4D573A00802920021042101802086401848811104226020018010B60144084050000000000000000000000000000000000000000110080080000000081000000301100D0000000032002000000000068FBC3
:4D57870020000481141208014000080201210014820000004A600008000DA20502000000000000000000000000000000000000340A0010000000000812000000040000500001400008000000000000E4FEB0
:4D57D40000000010048000000000002000000020080000000000000000008001000000000000000000000000000000000000000000000000000000000000000000000000000000000000000000000030F803
:4D5821006000100002C00000C000000004844120A0010000180403612000820100000000000000000000000000000000000000000800C00000000058100000000C0000C04000C00000000000000000A0FB04
:4D586E0028000004228148004000404240000410810000004800000000208091000000000000000000000000000000000000008000000040000000480200000004000040040040000000000000000083FEB3
:4D58BB008089000814001000000341048C8009101286000048088360142484090200000000000000000000000000000000000010100000400000006008000000B04000800000000B0111000000000071FAAC
:4D590800E0012C8005B10000C00338100FE2011D8007000006C00018000BE001000000000000000000000000000000000000002C0000300000000070000000003C0000F02000C00318000000000000F8FEBB
:4D5955008401300802000000000360200C0000200006000018048360100080010000000000000000000000000000000000000000000000000000002000000000300000800000000360000000000000EBFDE6
:4D59A200A001300002C18400000320024C8229208A06000008012360044C84840000000000000000000000000000000000000030110000440000002081000000340000C0220000036012000000000028F91E
:4D59EF00300805860690080B450008010D20881490400200024000082201A00506000000000000000000000000000000000000040000D020000000488400000014400010000000000800000000000018FEBC
:4D5A3C000000000000800000000000200C0000000000000000000000000080010000000000000000000000000000000000000000000000000000000000000000000000000000000000000000000000C0F838
:4D5A89008080001000408018C003600000800110200600000000036000030001300800000000000000000000000000000000000C000000200000000040000000300000300000000000000000000000C8F9E2
:4D5AD6000C0000002644001048030040000084000200040000005000210180900000000000000000000000000000000000000004000000000000000002000000100400100000000000000000000000A2FC9E
:4D5B23000420004126840480000820224C8008010000020000202320082C90090210000000000000000000000000000000000030020040400000000000000000200800C0040000000080000000000008F821
:4D5B700060000C8001B0400EC40059000F68012C9005000006C00059000F60000C0000000000000000000000000000000000003C2000B00000000018100000003C0000F04000000018000000000000C0FE97
:4D5BBD000C80002000410010000021100C8840300002000018008320100C00010000000000000000000000000000000000000030000000000000000010000000202000C00000000060100000000000C1FE20
:4D5C0A000008200226408458081060002C8009304226010018080360020D008400110000000000000000000000000000000000340000C0440000000004000000B00000C0000000006000000000000000FAEE
:4D5C57002000048006500802420028810D2000049046020002401009000521040600000000000000000000000000000000000004000010000000000800000000040000100000400008140000000000FCFDF8
:4D5CA400000000000080200000000100000080000000000000000000000000000000000000000000000000000000000000000000000000000000000000000000000000000000000000000000000000B8FEDC
:4D5CF1006000000000802008080260100C0001002000000018080360000880000C0000000000000000000000000000000000000C0000300000000000000000000C0000300000C0005800000000000098FE7A
:4D5D3E002800000026820210001022022C0208010226010000000801244C0291040000000000000000000000000000000000000400001000000000000000000004000010000040004882000000000043FF1E
:4D5D8B00808900412680028008432082408091000002020018041160002C000832110000000000000000000000000000000000300200C0480000000010000000B04000C01800006360210000000000B9FC68
:4D5DD800E0010C800171201EC00018000368000C9003000006C0021A1007E2013C0000000000000000000000000000000000003C2000F00000000018000000003C0000F00000C0037000000000000090FB19
:4D5E25008401300000810008088360100088010000040000180401604000800030000000000000000000000000000000000000300000C0000000006010000000300000C00000000320200000000000FBFE71
:4D5E72008001B04016801088001120002C80002142040400180013640208828430000000000000000000000000000000000000300000D0000000006004000000300000D00000000320020000000000A0FD07
:4D5EBF00B0080580005080024300080025200014900010108240104881012004360600000000000000000000000000000000001440001000000000080000000004000010000040000802000000000090FFDE
:4D5F0C0000000000008000000000000004020000000000000008000100000000000000000000000000000000000000000000000000000000000000000000000000000000000000002020000000000068FB16
:4D5F59000080000006802000C803010008800110A001C00000000060100380003010000000000000000000000000000000000030000030000000000000000000300000300000C0000000000000000090FAD2
:4D5FA6000C000000804008004010002088040402820000449010124202010028B0000000000000000000000000000000000000104000100000000000120000000040001000004000001200000000009AFE97
:4D5FF300042000212642000008080021248841000086404010000A20422C900510400000000000000000000000000000000000200100C0480000000004000000001000C0180000430002000000000078F839
:4D60400060000C8007704006C00319000760002C9007B0000EC48178000FE0412C0000000000000000000000000000000000003C0800F00000000018100000000C0000F00000C0031810000000000058FCF6
:4D608D000C8030100682000008000000088001300006404018000300000C800110080000000000000000000000000000000000200800C0000000000000000000000000C00000000300000000000000F1F8D7
:4D60DA00000830002080241001086441888881104206400888081121840C8041A0000000000000000000000000000000000000300200C0000000006014000000001100C0000000030010000000000038FB5E
:4D612700100000000000000000000000000000000000000000000000000000000000000000000000000000000000000000000000000000000000000000000000000000000000000000000000000000CCFB54
:4D617400000004800010000240000800012000040000100002400008000020000400000000000000000000000000000000200000800000000240000800012000008000000002400008000120000400A0FBC8
:4D61C10000400000000000000000000000000000000000000000000000000000000000000000000000000000000000000000000010000000000000000000000000100000400000000000000000000098FE5B
:4D620E002C0404800010000240000800012000048010120002400008002124000400000000000000000000000000000000200004800010420240000800012000048000100002400008000120000400C3FFB5
:4D625B00040000000000000000000000000000000000000000000000000000000000000000000000000000000000000000000000000000000000000000000000000000000000000000000000000000C9FA2F
:4D62A800000004800010000200000800012000040000100002400008000020000000000000000000000000000000000000200000800000000240000000012000008000000002000000000120000400E8FBDF
:4D62F5000C0000000000000000000200000000000000000000000000000000000000000000000000000000000000000000000000000000000000000000000000000000000000000000000000000000E3FA71
:4D634200204004800010000240200800012000048000120002400008000124000405000000000000000000000000000000200004850010140240002008012000048500101402400822080120000400D0F81B
:4D638F0000000000000000000000200000020000000006000800000000020000002000000000000000000000000000000000000060000000000000000000000000200000800000000000000000000010FB64
:4D63DC0000000000000000000000000000000000000000000000000000000800040000000000000000000000000000000000000000000000000000000000000000000000000000000000000000000018FB55
:4D642900000000000000000000004000000001000000000010000240000000000000000000000000000000000000000000000000000000000000000000000000000000000000000000000000000000C8FCCF
:4D64760000000000000000000000012000008000000000000008000100000000000000000000000000000000000000000000000000000000000000000000000000000000000000000000000000000008FC2B
:4D64C30000000000020000000000000008000200000000000000000200000200000000000000000000000000000000000000000000000000000000000000000080000000000000000000000000000074F98F
:4D651000000000040000000000000000000020000400000000000000000000000000000000000000000000000000000000000004000010000000000000000000040000100000000000000000000000C8F82E
:4D655D00000010000400000800800000000020000000000000020000000000002004000000000000000000000000000000000000000000000000000000000000000000000000000000000000000000D0F847
:4D65AA0080001008800000100480001000802000080240001000000010000240100000000000000000000000000000000000000000000020000000000000000010000000000000810000000000000070FD6E
:4D65F70020000C2001040006100003400020C001A00210000208000040000A000D1000000000000000000000000000000000000000000080000000000000000004000000000040000200000000000058FB90
:4D664400006120060080005029620000080005100A00000018000010020000008000000000000000000000000000000000000000000C200000000040080000300054C000000000420000000000000028FB39
:4D66910000400000000000000000000000000008080000001000000000000000000000000000000000000000000000000000000000000000000000000000000000000000000000000000000000000058FA0A
:4D66DE00884010080040000800810000044000000000000010000000000000000000000000000000000000000000000000000000000200000000002010000040000800010000008100000000000000B4FFC3
:4D672B0000000800000400040000000002000000000000000000000000000000100000000000000000000000000000000000000000000000000000000000000000000000000000000000000000000068F89F
:4D677800000000000000000000000000000000200000000010000000000000000000000000000000000000000000000000000000000000000000000000000000000000000000000000000000000000B8FEEE
:4D67C50000000000000000000000000000008000000000000010002000000000000000000000000000000000000000000000000000000000000000000000000000000000000000000000000000000000FDDA
:4D68120000000000000000000004480000A00200000000000CC0013000000000000000000000000000000000000000000000000000000000000000000000000000000000000000000000000000000018FF37
:4D685F0040002080000000000000000000000000000200000000000000040000080000000000000000000000000000000000000800002001000000000000000008040040000000000000000000000028FE63
:4D68AC0000000000000202000000000000000000000000000000000000000000000000000000000000000000000000000000000000000000000000000000000000000000000000000000000000000098FD06
:4D68F90000000000008000000000004000400000000000000480001000000000000000000000000000000000000000000000000000000000000000080000000000000000000000000800000000000098FE18
:4D69460000000000000000000002001000000004000000000000000808002000000000000000000000000000000000000000000000000000000000000000000000000000000000000000000000000070FA54
:4D69930000000000000000000000000000000000000800000000000000100000000000000000000000000000000000000000000000000000000000000000000000000000000000000000000000000008FE99
:4D69E00000000000000000000000000000000000000000000000000000000000000000000000000000000000000000000000000000000000000000000000000000000000000000000000000000000098FFD3
:4D6A2D00080000000000002000000400000000000000000040000000000000000000000000000000000000000000000000000000000000000000000000000000000000000000000040000000000000B0F9C7
:4D6A7A0040000000000000000000000000000000000000000000000000000001000000000000000000000000000000000000000000000000000000000000000000000000000000800000000000008048FE48
:4D6AC70004000000001000000000000004000000000000000000000000000000000000000000000000000000000000000000000000000000000000008000000000000000000000001000000000000010FFCB
:4D6B140000000000020000000000000000000000000000000000000000000000000000000000000000000000000000000000000000000000000000000000000000000000000000000000000000000098FD9D
:4D6B610000000000000000000000000000000000000000000000000000000000000000000000000000000000000000000000000000000000000000000000000000000000000000000000000000000098FF50
:4D6BAE00002000000000000000000000000040000000000000000000000000000000000000000000000000000000000000000000000000000000000000000000000000000000000000000000000000B8F989
:4D6BFB00000000000000000004000000000000000001A0000000800000000000000000000000000000000000000000000000000000000000000000000000000000000000000000000000000000000060FFC9
:4D6C4800000000000000000000000000000000008002000000000000000000000000000000000000000000000000000000000000000020000000000800000000000000000000C00010000000000000F8FC91
:4D6C950000000000080000000000000000000080000000000000000000000000000000000000000000000000000000000000000010000000000000100000000000400090000040012120000000000030F98F
:4D6CE200820008000000801400000080024000080001000000000000000040001000000000000000000000000000000000000000000000000000008000000000000400000000000420000000000000C0F9CB
:4D6D2F0000000000000000000000000000000000000000000000000000000000000000000000000000000000000000000000000000000000000000000000000000000000000000000000000000000098FF80
:4D6D7C0000000000000000000000000000000000000000000200000000000000000000000000000000000000000000000000000000000000000000000000000000000000000000000000000000008030FF19
:4D6DC90000000400000000024000000000000000000000200000000008000000000000000000000000000000000000000000000000008000000000000000000004000000000000000000000000000038FF54
:4D6E160000000000041001000000000000000000100000000000000000000000000000000000000000000000000000000000000000000000000000000000000000000000000000000000000000000098FA78
:4D6E630000000000000000000000000000000100008020000804000000080000000000000000000000000000000000000000000000000000000000200000000000000000000000002000000000000048FBAA
:4D6EB00010000408040100000041200001228000080400001002002040088000000000000000000000000000000000000000000000000000000000000000000000000000200000810000000000008032F91E
:4D6EFD00000014A00044008042000A1001680001A00022000618000840032000000000000000000000000000000000000000000000000000000000100000000000000000A000400012000000000000B8F80D
:4D6F4A000031800104A018900242C0010C8100200080801894440040011C0101240000000000000000000000000000000000002800000000000000000800003000540000000000022000000000000060FBA6
:4D6F9700000000000000000000000000010001000000000000020000000400000000000000000000000000000000000000000000000000000000000000000000000000000000000020000000000000B8FAD3
:4D6FE40000410000048020080481200002020020000021201000001000088800100000000000000000000000000000000000001000000000000000001000004000080000000000010000000000000000FA46
:4D703100000000000100000000009000000100080000000020000000010050000000000000000000000000000000000000000000000000000000002000000000000000200000000004000000000000D8FAF1
:4D707E0000000000000040000000000000000000000000000000000080040000000000000000000000000000000000000000000000000000000000000000000000200000000000000000000000000078F970
:4D70CB0000000000000000000000000001000020000400000000000000080001000000000000000000000000000000000000000000000000000000000100000000000000000000000000000000000060FFEA
:4D711800000000000000000000000040000000010000000120024000400000000000000000000000000000000000000000000000000000000000000000000000000000000000000000000000000000A8FF9F
:4D71650000000000800000008000008000004002000000000020000080000000000000000000000000000000000000000000000000000000000000000000000000000000010000000000000000000010F872
:4D71B20000000040008000000000000000000040400000000000040000001002000000000000000000000000000000000000000020000000000000000000000000000000000000000000000000000050FCCE
:4D71FF00000000000000000000000010000400040000000000000000000020000400000000000000000000000000000000000000000000000000000000000000000000000000000000000000000000D8F837
:4D724C0030008000800000080000200000000000000C400000000000001800004200000000000000000000000000000000000048000080010000000000000000480000200100000000000000000000A8FE1F
:4D729900000000400000000000000000000000000000000000000000000000000200000000000000000000000000000000000000000000000000000000000000000000000000000000400000000000BAFF6D
:4D72E60004000000000000024040000001000000000010000000000000010000000000000000000000000000000000000000000000000000000000004000000000000000000000000000000000000098F9F2
:4D733300000000000000020000000020000000000000000000080400000000000000000000000000000000000000000000000000000000000000000000000000000000000000000000000000000000B0FB34
:4D73800000000000080000000000000000000100000000100000024000000000000000000000000000000000000000000000000000000000000000000000000000000000000000000000000000000010F85D
