:020000040000FA
:39000000FFFF62FF3600FFFFFFFFFFFFFFFFFFFFFFFFFFFFFFFFFFFFFFFFFFFFFFFFFFFFFFFFFFFFFFFFFFFFFFFFFFFFFFFFFFFFFFFFFFFFFFFFFFFFFF65
:39003900000C9001304006C00018000360004C800932000600000000000000000000000000000000300126C00018000360800C8001300006C0001800DBAB
:390072000012E00248800B200124800490003A40075C000900000000000000000000000000000000E8001D2001248004900017400248000920012480D9A9
:3900AB000000000000000000000000000000000000000000000000000000000000000000000000000000000000000000000000000000000000000080F9A3
:3900E4000000000000000000000000000000000000000000000000000000000000000000000000000000000000000000000000000000000000000080F96A
:39011D00000020000080000000000000000000000400000000000000000000000000000000000000800100000000000000000000000000000000000089FB
:390156000000800400800200000000000000000400000000000000000000000000000100000000000000000000000000000000000000000000000080CA1B
:39018F000000000000000000000000000000000000000000000000000000000000000000000000000000000000000000000000000000000000000080F9BE
:3901C8000000000000000000000000000000000000000000000000000000000000000000000000000000000000000000000000000000000000000080F985
:390201000000000000000000000000000000000000000000000000000000000000000000000000000000000000000000000000000000000000000080F94B
:39023A000000000000000000000000000000000000000000000000000000000000000000000000000000000000000000000000000000000000000080F912
:390273000000000000000000000000000000000000000000000000000000000000000000000000000000000000000000000000000000000000000080F9D9
:3902AC000000000000000000000000000000000000000000000000000000000000000000000000000000000000000000000000000000000000000080F9A0
:3902E5000000000000000000000000000000000000000000000000000000000000000000000000000000000000000000000000000000000000000080F967
:39031E000000000000000000000000000000000000000000000000000000000000000000000000000000000000000000000000000000000000000080F92D
:390357000000000000000000000000000000000000000000000000000000000000000000000000000000000000000000000000000000000000000080F9F4
:390390000000000000000000000000000000000000000000000000000000000000000000000000000000000000000000000000000000000000000080F9BB
:3903C9000000000000000000000000000000000000000000000000000000000000000000000000000000000000000000000000000000000000000080F982
:390402000800000000000000000000000000000000000000000000000000000000000000000000000000000000000000000000000000000000000020DBBE
:39043B000000000000000000000000000000000000000000000000000000000000000000000000000000000000000000000000000000000000000080F90F
:390474000000000000000000000000000000000000000000000000000000000000000000000000000000000000000000000000000000000000000080F9D6
:3904AD000400000000000000000000000000000000000000000000000000000000000000000000000000000000000000000000000000000000000090ACD6
:3904E6000000000000000000000000000000000000000000000000000000000000000000000000000000000000000000000000000000000000000080F964
:39051F000000000000000000000000000000000000000000000000000000000000000000000000000000000000000000000000000000000000000080F92A
:390558000000000000000000000000000000000000000000000000000000000000000000000000000000000000000000000000000000000000000080F9F1
:390591000000000000000000000000000000000000000000000000000000000000000000000000000000000000000000000000000000000000000080F9B8
:3905CA000800000000000000000000000000000000000000000000000000000000000000000000000000000000000000000000000000000000000020DBF5
:390603000000000000000000000000000000000000000000000000000000000000000000000000000000000000000000000000000000000000000080F945
:39063C000000000000000000000000000000000000000000000000000000000000000000000000000000000000000000000000000000000000000080F90C
:390675000400000000000000000000000000000000000000000000000000000000000000000000000000000000000000000000000000000000000090AC0C
:3906AE000000000000000000000000000000000000000000000000000000000000000000000000000000000000000000000000000000000000000080F99A
:3906E7000000000000000000000000000000000000000000000000000000000000000000000000000000000000000000000000000000000000000080F961
:390720000000000000000000000000000000000000000000000000000000000000000000000000000000000000000000000000000000000000000080F927
:390759000000000000000000000000000000000000000000000000000000000000000000000000000000000000000000000000000000000000000080F9EE
:390792000800000000000000000000000000000000000000000000000000000000000000000000000000000000000000000000000000000000000020DB2B
:3907CB000000000000000000000000000000000000000000000000000000000000000000000000000000000000000000000000000000000000000080F97C
:390804000000000000000000000000000000000000000000000000000000000000000000000000000000000000000000000000000000000000000080F942
:39083D000400000000000000000000000000000000000000000000000000000000000000000000000000000000000000000000000000000000000090AC42
:390876000000000000000000000000000000000000000000000000000000000000000000000000000000000000000000000000000000000000000080F9D0
:3908AF000000000000000000000000000000000000000000000000000000000000000000000000000000000000000000000000000000000000000080F997
:3908E8000000000000000000000000000000000000000000000000000000000000000000000000000000000000000000000000000000000000000080F95E
:390921000000000000000000000000000000000000000000000000000000000000000000000000000000000000000000000000000000000000000080F924
:39095A000800000000000000000000000000000000000000000000000000000000000000000000000000000000000000000000000000000000000020DB61
:390993000000000000000000000000000000000000000000000000000000000000000000000000000000000000000000000000000000000000000080F9B2
:3909CC000000000000000000000000000000000000000000000000000000000000000000000000000000000000000000000000000000000000000080F979
:390A05000400000000000000000000000000000000000000000000000000000000000000000000000000000000000000000000000000000000000090AC78
:390A3E000000000000000000000000000000000000000000000000000000000000000000000000000000000000000000000000000000000000000080F906
:390A77000000000000000000000000000000000000000000000000000000000000000000000000000000000000000000000000000000000000000080F9CD
:390AB0000000000000000000000000000000000000000000000000000000000000000000000000000000000000000000000000000000000000000080F994
:390AE9000000000000000000000000000000000000000000000000000000000000000000000000000000000000000000000000000000000000000080F95B
:390B22000C000000000000000000000000000000000000000000000000000000000000000000000000000000000000000000000000000000000000209FCF
:390B5B000400000000000000000000000000000000000000000000000000000000000000000000000000000000000000000000000000000000000080BD20
:390B94000000000000000000000000000000000000000000000000000000000000000000000000000000000000000000000000000000000000000080F9AF
:390BCD000C00000000000000000000000000000000000000000000000000000000000000000000000000000000000000000000000000000000000010AC27
:390C06000000000000000000000000000000000000000000000000000000000000000000000000000000000000000000000000000000000000000080F93C
:390C3F000000000000000000000000000000000000000000000000000000000000000000000000000000000000000000000000000000000000000080F903
:390C78000000000000000000000000000000000000000000000000000000000000000000000000000000000000000000000000000000000000000080F9CA
:390CB1000000000000000000000000000000000000000000000000000000000000000000000000000000000000000000000000000000000000000080F991
:390CEA000800000000000000000000000000000000000000000000000000000000000000000000000000000000000000000000000000000000000020DBCE
:390D23000000000000000000000000000000000000000000000000000000000000000000000000000000000000000000000000000000000000000080F91E
:390D5C000000000000000000000000000000000000000000000000000000000000000000000000000000000000000000000000000000000000000080F9E5
:390D95000400000000000000000000000000000000000000000000000000000000000000000000000000000000000000000000000000000000000090ACE5
:390DCE000000000000000000000000000000000000000000000000000000000000000000000000000000000000000000000000000000000000000080F973
:390E07000000000000000000000000000000000000000000000000000000000000000000000000000000000000000000000000000000000000000080F939
:390E40000000000000000000000000000000000000000000000000000000000000000000000000000000000000000000000000000000000000000080F900
:390E79000000000000000000000000000000000000000000000000000000000000000000000000000000000000000000000000000000000000000080F9C7
:390EB2000800000000000000000000000000000000000000000000000000000000000000000000000000000000000000000000000000000000000020DB04
:390EEB000000000000000000000000000000000000000000000000000000000000000000000000000000000000000000000000000000000000000080F955
:390F24000000000000000000000000000000000000000000000000000000000000000000000000000000000000000000000000000000000000000080F91B
:390F5D000400000000000000000000000000000000000000000000000000000000000000000000000000000000000000000000000000000000000090AC1B
:390F96000000000000000000000000000000000000000000000000000000000000000000000000000000000000000000000000000000000000000080F9A9
:390FCF000000000000000000000000000000000000000000000000000000000000000000000000000000000000000000000000000000000000000080F970
:391008002000048000100002400008000120000480001000000000000000000000000000000000800010000240000800012000048000100002400080F9B2
:391041000000000000000000000000000000000000000000000000000000000000000000000000000000000000000000000000000000000000000080F9FD
:39107A002800048000100002400008000120000480001000000000000000000000000000000000800010000240000800012000048000100002400020DBB6
:3910B3000000000000000000000000000000000000000000000000000000000000000000000000000000000000000000000000000000000000000080F98B
:3910EC002000048000100002400008000120000480001000000000000000000000000000000000800010000240000800012000048000100002400080F9CE
:391125000400000000000000000000000000000000000000000000000000000000000000000000000000000000000000000000000000000000000090AC51
:39115E002000048000100002400008000120000480001000000000000000000000000000000000800010000240000800012000048000100002400080F95B
:391197000000000000000000000000000000000000000000000000000000000000000000000000000000000000000000000000000000000000000080F9A6
:3911D0000000000000000000000000000000000000000000000000000000000000000000000000000000000000000000000000000000000000000080F96D
:391209000000000000000000000000000000000000000000000000000000000000000000000000000000000000000000000000000000000000000080F933
:391242000000000000000000000000000000000000000000000000000000000000000000000000000000000000000000000000000000000000000080F9FA
:39127B000000000000000000000000000000000000000000000000000000000000000000000000000000000000000000000000000000000000000080F9C1
:3912B4000000000000000000000000000000000000000000000000000000000000000000000000000000000000000000000000000000000000000080F988
:3912ED000000000000000000000000000000000000000000000000000000000000000000000000000000000000000000000000000000000000000080F94F
:391326000000000000000000000000000000000000000000000000000000000000000000000000000000000000000000000000000000000000000080F915
:39135F000000000000000000000000000000000000000000000000000000000000000000000000000000000000000000000000000000000000000080F9DC
:391398000000000000000000000000000000000000000000000000000000000000000000000000000000000000000000000000000000000000000080F9A3
:3913D1000000000000000000000000000000000000000000000000000000000000000000000000000000000000000000000000000000000000000080F96A
:39140A000000000000000000000000000000000000000000000000000000000000000000000000000000000000000000000000000000000000000080F930
:391443000000000000000000000000000000000000000000000000000000000000000000000000000000000000000000000000000000000000000080F9F7
:39147C000000000000000000000000000000000000000000000000000000000000000000000000000000000000000000000000000000000000000080F9BE
:3914B5000000000000000000000000000000000000000000000000000000000000000000000000000000000000000000000000000000000000000080F985
:3914EE000000000000000000000000000000000000000000000000000000000000000000000000000000000000000000000000000000000000000080F94C
:391527000000000000000000000000000000000000000000000000000000000000000000000000000000000000000000000000000000000000000080F912
:391560000000000000000000000000000000000000000000000000000000000000000000000000000000000000000000000000000000000000000080F9D9
:391599000000000000000000000000000000000000000000000000000000000000000000000000000000000000000000000000000000000000000080F9A0
:3915D2000000000000000000000000000000000000000000000000000000000000000000000000000000000000000000000000000000000000000080F967
:39160B000000000000000000000000000000000000000000000000000000000000000000000000000000000000000000000000000000000000000080F92D
:391644000000000000000000000000000000000000000000000000000000000000000000000000000000000000000000000000000000000000000080F9F4
:39167D000000000000000000000000000000000000000000000000000000000000000000000000000000000000000000000000000000000000000080F9BB
:3916B6000000000000000000000000000000000000000000000000000000000000000000000000000000000000000000000000000000000000000080F982
:3916EF000000000000000000000000000000000000000000000000000000000000000000000000000000000000000000000000000000000000000080F949
:391728000000000000000000000000000000000000000000000000000000000000000000000000000000000000000000000000000000000000000080F90F
:391761000000000000000000000000000000000000000000000000000000000000000000000000000000000000000000000000000000000000000080F9D6
:39179A000000000000000000000000000000000000000000000000000000000000000000000000000000000000000000000000000000000000000080F99D
:3917D3000000000000000000000000000000000000000000000000000000000000000000000000000000000000000000000000000000000000000080F964
:39180C000000000000000000000000000000000000000000000000000000000000000000000000000000000000000000000000000000000000000080F92A
:391845000000000000000000000000000000000000000000000000000000000000000000000000000000000000000000000000000000000000000080F9F1
:39187E000000000000000000000000000000000000000000000000000000000000000000000000000000000000000000000000000000000000000080F9B8
:3918B7000000000000000000000000000000000000000000000000000000000000000000000000000000000000000000000000000000000000000080F97F
:3918F0000000000000000000000000000000000000000000000000000000000000000000000000000000000000000000000000000000000000000080F946
:391929000000000000000000000000000000000000000000000000000000000000000000000000000000000000000000000000000000000000000080F90C
:391962000000000000000000000000000000000000000000000000000000000000000000000000000000000000000000000000000000000000000080F9D3
:39199B000000000000000000000000000000000000000000000000000000000000000000000000000000000000000000000000000000000000000080F99A
:3919D4000000000000000000000000000000000000000000000000000000000000000000000000000000000000000000000000000000000000000080F961
:391A0D000000000000000000000000000000000000000000000000000000000000000000000000000000000000000000000000000000000000000080F927
:391A46000000000000000000000000000000000000000000000000000000000000000000000000000000000000000000000000000000000000000080F9EE
:391A7F000000000000000000000000000000000000000000000000000000000000000000000000000000000000000000000000000000000000000080F9B5
:391AB8000000000000000000000000000000000000000000000000000000000000000000000000000000000000000000000000000000000000000080F97C
:391AF1000000000000000000000000000000000000000000000000000000000000000000000000000000000000000000000000000000000000000080F943
:391B2A000000000000000000000000000000000000000000000000000000000000000000000000000000000000000000000000000000000000000080F909
:391B63000000000000000000000000000000000000000000000000000000000000000000000000000000000000000000000000000000000000000080F9D0
:391B9C000000000000000000000000000000000000000000000000000000000000000000000000000000000000000000000000000000000000000080F997
:391BD5000000000000000000000000000000000000000000000000000000000000000000000000000000000000000000000000000000000000000080F95E
:391C0E000000000000000000000000000000000000000000000000000000000000000000000000000000000000000000000000000000000000000080F924
:391C47000000000000000000000000000000000000000000000000000000000000000000000000000000000000000000000000000000000000000080F9EB
:391C80000000000000000000000000000000000000000000000000000000000000000000000000000000000000000000000000000000000000000080F9B2
:391CB9000000000000000000000000000000000000000000000000000000000000000000000000000000000000000000000000000000000000000080F979
:391CF2000800000000000000000000000000000000000000000000000000000000000000000000000000000000000000000000000000000000000020DBB6
:391D2B000000000000000000000000000000000000000000000000000000000000000000000000000000000000000000000000000000000000000080F906
:391D64000000000000000000000000000000000000000000000000000000000000000000000000000000000000000000000000000000000000000080F9CD
:391D9D000400000000000000000000000000000000000000000000000000000000000000000000000000000000000000000000000000000000000090ACCD
:391DD6000000000000000000000000000000000000000000000000000000000000000000000000000000000000000000000000000000000000000080F95B
:391E0F000000000000000000000000000000000000000000000000000000000000000000000000000000000000000000000000000000000000000080F921
:391E48000000000000000000000000000000000000000000000000000000000000000000000000000000000000000000000000000000000000000080F9E8
:391E81000000000000000000000000000000000000000000000000000000000000000000000000000000000000000000000000000000000000000080F9AF
:391EBA000800000000000000000000000000000000000000000000000000000000000000000000000000000000000000000000000000000000000020DBEC
:391EF3000000000000000000000000000000000000000000000000000000000000000000000000000000000000000000000000000000000000000080F93D
:391F2C000000000000000000000000000000000000000000000000000000000000000000000000000000000000000000000000000000000000000080F903
:391F65000400000000000000000000000000000000000000000000000000000000000000000000000000000000000000000000000000000000000090AC03
:391F9E000000000000000000000000000000000000000000000000000000000000000000000000000000000000000000000000000000000000000080F991
:391FD7000000000000000000000000000000000000000000000000000000000000000000000000000000000000000000000000000000000000000080F958
:392010000000000000000000000000000000000000000000000000000000000000000000000000000000000000000000000000000000000000000080F91E
:392049000000000000000000000000000000000000000000000000000000000000000000000000000000000000000000000000000000000000000080F9E5
:392082000800000000000000000000000000000000000000000000000000000000000000000000000000000000000000000000000000000000000030CA23
:3920BB000000000000000000000000000000000000000000000000000000000000000000000000000000000000000000000000000000000000000090E874
:3920F4000000000000000000000000000000000000000000000000000000000000000000000000000000000000000000000000000000000000000080F93A
:39212D0004000000000000000000000000000000000000000000000000000000000000000000000000000000000000000000000000000000000000B08E37
:392166000000000000000000000000000000000000000000000000000000000000000000000000000000000000000000000000000000000000000080F9C7
:39219F000000000000000000000000000000000000000000000000000000000000000000000000000000000000000000000000000000000000000080F98E
:3921D8000000000000000000000000000000000000000000000000000000000000000000000000000000000000000000000000000000000000000080F955
:392211000000000000000000000000000000000000000000000000000000000000000000000000000000000000000000000000000000000000000080F91B
:39224A000800000000000000000000000000000000000000000000000000000000000000000000000000000000000000000000000000000000000020DB58
:392283000000000000000000000000000000000000000000000000000000000000000000000000000000000000000000000000000000000000000080F9A9
:3922BC000000000000000000000000000000000000000000000000000000000000000000000000000000000000000000000000000000000000000080F970
:3922F5000400000000000000000000000000000000000000000000000000000000000000000000000000000000000000000000000000000000000090AC70
:39232E000000000000000000000000000000000000000000000000000000000000000000000000000000000000000000000000000000000000000080F9FD
:392367000000000000000000000000000000000000000000000000000000000000000000000000000000000000000000000000000000000000000080F9C4
:3923A0000000000000000000000000000000000000000000000000000000000000000000000000000000000000000000000000000000000000000080F98B
:3923D9000000000000000000000000000000000000000000000000000000000000000000000000000000000000000000000000000000000000000080F952
:392412000800000000000000000000000000000000000000000000000000000000000000000000000000000000000000000000000000000000000020DB8E
:39244B000000000000000000000000000000000000000000000000000000000000000000000000000000000000000000000000000000000000000080F9DF
:392484000000000000000000000000000000000000000000000000000000000000000000000000000000000000000000000000000000000000000080F9A6
:3924BD000400000000000000000000000000000000000000000000000000000000000000000000000000000000000000000000000000000000000090ACA6
:3924F6000000000000000000000000000000000000000000000000000000000000000000000000000000000000000000000000000000000000000080F934
:39252F000000000000000000000000000000000000000000000000000000000000000000000000000000000000000000000000000000000000000080F9FA
:392568000000000000000000000000000000000000000000000000000000000000000000000000000000000000000000000000000000000000000080F9C1
:3925A1000000000000000000000000000000000000000000000000000000000000000000000000000000000000000000000000000000000000000080F988
:3925DA000800000000000000000000000000000000000000000000000000000000000000000000000000000000000000000000000000000000000020DBC5
:392613000000000000000000000000000000000000000000000000000000000000000000000000000000000000000000000000000000000000000080F915
:39264C000000000000000000000000000000000000000000000000000000000000000000000000000000000000000000000000000000000000000080F9DC
:392685000400000000000000000000000000000000000000000000000000000000000000000000000000000000000000000000000000000000000090ACDC
:3926BE000000000000000000000000000000000000000000000000000000000000000000000000000000000000000000000000000000000000000080F96A
:3926F7000000000000000000000000000000000000000000000000000000000000000000000000000000000000000000000000000000000000000080F931
:392730000000000000000000000000000000000000000000000000000000000000000000000000000000000000000000000000000000000000000080F9F7
:392769000000000000000000000000000000000000000000000000000000000000000000000000000000000000000000000000000000000000000080F9BE
:3927A2000800000000000000000000000000000000000000000000000000000000000000000000000000000000000000000000000000000000000030CAFC
:3927DB000000000000000000000000000000000000000000000000000000000000000000000000000000000000000000000000000000000000000090E84D
:392814000000000000000000000000000000000000000000000000000000000000000000000000000000000000000000000000000000000000000080F912
:39284D0004000000000000000000000000000000000000000000000000000000000000000000000000000000000000000000000000000000000000B08E10
:392886000000000000000000000000000000000000000000000000000000000000000000000000000000000000000000000000000000000000000080F9A0
:3928BF000000000000000000000000000000000000000000000000000000000000000000000000000000000000000000000000000000000000000080F967
:3928F8002000048000100002400008000120000480001000000000000000000000000000000000800010000240000800012000048000100002400080F9AA
:392931000000000000000000000000000000000000000000000000000000000000000000000000000000000000000000000000000000000000000080F9F4
:39296A002C000480001000024000080001200004800010000000000000000000000000000000008000100002400008000120000480001000024000308EE6
:3929A3000400000000000000000000000000000000000000000000000000000000000000000000000000000000000000000000000000000000000090ACBB
:3929DC002000048000100002400008000120000480001000000000000000000000000000000000800010000240000800012000048000100002400080F9C5
:392A15000C000000000000000000000000000000000000000000000000000000000000000000000000000000000000000000000000000000000000308EBE
:392A4E002000048000100002400008000120000480001000000000000000000000000000000000800010000240000800012000048000100002400080F952
:392A87000000000000000000000000000000000000000000000000000000000000000000000000000000000000000000000000000000000000000080F99D
:392AC0000000000000000000000000000000000000000000000000000000000000000000000000000000000000000000000000000000000000000080F964
:392AF9000000000000000000000000000000000000000000000000000000000000000000000000000000000000000000000000000000000000000080F92B
:392B32000000000000000000000000000000000000000000000000000000000000000000000000000000000000000000000000000000000000000080F9F1
:392B6B000000000000000000000000000000000000000000000000000000000000000000000000000000000000000000000000000000000000000080F9B8
:392BA4000000000000000000000000000000000000000000000000000000000000000000000000000000000000000000000000000000000000000080F97F
:392BDD000000000000000000000000000000000000000000000000000000000000000000000000000000000000000000000000000000000000000080F946
:392C16000000000000000000000000000000000000000000000000000000000000000000000000000000000000000000000000000000000000000080F90C
:392C4F000000000000000000000000000000000000000000000000000000000000000000000000000000000000000000000000000000000000000080F9D3
:392C88000000000000000000000000000000000000000000000000000000000000000000000000000000000000000000000000000000000000000080F99A
:392CC1000000000000000000000000000000000000000000000000000000000000000000000000000000000000000000000000000000000000000080F961
:392CFA000000000000000000000000000000000000000000000000000000000000000000000000000000000000000000000000000000000000000080F928
:392D33000000000000000000000000000000000000000000000000000000000000000000000000000000000000000000000000000000000000000080F9EE
:392D6C000000000000000000000000000000000000000000000000000000000000000000000000000000000000000000000000000000000000000080F9B5
:392DA5000000000000000000000000000000000000000000000000000000000000000000000000000000000000000000000000000000000000000080F97C
:392DDE000000000000000000000000000000000000000000000000000000000000000000000000000000000000000000000000000000000000000080F943
:392E17000000000000000000000000000000000000000000000000000000000000000000000000000000000000000000000000000000000000000080F909
:392E50000000000000000000000000000000000000000000000000000000000000000000000000000000000000000000000000000000000000000080F9D0
:392E89000000000000000000000000000000000000000000000000000000000000000000000000000000000000000000000000000000000000000080F997
:392EC2000000000000000000000000000000000000000000000000000000000000000000000000000000000000000000000000000000000000000080F95E
:392EFB000000000000000000000000000000000000000000000000000000000000000000000000000000000000000000000000000000000000000080F925
:392F34000000000000000000000000000000000000000000000000000000000000000000000000000000000000000000000000000000000000000080F9EB
:392F6D000000000000000000000000000000000000000000000000000000000000000000000000000000000000000000000000000000000000000080F9B2
:392FA6000000000000000000000000000000000000000000000000000000000000000000000000000000000000000000000000000000000000000080F979
:392FDF000000000000000000000000000000000000000000000000000000000000000000000000000000000000000000000000000000000000000080F940
:393018000000000000000000000000000000000000000000000000000000000000000000000000000000000000000000000000000000000000000080F906
:393051000000000000000000000000000000000000000000000000000000000000000000000000000000000000000000000000000000000000000080F9CD
:39308A000000000000000000000000000000000000000000000000000000000000000000000000000000000000000000000000000000000000000080F994
:3930C3000000000000000000000000000000000000000000000000000000000000000000000000000000000000000000000000000000000000000080F95B
:3930FC000000000000000000000000000000000000000000000000000000000000000000000000000000000000000000000000000000000000000080F922
:393135000000000000000000000000000000000000000000000000000000000000000000000000000000000000000000000000000000000000000080F9E8
:39316E000000000000000000000000000000000000000000000000000000000000000000000000000000000000000000000000000000000000000080F9AF
:3931A7000000000000000000000000000000000000000000000000000000000000000000000000000000000000000000000000000000000000000080F976
:3931E0000000000000000000000000000000000000000000000000000000000000000000000000000000000000000000000000000000000000000080F93D
:393219000000000000000000000000000000000000000000000000000000000000000000000000000000000000000000000000000000000000000080F903
:393252000000000000000000000000000000000000000000000000000000000000000000000000000000000000000000000000000000000000000080F9CA
:39328B000000000000000000000000000000000000000000000000000000000000000000000000000000000000000000000000000000000000000080F991
:3932C4000000000000000000000000000000000000000000000000000000000000000000000000000000000000000000000000000000000000000080F958
:3932FD000000000000000000000000000000000000000000000000000000000000000000000000000000000000000000000000000000000000000080F91F
:393336000000000000000000000000000000000000000000000000000000000000000000000000000000000000000000000000000000000000000080F9E5
:39336F00A0440080001000000000680400200034000010000000000000000000000000000000008006D0001A4000680005A244008000000002400000FA22
:3933A8000001000000000000000000100000000000000000000000000000000000000000000000000000000040000000080001000000000000000080A56D
:3933E1000081000000000000000060000000003C000000000000000000000000000000000000008007F2401EC00078000C800100800700001E0000809144
:39341A00801000000000000000000011000000844000000000000000000000000000000000000080401008026000084400024000801008001A000B82F11C
:393453008008000046C0080000002004008011800000C0080000000000000000000000000000000010000240000000018000100000C0000000010000E524
:39348C00E080008007F120000000782000E0010D2000F0200000000000000000000000000000000001348006900010400FE481008007000004C48300D4A4
:3934C5000001000006C0000000000000008001302000C0000000000000000000000000000000000006C0201810006000000800010000040000000300CF29
:3934FE000005020006C0000000006084008001300200C0000000000000000000000000000000000006C1029A000060104C8009000000000040048380EC96
:3935370030000080061000000000080000A011050000D000000000000000000000000000000000800610001A40200C008DA41101800000001A400000A727
:393570000000000000000000000000000000000000000000000000000000000000000000000000000000000000000000000000000000000018000000E02A
:3935A9000000000000C10000000018000080010C00000020000000000000000000000000000000000600001E000060100C800100800700001E000080CD50
:3935E2000C00000006C0000000000800000044040000C0020000000000000000000000000000000020C182022088600020024400800600001A0000209E9B
:39361B008405000016C2040000006010008010300200C0480000000000000000000000000000000020010840000002208480100000C0000000010B80E20A
:39365400E041008001F020000000780000E0813C200030000000000000000000000000000000008007F02006D00078000FE481008001000004C48300D130
:39368D008C010000000020000000600000000031000000000000000000000000000000000000000006C1201810006000000800010000000000000390F4C7
:3936C600800100001601080000006000008009300000C0220000000000000000000000000000000010C00098000201124C8009000010080000000300EBD8
:3936FF00A001348002D104000000680200A0513400005044000000000000000000000000000000800610001A400068004DA009000000000002400300A907
:393738000000000004004000000000100000000000008000000000000000000000000000000000000000000000000000000240000000000000000080C3FF
:3937710000003C0006C02000000000000000803C1000C0000000000000000000000000000000008007C0001EC000784000008000000000001E008080975F
:3937AA0084518440400100000000002200000804020000280000000000000000000000000000008000C800025100080100100800000000001A000390F853
:3937E3008C498000404008000000208200800081000000080000000000000000000000000000000010000240000300010488000100000000180103349D55
:39381C0060000CA007F24000000058000060010C2000F0400000000000000000000000000000000001348006D08310400B600100000000001CC40080FFF0
:3938550008003008000480000000000000000030000000800000000000000000000000000000000006000018000360000000000000000000000000A0861F
:39388E008001350126C0040000006020008081302200C0040000000000000000000000000000000046012218100360140C848100000000004004A300B415
:3938C70020003480165120000000080000A001340000D0000000000000000000000000000000008012D0001A400368140DA001008000000002401181B6CD
:3939000000000000008000000000000000000000000000800000000000000000000000000000000004010000000300000000000000000000000002808480
:3939390000003C0006C000000000180000E0813C1000C0200000000000000000000000000000000002F0001E000361000FE001008007000006008300F743
:3939720008000404A0002200000008000020100402000008000000000000000000000000000000002411000311030011812400028010080002002020C660
:3939AB0080858000420008000000601000000480000040080000000000000000000000000000000012010240009300202000040000C0000000011084D384
:3939E400E0010CA007F24000000078000060000D2000F0400000000000000000000000000000008005308006D0037800036800018007000004C40300D893
:393A1D0084013008000480000000600000804130000000800000000000000000000000000000000002C10018000320000C8001000000040018000092F332
:393A56008001300226C0040000006800008011342200C0040000000000000000000000000000000042D0221A100024124DA101010000000058041380F321
:393A8F0030440480001000000000680000A001340000D008000000000000000000000000000000801001001A400328440D2000000000000002402380C8AD
:393AC8000000000000000000000000000000000000000080000000000000000000000000000000000000000000034000000000000000000000000001EE13
:393B01008080300000000000000000100000403C00000000000000000000000000000000000000800701001EC0033810000200000000000006008380F221
:393B3A000C113000160400000000000400001004040000000100000000000000000000000000008046000002490348042C0000000000000002000810A682
:393B73000408800020C120000000000000003080000040800000000000000000000000000000000012000040000000010C8445000000000018011134F0A6
:393BAC0060810CA007F000000000784000E0010C2000B0000000000000000000000000000000000003040006D080704003E00100000000001CC40300E42F
:393BE5008C00000806C00000000060000080013020000000000000000000000000000000000000000200001804006010008001000000000000000022B536
:393C1E008005020226C1000000006041008005B10000C0400000000000000000000000000000000002040058000000014C82010000000000400413008918
:393C570020003480061000000000680000A00834040010000000000000000000000000000000008006D0000240210C1401A001008000000002402302FE92
:393C90000000000000000000000000000000410000000000000000000000000000000000000000000000000000000000000000000000000000000080B882
:393CC90000003C800700000000007820008001000000000000000000000000000000000000000080070020180000000000E0010080010000000000829BA8
:393D02000800048410C882000000080400004000090000000000000000000000000000000000008020020218008800110020000280000000000008A09C0E
:393D3B00803180001000220000000001000010102000C0440000000000000000000000000000000016001040002000200C0204000040040000010102BEE9
:393D7400E0010CA001F400000000184000E0812C0000F0000000000000000000000000000000000007F40006D00019000F6000018001000006D002009B71
:393DAD008401300806C0000000006040000000010000C0000000000000000000000000000000000000C10000040002000C8001000006000018000090CC2B
:393DE6008001348206C4240000006000008009301000C0000000000000000000000000000000000010C08240001040120C80010100160800180523048B27
:393E1F003000348000D000000000284000A0013400001000000000000000000000000000000000802014001A40206C1401A0010080001000024000C0B9CE
:393E58000000000000008000000040000000000000000000000000000000000000000000000000000000000000000000000000000000000000000080B53C
:393E910000003000000040000000600000E0813C0000C020000000000000000000000000000000000000001E000078000C0240008001000000000000BF87
:393ECA008C0581400000000000000012002010041100000200000000000000000000000000000000220100020988080A2080110080000000000000B09DCE
:393F030004508000064180000000000400000480000000480000000000000000000000000000000010C0844000202001008409000016C84000011391A154
:393F3C00E0010CA007B00000000078200060000D2000F0000000000000000000000000000000008001F10006D00251400F6000018007F00006D00380F4E4
:393F75008C0130080600000000000000008041302000C0000000000000000000000000000000000000C00018040042200C0000000006C00018000330A577
:393FAE008041300106C040000000608400A011300000C02200000000000000000000000000000000A0C0005A001020024C8249000006C000980403009B38
:393FE7003000048006D000004000680000200034000010000000000000000000000000000000008010D0001A40200C000D200004800010001A400000B159
:394020000000000000000000000000000000000000000000000000000000000000000000000000000001000000002010000000000000000018000000E33B
:394059008001308007F04000C00060000000003C000000000000000000000000000000000000000000F00018000100000F804130800100001E008380F2CD
:394092000C5030801018080040000008008005050400C082000000000000000000000000000000002011000109880011810410308000C0821A000020BB51
:3940CB000448800010000200000B000100004080000000200000000000000000000000000000000010010240002000212000088000160820180000849547
:39410400E0010CA001348000C0031A4000E0010C2000F0000000000000000000000000000000008001308006D000190003E8010DA007F0001EC00380D045
:39413D008C01000806C0800000036010008001302000C0000000000000000000000000000000000000C10018040002100C8001000806C02018000310CF06
:394176008001010106C4000000036004008049B40000C0240000000000000000000000000000000044C02258001000044C8149000106C0001A00A300A728
:3941AF0010000000000000000000000000000000000000000000000000000000000000000000000000000000001000000000000000000000000000C0AC4B
:3941E8002000000000100002400000000100000080001000000000000000000000000000000000800000000040800800000000048000100000400080837C
:394221000000000000000000000000000000000000000000000000000000000000000000000000000000000000000000000000000000000000040080FDE3
:39425A002C000485201400024000080A01202804A10010000000000000000000000000000000008000108882100008000121200480001000024100B082F3
:394293000400000000000000000000000000000000000000000000000000000000000000000000000000000000000000000000000000000010000090BD91
:3942CC0020000000000000020000000001000000800010000000000000000000000000000000000000000000000000000000000400001000004000009F13
:394305000C000000000000000000002000000000100000000000000000000000000000000000000000020000080001400000000000000200000000B0C086
:39433E00200004A24014880240200A010120100580001000000000000000000000000000000000002210100200112004812884048010100008400000EDF2
:394377000000000000000000000000000000000000000000000000000000000000000000000000000000000000000000000000000000000000000080F994
:3943B0000000000000000000000000000000000000000000000000000000000000000000000000000000100000000000000000000000000000000080E95B
:3943E9008000000000000000000000000000000000000000000000000000000000000000000000000000004000002000000000000000000000004080F308
:394422000000000000000000000000000000040000000000000000000000000000000000000000000000000000000000000004000000000000000080BD1C
:39445B000000000000000000000000000000000000000000000000000000000000000000000000000010000000000000012000000000000000000080EB8C
:394494000000040000004000000008000020000000000000000000000000000000000000000000000000000000000000000000000000000000000000D3B0
:3944CD0000000000000000000000000000800010000000000000000000000000000000000000000002000008048100000000000000000000000000009304
:394506008000000000000000000000000000000000000000000000000000000000000000000000000000200000000000000000000000012000000080D269
:39453F00220000000000000000000000004000080000000000000000000000000000000000000000010080048800010000000000000004940000508095CE
:39457800900660000C000000000000000080568000000000000000000000000000000000000000005A0A000803100000000000000004000408000080C5DE
:3945B10080000000000000000000000000804000000000000000000000000000000000000000000002000008000000000000000000000000080000009BE4
:3945EA0012001000020000000000000000000000000000000000000000000000000000000000000000000000040000000000000000020000000000808A64
:3946230000000000100002000000000000000480000000020000000000000000000000000000000000000000000800002000040000000000000008008E04
:39465C000000000000000000000000800000000400000000000000000000000000000000000000000000000000000000000000000000000000000000B5EC
:394695000000000000000000000000000040000000000000000000000000000000000000000000000000000000000000004000000000000000000480FDEB
:3946CE000000000000000000000080000000000000004000000000000000000000000000000000000000000000000200000000000000000000000100CE22
:394707000001000008000100000080000020024000000001000000000000000000000000000000000000000000040000100002000000000000000080F006
:394740000000000000000000000000000000000000000000000000000000000000000000000000000000000000000000000000000000000000000084B903
:394779000000000000000000000000000000000000000000000000000000000000000000000000000000000000000000000000000000000000000080F98E
:3947B2000000000000400000000020000000004000000000000000000000000000000000000000000840000000000000000000000000000000000000DB0B
:3947EB0000000440000800000000000000000004400000000000000000000000000000000000000000000010040000180A0000000000000000000000A32C
:39482400000000000000000000000000008000180000000000000000000000000000000000000080020000040000000000000001000000000000000097A5
:39485D000E40000000000000000020000080400008020000000000000000000000000000000000000201000804800000040000000000000008040080C10A
:3948960080001000000100000000000000000000000000000000000000000000000000000000000000000000000120100080001000020000000081A0F183
:3948CF0028800400000400000000100000408010100100000000000000000000000000000000000001020004480009400220000480000000044800AAD506
:394908008C7E8052E02001300000400800805ED0011A000000000000000000000000000000000000044110100442200200800280008610000002198097C1
:394941008020000000000000000000000080401000020000000000000000000000000000000000000041000004002000008000000002000000000100BF24
:39497A000040000000010008000020100000000000000000000000000000000000000000000000000200200800810000000000000002010000040000A831
:3949B3002000000000000000000000010000000010000000000000000000000000000000000000000002000000001000000000000000000000000080CA3E
:3949EC00800000000000000000800020000000000000000000000000000000000000000000000000000480009000080000000000000000000000000080D6
:394A25000000020002020000000008000000000008000000000000000000000000000000000000000000000088000000000080008002080000000000F1BF
:394A5E0000000080002000000000000000000000040000C0000000000000000000000000000000000000000000000000030800000000000000000800D6D2
:394A97000000000000000000000000000000000000000000000000000000000000000000000000000000000000000000000000000000000000000080F96D
:394AD0000000000000000000000000000000000000002000000000000000000000000000000000000010000000000000000000000000000000000080EA13
:394B09000000000000000000000000000000000000000040000000000000000000000000000000000000000000000000000000000000200000000082BDD4
:394B42000040000800012000000000100000400008000020000000000000000000000000000000000001200004000019000240000800002000008080D1E0
:394B7B000080000000000000000000000000000004000000000000000000000000000000000000000000000000000000000040000000000000080000F540
:394BB4000000000000000000000000000000000000000000000000000000000000000000000000000000000000000000000000000010000000000008E0D0
:394BED000000000800812000008020000000C0000000000000000000000000000000000000000000010020000000000000020000000000000000000083E0
:394C26000000000000020200000000010000008010000000000000000000000000000000000000008000000008000000000001000000000000000000D166
:394C5F000000000000000000000000000000000000000000000000000000000000000000000000000000000000000000000000000000404000000080BD5F
:394C98000000000000000000000000000000000000000000000000000000000000000000000000000000000000000000000000000000801000000202F25D
:394CD1000000000000000000000000000000000000000000000000000000000000000000000000000000000000000000000000000000000000000080F931
:394D0A000000000000000000000000000000000000000000000000000000000000000000000000000000000000000000000000000000000000000080F9F7
:394D4300002A40025C000920017480049000124002480009000000000000000000000000000000004800092001748004900012400248801F20012E008B09
:394D7C0000648101320006C00098000360000C800130000600000000000000000000000000000000300006C00098000360000C8001304026C0001980E510
:024DB500FFFFFE
:00000001FF
