:020000040000FA
:39000000FFFF62FF3600FFFFFFFFFFFFFFFFFFFFFFFFFFFFFFFFFFFFFFFFFFFFFFFFFFFFFFFFFFFFFFFFFFFFFFFFFFFFFFFFFFFFFFFFFFFFFFFFFFFFFF65
:39003900000C8001300006C80019200360000C800130000600000000000000000000000000000000300026C00418000364800C8001300006C0001800AE42
:390072000012400248000970012EC00590001240024800090000000000000000000000000000000048001DA003248004B800174002480009200124008F31
:3900AB000000000000000000000000000000000000000000000000000000000000000000000000000000000000000000000000000000000000000080F9A3
:3900E4000000000000000000000000000000000000000000000000000000000000000000000000000000000000000000000000000000000000000080F96A
:39011D000000000000000010000200000000000000000000000000000000000000000000000000000000100002000000080081000000000000000000E21A
:390156000000000000000050002800000000000000000000000000000000000000000100000000000000248004000000300004000000000000000000A378
:39018F00000000000000005A2000000000000000000000000000000000000000000000000000000000D008420800680400A005068016000000000080B4BA
:3901C80000000000000000180000000000000000000000000000000000000000000000000000000000C0200000006010008000000006020000000080F995
:390201000000000000000018000000000000000000000000000000000000000000000000000000000040000000004010008001300006000000000000F96C
:39023A000000000000000008090000000000000000000000000000000000000000000000000000000080148010002004008091000826020000000080FE73
:3902730000000000000000180000000000000000000000000000000000000000000000000000000000C0021820006010008001304216020000000000EFD6
:3902AC00000000000000001E1000000000000000000000000000000000000000000000000000000000F0200E0000780000E0013D8007000000000080FD33
:3902E5000000000000000018080000000000000000000000000000000000000000000000000000000040001004004000008081301002000000000080E089
:39031E0000000000000000180100000000000000000000000000000000000000000000000000000000C0100800006014008011300146040000000000EA4B
:390357000000000000000002000000000000000000000000000000000000000000000000000000000010001A0000688100A00536A010000052200000DF7C
:390390000000000000000000000000000000000000000000000000000000000000000000000000000000001800004000008001300000020000000000D653
:3903C90000000000000000000000000000000000000000000000000000000000000000000000000000C00018000060000080013000000000000000809200
:3904020008000000000000000000000000000000000000000000000000000000000000000000000000C00098020060240000913020200200000900A0C867
:39043B0000000000000000000000000000000000000000000000000000000000000000000000000000C0009800006084008001200100080000050000D6C7
:3904740000000000000000060400000000000000000000000000000000000000000000000000000000F0801E0400780000E0013DA0010000060000809B5B
:3904AD0004000000000000180400000000000000000000000000000000000000000000000000000000C0001800006020008081200002000000080090C023
:3904E60000000000000000980000000000000000000000000000000000000000000000000000000000C0440010006004008011100446040000010000CB12
:39051F0010000000000000420400000000000000000000000000000000000000000000000000000000D0241A0000088100200004900400000000008095E9
:3905580000000000000000000000000000000000000000000000000000000000000000000000000000C0001800000000000000100006010000000080CD2E
:3905910000000000000000000000000000000000000000000000000000000000000000000000000000C0001800002000000000000000020000000080BCFB
:3905CA000C00000000000098020000000000000000000000000000000000000000000000000000000080021900000024000000104006000000000030917C
:3906030004000000000000000000000000000000000000000000000000000000000000000000000000C08218200000840000103001460400000000909110
:39063C0000000000000000060400000000000000000000000000000000000000000000000000000000F0001E000018000060400CA003000000000000F80E
:390675000C000000000000080400000000000000000000000000000000000000000000000000000000C0000008000020008041200806000000000030F03D
:3906AE0000000000000000800000000000000000000000000000000000000000000000000000000000C00441000000040080058000A2000000000080BEA5
:3906E70000000000000000420400000000000000000000000000000000000000000000000000000000D0005A2000688100200406800000000000008093A4
:390720000000000000000000000000000000000000000000000000000000000000000000000000000000000800004000000000000000000000000000FD5B
:3907590000000000000000000000000000000000000000000000000000000000000000000000000000C0201800006000000001300000000000000080BAA4
:3907920008000000000000980200000000000000000000000000000000000000000000000000000000C0081809006024000090301220020000000020D338
:3907CB0000000000000000000000000000000000000000000000000000000000000000000000000000C0821821006000000010320110020000000000A322
:3908040000000000000000060400000000000000000000000000000000000000000000000000000000F0001E000078400060000CA001000000000000DE00
:39083D0004000000000000080400000000000000000000000000000000000000000000000000000000C000180800602000008030000600000000001099B3
:3908760000000000000000800000000000000000000000000000000000000000000000000000000000C0021901006004000010300540040000000000CD33
:3908AF00100000000000005A2000000000000000000000000000000000000000000000000000000000D0041A0000488100A00404800600004A2000C0ED8A
:3908E80000000000000000180000000000000000000000000000000000000000000000000000000000C040180000600000000101000600000000000092AD
:390921000000000000000010000000000000000000000000000000000000000000000000000000000080401800006000008000000000000000000080A7AE
:39095A000C000000000000180900000000000000000000000000000000000000000000000000000000C0081808006024000041000020010000090030C16F
:390993000400000000000018000000000000000000000000000000000000000000000000000000000040029800006084008084300116080000050090A9C0
:3909CC00000000000000001E1000000000000000000000000000000000000000000000000000000000F04006040078000060003CA007000006000000A623
:390A05000C000000000000180800000000000000000000000000000000000000000000000000000000C00018000060200080000100060200000800B09D56
:390A3E0000000000000000180100000000000000000000000000000000000000000000000000000000C0009910006004000009001200000000010080D02D
:390A7700100000000000004A20000000000000000000000000000000000000000000000000000000009048020100080000A00406802600001A000080E01F
:390AB0000000000000000000000000000000000000000000000000000000000000000000000000000040000004000000008001000006010000000080843D
:390AE900000000000000000000000000000000000000000000000000000000000000000000000000008040000800000000800100000200001800000090E1
:390B22000C000000000000000900000000000000000000000000000000000000000000000000000000C00240000000000080910000100200180200A0D5D1
:390B5B000400000000000000000000000000000000000000000000000000000000000000000000000080001820000014008011022016080058000000E286
:390B9400000000000000000610000000000000000000000000000000000000000000000000000000007020160000180000E0010C800700001E080080A397
:390BCD000C000000000000000800000000000000000000000000000000000000000000000000000000C0001800006000008081300002020018000010F452
:390C060000000000000000000100000000000000000000000000000000000000000000000000000000C0828010006010008011302004000018200000FA5B
:390C3F00000000000000004204000000000000000000000000000000000000000000000000000000001000020000080000A0010480000000020000009C59
:390C78000000000000000000000000000000000000000000000000000000000000000000000000000000000000000000008001000000000018000000F8B2
:390CB1000000000000000000000000000000000000000000000000000000000000000000000000000000001800000000008001000006000018000080993A
:390CEA0008000000000000980200000000000000000000000000000000000000000000000000000000002818000000000080413008260100180200A0DD38
:390D23000000000000000000000000000000000000000000000000000000000000000000000000000000000103000010000000024210080058000000A926
:390D5C0000000000000000060400000000000000000000000000000000000000000000000000000000300006000018000060000C800100001E080080AAC9
:390D95000400000000000008040000000000000000000000000000000000000000000000000000000000000000006000000080001000020018000010BC3F
:390DCE0000000000000000800000000000000000000000000000000000000000000000000000000000C0140005006014008001000106000018200000FE61
:390E0700100000000000005A2000000000000000000000000000000000000000000000000000000000D0421A0200688100200004900600005A20008095C8
:390E400000000000000000180000000000000000000000000000000000000000000000000000000000C0001800006000000000000006000018000080DAB1
:390E79000000000000000018000000000000000000000000000000000000000000000000000000000080401800006000000000000806000008000000CF0B
:390EB2000C000000000000080900000000000000000000000000000000000000000000000000000000C00088100040240000408000260200180900A0B9CC
:390EEB0004000000000000182100000000000000000000000000000000000000000000000000000000C000580000608400800102098000001805000095D7
:390F2400000000000000001E0000000000000000000000000000000000000000000000000000000000F0201E040078000060000C800700001E000000FCBF
:390F5D000C000000000000180800000000000000000000000000000000000000000000000000000000C0001800006020008081001006000018080090B45C
:390F960000000000000000180100000000000000000000000000000000000000000000000000000000C0821805006004008009200016020018010080E309
:390FCF0010000000000000000000000000000000000000000000000000000000000000000000000000000000000000000000000000000000000000C0BC5D
:391008002000048000100002400008000120000480001000000000000000000000000000000000800010000240000800012000048000100002400080F9B2
:391041000000000000000000000000000000000000000000000000000000000000000000000000000000000000000000000000000000000000000080F9FD
:39107A002C000480001000024000080001200004800010000000000000000000000000000000008000100002400008000120000480001000024000308EEF
:3910B3000400000000000000000000000000000000000000000000000000000000000000000000000000000000000000000000000000000000000090ACC4
:3910EC002000048000100002400008000120000480001000000000000000000000000000000000800010000240000800012000048000100002400080F9CE
:391125000C000000000000000000000000000000000000000000000000000000000000000000000000000000000000000000000000000000000000308EC7
:39115E002000048000100002400008000120000480001000000000000000000000000000000000800010000240000800012000048000100002400080F95B
:391197000000000000000000000000000000000000000000000000000000000000000000000000000000000000000000000000000000000000000080F9A6
:3911D0000000000000000000000000000000000000000000000000000000000000000000000000000000000000000000000000000000000000000080F96D
:391209000000000000000000000000000000000000000000000000000000000000000000000000000000000000000000000004080000000000000080B16F
:391242000000000000000000000000000000000000000000000000000000000000000000000000000000400200000000000000000004000000000080DBD2
:39127B000800000000000000000000000000000000000000000000000000000000000000000000000000000000000000000000000000000000000000F939
:3912B4000000000000000000000000000000000000000000000000000000000000000000000000000000000000000000000000000000000000000080F988
:3912ED000000000000000000000000000000000000000000000000000000000000000000000000000000000000000000008040100800000000000000A54B
:3913260000000000000000000000000000000000000000000000000000000000000000000000000000000000000000000000000000000000000000A0DB13
:39135F000000000000000000000000000000000000000000000000000000000000000000000000000000000000000000004080081000002000000000F667
:391398000200000000000008022002000000000000000000000000000000000000000000000000000000000040044010918206800A00001C000200009801
:3913D1000000000000000008000000000000000000000000000000000000000000000000000000000000000000000010008200000800000000000080CAF7
:39140A000000000000000000040000000000000000000000000000000000000000000000000000000000000000002000000000000000002000040028D366
:391443000000000000000000000000000000000000000000000000000000000000000000000000000000000000000000000000000800000000000000F96F
:39147C000000000000000000000000000000000000000000000000000000000000000000000000000000000000000000000000000000000000000080F9BE
:3914B50000000000000000000000000000000000000000000000000000000000000000000000000000400008000000000000002000000100000000009CF9
:3914EE0000000000000000000000000000000000000000000000000000000000000000000000000000200000000000000000400000010000000000808F55
:391527000000000000000000000000000000000000000000000000000000000000000000000000000000000000000000000000000000000000000080F912
:391560000000000000000000000000000000000000000000000000000000000000000000000000000000210000000000000000000008000000000000D059
:391599000000000000000010000000000000000000000000000000000000000000000000000000000080001000004000000001000000000010000000EC3C
:3915D20000000000000000080000000000000000000000000000000000000000000000000000000000C000080000200000C000000000000018000080A2F6
:39160B000000000000000000200000000000000000000000000000000000000000000000000000000000100120000080000000820000000002200008F831
:391644000000000000000000000000000000000000000000000000000000000000000000000000000010800000000000000000008000000000100000F855
:39167D0000000000000000080080000000000000000000000000000000000000000000000000000002000008040020000000000000000000000000809965
:3916B6000000000000000000048000000000000000000000000000000000000000000000000000000000000000000000008000000000000008000000F5FA
:3916EF0000000000000000041000030000000000000000000000000000000000000000000000000001000004080010000020280000A0000002000000EFB5
:3917280010000000000000020010000000000000000000000000000000000000000000000000000019004011280040101480441022020A8808820488E2EE
:39176100000000000000000000000000000000000000000000000000000000000000000000000000000000000000001004804010000200000800000098C9
:39179A000000000000000000000000000000000000000000000000000000000000000000000000000000000800002000000000000000000000040000FFEB
:3917D3000000000000000000000000000000000000000000000000000000000000000000000000000010000000000000000000000000000000000080E865
:39180C000000000000000002000000000000000000000000000000000000000000000000000000000000000000000000000000040000000000000080DD40
:391845000000000000000000000000000000000000000000000000000000000000000000000000000000802000000000008000000002080000000000D36D
:39187E000000000000000000000000000000000000000000000000000000000000000000000000000000000008000000000000082010000000000000EA07
:3918B7000000000000000000000000000000000000000000000000000000000000000000000000000000000000000000000000000000000000000080F97F
:3918F0000000000000000000080000000000000000000000000000000000000000000000000000000000000000000020000080000000000000000000D344
:391929000400000000000000000000000000000000000000000000000000000000000000000000000000000000000000004000000000000000000080B908
:391962001000000000000000000000000000000000000000000000000000000000000000000000000000000000000000000000000000000000000008F044
:39199B000000000000000000000000000000000000000000000000000000000000000000000000000000000010000000000000010000040000000080ED91
:3919D4000000000000000000000000000000000000000000000000000000000000000000000000000000000000000000000000000000000000000080F961
:391A0D000200000000000000000000000000000000000000000000000000000000000000000000000000000208000000000000041000000000000000F48C
:391A46000000000000000000100000000000000000000000000000000000000000000000000000000000000010000040000000010000000000000080BDC9
:391A7F000000000000000000000000000000000000000000000000000000000000000000000000000000000000000000000000000000000000000080F9B5
:391AB8000000000000000000000000000000000000000000000000000000000000000000000000000000000000000000000000000000000000000080F97C
:391AF1000000000000000000000000000000000000000000000000000000000000000000000000000000000000000000000000000000000000000080F943
:391B2A000000000000000000000000000000000000000000000000000000000000000000000000000000000000000000000000000000000000000080F909
:391B63000000000000000000000000000000000000000000000000000000000000000000000000000000000000000000000000000000000000000080F9D0
:391B9C000000000000000000000000000000000000000000000000000000000000000000000000000000000000000000000000000000000000000080F997
:391BD5000000000000000000000000000000000000000000000000000000000000000000000000000000000000000000000000000000000000000080F95E
:391C0E000000000000000000000000000000000000000000000000000000000000000000000000000000000000000000000000000000000000000080F924
:391C47000000000000000000000000000000000000000000000000000000000000000000000000000000000000000000000000000000000000000080F9EB
:391C80000000000000000000000000000000000000000000000000000000000000000000000000000000000000000000000000000000000000000080F9B2
:391CB9000000000000000000000000000000000000000000000000000000000000000000000000000000000000000000000000000000000000000080F979
:391CF2000800000000000000000000000000000000000000000000000000000000000000000000000000000000000000000000000000000000000020DBB6
:391D2B000000000000000000000000000000000000000000000000000000000000000000000000000000000000000000000000000000000000000080F906
:391D64000000000000000000000000000000000000000000000000000000000000000000000000000000000000000000000000000000000000000080F9CD
:391D9D000400000000000000000000000000000000000000000000000000000000000000000000000000000000000000000000000000000000000090ACCD
:391DD6000000000000000000000000000000000000000000000000000000000000000000000000000000000000000000000000000000000000000080F95B
:391E0F000000000000000000000000000000000000000000000000000000000000000000000000000000000000000000000000000000000000000080F921
:391E48000000000000000000000000000000000000000000000000000000000000000000000000000000000000000000000000000000000000000080F9E8
:391E81000000000000000000000000000000000000000000000000000000000000000000000000000000000000000000000000000000000000000080F9AF
:391EBA000800000000000000000000000000000000000000000000000000000000000000000000000000000000000000000000000000000000000020DBEC
:391EF3000000000000000000000000000000000000000000000000000000000000000000000000000000000000000000000000000000000000000080F93D
:391F2C000000000000000000000000000000000000000000000000000000000000000000000000000000000000000000000000000000000000000080F903
:391F65000400000000000000000000000000000000000000000000000000000000000000000000000000000000000000000000000000000000000090AC03
:391F9E000000000000000000000000000000000000000000000000000000000000000000000000000000000000000000000000000000000000000080F991
:391FD7000000000000000000000000000000000000000000000000000000000000000000000000000000000000000000000000000000000000000080F958
:392010000000000000000000000000000000000000000000000000000000000000000000000000000000000000000000000000000000000000000080F91E
:392049000000000000000000000000000000000000000000000000000000000000000000000000000000000000000000000000000000000000000080F9E5
:392082000800000000000000000000000000000000000000000000000000000000000000000000000000000000000000000000000000000000000020DB22
:3920BB000000000000000000000000000000000000000000000000000000000000000000000000000000000000000000000000000000000000000080F973
:3920F4000000000000000000000000000000000000000000000000000000000000000000000000000000000000000000000000000000000000000080F93A
:39212D000400000000000000000000000000000000000000000000000000000000000000000000000000000000000000000000000000000000000090AC39
:392166000000000000000000000000000000000000000000000000000000000000000000000000000000000000000000000000000000000000000080F9C7
:39219F000000000000000000000000000000000000000000000000000000000000000000000000000000000000000000000000000000000000000080F98E
:3921D8000000000000000000000000000000000000000000000000000000000000000000000000000000000000000000000000000000000000000080F955
:392211000000000000000000000000000000000000000000000000000000000000000000000000000000000000000000000000000000000000000080F91B
:39224A000800000000000000000000000000000000000000000000000000000000000000000000000000000000000000000000000000000000000020DB58
:392283000000000000000000000000000000000000000000000000000000000000000000000000000000000000000000000000000000000000000080F9A9
:3922BC000000000000000000000000000000000000000000000000000000000000000000000000000000000000000000000000000000000000000080F970
:3922F5000400000000000000000000000000000000000000000000000000000000000000000000000000000000000000000000000000000000000090AC70
:39232E000000000000000000000000000000000000000000000000000000000000000000000000000000000000000000000000000000000000000080F9FD
:3923670000000000000000000000000000000000000000000000000000000000000000000000000000000000000000000000000000000000000000C0BDC0
:3923A0000000000000000000000000000000000000000000000000000000000000000000000000000000000000000000000000000000000000000080F98B
:3923D9000000000000000000000000000000000000000000000000000000000000000000000000000000000000000000000000000000000000000080F952
:392412000800000000000000000000000000000000000000000000000000000000000000000000000000000000000000000000000000000000000030CA8F
:39244B000000000000000000000000000000000000000000000000000000000000000000000000000000000000000000000000000000000000000090E8E0
:392484000000000000000000000000000000000000000000000000000000000000000000000000000000000000000000000000000000000000000080F9A6
:3924BD0004000000000000000000000000000000000000000000000000000000000000000000000000000000000000000000000000000000000000B08EA4
:3924F6000000000000000000000000000000000000000000000000000000000000000000000000000000000000000000000000000000000000000080F934
:39252F000000000000000000000000000000000000000000000000000000000000000000000000000000000000000000000000000000000000000080F9FA
:392568000000000000000000000000000000000000000000000000000000000000000000000000000000000000000000000000000000000000000080F9C1
:3925A1000000000000000000000000000000000000000000000000000000000000000000000000000000000000000000000000000000000000000080F988
:3925DA000800000000000000000000000000000000000000000000000000000000000000000000000000000000000000000000000000000000000020DBC5
:392613000000000000000000000000000000000000000000000000000000000000000000000000000000000000000000000000000000000000000080F915
:39264C000000000000000000000000000000000000000000000000000000000000000000000000000000000000000000000000000000000000000080F9DC
:392685000400000000000000000000000000000000000000000000000000000000000000000000000000000000000000000000000000000000000090ACDC
:3926BE000000000000000000000000000000000000000000000000000000000000000000000000000000000000000000000000000000000000000080F96A
:3926F7000000000000000000000000000000000000000000000000000000000000000000000000000000000000000000000000000000000000000080F931
:392730000000000000000000000000000000000000000000000000000000000000000000000000000000000000000000000000000000000000000080F9F7
:392769000000000000000000000000000000000000000000000000000000000000000000000000000000000000000000000000000000000000000080F9BE
:3927A2000800000000000000000000000000000000000000000000000000000000000000000000000000000000000000000000000000000000000020DBFB
:3927DB000000000000000000000000000000000000000000000000000000000000000000000000000000000000000000000000000000000000000080F94C
:392814000000000000000000000000000000000000000000000000000000000000000000000000000000000000000000000000000000000000000080F912
:39284D000400000000000000000000000000000000000000000000000000000000000000000000000000000000000000000000000000000000000090AC12
:392886000000000000000000000000000000000000000000000000000000000000000000000000000000000000000000000000000000000000000080F9A0
:3928BF000000000000000000000000000000000000000000000000000000000000000000000000000000000000000000000000000000000000000080F967
:3928F8002000048000100002400008000120000480001000000000000000000000000000000000800010000240000800012000048000100002400080F9AA
:392931000000000000000000000000000000000000000000000000000000000000000000000000000000000000000000000000000000000000000080F9F4
:39296A002800048000100002400008000120000480001000000000000000000000000000000000800010000240000800012000048000100002400020DBAD
:3929A3000000000000000000000000000000000000000000000000000000000000000000000000000000000000000000000000000000000000000080F982
:3929DC002000048000100002400008000120000480001000000000000000000000000000000000800010000240000800012000048000100002400080F9C5
:392A15000400000000000000000000000000000000000000000000000000000000000000000000000000000000000000000000000000000000000090AC48
:392A4E002000048000100002400008000120000480001000000000000000000000000000000000800010000240000800012000048000100002400080F952
:392A87000000000000000000000000000000000000000000000000000000000000000000000000000000000000000000000000000000000000000080F99D
:392AC0000000000000000000000000000000000000000000000000000000000000000000000000000000000000000000000000000000000000000080F964
:392AF9000000000000000000000000000000000000000000000000000000000000000000000000000000000000000000000000000000000000000080F92B
:392B32000000000000000000000000000000000000000000000000000000000000000000000000000000000000000000000000000000000000000080F9F1
:392B6B000000000000000000000000000000000000000000000000000000000000000000000000000000000000000000000000000000000000000080F9B8
:392BA4000000000000000000000000000000000000000000000000000000000000000000000000000000000000000000000000000000000000000080F97F
:392BDD000000000000000000000000000000000000000000000000000000000000000000000000000000000000000000000000000000000000000080F946
:392C16000000000000000000000000000000000000000000000000000000000000000000000000000000000000000000000000000000000000000080F90C
:392C4F000000000000000000000000000000000000000000000000000000000000000000000000000000000000000000000000000000000000000080F9D3
:392C88000000000000000000000000000000000000000000000000000000000000000000000000000000000000000000000000000000000000000080F99A
:392CC1000000000000000000000000000000000000000000000000000000000000000000000000000000000000000000000000000000000000000080F961
:392CFA000000000000000000000000000000000000000000000000000000000000000000000000000000000000000000000000000000000000000080F928
:392D33000000000000000000000000000000000000000000000000000000000000000000000000000000000000000000000000000000000000000080F9EE
:392D6C000000000000000000000000000000000000000000000000000000000000000000000000000000000000000000000000000000000000000080F9B5
:392DA5000000000000000000000000000000000000000000000000000000000000000000000000000000000000000000000000000000000000000080F97C
:392DDE000000000000000000000000000000000000000000000000000000000000000000000000000000000000000000000000000000000000000080F943
:392E17000000000000000000000000000000000000000000000000000000000000000000000000000000000000000000000000000000000000000080F909
:392E50000000000000000000000000000000000000000000000000000000000000000000000000000000000000000000000000000000000000000080F9D0
:392E89000000000000000000000000000000000000000000000000000000000000000000000000000000000000000000000000000000000000000080F997
:392EC2000000000000000000000000000000000000000000000000000000000000000000000000000000000000000000000000000000000000000080F95E
:392EFB000000000000000000000000000000000000000000000000000000000000000000000000000000000000000000000000000000000000000080F925
:392F34000000000000000000000000000000000000000000000000000000000000000000000000000000000000000000000000000000000000000080F9EB
:392F6D0000000000000000000000000000000000000000000000000000000000000000000000000000000000000000000000000000000200000000C0BFAA
:392FA6000000000000000000000000000000000000000000000000000000000000000000000000000000000000000000000000000000000000000080F979
:392FDF000000000000000000000000000000000000000000000000000000000000000000000000000000000000000000000000000000020000000080FB3C
:393018000000000000000000000000000000000000000000000000000000000000000000000000000000000000000000000000000000000000000080F906
:393051000000000000000000000000000000000000000000000000000000000000000000000000000000000000000000000000000000000000000080F9CD
:39308A000000000000000000000000000000000000000000000000000000000000000000000000000000000000000000000000000000000000000080F994
:3930C3000000000000000000000000000000000000000000000000000000000000000000000000000000000000000000000000000000000000000080F95B
:3930FC000000000000000000000000000000000000000000000000000000000000000000000000000000000000000000000000000000000000000080F922
:393135000000000000000000000000000000000000000000000000000000000000000000000000000000000000000000000000000000000000000080F9E8
:39316E000000000000000000000000000000000000000000000000000000000000000000000000000000000000000000000000000000000000000080F9AF
:3931A7000000000000000000000000000000000000000000000000000000000000000000000000000000000000000000000000000000000000000080F976
:3931E0000000000000000000000000000000000000000000000000000000000000000000000000000000000000000000000000000000000000000080F93D
:393219000000000000000000000000000000000000000000000000000000000000000000000000000000000000000000000000000000000000000080F903
:393252000000000000000000000000000000000000000000000000000000000000000000000000000000000000000000000000000000000000000080F9CA
:39328B000000000000000000000000000000000000000000000000000000000000000000000000000000000000000000000000000000000000000080F991
:3932C4000000000000000000000000000000000000000000000000000000000000000000000000000000000000000000000000000000000000000080F958
:3932FD000000000000000000000000000000000000000000000000000000000000000000000000000000000000000000000000000000000000000080F91F
:393336000000000000000000000000000000000000000000000000000000000000000000000000000000000000000000000000000000000000000080F9E5
:39336F000000000000000000000000000000000000000000000000000000000000000000000000000000000000000000000000000000000000000080F9AC
:3933A8000000000000000000000000000000000000000000000000000000000000000000000000000000000000000000000000000000000000000080F973
:3933E1000000000000000000000000000000000000000000000000000000000000000000000000000000000000000000000000000000000000000080F93A
:39341A000000000000000000000000000000000000000000000000000000000000000000000000000000000000000000000000000000000000000080F900
:393453000000000000000000000000000000000000000000000000000000000000000000000000000000000000000000000000000000000000000080F9C7
:39348C000000000000000000000000000000000000000000000000000000000000000000000000000000000000000000000000000000000000000080F98E
:3934C5000000000000000000000000000000000000000000000000000000000000000000000000000000000000000000000000000000000000000080F955
:3934FE000000000000000000000000000000000000000000000000000000000000000000000000000000000000000000000000000000000000000080F91C
:393537000000000000000000000000000000000000000000000000000000000000000000000000000000000000000000000000000000000000000080F9E2
:393570000000000000000000000000000000000000000000000000000000000000000000000000000000000000000000000000000000000000000080F9A9
:3935A9000000000000000000000000000000000000000000000000000000000000000000000000000000000000000000000000000000000000000080F970
:3935E2000800000000000000000000000000000000000000000000000000000000000000000000000000000000000000000000000000000000000020DBAD
:39361B000000000000000000000000000000000000000000000000000000000000000000000000000000000000000000000000000000000000000080F9FD
:393654000000000000000000000000000000000000000000000000000000000000000000000000000000000000000000000000000000000000000080F9C4
:39368D000400000000000000000000000000000000000000000000000000000000000000000000000000000000000000000000000000000000000090ACC4
:3936C6000000000000000000000000000000000000000000000000000000000000000000000000000000000000000000000000000000000000000080F952
:3936FF000000000000000000000000000000000000000000000000000000000000000000000000000000000000000000000000000000000000000080F919
:393738000000000000000000000000000000000000000000000000000000000000000000000000000000000000000000000000000000000000000080F9DF
:393771000000000000000000000000000000000000000000000000000000000000000000000000000000000000000000000000000000000000000080F9A6
:3937AA000800000000000000000000000000000000000000000000000000000000000000000000000000000000000000000000000000000000000020DBE3
:3937E3000000000000000000000000000000000000000000000000000000000000000000000000000000000000000000000000000000000000000080F934
:39381C000000000000000000000000000000000000000000000000000000000000000000000000000000000000000000000000000000000000000080F9FA
:393855000400000000000000000000000000000000000000000000000000000000000000000000000000000000000000000000000000000000000090ACFA
:39388E000000000000000000000000000000000000000000000000000000000000000000000000000000000000000000000000000000000000000080F988
:3938C7000000000000000000000000000000000000000000000000000000000000000000000000000000000000000000000000000000000000000080F94F
:393900000000000000000000000000000000000000000000000000000000000000000000000000000000000000000000000000000000000000000080F915
:393939000000000000000000000000000000000000000000000000000000000000000000000000000000000000000000000000000000000000000080F9DC
:393972000800000000000000000000000000000000000000000000000000000000000000000000000000000000000000000000000000000000000020DB19
:3939AB000000000000000000000000000000000000000000000000000000000000000000000000000000000000000000000000000000000000000080F96A
:3939E4000000000000000000000000000000000000000000000000000000000000000000000000000000000000000000000000000000000000000080F931
:393A1D000400000000000000000000000000000000000000000000000000000000000000000000000000000000000000000000000000000000000090AC30
:393A56000000000000000000000000000000000000000000000000000000000000000000000000000000000000000000000000000000000000000080F9BE
:393A8F000000000000000000000000000000000000000000000000000000000000000000000000000000000000000000000000000000000000000080F985
:393AC8000000000000000000000000000000000000000000000000000000000000000000000000000000000000000000000000000000000000000080F94C
:393B01000000000000000000000000000000000000000000000000000000000000000000000000000000000000000000000000000000000000000080F912
:393B3A000800000000000000000000000000000000000000000000000000000000000000000000000000000000000000000000000000000000000030CA50
:393B73000000000000000000000000000000000000000000000000000000000000000000000000000000000000000000000000000000000000000090E8A1
:393BAC000000000000000000000000000000000000000000000000000000000000000000000000000000000000000000000000000000000000000080F967
:393BE50004000000000000000000000000000000000000000000000000000000000000000000000000000000000000000000000000000000000000B08E65
:393C1E000000000000000000000000000000000000000000000000000000000000000000000000000000000000000000000000000000000000000080F9F4
:393C57000000000000000000000000000000000000000000000000000000000000000000000000000000000000000000000000000000000000000080F9BB
:393C90000000000000000000000000000000000000000000000000000000000000000000000000000000000000000000000000000000000000000080F982
:393CC9000000000000000000000000000000000000000000000000000000000000000000000000000000000000000000000000000000000000000080F949
:393D02000800000000000000000000000000000000000000000000000000000000000000000000000000000000000000000000000000000000000020DB85
:393D3B000000000000000000000000000000000000000000000000000000000000000000000000000000000000000000000000000000000000000080F9D6
:393D74000000000000000000000000000000000000000000000000000000000000000000000000000000000000000000000000000000000000000080F99D
:393DAD000400000000000000000000000000000000000000000000000000000000000000000000000000000000000000000000000000000000000090AC9D
:393DE6000000000000000000000000000000000000000000000000000000000000000000000000000000000000000000000000000000000000000080F92B
:393E1F000000000000000000000000000000000000000000000000000000000000000000000000000000000000000000000000000000000000000080F9F1
:393E58000000000000000000000000000000000000000000000000000000000000000000000000000000000000000000000000000000000000000080F9B8
:393E91000000000000000000000000000000000000000000000000000000000000000000000000000000000000000000000000000000000000000080F97F
:393ECA000800000000000000000000000000000000000000000000000000000000000000000000000000000000000000000000000000000000000030CABD
:393F03000000000000000000000000000000000000000000000000000000000000000000000000000000000000000000000000000000000000000090E80D
:393F3C000000000000000000000000000000000000000000000000000000000000000000000000000000000000000000000000000000000000000080F9D3
:393F750004000000000000000000000000000000000000000000000000000000000000000000000000000000000000000000000000000000000000B08ED1
:393FAE000000000000000000000000000000000000000000000000000000000000000000000000000000000000000000000000000000000000000080F961
:393FE7000000000000000000000000000000000000000000000000000000000000000000000000000000000000000000000000000000000000000080F928
:394020000000000000000000000000000000000000000000000000000000000000000000000000000000000000000000000000000000000000000080F9EE
:394059000000000000000000000000000000000000000000000000000000000000000000000000000000000000000000000000000000000000000080F9B5
:394092000800000000000000000000000000000000000000000000000000000000000000000000000000000000000000000000000000000000000020DBF2
:3940CB000000000000000000000000000000000000000000000000000000000000000000000000000000000000000000000000000000000000000080F943
:394104000000000000000000000000000000000000000000000000000000000000000000000000000000000000000000000000000000000000000080F909
:39413D000400000000000000000000000000000000000000000000000000000000000000000000000000000000000000000000000000000000000090AC09
:394176000000000000000000000000000000000000000000000000000000000000000000000000000000000000000000000000000000000000000080F997
:3941AF000000000000000000000000000000000000000000000000000000000000000000000000000000000000000000000000000000000000000080F95E
:3941E8002000048000100002400008000120000480001000000000000000000000000000000000800010000240000800012000048000100002400080F9A1
:394221000000000000000000000000000000000000000000000000000000000000000000000000000000000000000000000000000000000000000080F9EB
:39425A002800048000100002400008000120000480001000000000000000000000000000000000800010000240000800012000048000100002400020DBA4
:394293000000000000000000000000000000000000000000000000000000000000000000000000000000000000000000000000000000000000000080F979
:3942CC002000048000100002400008000120000480001000000000000000000000000000000000800010000240000800012000048000100002400080F9BC
:394305000400000000000000000000000000000000000000000000000000000000000000000000000000000000000000000000000000000000000090AC3F
:39433E002000048000100002400008000120000480001000000000000000000000000000000000800010000240000800012000048000100002400080F949
:394377000000000000000000000000000000000000000000000000000000000000000000000000000000000000000000000000000000000000000080F994
:3943B0000000000000000000000000000000000000000000000000000000000000000000000000000000000000000000000000000000000000000080F95B
:3943E9000000000000000000000000000000000000000000000000000000000000000000000000000000000000000000000000000000000000000080F922
:394422000000000000000000000000000000000000000000000000000000000000000000000000000000000000000000000000000000000000000080F9E8
:39445B000000000000000000000000000000000000000000000000000000000000000000000000000000000000000000000000000000000000000080F9AF
:394494000000000000000000000000000000000000000000000000000000000000000000000000000000000000000000000000000000000000000080F976
:3944CD000000000000000000000000000000000000000000000000000000000000000000000000000000000000000000000000000000000000000080F93D
:394506000000000000000000000000000000000000000000000000000000000000000000000000000000000000000000000000000000000000000080F903
:39453F000000000000000000000000000000000000000000000000000000000000000000000000000000000000000000000000000000000000000080F9CA
:394578000000000000000000000000000000000000000000000000000000000000000000000000000000000000000000000000000000000000000080F991
:3945B1000000000000000000000000000000000000000000000000000000000000000000000000000000000000000000000000000000000000000080F958
:3945EA000000000000000000000000000000000000000000000000000000000000000000000000000000000000000000000000000000000000000080F91F
:394623000000000000000000000000000000000000000000000000000000000000000000000000000000000000000000000000000000000000000080F9E5
:39465C000000000000000000000000000000000000000000000000000000000000000000000000000000000000000000000000000000000000000080F9AC
:394695000000000000000000000000000000000000000000000000000000000000000000000000000000000000000000000000000000000000000080F973
:3946CE000000000000000000000000000000000000000000000000000000000000000000000000000000000000000000000000000000000000000080F93A
:394707000000000000000000000000000000000000000000000000000000000000000000000000000000000000000000000000000000000000000080F900
:394740000000000000000000000000000000000000000000000000000000000000000000000000000000000000000000000000000000000000000080F9C7
:394779000000000000000000000000000000000000000000000000000000000000000000000000000000000000000000000000000000000000000080F98E
:3947B2000000000000000000000000000000000000000000000000000000000000000000000000000000000000000000000000000000000000000080F955
:3947EB000000000000000000000000000000000000000000000000000000000000000000000000000000000000000000000000000000000000000080F91C
:394824000000000000000000000000000000000000000000000000000000000000000000000000000000000000000000000000000000000000000080F9E2
:39485D000000000000000000000000000000000000000000000000000000000000000000000000000000000000000000000000000000000000000080F9A9
:394896000000000000000000000000000000000000000000000000000000000000000000000000000000000000000000000000000000000000000080F970
:3948CF000000000000000000000000000000000000000000000000000000000000000000000000000000000000000000000000000000000000000080F937
:394908000000000000000000000000000000000000000000000000000000000000000000000000000000000000000000000000000000000000000080F9FD
:394941000000000000000000000000000000000000000000000000000000000000000000000000000000000000000000000000000000000000000080F9C4
:39497A000000000000000000000000000000000000000000000000000000000000000000000000000000000000000000000000000000000000000080F98B
:3949B3000000000000000000000000000000000000000000000000000000000000000000000000000000000000000000000000000000000000000080F952
:3949EC000000000000000000000000000000000000000000000000000000000000000000000000000000000000000000000000000000000000000080F919
:394A25000000000000000000000000000000000000000000000000000000000000000000000000000000000000000000000000000000000000000080F9DF
:394A5E000000000000000000000000000000000000000000000000000000000000000000000000000000000000000000000000000000000000000080F9A6
:394A97000000000000000000000000000000000000000000000000000000000000000000000000000000000000000000000000000000000000000080F96D
:394AD0000000000000000000000000000000000000000000000000000000000000000000000000000000000000000000000000000000000000000080F934
:394B09000000000000000000000000000000000000000000000000000000000000000000000000000000000000000000000000000000000000000080F9FA
:394B42000000000000000000000000000000000000000000000000000000000000000000000000000000000000000000000000000000000000000080F9C1
:394B7B000000000000000000000000000000000000000000000000000000000000000000000000000000000000000000000000000000000000000080F988
:394BB4000000000000000000000000000000000000000000000000000000000000000000000000000000000000000000000000000000000000000080F94F
:394BED000000000000000000000000000000000000000000000000000000000000000000000000000000000000000000000000000000000000000080F916
:394C26000000000000000000000000000000000000000000000000000000000000000000000000000000000000000000000000000000000000000080F9DC
:394C5F000000000000000000000000000000000000000000000000000000000000000000000000001200000000140000000000000510011600000900FDC4
:394C98000000000000000000000000000000000000000010000000000000000000000000000000000400000000400000000000000404809000000200CBAA
:394CD1000000000000000000000000000000000000000000000000000000000000000000000000000000000000000000000000000000000000000080F931
:394D0A000000000000000000000000000000000000000000000000000000000000000000000000000000000000000000000000000000000000000080F9F7
:394D4300001240024800092001248004900012400248001D000000000000000000000000000000005C0009200174800490001240075C801F20012E80F45B
:394D7C00000C8001300006C00018000360000C800130002600000000000000000000000000000000320006C00098000360000C8009324026C00019808222
:024DB500FFFFFE
:00000001FF
