:020000040000FA
:39000000FFFF62FF3600FFFFFFFFFFFFFFFFFFFFFFFFFFFFFFFFFFFFFFFFFFFFFFFFFFFFFFFFFFFFFFFFFFFFFFFFFFFFFFFFFFFFFFFFFFFFFFFFFFFFFF65
:39003900000C8001300006C00018000360000C800130000600000000000000000000000000000000300006C00018000360000C8001300006C0001880F948
:390072000012400248000920012480049000124002480009000000000000000000000000000000004800092001248004900012400248000920012480F9A5
:3900AB000000000000000000000000000000000000000000000000000000000000000000000000000000000000000000000000000000000000000080F9A3
:3900E4000000000000000000000000000000000000000000000000000000000000000000000000000000000000000000000000000000000000000080F96A
:39011D000000000000000000000000000000000000000000000000000000000000000000000000000000000000000000000000000000000000000080F930
:390156000000000000000000000000000000000000000000000000000000000000000100000000000000000000000000000000000000000000000080E807
:39018F000000000000000000000000000000000000000000000000000000000000000000000000000000000000000000000000000000000000000080F9BE
:3901C8000000000000000000000000000000000000000000000000000000000000000000000000000000000000000000000000000000000000000080F985
:390201000000000000000000000000000000000000000000000000000000000000000000000000000000000000000000000000000000000000000080F94B
:39023A000000000000000000000000000000000000000000000000000000000000000000000000000000000000000000000000000000000000000080F912
:390273000000000000000000000000000000000000000000000000000000000000000000000000000000000000000000000000000000000000000080F9D9
:3902AC000000000000000000000000000000000000000000000000000000000000000000000000000000000000000000000000000000000000000080F9A0
:3902E5000000000000000000000000000000000000000000000000000000000000000000000000000000000000000000000000000000000000000080F967
:39031E000000000000000000000000000000000000000000000000000000000000000000000000000000000000000000000000000000000000000080F92D
:3903570000000000000000000000000000A0300000000000000000000000000000000000000000000000000000000000000000000000000000000000EBB2
:390390000000000000000000000000000000010000000000000000000000000000000000000000000000000000000000000000000000000000000080F8BB
:3903C90000000000000000000000000000E00000000000000000000000000000000000000000000000000000000000000000000000000000000000009F7C
:390402000800000000000000000000000020010000000000000000000000000000000000000000000000000000000000000000000000000000000020F880
:39043B000000000000000000000000000080000000000000000000000000000000000000000000000000000000000000000000000000000000000000F90F
:3904740000000000000000000000000000600100000000000000000000000000000000000000000000000000000000000000000000000000000000809ED0
:3904AD000400000000000000000000000080000000000000000000000000000000000000000000000000000000000000000000000000000000000010ACD6
:3904E6000000000000000000000000000000010000000000000000000000000000000000000000000000000000000000000000000000000000000080F864
:39051F001000000000000000000000000000000000000000000000000000000000000000000000000000000000000000000000000000000000000080F81B
:390558000000000000000000000000000000000000000000000000000000000000000000000000000000000000000000000000000000000000000080F9F1
:390591000000000000000000000000000000000000000000000000000000000000000000000000000000000000000000000000000000000000000080F9B8
:3905CA000C00000000000000000000000000000000000000000000000000000000000000000000000000000000000000000000000000000000000010AC30
:3906030004000000000000000000000000000000000000000000000000000000000000000000000000000000000000000000000000000000000000B08E7C
:39063C000000000000000000000000000000000000000000000000000000000000000000000000000000000000000000000000000000000000000080F90C
:390675000C000000000000000000000000000000000000000000000000000000000000000000000000000000000000000000000000000000000000209F81
:3906AE000000000000000000000000000000000000000000000000000000000000000000000000000000000000000000000000000000000000000080F99A
:3906E7000000000000000000000000000000000000000000000000000000000000000000000000000000000040410000000000000000000000000080FCDD
:390720000000000000000000000000000000000000000000000000000000000000000000000000000000000000020000000000000000000000000080FB23
:3907590000000000000000000000000000000000000000000000000000000000000000000000000000000000C0010000000000000000000000000000BCEA
:3907920008000000000000000000000000000000000000000000000000000000000000000000000000000000400200000000000000000000000000209D27
:3907CB000000000000000000000000000000000000000000000000000000000000000000000000000000000000010000000000000000000000000080F87C
:3908040000000000000000000000000000000000000000000000000000000000000000000000000000000000C0020000000000000000000000000000BF3A
:39083D000400000000000000000000000000000000000000000000000000000000000000000000000000000000010000000000000000000000000090AD40
:390876000000000000000000000000000000000000000000000000000000000000000000000000000000000000020000000000000000000000000080FBCC
:3908AF0000000000000000000000000000000000000000000000000000000000000000000000000000000000000000000000000000000000000000C0BD93
:3908E8000000000000000000000000000000000000000000000000000000000000000000000000000000000000000000000000000000000000000080F95E
:390921000000000000000000000000000000000000000000000000000000000000000000000000000000000000000000000000000000000000000080F924
:39095A0004000000000000000000000000000000000000000000000000000000000000000000000000000000000000000000000000000000000000B08E22
:390993000C00000000000000000000000000000000000000000000000000000000000000000000000000000000000000000000000000000000000010AC63
:3909CC000000000000000000000000000000000000000000000000000000000000000000000000000000000000000000000000000000000000000080F979
:390A05000800000000000000000000000000000000000000000000000000000000000000000000000000000000000000000000000000000000000030CAB6
:390A3E000000000000000000000000000000000000000000000000000000000000000000000000000000000000000000000000000000000000000080F906
:390A77000000000000000000000000000000000000000000000000000000000000000000000000000000000000000000000000000000000000000080F9CD
:390AB0000000000000000000000000000000000000000000000000000000000000000000000000000000000000000000000000000000000000000080F994
:390AE9000000000000000000000000000000000000000000000000000000000000000000000000000000000000000000000000000000000000000080F95B
:390B220004000000000000000000000000000000000000000000000000000000000000000000000000000000000000000000000000000000000000A09F57
:390B5B000C00000000000000000000000000000000000000000000000000000000000000000000000000000000000000000000000000000000000000BD98
:390B94000000000000000000000000000000000000000000000000000000000000000000000000000000000000000000000000000000000000000080F9AF
:390BCD000800000000000000000000000000000000000000000000000000000000000000000000000000000000000000000000000000000000000010E8EF
:390C06000000000000000000000000000000000000000000000000000000000000000000000000000000000000000000000000000000000000000080F93C
:390C3F00000000000000000000000000000000000000500201000000000000000000000000000000000000000000000000A0080000000000000000409BA6
:390C78000000000000000000000000000000000000008000000000000000000000000000000000000000000000000000000081000000000000000000E161
:390CB100000000000000000000000000000000000000700000000000000000000000000000000000000000000000000000E000000000000000000080F04A
:390CEA000800000000000000000000000000000000009000000000000000000000000000000000000000000000000000002001000000000000000030D117
:390D23000000000000000000000000000000000000004000000000000000000000000000000000000000000000000000008000000000000000000090E463
:390D5C00000000000000000000000000000000000000B000000000000000000000000000000000000000000000000000006001000000000000000080E4E9
:390D950004000000000000000000000000000000000040000000000000000000000000000000000000000000000000000080000000000000000000B0822F
:390DCE000000000000000000000000000000000000008000000000000000000000000000000000000000000000000000000001000000000000000080E10A
:390E070010000000000000000000000000000014120000000000000000000000000000000000000000000000000000000000000000000000000000808C70
:390E40000000000000000000000000000000002000000000000000000000000000000000000000000000000000000000000000000000000000000080FBDE
:390E79000000000000000000000000000000001C00000000000000000000000000000000000000000000000000000000000000000000000000000000BC68
:390EB2000C00000000000000000000000000002400000000000000000000000000000000000000000000000000000000000000000000000000000020D9DE
:390EEB000400000000000000000000000000001000000000000000000000000000000000000000000000000000000000000000000000000000000080BC7E
:390F24000000000000000000000000000000002C00000000000000000000000000000000000000000000000000000000000000000000000000000000BFA9
:390F5D000C00000000000000000000000000001000000000000000000000000000000000000000000000000000000000000000000000000000000010AD82
:390F96000000000000000000000000000000002000000000000000000000000000000000000000000000000000000000000000000000000000000080FB87
:390FCF001000000000000000000000000000000000000000000000000000000000000000000000000000000000000000000000000000000000000080F861
:391008002000048000100002400008000120000480001000000000000000000000000000000000800010000240000800012000048000100002400080F9B2
:391041000000000000000000000000000000000000000000000000000000000000000000000000000000000000000000000000000000000000000080F9FD
:39107A002C00048000100002400008000120000480001000000000000000000000000000000000800010000240000800012000048000100002400010ACF1
:3910B30004000000000000000000000000000120000080000000000000000000000000000000000000000000000200000000010000000000000000B09715
:3910EC002000048000100002400008000100000080000000000000000000000000000000000000800010000200000800010000048000100002400080D883
:391125000C000000000000000000000000000000000000000000000000000000000000000000000000000000000000000000000000000000000000209FC6
:39115E002000048000100002400008000120000480001000000000000000000000000000000000800010000240000800012000048000100002400080F95B
:391197000000000000000000000000000000000000000000000000000000000000000000000000000000000000000000000000000000000000000080F9A6
:3911D0000000000000000000000000000000000000000000000000000000000000000000000000000000000000000000000000000000000000000080F96D
:391209000000000000000000000000000000000000000000000000000000000000000000000000000000000000000000000000000000000000000080F933
:391242000000000000000000000000000000000000000000000000000000000000000000000000000000000000000000000000000000000000000080F9FA
:39127B000000000000000000000000000000000000000000000000000000000000000000000000000000000000000000000000000000000000000080F9C1
:3912B4000000000000000000000000000000000000000000000000000000000000000000000000000000000000000000000000000000000000000080F988
:3912ED000000000000000000000000000000000000000000000000000000000000000000000000000000000000000000000000000000000000000080F94F
:391326000000000000000000000000000000000000000000000000000000000000000000000000000000000000000000000000000000000000000008F195
:39135F000800000000000000000000000000000000000000000000000000000000000000000000000000000000000000000000000000000000000000F954
:391398000000000000000000000000000000200000000000000000000000000000000000000000000000002800000000000000000000000000000000DBF9
:3913D1000000000000000000000000000000000000000000000000000000000000000000000000000000000800000000000000000000000000000000F9E2
:39140A000000000000000000000000000000400000000000000000000000000000000000000000000000000000000000000000000000000000000008B1B0
:391443000000000000000000000000000000000000000000000000000000000000000000000000000000000000000000000000000000000000000080F9F7
:39147C000000000000000000000000000000000000000000000000000000000000000000000000000000000000000000000000000000000000000080F9BE
:3914B5000000000000000000000000000000000000000000000000000000000000000000000000000000000000000000000000000000000000000080F985
:3914EE000000000000000000000000000000000000000000000000000000000000000000000000000000000000000000000000000000000000000080F94C
:391527000000000000000000000000000000000000000000000000000000000000000000000000000000000000000000000000000000000000000080F912
:391560000000000000000000000000000000000000000000000000000000000000000000000000000000000000000000000000000000000000000080F9D9
:391599000000000000000000000000000000000000000000000000000000000000000000000000000000000000000000000000000000000000000080F9A0
:3915D2000000000000000000000000000000000000000000000000000000000000000000000000000000000000000000000000000000000000000080F967
:39160B000000000000000000000000000000000000000000010000000000000000000000000000000000000000000000000001000000000000000080E83C
:391644000000000000000000000000000000000800000000000000000000000000000000000000000000000000000000000000000000000000000000F96C
:39167D000000000000000000000000000000000000000000000000000000000000000000000000000000000000000000000000000000000000000080F9BB
:3916B6000000000000000000000000000000000000020000000000000000000000000000000000000000000000000000000000000000000000000080FB7E
:3916EF000200000000000000000000000000000080000000000000000000000000000000000000000000000000000000000000000000000000000020F927
:391728000000000000000000000000000080020000100000000000000000000000000000000000000000000000000000000000000A000000000000A0EB61
:391761000000000000000000000000000080000000000000000000000000000000000000000000000000000000000000000000000800000000000080F94E
:39179A000000000000000000000000000000000000000000000000000000000000000000000000000000000000000000000000000000000000000080F99D
:3917D3000000000000000000000000000000000000000000000000000000000000000000000000000000000000000000000000000000000000000080F964
:39180C000000000000000000000000000000000000000000000000000000000000000000000000000000000040000000000000000000000000000080BD26
:391845000000000000000000000000000000000000000000000000000000000000000000000000000000000000000000000000000000000000000080F9F1
:39187E000000000000000000000000000000000000000000000000000000000000000000000000000000000000000000000000000000000000000080F9B8
:3918B7001000000000000000000000000000000000000000000000000000000000000000000000000000000000000000000000000000000000000008F0F0
:3918F0000400000000000000000000000000000000000000000000000000000000000000000000000000000000000000000000000000000000000080BD7E
:391929000000000000000000000000000020000000000000000000000000000000000000000000000000000000000000000000000000000000000080DB0A
:391962000000000000000000000000000000000000000000000000000000000000000000000000000000000000000000000000000000000000000080F9D3
:39199B000000000000000000000000000000000000000000000000000000000000000000000000000000000000000000000000000000000000000080F99A
:3919D4000200000000000000000000000000000000000000000000000000000000000000000000000000000000000000000000000000000000000080DB7D
:391A0D0000000000000000000000000000000000000000000000000000000000000000000000000000000000000000000000000000000000000000A0DB25
:391A46000000000000000000000000000000000000000000000000000000000000000000000000000000000000000000000000000000000000000080F9EE
:391A7F000000000000000000000000000000000000000000000000000000000000000000000000000000000000000000850100000000000000000000E5C3
:391AB8000000000000000000000000000000000000000000000000000000000000000000000000000000000000000000080000000000000000000080F17C
:391AF1000000000000000000000000000000000000000000000000000000000000000000000000000000000000000000070000000000000000000080FE37
:391B2A000000000000000000000000000000000000000000000000000000000000000000000000000000000000000000090000000000000000000080F009
:391B63000000000000000000000000000000000000000000000000000000000000000000000000000000000000000000040000000000000000000080FDC8
:391B9C0000000000000000000000000000000000000000000000000000000000000000000000000000000000000000000B0000000000000000000080F293
:391BD5000000000000000000000000000000000000000000000000000000000000000000000000000000000000000000040000000000000000000080FD56
:391C0E000000000000000000000000000000000000000000000000000000000000000000000000000000000000000000080000000000000000000080F124
:391C470000000000000000000000000000000000000000000000000000000000000000000000000000000000000000000000000000000000000000C0BDE7
:391C80000000000000000000000000000000000000000000000000000000000000000000000000000000000000000000000000000000000000000080F9B2
:391CB9000000000000000000000000000000000000000000000000000000000000000000000000000000000000000000000000000000000000000080F979
:391CF2000800000000000000000000000000000000000000000000000000000000000000000000000000000000000000000000000000000000000030CAB7
:391D2B000000000000000000000000000000000000000000000000000000000000000000000000000000000000000000000000000000000000000090E807
:391D64000000000000000000000000000000000000000000000000000000000000000000000000000000000000000000000000000000000000000080F9CD
:391D9D0004000000000000000000000000000000000000000000000000000000000000000000000000000000000000000000000000000000000000B08ECB
:391DD6000000000000000000000000000000000000000000000000000000000000000000000000000000000000000000000000000000000000000080F95B
:391E0F000000000000000000000000000000000000000000000000000000000000000000000000000000000000000000000000000000000000000080F921
:391E48000000000000000000000000000000000000000000000000000000000000000000000000000000000000000000000000000000000000000080F9E8
:391E81000000000000000000000000000000000000000000000000000000000000000000000000000000000000000000000000000000000000000080F9AF
:391EBA0004000000000000000000000000000000000000000000000000000000000000000000000000000000000000000000000000000000000000A09FAC
:391EF3000C00000000000000000000000000000000000000000000000000000000000000000000000000000000000000000000000000000000000000BDED
:391F2C000000000000000000000000000000000000000000000000000000000000000000000000000000000000000000000000000000000000000080F903
:391F65000800000000000000000000000000000000000000000000000000000000000000000000000000000000000000000000000000000000000010E843
:391F9E000000000000000000000000000000000000000000000000000000000000000000000000000000000000000000000000000000000000000080F991
:391FD700000000000000000000000000000000000000000000000000000000000000000000000000000000000000000000000000000000000A03004096EE
:392010000000000000000000000000000000000000000000000000000000000000000000000000000000000000000000000000000000000010000080E81F
:39204900000000000000000000000000000000000000000000000000000000000000000000000000000000000000000000000000000000000E00000091BF
:392082000800000000000000000000000000000000000000000000000000000000000000000000000000000000000000000000000000000012000030FBE0
:3920BB000000000000000000000000000000000000000000000000000000000000000000000000000000000000000000000000000000000008000010E0F4
:3920F40000000000000000000000000000000000000000000000000000000000000000000000000000000000000000000000000000000000160000808895
:39212D00040000000000000000000000000000000000000000000000000000000000000000000000000000000000000000000000000000000800003086B7
:392166000000000000000000000000000000000000000000000000000000000000000000000000000000000000000000000000000000000010000080E8C8
:39219F000000000000000000000000000000000000000000000000000000000000000000000000000000000000002802000000000000000000000000DB02
:3921D8000000000000000000000000000000000000000000000000000000000000000000000000000000000000004020000000000000000000000080DF0F
:392211000000000000000000000000000000000000000000000000000000000000000000000000000000000000003800000000000000000000000000FA62
:39224A0004000000000000000000000000000000000000000000000000000000000000000000000000000000000048000000000000000000000000209B54
:392283000C00000000000000000000000000000000000000000000000000000000000000000000000000000000002000000000000000000000000000BF37
:3922BC000000000000000000000000000000000000000000000000000000000000000000000000000000000000005800000000000000000000000000FC95
:3922F5000800000000000000000000000000000000000000000000000000000000000000000000000000000000002000000000000000000000000010EA8E
:39232E000000000000000000000000000000000000000000000000000000000000000000000000000000000000004000000000000000000000000080FDB9
:3923670000000000000000004011010000000000000000000000000000000000000000000000000000000000000000000000000000000000000000C0FD2E
:3923A0000000000000000000000200000000000000000000000000000000000000000000000000000000000000000000000000000000000000000080DBA7
:3923D9000000000000000000C00100000000000000000000000000000000000000000000000000000000000000000000000000000000000000000000A06A
:392412000800000000000000400200000000000000000000000000000000000000000000000000000000000000000000000000000000000000000030A86F
:39244B000000000000000000000100000000000000000000000000000000000000000000000000000000000000000000000000000000000000000090F9CE
:392484000000000000000000C0020000000000000000000000000000000000000000000000000000000000000000000000000000000000000000000093CA
:3924BD0004000000000000000001000000000000000000000000000000000000000000000000000000000000000000000000000000000000000000B09F92
:3924F6000000000000000000000200000000000000000000000000000000000000000000000000000000000000000000000000000000000000000080DB50
:39252F001000000000000000000000000000000000000000000000000000000000000000000000000000000000000000000000000000504800000000AC1F
:392568000000000000000000000000000000000000000000000000000000000000000000000000000000000000000000000000000000800000000000F1C9
:3925A10000000000000000000000000000000000000000000000000000000000000000000000000000000000000000000000000000007000000000808988
:3925DA000C000000000000000000000000000000000000000000000000000000000000000000000000000000000000000000000000009000000000A08705
:392613000400000000000000000000000000000000000000000000000000000000000000000000000000000000000000000000000000400000000080FDCD
:39264C000000000000000000000000000000000000000000000000000000000000000000000000000000000000000000000000000000B00000000000C1E4
:392685000C00000000000000000000000000000000000000000000000000000000000000000000000000000000000000000000000000400000000010ECD4
:3926BE000000000000000000000000000000000000000000000000000000000000000000000000000000000000000000000000000000800000000000F172
:3926F70000000000000000000000000000000000000000000000000000000000000000000000000000000000000000000000000000000000000000C0BD2D
:392730000000000000000000000000000000000000000000000000000000000000000000000000000000000000000000000000000000000000000080F9F7
:392769000000000000000000000000000000000000000000000000000000000000000000000000000000000000000000000000000000000000000080F9BE
:3927A2000800000000000000000000000000000000000000000000000000000000000000000000000000000000000000000000000000000000000030CAFC
:3927DB000000000000000000000000000000000000000000000000000000000000000000000000000000000000000000000000000000000000000090E84D
:392814000000000000000000000000000000000000000000000000000000000000000000000000000000000000000000000000000000000000000080F912
:39284D0004000000000000000000000000000000000000000000000000000000000000000000000000000000000000000000000000000000000000B08E10
:392886000000000000000000000000000000000000000000000000000000000000000000000000000000000000000000000000000000000000000080F9A0
:3928BF000000000000000000000000000000000000000000000000000000000000000000000000000000000000000000000000000000000000000080F967
:3928F8002000048000100002400008000120000480001000000000000000000000000000000000800010000240000800012000048000100002400080F9AA
:392931000000000000000000000000000000000000000000000000000000000000000000000000000000000000000000000000000000000000000080F9F4
:39296A002800048000100002400008000120000480001000000000000000000000000000000000800010000240000800012000048000100002400010E8B0
:3929A3000000000000000000000200000000000000000000000000000000000000000000000000000000000000004000080000000000800010000030FDF4
:3929DC0020000480001000020000080001200004800010000000000000000000000000000000008000100002400000000020000480000000004000008811
:392A150004000000000000000000000000000000000000000000000000000000000000000000000000000000000000000000000000000000000000A09F45
:392A4E002000048000100002400008000120000480001000000000000000000000000000000000800010000240000800012000048000100002400080F952
:392A87000000000000000000000000000000000000000000000000000000000000000000000000000000000000000000000000000000000000000080F99D
:392AC0000000000000000000000000000000000000000000000000000000000000000000000000000000000000000000000000000000000000000080F964
:392AF9000000000000000000000000000000000000000000000000000000000000000000000000000000000000000000000000000000000000000080F92B
:392B32000000000000000000000000000000000000000000000000000000000000000000000000000000000000000000000000000000000000000080F9F1
:392B6B000000000000000000000000000000000000000000000000000000000000000000000000000000000000000000000000000000000000000080F9B8
:392BA4000000000000000000000000000000000000000000000000000000000000000000000000000000000000000000000000000000000000000080F97F
:392BDD000000000000000000000000000000000000000000000000000000000000000000000000000000000000000010000000000000000000000180F935
:392C160000000000000000000000000000000000000000000000000000000000000000000000000000000000000000000000000000000000000000D0AC09
:392C4F000000000000000000000000000000000000000000000000000000000000000000000000000000000000000020000000000000000000800000D3D9
:392C88000000000000000000000000000000000000000000000000000000000000000000000000000000000000000002000000000000000000000800D930
:392CC1000000000000000000000000000000000000000000000000000000000000000000000000000000000000000000000000000000000000000080F961
:392CFA0000000000000000000000000000000000000000000000000000000000000000000000000000000000000000000000000000000000000000D0AC25
:392D33000000000000000000000000000000000000000000000000000000000000000000000000000000000000000000000000000000000000000080F9EE
:392D6C000000000000000000000000000000000000000000000000000000000000000000000000000000000000000000000000000000000000000080F9B5
:392DA5000000000000000000000000000000000000000000000000000000000000000000000000000000000000000000000000000000000000000080F97C
:392DDE000000000000000000000000000000000000000000000000000000000000000000000000000000000000000000000000000000000000000080F943
:392E17000000000000000000000000000000000000000000000000000000000000000000000000000000000000000000000000000000000000000080F909
:392E50000000000000000000000000000000000000000000000000000000000000000000000000000000000000000000000000000000000000000080F9D0
:392E89000000000000000000000000000000000000000000000000000000000000000000000000000000000000004000000000000000000000000080FD53
:392EC2000000000000000000000000000000000000000000000000000000000000000000000000000000000000000000000000000000000000000080F95E
:392EFB000000000000000000000000000000000000000000000000000000000000000000000000000000000000000000000000000000000002000080D943
:392F34000000000000000000000100000000000000000000000000000000000000000000000000000000000000000000000000000000200000000080C8FB
:392F6D000000000000000000000000000000000000000000000000000000000000000000000000000000000000000010000000000000000000000090F992
:392FA60000000000000000000000000000000000000000000000000000000000000000000000000000000000000000000000000000020000000000C09D93
:392FDF000A00000000000000000000000000000000000000000000000000000000000000000000000000000000000020000000008000000000000000F11E
:3930180000000000000000000040000000000000000000000000000000000000000000000000000000000000000000000000000000100000000000D0B9A6
:393051000000000000000000000000000000000000000000000000000000000000000000000000000000000000000000000000000000000000000080F9CD
:39308A000000000000000000008000000000000000000000000000000000000000000000000000000000000000000000000000000000000000000080F11C
:3930C3000000000000000000000000000000000000000000000000000000000000000000000000000000000000000000000000000000000000000080F95B
:3930FC000000000000000000000000000000000000000000000000000000000000000000000000000000000000000000000000000000000000000080F922
:393135000000000000000000000000000000000000000000000000000000000000000000000000000000000000000000000000000000000000000080F9E8
:39316E000000000000000000000000000000000000000000000000000000000000000000000000000000000000000000000000000000000000000080F9AF
:3931A7000000000000000000000000000000000000000000000000000000000000000000000000000000000000000000000000000000000000000008F1F6
:3931E0000000000000000000000000000000000000000000000000000000000000000000000000000000000000000000000000000000000000000080F93D
:393219000000000000000000000000000000000000000000000000000000000000000000000000000000000000000000010000000000000000000080F803
:393252000000000000000000000000000000000000000000000000000000000000000000000000000000000000000000000000000000000000000080F9CA
:39328B000800000000000000000000000000000000000000000000000000000000000000000000000000000000000000000000000000000000000000F909
:3932C4000000000000000000000000000000000000000000000000000000000000000000000000000000000000000000000000000000000000000080F958
:3932FD000000000000000000000000000000000000000000000000000000000000000000000000000000000000000000000000000000000000000080F91F
:393336000000000000000000000000000000000000000000000000000000000000000000000000000000000000000000000000000000000000000080F9E5
:39336F0000000000005042000000000000000000000000000000000000000000000000000000000000000000000000000000000000000000000000808F84
:3933A8000000000000800000000000000000000000000000000000000000000000000000000000000000000000000000000000000000000000000000F17B
:3933E1000000000000700000000000000000000000000000000000000000000000000000000000000000000000000000000000000000000000000080893A
:39341A000000000000900000000000000000000000000000000000000000000000000000000000000000000000000000000000000000000000000000E108
:393453000000000000400000000000000000000000000000000000000000000000000000000000000000000000000000000000000000000000000080B9C7
:39348C000000000000B00000000000000000000000000000000000000000000000000000000000000000000000000000000000000000000000000000C196
:3934C5000000000000400000000000000000000000000000000000000000000000000000000000000000000000000000000000000000000000000080B955
:3934FE000000000000800000000000000000000000000000000000000000000000000000000000000000000000000000000000000000000000000000F124
:39353700B010020000000000000000000000000000000000000000000000000000000000000000000000000000000000000000000000000000000080E138
:393570000001000000000000000000000000000000000000000000000000000000000000000000000000000000000000000000000000000000000080E9B8
:3935A900E000000000000000000000000000000000000000000000000000000000000000000000000000000000000000000000000000000000000080F792
:3935E2002C010000000000000000000000000000000000000000000000000000000000000000000000000000000000000000000000000000000000208DD6
:39361B008400000000000000000000000000000000000000000000000000000000000000000000000000000000000000000000000000000000000080B5BD
:393654006001000000000000000000000000000000000000000000000000000000000000000000000000000000000000000000000000000000000080EF6D
:39368D008C00000000000000000000000000000000000000000000000000000000000000000000000000000000000000000000000000000000000010A4C4
:3936C6000001000000000000000000000000000000000000000000000000000000000000000000000000000000000000000000000000000000000080E961
:3936FF001000000000000000000000000000000000000000000000000000000000000000000000000000000000000000000000000000000000000080F80A
:393738000000000000000000000000000000000000000000000000000000000000000000000000000000000000000000000000000000000000000080F9DF
:393771000000000000000000000000000000000000000000000000000000000000000000000000000000000000000000000000000000000000000080F9A6
:3937AA000C00000000000000000000000000000000000000000000000000000000000000000000000000000000000000000000000000000000000010AC1E
:3937E30004000000000000000000000000000000000000000000000000000000000000000000000000000000000000000000000000000000000000B08E6B
:39381C000000000000000000000000000000000000000000000000000000000000000000000000000000000000000000000000000000000000000080F9FA
:393855000C000000000000000000000000000000000000000000000000000000000000000000000000000000000000000000000000000000000000209F6F
:39388E000000000000000000000000000000000000000000000000000000000000000000000000000000000000000000000000000000000000000080F988
:3938C7000000144000000000000000000000000000000000000000000000000000000000000000000000000000000000000000000000504400000080F967
:393900000000200000000000000000000000000000000000000000000000000000000000000000000000000000000000000000000000800000000000D11D
:3939390000001C000000000000000000000000000000000000000000000000000000000000000000000000000000000000000000000070000000008095B4
:3939720008002400000000000000000000000000000000000000000000000000000000000000000000000000000000000000000000009000000000A0E7D9
:3939AB000000100000000000000000000000000000000000000000000000000000000000000000000000000000000000000000000000400000000080A96A
:3939E40000002C0000000000000000000000000000000000000000000000000000000000000000000000000000000000000000000000B00000000000EDE1
:393A1D000400100000000000000000000000000000000000000000000000000000000000000000000000000000000000000000000000400000000090FC90
:393A56000000200000000000000000000000000000000000000000000000000000000000000000000000000000000000000000000000800000000000D1C6
:393A8F0010000000000000000000000000000000000000000000000000000000000000000000000000000000000000000000000000000000000000C0BC72
:393AC8000000000000000000000000000000000000000000000000000000000000000000000000000000000000000000000000000000000000000080F94C
:393B01000000000000000000000000000000000000000000000000000000000000000000000000000000000000000000000000000000000000000080F912
:393B3A000C000000000000000000000000000000000000000000000000000000000000000000000000000000000000000000000000000000000000308E88
:393B73000400000000000000000000000000000000000000000000000000000000000000000000000000000000000000000000000000000000000090ACD9
:393BAC000000000000000000000000000000000000000000000000000000000000000000000000000000000000000000000000000000000000000080F967
:393BE5000C000000000000000000000000000000000000000000000000000000000000000000000000000000000000000000000000000000000000308EDD
:393C1E000000000000000000000000000000000000000000000000000000000000000000000000000000000000000000000000000000000000000080F9F4
:393C57000000000000000000000000000000000000000000000000000000000000000000000000000000000000000000000000000000000000000080F9BB
:393C90000000000000000000000000000000000000000000000000000000000000000000000000000000000000000000000000000000000000000080F982
:393CC9000000000000000000000000000000000000000000000000000000000000000000000000000000000000000000000000000000000000000080F949
:393D02000800000000000000000000000000000000000000000000000000000000000000000000000000000000000000000000000000000000000020DB85
:393D3B000000000000000000000000000000000000000000000000000000000000000000000000000000000000000000000000000000000000000080F9D6
:393D74000000000000000000000000000000000000000000000000000000000000000000000000000000000000000000000000000000000000000080F99D
:393DAD000400000000000000000000000000000000000000000000000000000000000000000000000000000000000000000000000000000000000090AC9D
:393DE6000000000000000000000000000000000000000000000000000000000000000000000000000000000000000000000000000000000000000080F92B
:393E1F000000000000000000000000000000000000000000000000000000000000000000000000000000000000000000000000000000000000000080F9F1
:393E58000000000000000000000000000000000000000000000000000000000000000000000000000000000000000000000000000000000000000080F9B8
:393E91000000000000000000000000000000000000000000000000000000000000000000000000000000000000000000000000000000000000000080F97F
:393ECA000400000000000000000000000000000000000000000000000000000000000000000000000000000000000000000000000000000000000090AC7F
:393F03000C000000000000000000000000000000000000000000000000000000000000000000000000000000000000000000000000000000000000308EBB
:393F3C000000000000000000000000000000000000000000000000000000000000000000000000000000000000000000000000000000000000000080F9D3
:393F75000800000000000000000000000000000000000000000000000000000000000000000000000000000000000000000000000000000000000020DB10
:393FAE000000000000000000000000000000000000000000000000000000000000000000000000000000000000000000000000000000000000000080F961
:393FE70000000000000000000000000000A080000000000000000000000000000000000000000000000000000000000000000000000000008A000080FB7C
:394020000000000000000000000000000000010000000000000000000000000000000000000000000000000000000000000000000000000010080080E1ED
:3940590000000000000000000000000000E000000000000000000000000000000000000000000000000000000000000000000000000000000E000080F7C9
:3940920004000000000000000000000000200100000000000000000000000000000000000000000000000000000000000000000000000000120000A08D91
:3940CB000C00000000000000000000000080000000000000000000000000000000000000000000000000000000000000000000000000000008000000B573
:394104000000000000000000000000000060010000000000000000000000000000000000000000000000000000000000000000000000000016000080EF9C
:39413D000800000000000000000000000080000000000000000000000000000000000000000000000000000000000000000000000000000008000010E0C9
:394176000000000000000000000000000000010000000000000000000000000000000000000000000000000000000000000000000000000010000080E996
:3941AF0010000000000000000000000000000000000000000000000000000000000000000000000000000000000000000000000000000000000000C0BC4B
:3941E8002000048000100002400008000120000480001000000000000000000000000000000000800010000240000800012000048000100002400080F9A1
:394221000000000000000000000000000000000000000000000000000000000000000000000000000000000000000000000000000000000000000080F9EB
:39425A002C000480001000024000080001200004800010000000000000000000000000000000008000100002400008000120000480001000024000308EDD
:3942930004012000008000000000000000000100000000000000000000000000000000000000000000000000000000000000000000008000100000908CA0
:3942CC000000008000000002400008000100000480001000000000000000000000000000000000800010000240000800012000048000000000400080FD1E
:394305000C000000000000000000000000000000000000000000000000000000000000000000000000000000000000000000000000000000000000308EB5
:39433E002000048000100002400008000120000480001000000000000000000000000000000000800010000240000800012000048000100002400080F949
:394377000000000000000000000000000000000000000000000000000000000000000000000000000000000000000000000000000000000000000080F994
:3943B0000000000000000000000000000000000000000000000000000000000000000000000000000000000000000000000000000000000000000080F95B
:3943E9000000000000000000000000000000000000000000000000000000000000000000000000000000000000000000000000000000000000000080F922
:394422000000000000000000000000000000000000000000000000000000000000000000000000000000000000000000000000000000000000000080F9E8
:39445B000000000000000000000000000000000000000000000000000000000000000000000000000000000000000000000000000000000000000080F9AF
:394494000000000000000000000000000000000000000000000000000000000000000000000000000000000000000000000000000000000000000080F976
:3944CD000000000000010000000000000000000000000000000000000000000000000000000000000000000000000000000000000000000000000080F83D
:394506000000000000000000000000000000000000000000000000000000000000000000000000000000000000000000000000000000000000000008F183
:39453F000000000000020000000000000000000000000000000000000000000000000000000000000000000000000000000000000000000000000080FBC6
:39457800982200002000000000000000000000000000000000000000000000000000000000000000000000000000000000000000000A000000000080F8AE
:3945B1008000000000000000000000000000000000000000000000000000000000000000000000000000000000000000000000000002000000000080D1FE
:3945EA000A40000000000000000000000000000000000000000000000000000000000000000000000000000000000000000000000000000000000088972F
:394623000000000000000000000000000000000000000000000000000000000000000000000000000000000000000000000000000000000000000080F9E5
:39465C000000000000000000000000000000000000000000000000000000000000000000000000000000000000000000000000000000000000000080F9AC
:394695000000000000000000000000000000000000000000000000000000000000000000000000000000000000000000000000000000000000000080F973
:3946CE000000000000000000000000000000000000000000000000000000000000000000000000000000000000000000000000000000000000000080F93A
:394707000000000000000000000000000000000000000000000000000000000000000000000000000000000000000000000000000000000000000080F900
:394740000000000000000000000000000000000000000000000000000000000000000000000000000000000000000000000000000000000000000080F9C7
:394779000000000000000000000000000000000000000000000000000000000000000000000000000000000000000000000000000000000000000080F98E
:3947B2000000000000000000000000000000000000000000000000000000000000000000000000000000000000000000000000000000400000000080B955
:3947EB0002000000004000000000000000000000000000000000000000000000000000000000000000000000000000000000000000000000100000808A39
:394824000000010000000000000000000000000000000000000000000000000000000000000000000000000000000000000000000000000000000080F8E2
:39485D000000000000000000000000000000000000000000000000000000000000000000000000000000000000000000000000000000000000000008F129
:394896000000000000000000000000000000000000000000000000000000000000000000000000000000000000000000000000000000000000000080F970
:3948CF0000000000000000000000000000000000000000000000000000000000000000000000000000000000000000000000000000000000000000A0DB35
:394908000000000000000000000000000080000000000000000000000000000000000000000000000000000000000000000000000000000008000080F17D
:394941000000000000000000000000000080000000000000000000000000000000000000000000000000000000000000000000000000000008000080F144
:39497A000000000000000000000000000000000000000000000000000000000000000000000000000000000000000000000000000000000000000080F98B
:3949B3000000002000000000000000000040000000000000000000000000000000000000000000000000000000000000000000000000000000000080BF2C
:3949EC000000000000000000000000000000000000000000000000000000000000000000000000000000000000000000000000000000000000000080F919
:394A25000000000000000000000000000000000000000000000000000000000000000000000000000000000000000000000000000000000000000080F9DF
:394A5E000000000000000000000000000000000000000000000000000000000000000000000000000000000000000000000000000000000000000080F9A6
:394A97000C000000000000000000000000000000000000000000000000000000000000000000000000000000000000000000000000000000000000209F1B
:394AD0000000000000000000000000000000000000000000000000000000000000000000000000000000000000000000000000000000000000000080F934
:394B09000000000000000000000000000000000000000000000000000000000000000000000000000000000000000000000000000000000000000080F9FA
:394B42000000000000000000000000000000000000000000000000000000000000000000000000000000000000000000000000000000000000000080F9C1
:394B7B000000000000000000000000000000000000000000000000000000000000000000000000000000000000000000000000000000000000000080F988
:394BB4000200000000000000000000000000000000000000000000000000000000000000000000000000000000000000000000000000000000000080DB6B
:394BED000000000000000000000000000000000000000000000000000000000000000000000000000000000000000000000000000000000000000080F916
:394C26000000000000000000000000000000000000000000000000000000000000000000000000000000000000000000000000000000000000000080F9DC
:394C5F000000000000000000000000000000000000000000000000000000000000000000000000000000000000000000000000000000000000000080F9A3
:394C98000000000000000000000000000000000000000000000000000000000000000000000000000000000000000000000000000000000000000080F96A
:394CD1000000000000000000000000000000000000000000000000000000000000000000000000000000000000000000000000000000000000000080F931
:394D0A000000000000000000000000000000000000000000000000000000000000000000000000000000000000000000000000000000000000000080F9F7
:394D43000012400248000920012480049000124002480009000000000000000000000000000000004800092001248004900012400248000920012480F987
:394D7C00000C8001300006C00018000360000C800130000600000000000000000000000000000000300006C00018000360000C8001300006C0001880F9B8
:024DB500FFFFFE
:00000001FF
