:020000040000FA
:39000000FFFF62FF3600FFFFFFFFFFFFFFFFFFFFFFFFFFFFFFFFFFFFFFFFFFFFFFFFFFFFFFFFFFFFFFFFFFFFFFFFFFFFFFFFFFFFFFFFFFFFFFFFFFFFFF65
:39003900000C340130D004C000196802600064810130000600000000000000000000000000000000300006C00018000360000C8001300006C0001800B8C6
:390072000012A00248800A20012E400590002A4002480009000000000000000000000000000000004800092001248004900012400248000920012480F5E5
:3900AB000000000000000000000000000000000000000000000000000000000000000000000000000000000000000000000000000000000000000080F9A3
:3900E4000000000000000000000000000000000000000000000000000000000000000000000000000000000000000000000000000000000000000080F96A
:39011D000000000000000000000201000000000000000000000000000000000000000000000000000000000000000000000000000000000000000080CB5B
:390156000000000000000000000800000000000000000000000000000000000000000100000000000000000000000000000000000000000000000000E87F
:39018F00000000000000000A210000000000000000000000000000000000000000000000000000000000000000000000000000000000000000000000F01C
:3901C8000000000000000010000000000000000000000000000000000000000000000000000000000000000000000000000000000000000000000080E886
:39020100000000000000000E0000000000000000000000000000000000000000000000000000000000000000000000000000000000000000000000009125
:39023A000000000000000012000000000000000000000000000000000000000000000000000000000000000000000000000000000000000000000080C831
:390273000000000000000008000000000000000000000000000000000000000000000000000000000000000000000000000000000000000000000000F159
:3902AC00000000000000001600000000000000000000000000000000000000000000000000000000000000000000000000000000000000000000008088FB
:3902E5000000000000000008000000000000000000000000000000000000000000000000000000000000000000000000000000000000000000000000F1E7
:39031E000000000000000010000000000000000000000000000000000000000000000000000000000000000000000000000000000000000000000080E82E
:39035700000000000000000A000000000000000000000000000000000000000000000000000000000000000000000000000000000000000000000000D192
:390390000000000000000010100000000000000000000000000000000000000000000000000000000000000000000000000000000000000000000080F89C
:3903C900000000000000000E000000000000000000000000000000000000000000000000000000000000000000000000000000000000000000000000915C
:390402000800000000000012000000000000000000000000000000000000000000000000000000000000000000000000000000000000000000000020EA9D
:39043B000000000000000008000000000000000000000000000000000000000000000000000000000000000000000000000000000000000000000000F18F
:3904740000000000000000160000000000000000000000000000000000000000000000000000000000000000000000000000000000000000000000808831
:3904AD000400000000000008000000000000000000000000000000000000000000000000000000000000000000000000000000000000000000000010A456
:3904E6000000000000000010000000000000000000000000000000000000000000000000000000000000000000000000000000000000000000000080E865
:39051F001000000000000002000000000000000000000000000000000000000000000000000000000000000000000000000000000000000000000080D839
:390558000000000000000000000000000000000000000000000000000000000000000000000000000000000000000000000000000000000000000080F9F1
:390591000000000000000000000000000000000000000000000000000000000000000000000000000000000000000000000000000000000000000080F9B8
:3905CA000C00000000000000000000000000000000000000000000000000000000000000000000000000000000000000000000000000000000000010AC30
:3906030004000000000000800400000000000000000000000000000000000000000000000000000000000000000000000000000000000000000000308A7C
:39063C0000000000000000060000000000000000000000000000000000000000000000000000000000000000000000000000000000000000000000809966
:390675000C000000000000180000000000000000000000000000000000000000000000000000000000000000000000000000000000000000000000A08602
:3906AE000000000000000018090000000000000000000000000000000000000000000000000000000000000000000000000000000000000000000000E909
:3906E7000000000000000002000000000000000000000000000000000000000000000000000000000000000000000000000000000000000000000080D97F
:390720000000000000000000000000000000000000000000000000000000000000000000000000000000000000000000000000000000000000000080F927
:390759000000000000000000000000000000000000000000000000000000000000000000000000000000000000000000000000000000000000000080F9EE
:390792000800000000000000000000000000000000000000000000000000000000000000000000000000000000000000000000000000000000000020DB2B
:3907CB000000000000000000040000000000000000000000000000000000000000000000000000000000000000000000000000000000000000000080FD74
:390804000000000000000006000000000000000000000000000000000000000000000000000000000000000000000000000000000000000000000080999C
:39083D000400000000000018000000000000000000000000000000000000000000000000000000000000000000000000000000000000000000000010B5A1
:390876000000000000000018090000000000000000000000000000000000000000000000000000000000000000000000000000000000000000000000E93F
:3908AF00100000000000000A000000000000000000005002010000000000000000000000000000000000000000000000000000000000000000000000F4AF
:3908E8000000000000000010080000000000000000008000000000000000000000000000000000000000000000000000000000000000000000000080E8D7
:39092100000000000000000E0000000000000000000070000000000000000000000000000000000000000000000000000000000000000000000000009689
:39095A000C000000000000120000000000000000000090000000000000000000000000000000000000000000000000000000000000000000000000109412
:390993000400000000000008000000000000000000004000000000000000000000000000000000000000000000000000000000000000000000000030822D
:3909CC00000000000000001600000000000000000000B0000000000000000000000000000000000000000000000000000000000000000000000000808329
:390A05000C000000000000080000000000000000000040000000000000000000000000000000000000000000000000000000000000000000000000A09331
:390A3E000000000000000010000000000000000000008000000000000000000000000000000000000000000000000000000000000000000000000080E08F
:390A77001000000000000002000000000000000000000000000000000000000000000000000000000000000000000000000000000000000000000080D8DC
:390AB0000000000000000000000000000000000000000000000000000000000000000000000000000000000000000000000000000000000000000080F994
:390AE9000000000000000000000000000000000000000000000000000000000000000000000000000000000000000000000000000000000000000080F95B
:390B22000C000000000000000000000000000000000000000000000000000000000000000000000000000000000000000000000000000000000000209FCF
:390B5B000400000000000000010000000000000000000000000000000000000000000000000000000000000000000000000000000000000000000080BC20
:390B940000000000000000060400000000000000000000000000000000000000000000000000000000000000000000000000000000000000000000809D01
:390BCD000C00000000000018000000000000000000000000000000000000000000000000000000000000000000000000000000000000000000000090B586
:390C06000000000000000018090000000000000000000000000000000000000000000000000000000000000000000000000000000000000000000000E9AB
:390C3F000000000000000002000000000000000000000000000000000000000000000000000000000000000000000000000000000000000000000080D921
:390C78000000000000000000000000000000000000000000000000000000000000000000000000000000000000000000000000000000000000000080F9CA
:390CB1000000000000000000000000000000000000000000000000000000000000000000000000000000000000000000000000000000000000000080F991
:390CEA000800000000000000000000000000000000000000000000000000000000000000000000000000000000000000000000000000000000000010E8D1
:390D230000000000000000000000000000000000000000000000000000000000000000000000000000000000000000000000000000000000000000B0CA1D
:390D5C0000000000000000060400000000000000000000000000000000000000000000000000000000000000000000000000000000000000000000809D37
:390D950004000000000000180000000000000000000000000000000000000000000000000000000000000000000000000000000000000000000000208663
:390DCE000000000000000018090000000000000000000000000000000000000000000000000000000000000000000000000000000000000000000000E9E2
:390E0700100000000000000A200000008501000000000000000000000000000000000000000000000000000000000000000000000000000000000000BD35
:390E40000000000000000010000000000800000000000000000000000000000000000000000000000000000000000000000000000000000000000000E879
:390E7900000000000000000E000000000700000000000000000000000000000000000000000000000000000000000000000000000000000000000000E645
:390EB2000C000000000000120000000009000000000000000000000000000000000000000000000000000000000000000000000000000000000000A0BF81
:390EEB000400000000000008000000000400000000000000000000000000000000000000000000000000000000000000000000000000000000000000F1CD
:390F24000000000000000016000000000B00000000000000000000000000000000000000000000000000000000000000000000000000000000000000BBB8
:390F5D000C00000000000008000000000400000000000000000000000000000000000000000000000000000000000000000000000000000000000090E0D3
:390F96000000000000000010000000000800000000000000000000000000000000000000000000000000000000000000000000000000000000000000E822
:390FCF001000000000000000000000000000000000000000000000000000000000000000000000000000000000000000000000000000000000000080F861
:391008002000048000100002400008000120000480001000000000000000000000000000000000800010000240000800012000048000100002400080F9B2
:391041000000000000000000000000000000000000000000000000000000000000000000000000000000000000000000000000000000000000000080F9FD
:39107A002C00048000100002400008000120000480001000000000000000000000000000000000800010000240000800012000048000100002400010ACF1
:3910B300040000000000001000000000080000000000800000000000000000000000000000000000000000000000000000000000000000000000003097A1
:3910EC002000048000100000400008000020000480000000000000000000000000000000000000800010000240000800012000048000100002400080C911
:391125000C000000000000000000000000000000000000000000000000000000000000000000000000000000000000000000000000000000000000209FC6
:39115E002000048000100002400008000120000480001000000000000000000000000000000000800010000240000800012000048000100002400080F95B
:391197000000000000000000000000000000000000000000000000000000000000000000000000000000000000000000000000000000000000000080F9A6
:3911D0000000000000000000000000000000000000000000000000000000000000000000000000000000000000000000000000000000000000000080F96D
:391209000000000000000000000000000000000000000000000000000000000000000000000000000000000000000000000000000000000000000080F933
:391242000800000000000000000000000000000000000000000000000000000000000000000000000000000000000000000000000000000000000000F972
:39127B000000000000000000000000000000000000000000000000000000000000000000000000000000000000000000000000000000000000000080F9C1
:3912B4000000000000000000000000000000000000000000000000000000000000000000000000000000000000000000000000000000000000000080F988
:3912ED000000000000000000000000000000000000000000000000000000000000000000000000000000000000000000000000000000000000000080F94F
:391326000000000000000000000000000000000000000000000000000000000000000000000000000000000000000000000000000000000000000080F915
:39135F000000000000000000000000000000000000000000000000000000000000000000000000000000000000000000000000000000000000000080F9DC
:39139800020000000000000800600000000040000000000000000000000000000000000000000000000000000000000000000000000000000000000095DD
:3913D1000000000000000008000000000000000100000000000000000000000000000000000000000000000000000000000000000000000000000000E0FA
:39140A000800000000000000008000000000000000000000000000000000000000000000000000000000000000000000000000000000000000000000F130
:391443000000000000000000000000000000000000000000000000000000000000000000000000000000000000000000000000000000000000000080F9F7
:39147C000000000000000000000000000000000000000000000000000000000000000000000000000000000000000000000000000000000000000080F9BE
:3914B5000000000000000000000000000000000000000000000000000000000000000000000000000000000000000000000000000000000000000080F985
:3914EE000000000000000020000000000000000000000000000000000000000000000000000000000000000000000000000000000000000000000080DB4A
:391527000000000000000000000000000000000000000000000000000000000000000000000000000000000000000000000000000000000000000080F912
:391560000000000000000000000000000000000000000000000000000000000000000000000000000000000000000000000000000000000000000080F9D9
:391599000000000000000000000000000000000000000000000000000000000000000000000000000000000000000000000000000000000000000080F9A0
:3915D2000000000000000000000000000000000000000000000000000000000000000000000000000000000000000000000000000000000000000080F967
:39160B000000000000000010000000000000000000000000010000000000000000000000000000000000000000000000000000000000000000000080E92C
:391644000000000000000000000000000000000000000000000000000000000000000000000000000000000000000000000000000000000000000080F9F4
:39167D000000000000000000000000000000000000000100000000000000000000000000000000000000000000000000000000000000000000000080E8CB
:3916B6001000000000000008000000000000000000000000000000000000000000000000000000000000000000000000000000000000000000000000F0F3
:3916EF000000000000000002005000000000000000000200000000000000000000000000000000000000000000000000000000000000000000000028D472
:3917280012000000020000000010A0000000000000200000000000000000000000000000000000000000000000000000000000000000000000000000F9AB
:391761000000000001000000000020000000000000000000000000000000000000000000000000000000000000000000000000000000000000000080CBE3
:39179A000000000000000000000000000000000000000000000000000000000000000000000000000000000000000000000000000000000000000080F99D
:3917D3000000000000000000100000000000000000000000000000000000000000000000000000000000000000000000000000000000000000000080E964
:39180C000000000000000000100000000000000000000000000000000000000000000000000000000000000000000000000000000000000000000080E92A
:391845000000000000000000000000000000000000000000000000000000000000000000000000000000000000000000000000000000000000000080F9F1
:39187E000000000000000000080000000000000000000000000000000000000000000000000000000000000000000000000000000000000000000080F1B8
:3918B7000000000000000000000000000000000000000000000000000000000000000000000000000000000000000000000000000000000000000028D3FD
:3918F0000000000000000000000000000000000000000000000000000000000000000000000000000000000000000000000000000000000000000080F946
:391929000000000000000000000000000100000000000000000000000000000000000000000000000000000000000000000000000000000000000080E81C
:391962000200000000000000000000000000000000000000000000000000000000000000000000000000000000000000000000000000000000000080DBEF
:39199B000000000000000000000000000000000000000000000000000000000000000000000000000000000000000000000000000000000000000080F99A
:3919D4000000000000000000000000000000000000000000000000000000000000000000000000000000000000000000000000000000000000000080F961
:391A0D000000000000000000000000000000000000000000000000000000000000000000000000000000000000000000000000000000000000000080F927
:391A46000400000000000000000000000000000000000000000000000000000000000000000000000000000000000000000000000000000000000080BD26
:391A7F0000000000000000000000000000A0300000000000000000000000000000000000000000000000000000000000000000000000500801000080ABDA
:391AB8000000000000000000000000000000010000000000000000000000000000000000000000000000000000000000000000000000800000000000F084
:391AF10000000000000000000000000000E0000000000000000000000000000000000000000000000000000000000000000000000000700000000000EF7D
:391B2A000000000000000000000000000020010000000000000000000000000000000000000000000000000000000000000000000000900000000000C20F
:391B63000000000000000000000000000080000000000000000000000000000000000000000000000000000000000000000000000000400000000000B9D0
:391B9C000000000000000000000000000060010000000000000000000000000000000000000000000000000000000000000000000000B00000000000A659
:391BD5000000000000000000000000000080000000000000000000000000000000000000000000000000000000000000000000000000400000000000B95E
:391C0E000000000000000000000000000000010000000000000000000000000000000000000000000000000000000000000000000000800000000000F02C
:391C470000000000000000000000000000000000000000000000000000000000000000000000000000000000000000000000000000000000000000C0BDE7
:391C80000000000000000000000000000000000000000000000000000000000000000000000000000000000000000000000000000000000000000080F9B2
:391CB9000000000000000000000000000000000000000000000000000000000000000000000000000000000000000000000000000000000000000080F979
:391CF2000800000000000000000000000000000000000000000000000000000000000000000000000000000000000000000000000000000000000030CAB7
:391D2B000000000000000000000000000000000000000000000000000000000000000000000000000000000000000000000000000000000000000090E807
:391D64000000000000000000000000000000000000000000000000000000000000000000000000000000000000000000000000000000000000000080F9CD
:391D9D0004000000000000000000000000000000000000000000000000000000000000000000000000000000000000000000000000000000000000B08ECB
:391DD6000000000000000000000000000000000000000000000000000000000000000000000000000000000000000000000000000000000000000080F95B
:391E0F000000000000000000000000000000000000000000000000000000000000000000000000000000000000000000000000000000000000400180A831
:391E48000000000000000000000000000000000000000000000000000000000000000000000000000000000000000000000000000000000000000282FBE2
:391E81000000000000000000000000000000000000000000000000000000000000000000000000000000000000000000000000000000000000C00100A0C7
:391EBA0004000000000000000000000000000000000000000000000000000000000000000000000000000000000000000000000000000000004002A0FD0C
:391EF3000C00000000000000000000000000000000000000000000000000000000000000000000000000000000000000000000000000000000000100ACFD
:391F2C000000000000000000000000000000000000000000000000000000000000000000000000000000000000000000000000000000000000C002009327
:391F65000800000000000000000000000000000000000000000000000000000000000000000000000000000000000000000000000000000000000110F931
:391F9E000000000000000000000000000000000000000000000000000000000000000000000000000000000000000000000000000000000000000280DBAD
:391FD70000000000000000000000000000000000000000000000000000000000000000000000000000000000000000000000000000000000000000C0BD54
:392010000000000000000000000000000000000000000000000000000000000000000000000000000000000000000000000000000000000000000080F91E
:392049000000000000000000000000000000000000000000000000000000000000000000000000000000000000000000000000000000000000000080F9E5
:392082000800000000000000000000000000000000000000000000000000000000000000000000000000000000000000000000000000000000000030CA23
:3920BB000000000000000000000000000000000000000000000000000000000000000000000000000000000000000000000000000000000000000090E874
:3920F4000000000000000000000000000000000000000000000000000000000000000000000000000000000000000000000000000000000000000080F93A
:39212D0004000000000000000000000000000000000000000000000000000000000000000000000000000000000000000000000000000000000000B08E37
:392166000000000000000000000000000000000000000000000000000000000000000000000000000000000000000000000000000000000000000080F9C7
:39219F001000000000000000000000000000000000000000000000000000000000000000000000000000000000000000000000000000000000000080F87F
:3921D8000000000000000000000000000000000000000000000000000000000000000000000000000000000000000000000000000000000000000080F955
:392211000000000000000000000000000000000000000000000000000000000000000000000000000000000000000000000000000000000000000080F91B
:39224A000C000000000000000000000000000000000000000000000000000000000000000000000000000000000000000000000000000000000000209F90
:392283000400000000000000000000000000000000000000000000000000000000000000000000000000000000000000000000000000000000000080BDE1
:3922BC000000000000000000000000000000000000000000000000000000000000000000000000000000000000000000000000000000000000000080F970
:3922F5000C00000000000000000000000000000000000000000000000000000000000000000000000000000000000000000000000000000000000010ACE8
:39232E000000000000000000000000000000000000000000000000000000000000000000000000000000000000000000000000000000000000000080F9FD
:392367000000000000000000000000000000000000000000000000000000000000000000000000000000000000000000000000000000000000000080F9C4
:3923A0000000000000000000000000000000000000000000000000000000000000000000000000000000000000000000000000000000000000000080F98B
:3923D9000000000000000000000000000000000000000000000000000000000000000000000000000000000000000000000000000000000000000080F952
:392412000800000000000000000000000000000000000000000000000000000000000000000000000000000000000000000000000000000000000010E891
:39244B0000000000000000000000000000000000000000000000000000000000000000000000000000000000000000000000000000000000000000B0CADE
:392484000000000000000000000000000000000000000000000000000000000000000000000000000000000000000000000000000000000000000080F9A6
:3924BD0004000000000000000000000000000000000000000000000000000000000000000000000000000000000000000000000000000000000000A09FA3
:3924F6000000000000000000000000000000000000000000000000000000000000000000000000000000000000000000000000000000000000000080F934
:39252F00100000802202000000000000000000000000000000000000000000000000000000000000000000000000000000000000000000008A000080D8DD
:392568000000000004000000000000000000000000000000000000000000000000000000000000000000000000000000000000000000000010080080A0FE
:3925A100000000800300000000000000000000000000000000000000000000000000000000000000000000000000000000000000000000000E000000A9C7
:3925DA000C00008004000000000000000000000000000000000000000000000000000000000000000000000000000000000000000000000012000020E620
:39261300040000000200000000000000000000000000000000000000000000000000000000000000000000000000000000000000000000000800000095EB
:39264C000000008005000000000000000000000000000000000000000000000000000000000000000000000000000000000000000000000016000080D06A
:392685000C0000000200000000000000000000000000000000000000000000000000000000000000000000000000000000000000000000000800009084F2
:3926BE000000000004000000000000000000000000000000000000000000000000000000000000000000000000000000000000000000000010000080A8A7
:3926F700000000000000008A0800000000000000000000000000000000000000000000000000000000000000000000000000000000000000000000C09DBB
:392730000000000000000010000000000000000000000000000000000000000000000000000000000000000000000000000000000000000000000080E8F8
:39276900000000000000000E0000000000000000000000000000000000000000000000000000000000000000000000000000000000000000000000009198
:3927A2000800000000000012000000000000000000000000000000000000000000000000000000000000000000000000000000000000000000000030FBB9
:3927DB000000000000000008000000000000000000000000000000000000000000000000000000000000000000000000000000000000000000000010E0CD
:392814000000000000000016000000000000000000000000000000000000000000000000000000000000000000000000000000000000000000000080886D
:39284D0004000000000000080000000000000000000000000000000000000000000000000000000000000000000000000000000000000000000000308690
:392886000000000000000010000000000000000000000000000000000000000000000000000000000000000000000000000000000000000000000080E8A1
:3928BF001000000000000000000000000000000000000000000000000000000000000000000000000000000000000000000000000000000000000080F858
:3928F8002000048000100002400008000120000480001000000000000000000000000000000000800010000240000800012000048000100002400080F9AA
:392931000000000000000000000000000000000000000000000000000000000000000000000000000000000000000000000000000000000000000080F9F4
:39296A002C00048000100002400008000120000480001000000000000000000000000000000000800010000240000800012000048000100002400010ACE8
:3929A3000400000004000010000000000000010000000000000000000000000000000000000000000000000000000000000000000000800010000230E53B
:3929DC002000040000100000400008000100000480001000000000000000000000000000000000800010000240000800012000048000000000000080832F
:392A15000C000000000000000000000000000000000000000000000000000000000000000000000000000000000000000000000000000000000000209FBD
:392A4E002000048000100002400008000120000480001000000000000000000000000000000000800010000240000800012000048000100002400080F952
:392A87000000000000000000000000000000000000000000000000000000000000000000000000000000000000000000000000000000000000000080F99D
:392AC0000000000000000000000000000000000000000000000000000000000000000000000000000000000000000000000000000000000000000080F964
:392AF9000000000000000000000000000000000000000000000000000000000000000000000000000000000000000000000000000000000000000080F92B
:392B32000000000000000000000000000000000000000000000000000000000000000000000000000000000000000000000000000000000000000080F9F1
:392B6B000200000000000000000000000000000000000000000000000000000000000000000000000000000000000000000000000000000000000080DBD4
:392BA4000000000000000000000000000000000000000000000000000000000000000000000000000000000000000000000000000000000000000090E880
:392BDD000000000000000000000000000000000000000000000000000000000000000000000000000000000000000000000000000000010000000080F846
:392C16000000000000000000000000000000000000000000000000000000000000000000000000000000000000000000000000000000000008000000F18C
:392C4F000000000000000000000000000000000000000000000000000000000000000000000000000000000000000000000000000000020002000080DBED
:392C880000000000000000000000000000000050000000000000000000000000000000000000000000000000000000000000000000200000400000C0DEC5
:392CC1000000000000000000000000000000001000000000000000000000000000000000000000000000000000000000000000000000000000000080F852
:392CFA000200000000000000000000000000000000000000000000000000000000000000000000000000000000000000000000000000000000000090CA45
:392D33000000000000000000000000000000000000000000000000000000000000000000000000000000000000000000000000000000000000000080F9EE
:392D6C000000000000000000000000000000000000000000000000000000000000000000000000000000000000000000000000000000000000000080F9B5
:392DA5000000000000000000000000000000000000000000000000000000000000000000000000000000000000000000000000000000000000000080F97C
:392DDE000000000000000000000000000000000000000000000000000000000000000000000000000000000000000000000000000000000000000080F943
:392E17000000000000000000000000000000000000000000000000000000000000000000000000000000000000000000000000000000000000000080F909
:392E50000000000000000000000000000000000000000000000000000000000000000000000000000000000000000000000000000000000000000080F9D0
:392E89000000000000000000000000000000000000000000000000000000000000000000000000000000000000000000000000000000000010000080E898
:392EC2000000000002000000000000000000000000000000000000000000000000000000000000000000000000000000000000000000000000000080D97C
:392EFB000000000000000000000000000000000000000000000000000000000000000000000000000000000000000000000000000000000000000080F925
:392F34000000000000000008000000000000000000000000000000000000000000000000000000000000000000000000000000000000000000000000F16B
:392F6D000200000000000000000000000000000000000000000000000000000000000000000000000000000000000000000000000000000000000080DBCE
:392FA6000000000000000000000000000000000000000000000000000000000000000000000000000000000000000000000000000000000008000000F1F9
:392FDF000800000000000000000000000000000000000000000000000000000000000000000000000000000000000000000000000000000002000000D9D6
:393018000000000000002808000000000000000000000000000000000000000000000000000000000000000000000000000000000000000000008080FB54
:393051000000000000002008000000000000000000000000000000000000000000000000000000000000000000000000000000000000000000004000F7E7
:39308A000000000000000000000000000000000000000000000000000000000000000000000000000000000000000000000000000000000000000080F994
:3930C3000000000000000000000000000000000000000000000000000000000000000000000000000000000000000000000000000000000000000080F95B
:3930FC000000000000000000000000000000000000000000000000000000000000000000000000000000000000000000000000000000000000000081E931
:393135000000000000000000000000000000000000000000000000000000000000000000000000000000000000000000000000000000000000000080F9E8
:39316E000000000000000000000000000000000000000000000000000000000000000000000000000000000000000000000000000000000000000080F9AF
:3931A7000000000000000000000000000000000000000000000000000000000000000000000000000000000000000000000000000000000000000048B5F2
:3931E0000000000000000000000000000000000000000000000000000000000000000000000000000000000000000000000000000000000000000090E83E
:393219000000000000000000000000000020000000000000000000000000000000000000000000000000000000000000000000000000000000000080DB01
:393252000000000000000000000000000000000000000000000000000000000000000000000000000000000000000000000000000000000000000080F9CA
:39328B000000000000000000000000000000000000000000000000000000000000000000000000000000000000000000000000000000000000000080F991
:3932C4000800000000000000000000000000000000000000000000000000000000000000000000000000000000000000000000000000008000000000F158
:3932FD000000000000000000000000000000000000000000000000000000000000000000000000000000000000000000000000000000000000000080F91F
:393336000000000000000000000000000000000000000000000000000000000000000000000000000000000000000000000000000000000000000080F9E5
:39336F000000000000000000000000004500000000000000000000000000000000000000000000000000000000000000000000000000000000000080A8B8
:3933A8000000000000000000000000000804000000000000000000000000000000000000000000000000000000000000000000000000000000000000B927
:3933E10000000000000000000000000007000000000000000000000000000000000000000000000000000000000000000000000000000000000000808E9E
:39341A000000000000000000000000000900000000000000000000000000000000000000000000000000000000000000000000000000000000000000E888
:393453000000000000000000000000000400000000000000000000000000000000000000000000000000000000000000000000000000000000000080BDFF
:39348C000000000000000000000000000B00000000000000000000000000000000000000000000000000000000000000000000000000000000000000CA32
:3934C5000000000000000000000000000400000000000000000000000000000000000000000000000000000000000000000000000000000000000080BD8D
:3934FE000000000000000000000000000800000000000000000000000000000000000000000000000000000000000000000000000000000000000000F994
:393537001000000000000000000000000000000000000000000000000000000000000000000000000000000000000000000000000000000000000080F8D3
:393570000000000000000000000000000000000000000000000000000000000000000000000000000000000000000000000000000000000000000080F9A9
:3935A9000000000000000000000000000000000000000000000000000000000000000000000000000000000000000000000000000000000000000080F970
:3935E2000C000000000000000000000000000000000000000000000000000000000000000000000000000000000000000000000000000000000000209FE5
:39361B000400000000000000000000000000000000000000000000000000000000000000000000000000000000000000000000000000000000000080BD35
:393654000000000000000000000000000000000000000000000000000000000000000000000000000000000000000000000000000000000000000080F9C4
:39368D000C00000000000000000000000000000000000000000000000000000000000000000000000000000000000000000000000000000000000010AC3C
:3936C6000000000000000000000000000000000000000000000000000000000000000000000000000000000000000000000000000000000000000080F952
:3936FF000000000000000000000000000000000000000000000000000000000000000000000000000000000000000000000000000000000000000080F919
:393738000000000000000000000000000000000000000000000000000000000000000000000000000000000000000000000000000000000000000080F9DF
:393771000000000000000000000000000000000000000000000000000000000000000000000000000000000000000000000000000000000000000080F9A6
:3937AA000400000000000000000000000000000000000000000000000000000000000000000000000000000000000000000000000000000000000090ACA6
:3937E3000C000000000000000000000000000000000000000000000000000000000000000000000000000000000000000000000000000000000000308EE3
:39381C000000000000000000000000000000000000000000000000000000000000000000000000000000000000000000000000000000000000000080F9FA
:393855000800000000000000000000000000000000000000000000000000000000000000000000000000000000000000000000000000000000000020DB37
:39388E000000000000000000000000000000000000000000000000000000000000000000000000000000000000000000000000000000000000000080F988
:3938C7000000000000000000000000000000000400000000000000000000000000000000000000000000000000000000851000000000000000000000B17E
:393900000000000000000000000000000000000000000000000000000000000000000000000000000000000000000000080000000000000000000080F115
:393939000000000000000000000000000000000000000000000000000000000000000000000000000000000000000000070000000000000000000080FED0
:393972000800000000000000000000000000000000000000000000000000000000000000000000000000000000000000090000000000000000000020D219
:3939AB000000000000000000000000000000000009000000000000000000000000000000000000000000000000000000040000000000000000000000E5F1
:3939E4000000000000000000000000000000000C000000000000000000000000000000000000000000000000000000000B0000000000000000000000B6DD
:393A1D000400000000000000000000000000003010000000000000000000000000000000000000000000000000000000040000000000000000000090BADE
:393A56000000000000000000000000000000003002000000000000000000000000000000000000000000000000000000080000000000000000000080D2AB
:393A8F0010000000000000000000000000000014842200000000000000000000000000000000000000000000000000000000000000000000000000409B59
:393AC8000000000000000000000000000000002000040200000000000000000000000000000000000000000000000000000000000000000000000080DD42
:393B01000000000000000000000000000000001C80030000000000000000000000000000000000000000000000000000000000000000000000000080BFAD
:393B3A000C000000000000000000000000000024800400000000000000000000000000000000000000000000000000000000000000000000000000B0CC22
:393B73000400000000000000000000000000001000020000000000000000000000000000000000000000000000000000000000000000000000000090AFC4
:393BAC000000000000000000000000000000002C80050000000000000000000000000000000000000000000000000000000000000000000000000080BAF5
:393BE5000C000000000000000000000000000010000200000000000000000000000000000000000000000000000000000000000000000000000000308DCC
:393C1E000000000000000000000000000000002000040000000000000000000000000000000000000000000000000000000000000000000000000080FFCA
:393C57000000000000000000000000000000009400005044000000000000000000000000000000000000000000000000000000000000000000000080B5D7
:393C90000000000000000000000000000000002010008000000000000000000000000000000000000000000000000000000000000000000000000080E2E9
:393CC9000000000000000000000000000000001C00007000000000000000000000000000000000000000000000000000000000000000000000000000BB7B
:393D020008000000000000000000000000000024000090000000000000000000000000000000000000000000000000000000000000000000000000209418
:393D3B000000000000000000000000000000001000004000000000000000000000000000000000000000000000000000000000000000000000000080FC83
:393D74000000000000000000000000000000002C0000B000000000000000000000000000000000000000000000000000000000000000000000000000B486
:393DAD000400000000000000000000000000001000004000000000000000000000000000000000000000000000000000000000000000000000000090A950
:393DE6000000000000000000000000000000002000008000000000000000000000000000000000000000000000000000000000000000000000000080F391
:393E1F001000000000000000000000000000000400000000000000000000000000000000000000000000000000000000000000000000000000000080BC1A
:393E58000000000000000000000000000000000000000000000000000000000000000000000000000000000000000000000000000000000000000080F9B8
:393E91000000000000000000000000000000000000000000000000000000000000000000000000000000000000000000000000000000000000000080F97F
:393ECA000C00000000000000000000000000000000000000000000000000000000000000000000000000000000000000000000000000000000000010ACF7
:393F030004000000000000000000000000000080080000000000000000000000000000000000000000000000000000000000000000000000000000308E3B
:393F3C000000000000000000000000000000000C00000000000000000000000000000000000000000000000000000000000000000000000000000000BD83
:393F75000C000000000000000000000000000030100000000000000000000000000000000000000000000000000000000000000000000000000000208D1A
:393FAE000000000000000000000000000000003002000000000000000000000000000000000000000000000000000000000000000000000000000080DA4E
:393FE7001000000000000000000000000000001406000000000000000000000000000000000000000050000100000000000000000000000000000080990D
:394020000000000000000000000000000000002000000000000000000000000000000000000000000080000000000000000000000000000000000000FBCC
:394059000000000000000000000000000000001C00000000000000000000000000000000000000000070000000000000000000000000000000000000CBD7
:394092000C000000000000000000000000000024000000000000000000000000000000000000000000900000000000000000000000000000000000A0C8CD
:3940CB000400000000000000000000000000001000000000000000000000000000000000000000000040000000000000000000000000000000000080F8F0
:394104000000000000000000000000000000002C000000000000000000000000000000000000000000B00000000000000000000000000000000000808C9A
:39413D000C00000000000000000000000000001000000000000000000000000000000000000000000040000000000000000000000000000000000010E9F4
:394176000000000000000000000000000000002000000000000000000000000000000000000000000080000000000000000000000000000000000000FB75
:3941AF0010000000000000000000000000000000000000000000000000000000000000000000000000000000000000000000000000000000000000C0BC4B
:3941E8002000048000100002400008000120000480001000000000000000000000000000000000800010000240000800012000048000100002400080F9A1
:394221000000000000000000000000000000000000000000000000000000000000000000000000000000000000000000000000000000000000000080F9EB
:39425A002C000480001000024000080001200004800010000000000000000000000000000000008000100002400008000120000480001000024000308EDD
:394293000400000000000000000000000800002000048000000000000000000000000000000000000080000000000000080000000000000000000090AA80
:3942CC002000048000100002400008000020000000000000000000000000000000000000000000800000000240000800002000048000100002400000BD1E
:394305000C000000000000000000000000000000000000000000000000000000000000000000000000000000000000000000000000000000000000308EB5
:39433E002000048000100002400008000120000480001000000000000000000000000000000000800010000240000800012000048000100002400080F949
:394377000000000000000000000000000000000000000000000000000000000000000000000000000000000000000000000000000000000000000080F994
:3943B0000000000000000000000000000000000000000000000000000000000000000000000000000000000000000000000000000000000000000080F95B
:3943E9000000000000000000000000000000000000040000000000000000000000000000000000000000000000000000000000000000000000000080FD1A
:394422001000000000000000000000000000000000004000000000000000000000000000000000000000000000000000000000000000000000000080FC95
:39445B000000000000000000000000000000000000000000000000000000000000000000000000000000000000000000000000000000000000000080F9AF
:394494000000000000000000000000000000000000000000000000000000000000000000000000000000000000000000000000000000000000000080F976
:3944CD000000000000000000000000100000000000000000000000000000000000000000000000000000000000000000000000000000000000000080E93D
:394506000200000000000000000000000000000000000000000000000000000000000000000000000000000000000000000000000000000000000080DB1F
:39453F000000000000000000000000200000000000000000000000000000000000000000000000000000000000000000000000000000000000000080D9CA
:39457800000010000040000000002002008002000000000000000000000000000000000000000000000000000000C0000000000000000000000000888F3F
:3945B1000000200000800000000040000080000000000000000000000000000000000000000000000000000000000000000000000000000000000080955C
:3945EA000200000000000000000000000000000000000000000000000000000000000000000000000000000000002000000000000000000000000008D19D
:394623000000000000000000000000000000000000000000000000000000000000000000000000000000000000000000000000000000000000000080F9E5
:39465C000000000000000000000000000000000000000000000000000000000000000000000000000000000000000000000000000000000000000080F9AC
:394695000000000000000000000000000000000000000000000000000000000000000000000000000000000000000000000000000000000000000080F973
:3946CE000000000000000000000000000000001000000000000000000000000000000000000000000000000000000000000000000000000000000080F82B
:394707000000000000000000000000000000000000000000000000000000000000000000000000000000000000000000000000000000000000000080F900
:394740000000000000000000000000000000000000000000000000000000000000000000000000000000000000000000000000000000000000000080F9C7
:394779000000000000000000000000000000000000000000000000000000000000000000000000000000000000000000000000000000000000000080F98E
:3947B2000000000000000000000000000000000000000000000000000000000000000000000000000000000000000000000000000000000000000080F955
:3947EB000000000000000000000000000800000400000000000000000000000000000000000000000000000000000000000000000000000000000000BDCC
:394824000000000000000000000000000000002000000000000000000000000000000000000000000000000000000000000800000000000000000000FB38
:39485D000000000000000000000000000000000000000000000000000000000000000000000000000000000000000000000000000000000000000080F9A9
:394896000000000000000000000000000000001000000000000000000000000000000000000000000000000000000000000000000000000000000080F861
:3948CF0008000000000000000000000000000004000000000000000000000000000000000000000000000000000000000000000000000000000000209FE5
:394908000C00000000000000004000000080020000002021000000000000000000000000000000000A00000000000000000000000000000000000088A134
:394941000000000000000000000000000080000000000020000000000000000000000000000000000200000000000000000000000000000000000000F9A2
:39497A000000000000000000004000000000000000000000000000000000000000000000000000000000000000000000000000000000000000000080FD47
:3949B3000000000000000000000000000000000000000000000000000000000000000000000000000000800000000000000000000000000000000000F15A
:3949EC000000000000000000000000000000000000000000000000000000000000000000000000000000000000000000000000000000000000000080F919
:394A25000000000000000000000000000000000000000000000000000000000000000000000000000000000000000000000000000000000000000080F9DF
:394A5E000000000000000000000000000000000000000000000000000000000000000000000000000000000000000000000000000000000000000080F9A6
:394A970000000000000000000000000000000000000000000000000000000000000000000000000000000000000000000000000000000000000000A0DB6B
:394AD0000400000000000000000000000000000000000000000000000000000000000000000000000000000000000000000000000000000000000080BD6C
:394B09000000000000000000000000000000000000000000000000000000000000000000000000000000000000000000000000000000000000000080F9FA
:394B42000800000000000000000000000000000400000000000000000000000000000000000000000000000000000000000000000000000000000088B5F1
:394B7B000000000000000000000000000000000000000000000000000000000000000000000000000000000000000000000000000000000000000080F988
:394BB4000200000000000000000000000000000000000000000000000000000000000000000000000000000000000000000000000000000000000080DB6B
:394BED000000000000000000000000000000000000000000000000000000000000000000000000000000000000000000000000000000000000000080F916
:394C26000000000000000000000000000000000000000000000000000000000000000000000000000000000000000000000000000000000000000080F9DC
:394C5F000000000000000000000000000000000000008004000000000000000000000000000000000000000000000000000000000000000000000080B167
:394C98000000000000000000000000000000000000000010000000000000000000000000000000000000000000000000000000000000000000000080E86B
:394CD1000000000000000000000000000000000000000000000000000000000000000000000000000000000000000000000000000000000000000080F931
:394D0A000000000000000000000000000000000000000000000000000000000000000000000000000000000000000000000000000000000000000080F9F7
:394D4300001240025400092001548004900012400248001D000000000000000000000000000000004800092001248004900012400248000920015400F18F
:394D7C00000C8081260006C000C8020360000C800130002600000000000000000000000000000000300006C00018000360000C8001300006C000C882A215
:024DB500FFFFFE
:00000001FF
